{
  "contractName": "Certification",
  "abi": [
    {
      "anonymous": false,
      "inputs": [
        {
          "indexed": false,
          "internalType": "address",
          "name": "addr",
          "type": "address"
        }
      ],
      "name": "ContractRegistryAddressUpdated",
      "type": "event"
    },
    {
      "anonymous": false,
      "inputs": [
        {
          "indexed": true,
          "internalType": "address",
          "name": "previousFunctionalOwner",
          "type": "address"
        },
        {
          "indexed": true,
          "internalType": "address",
          "name": "newFunctionalOwner",
          "type": "address"
        }
      ],
      "name": "FunctionalOwnershipTransferred",
      "type": "event"
    },
    {
      "anonymous": false,
      "inputs": [
        {
          "indexed": false,
          "internalType": "address",
          "name": "guardian",
          "type": "address"
        },
        {
          "indexed": false,
          "internalType": "bool",
          "name": "isCertified",
          "type": "bool"
        }
      ],
      "name": "GuardianCertificationUpdate",
      "type": "event"
    },
    {
      "anonymous": false,
      "inputs": [],
      "name": "Locked",
      "type": "event"
    },
    {
      "anonymous": false,
      "inputs": [
        {
          "indexed": true,
          "internalType": "address",
          "name": "previousMigrationOwner",
          "type": "address"
        },
        {
          "indexed": true,
          "internalType": "address",
          "name": "newMigrationOwner",
          "type": "address"
        }
      ],
      "name": "MigrationOwnershipTransferred",
      "type": "event"
    },
    {
      "anonymous": false,
      "inputs": [],
      "name": "Unlocked",
      "type": "event"
    },
    {
      "constant": false,
      "inputs": [],
      "name": "claimFunctionalOwnership",
      "outputs": [],
      "payable": false,
      "stateMutability": "nonpayable",
      "type": "function"
    },
    {
      "constant": false,
      "inputs": [],
      "name": "claimMigrationOwnership",
      "outputs": [],
      "payable": false,
      "stateMutability": "nonpayable",
      "type": "function"
    },
    {
      "constant": true,
      "inputs": [],
      "name": "functionalOwner",
      "outputs": [
        {
          "internalType": "address",
          "name": "",
          "type": "address"
        }
      ],
      "payable": false,
      "stateMutability": "view",
      "type": "function"
    },
    {
      "constant": true,
      "inputs": [],
      "name": "getBootstrapRewardsWallet",
      "outputs": [
        {
          "internalType": "contract IProtocolWallet",
          "name": "",
          "type": "address"
        }
      ],
      "payable": false,
      "stateMutability": "view",
      "type": "function"
    },
    {
      "constant": true,
      "inputs": [],
      "name": "getCertificationContract",
      "outputs": [
        {
          "internalType": "contract ICertification",
          "name": "",
          "type": "address"
        }
      ],
      "payable": false,
      "stateMutability": "view",
      "type": "function"
    },
    {
      "constant": true,
      "inputs": [],
      "name": "getCommitteeContract",
      "outputs": [
        {
          "internalType": "contract ICommittee",
          "name": "",
          "type": "address"
        }
      ],
      "payable": false,
      "stateMutability": "view",
      "type": "function"
    },
    {
      "constant": true,
      "inputs": [],
      "name": "getDelegationsContract",
      "outputs": [
        {
          "internalType": "contract IDelegations",
          "name": "",
          "type": "address"
        }
      ],
      "payable": false,
      "stateMutability": "view",
      "type": "function"
    },
    {
      "constant": true,
      "inputs": [],
      "name": "getElectionsContract",
      "outputs": [
        {
          "internalType": "contract IElections",
          "name": "",
          "type": "address"
        }
      ],
      "payable": false,
      "stateMutability": "view",
      "type": "function"
    },
    {
      "constant": true,
      "inputs": [],
      "name": "getGuardiansRegistrationContract",
      "outputs": [
        {
          "internalType": "contract IGuardiansRegistration",
          "name": "",
          "type": "address"
        }
      ],
      "payable": false,
      "stateMutability": "view",
      "type": "function"
    },
    {
      "constant": true,
      "inputs": [],
      "name": "getProtocolContract",
      "outputs": [
        {
          "internalType": "contract IProtocol",
          "name": "",
          "type": "address"
        }
      ],
      "payable": false,
      "stateMutability": "view",
      "type": "function"
    },
    {
      "constant": true,
      "inputs": [],
      "name": "getRewardsContract",
      "outputs": [
        {
          "internalType": "contract IRewards",
          "name": "",
          "type": "address"
        }
      ],
      "payable": false,
      "stateMutability": "view",
      "type": "function"
    },
    {
      "constant": true,
      "inputs": [],
      "name": "getStakingContract",
      "outputs": [
        {
          "internalType": "contract IStakingContract",
          "name": "",
          "type": "address"
        }
      ],
      "payable": false,
      "stateMutability": "view",
      "type": "function"
    },
    {
      "constant": true,
      "inputs": [],
      "name": "getStakingRewardsWallet",
      "outputs": [
        {
          "internalType": "contract IProtocolWallet",
          "name": "",
          "type": "address"
        }
      ],
      "payable": false,
      "stateMutability": "view",
      "type": "function"
    },
    {
      "constant": true,
      "inputs": [],
      "name": "getSubscriptionsContract",
      "outputs": [
        {
          "internalType": "contract ISubscriptions",
          "name": "",
          "type": "address"
        }
      ],
      "payable": false,
      "stateMutability": "view",
      "type": "function"
    },
    {
      "constant": true,
      "inputs": [],
      "name": "isFunctionalOwner",
      "outputs": [
        {
          "internalType": "bool",
          "name": "",
          "type": "bool"
        }
      ],
      "payable": false,
      "stateMutability": "view",
      "type": "function"
    },
    {
      "constant": true,
      "inputs": [],
      "name": "isMigrationOwner",
      "outputs": [
        {
          "internalType": "bool",
          "name": "",
          "type": "bool"
        }
      ],
      "payable": false,
      "stateMutability": "view",
      "type": "function"
    },
    {
      "constant": false,
      "inputs": [],
      "name": "lock",
      "outputs": [],
      "payable": false,
      "stateMutability": "nonpayable",
      "type": "function"
    },
    {
      "constant": true,
      "inputs": [],
      "name": "locked",
      "outputs": [
        {
          "internalType": "bool",
          "name": "",
          "type": "bool"
        }
      ],
      "payable": false,
      "stateMutability": "view",
      "type": "function"
    },
    {
      "constant": true,
      "inputs": [],
      "name": "migrationOwner",
      "outputs": [
        {
          "internalType": "address",
          "name": "",
          "type": "address"
        }
      ],
      "payable": false,
      "stateMutability": "view",
      "type": "function"
    },
    {
      "constant": false,
      "inputs": [],
      "name": "renounceFunctionalOwnership",
      "outputs": [],
      "payable": false,
      "stateMutability": "nonpayable",
      "type": "function"
    },
    {
      "constant": false,
      "inputs": [],
      "name": "renounceMigrationOwnership",
      "outputs": [],
      "payable": false,
      "stateMutability": "nonpayable",
      "type": "function"
    },
    {
      "constant": false,
      "inputs": [
        {
          "internalType": "contract IContractRegistry",
          "name": "_contractRegistry",
          "type": "address"
        }
      ],
      "name": "setContractRegistry",
      "outputs": [],
      "payable": false,
      "stateMutability": "nonpayable",
      "type": "function"
    },
    {
      "constant": false,
      "inputs": [
        {
          "internalType": "address",
          "name": "newFunctionalOwner",
          "type": "address"
        }
      ],
      "name": "transferFunctionalOwnership",
      "outputs": [],
      "payable": false,
      "stateMutability": "nonpayable",
      "type": "function"
    },
    {
      "constant": false,
      "inputs": [
        {
          "internalType": "address",
          "name": "newMigrationOwner",
          "type": "address"
        }
      ],
      "name": "transferMigrationOwnership",
      "outputs": [],
      "payable": false,
      "stateMutability": "nonpayable",
      "type": "function"
    },
    {
      "constant": false,
      "inputs": [],
      "name": "unlock",
      "outputs": [],
      "payable": false,
      "stateMutability": "nonpayable",
      "type": "function"
    },
    {
      "constant": true,
      "inputs": [
        {
          "internalType": "address",
          "name": "addr",
          "type": "address"
        }
      ],
      "name": "isGuardianCertified",
      "outputs": [
        {
          "internalType": "bool",
          "name": "isCertified",
          "type": "bool"
        }
      ],
      "payable": false,
      "stateMutability": "view",
      "type": "function"
    },
    {
      "constant": false,
      "inputs": [
        {
          "internalType": "address",
          "name": "addr",
          "type": "address"
        },
        {
          "internalType": "bool",
          "name": "isCertified",
          "type": "bool"
        }
      ],
      "name": "setGuardianCertification",
      "outputs": [],
      "payable": false,
      "stateMutability": "nonpayable",
      "type": "function"
    }
  ],
  "bytecode": "0x608060405260006100176001600160e01b036100c716565b600080546001600160a01b0319166001600160a01b0383169081178255604051929350917f7e8c4fc74f50849b4ec635ed03f5d13f87cd46ae422e97479704c6fd1c164e20908290a35060006100746001600160e01b036100c716565b600380546001600160a01b0319166001600160a01b038316908117909155604051919250906000907f322ef0cb3bcc6b6f659770a0acaf7473e9bc6ebe63e04e4f28924c285c8cc5ea908290a3506100cb565b3390565b611115806100da6000396000f3fe608060405234801561001057600080fd5b50600436106101a95760003560e01c80639b9a7e68116100f9578063bed1807d11610097578063ddc0d5d611610071578063ddc0d5d614610318578063ec5e178c14610320578063f83d08ba14610328578063fcd13d6514610330576101a9565b8063bed1807d146102e2578063cf309012146102ea578063dc8b6d73146102f2576101a9565b8063a69df4b5116100d3578063a69df4b5146102c2578063ab6acfc4146102ca578063ad751ed3146102d2578063b5f1c29d146102da576101a9565b80639b9a7e681461026e5780639f587d1c14610294578063a09e0d90146102ba576101a9565b80633b781309116101665780636cdb6746116101405780636cdb67461461024e5780637b93af4c146102565780638e68dce41461025e578063977d4e5a14610266576101a9565b80633b781309146102105780635282346d1461021857806357a5582e14610220576101a9565b8063021abb93146101ae57806311caadfb146101ca5780631dc669f4146101ee578063209df1e2146101f85780632c43bdd5146102005780633a88ab8e14610208575b600080fd5b6101b6610356565b604080519115158252519081900360200190f35b6101d261037a565b604080516001600160a01b039092168252519081900360200190f35b6101f661040e565b005b6101f661047e565b6101d261050b565b6101b661051a565b6101f6610531565b6101d26105be565b6101f66004803603604081101561023657600080fd5b506001600160a01b0381351690602001351515610623565b6101d2610787565b6101f66107f5565b6101d2610865565b6101d26108c6565b6101f66004803603602081101561028457600080fd5b50356001600160a01b031661092d565b6101f6600480360360208110156102aa57600080fd5b50356001600160a01b0316610992565b6101d26109f7565b6101f6610a5e565b6101d2610ad9565b6101d2610b3c565b6101d2610b9d565b6101d2610bff565b6101b6610c0e565b6101b66004803603602081101561030857600080fd5b50356001600160a01b0316610c1e565b6101d2610c3c565b6101d2610cab565b6101f6610d1b565b6101f66004803603602081101561034657600080fd5b50356001600160a01b0316610d9c565b600080546001600160a01b031661036b610e33565b6001600160a01b031614905090565b6002546040805163349f642f60e11b81526020600482018190526009602483015268656c656374696f6e7360b81b604483015291516000936001600160a01b03169263693ec85e9260648082019391829003018186803b1580156103dd57600080fd5b505afa1580156103f1573d6000803e3d6000fd5b505050506040513d602081101561040757600080fd5b5051905090565b6004546001600160a01b031633146104575760405162461bcd60e51b81526004018080602001828103825260298152602001806110b86029913960400191505060405180910390fd5b60045461046c906001600160a01b0316610e37565b600480546001600160a01b0319169055565b610486610356565b6104c15760405162461bcd60e51b8152600401808060200182810382526041815260200180610f9e6041913960600191505060405180910390fd5b600080546040516001600160a01b03909116907f7e8c4fc74f50849b4ec635ed03f5d13f87cd46ae422e97479704c6fd1c164e20908390a3600080546001600160a01b0319169055565b6000546001600160a01b031690565b6003546000906001600160a01b031661036b610e33565b61053961051a565b6105745760405162461bcd60e51b815260040180806020018281038252604381526020018061103f6043913960600191505060405180910390fd5b6003546040516000916001600160a01b0316907f322ef0cb3bcc6b6f659770a0acaf7473e9bc6ebe63e04e4f28924c285c8cc5ea908390a3600380546001600160a01b0319169055565b6002546040805163349f642f60e11b8152602060048201819052600b60248301526a64656c65676174696f6e7360a81b604483015291516000936001600160a01b03169263693ec85e9260648082019391829003018186803b1580156103dd57600080fd5b61062b61051a565b6106665760405162461bcd60e51b815260040180806020018281038252604381526020018061103f6043913960600191505060405180910390fd5b600454600160a01b900460ff16156106af5760405162461bcd60e51b8152600401808060200182810382526025815260200180610f796025913960400191505060405180910390fd5b6001600160a01b038216600081815260056020908152604091829020805460ff191685151590811790915582519384529083015280517f10066a997a3cce45646e9584ea21d79351303d3489db0a659324097fd8563f919281900390910190a161071761037a565b60408051631ce6cdb960e31b81526001600160a01b03858116600483015284151560248301529151929091169163e7366dc89160448082019260009290919082900301818387803b15801561076b57600080fd5b505af115801561077f573d6000803e3d6000fd5b505050505050565b6002546040805163349f642f60e11b815260206004820181905260146024830152731cdd185ada5b99d4995dd85c991cd5d85b1b195d60621b604483015291516000936001600160a01b03169263693ec85e9260648082019391829003018186803b1580156103dd57600080fd5b6001546001600160a01b0316331461083e5760405162461bcd60e51b81526004018080602001828103825260288152602001806110176028913960400191505060405180910390fd5b600154610853906001600160a01b0316610ed8565b600180546001600160a01b0319169055565b6002546040805163349f642f60e11b815260206004820181905260076024830152667374616b696e6760c81b604483015291516000936001600160a01b03169263693ec85e9260648082019391829003018186803b1580156103dd57600080fd5b6002546040805163349f642f60e11b8152602060048201819052600d60248301526c737562736372697074696f6e7360981b604483015291516000936001600160a01b03169263693ec85e9260648082019391829003018186803b1580156103dd57600080fd5b61093561051a565b6109705760405162461bcd60e51b815260040180806020018281038252604381526020018061103f6043913960600191505060405180910390fd5b600480546001600160a01b0319166001600160a01b0392909216919091179055565b61099a610356565b6109d55760405162461bcd60e51b8152600401808060200182810382526041815260200180610f9e6041913960600191505060405180910390fd5b600180546001600160a01b0319166001600160a01b0392909216919091179055565b6002546040805163349f642f60e11b8152602060048201819052600d60248301526c31b2b93a34b334b1b0ba34b7b760991b604483015291516000936001600160a01b03169263693ec85e9260648082019391829003018186803b1580156103dd57600080fd5b610a66610356565b610aa15760405162461bcd60e51b8152600401808060200182810382526041815260200180610f9e6041913960600191505060405180910390fd5b6004805460ff60a01b191690556040517f19aad37188a1d3921e29eb3c66acf43d81975e107cb650d58cca878627955fd690600090a1565b6002546040805163349f642f60e11b81526020600482018190526009602483015268636f6d6d697474656560b81b604483015291516000936001600160a01b03169263693ec85e9260648082019391829003018186803b1580156103dd57600080fd5b6002546040805163349f642f60e11b815260206004820181905260076024830152667265776172647360c81b604483015291516000936001600160a01b03169263693ec85e9260648082019391829003018186803b1580156103dd57600080fd5b6002546040805163349f642f60e11b815260206004820181905260086024830152671c1c9bdd1bd8dbdb60c21b604483015291516000936001600160a01b03169263693ec85e9260648082019391829003018186803b1580156103dd57600080fd5b6003546001600160a01b031690565b600454600160a01b900460ff1681565b6001600160a01b031660009081526005602052604090205460ff1690565b6002546040805163349f642f60e11b8152602060048201819052601560248301527433bab0b93234b0b739a932b3b4b9ba3930ba34b7b760591b604483015291516000936001600160a01b03169263693ec85e9260648082019391829003018186803b1580156103dd57600080fd5b6002546040805163349f642f60e11b81526020600482018190526016602483015275189bdbdd1cdd1c985c14995dd85c991cd5d85b1b195d60521b604483015291516000936001600160a01b03169263693ec85e9260648082019391829003018186803b1580156103dd57600080fd5b610d23610356565b610d5e5760405162461bcd60e51b8152600401808060200182810382526041815260200180610f9e6041913960600191505060405180910390fd5b6004805460ff60a01b1916600160a01b1790556040517f0f2e5b6c72c6a4491efd919a9f9a409f324ef0708c11ee57d410c2cb06c0992b90600090a1565b610da4610356565b610ddf5760405162461bcd60e51b8152600401808060200182810382526041815260200180610f9e6041913960600191505060405180910390fd5b600280546001600160a01b0383166001600160a01b0319909116811790915560408051918252517ffea2d033438b968078a6264409d0104b5f3d2ce7b795afc74918e70f3534f22b9181900360200190a150565b3390565b6001600160a01b038116610e7c5760405162461bcd60e51b8152600401808060200182810382526038815260200180610fdf6038913960400191505060405180910390fd5b6003546040516001600160a01b038084169216907f322ef0cb3bcc6b6f659770a0acaf7473e9bc6ebe63e04e4f28924c285c8cc5ea90600090a3600380546001600160a01b0319166001600160a01b0392909216919091179055565b6001600160a01b038116610f1d5760405162461bcd60e51b81526004018080602001828103825260368152602001806110826036913960400191505060405180910390fd5b600080546040516001600160a01b03808516939216917f7e8c4fc74f50849b4ec635ed03f5d13f87cd46ae422e97479704c6fd1c164e2091a3600080546001600160a01b0319166001600160a01b039290921691909117905556fe636f6e7472616374206973206c6f636b656420666f722074686973206f7065726174696f6e57697468436c61696d61626c654d6967726174696f6e4f776e6572736869703a2063616c6c6572206973206e6f7420746865206d6967726174696f6e4f776e657246756e6374696f6e616c4f776e65723a206e65772066756e6374696f6e616c4f776e657220697320746865207a65726f206164647265737343616c6c6572206973206e6f74207468652070656e64696e67206d6967726174696f6e4f776e657257697468436c61696d61626c6546756e6374696f6e616c4f776e6572736869703a2063616c6c6572206973206e6f74207468652066756e6374696f6e616c4f776e65724d6967726174696f6e4f776e65723a206e6577206d6967726174696f6e4f776e657220697320746865207a65726f206164647265737343616c6c6572206973206e6f74207468652070656e64696e672066756e6374696f6e616c4f776e6572a265627a7a72315820e577f66b2010965d55618f44393a131e83d0829d03eb5ce48822365662577d0664736f6c63430005100032",
  "source": "pragma solidity 0.5.16;\n\nimport \"./spec_interfaces/ICertification.sol\";\nimport \"./ContractRegistryAccessor.sol\";\nimport \"./WithClaimableFunctionalOwnership.sol\";\n\ncontract Certification is ICertification, ContractRegistryAccessor, WithClaimableFunctionalOwnership, Lockable {\n\n    mapping (address => bool) guardianCertification;\n\n    /*\n     * External methods\n     */\n\n    function isGuardianCertified(address addr) external view returns (bool isCertified) {\n        return guardianCertification[addr];\n    }\n\n    function setGuardianCertification(address addr, bool isCertified) external onlyFunctionalOwner onlyWhenActive {\n        guardianCertification[addr] = isCertified;\n        emit GuardianCertificationUpdate(addr, isCertified);\n        getElectionsContract().guardianCertificationChanged(addr, isCertified);\n    }\n\n}\n",
  "sourcePath": "/Users/aviramstern/GolandProjects/orbs-ethereum-contracts-v2/contracts/Certification.sol",
  "compiler": {
    "name": "solc",
    "version": "0.5.16+commit.9c3226ce.Emscripten.clang"
  },
  "schemaVersion": "3.0.23",
  "updatedAt": "2020-08-06T21:58:43.667Z",
  "devdoc": {
    "methods": {
      "claimFunctionalOwnership()": {
        "details": "Allows the pendingFunctionalOwner address to finalize the transfer."
      },
      "claimMigrationOwnership()": {
        "details": "Allows the pendingMigrationOwner address to finalize the transfer."
      },
      "functionalOwner()": {
        "details": "Returns the address of the current functionalOwner."
      },
      "isFunctionalOwner()": {
        "details": "Returns true if the caller is the current functionalOwner."
      },
      "isMigrationOwner()": {
        "details": "Returns true if the caller is the current migrationOwner."
      },
      "migrationOwner()": {
        "details": "Returns the address of the current migrationOwner."
      },
      "renounceFunctionalOwnership()": {
        "details": "Leaves the contract without functionalOwner. It will not be possible to call `onlyOwner` functions anymore. Can only be called by the current functionalOwner.     * NOTE: Renouncing functionalOwnership will leave the contract without an functionalOwner, thereby removing any functionality that is only available to the functionalOwner."
      },
      "renounceMigrationOwnership()": {
        "details": "Leaves the contract without migrationOwner. It will not be possible to call `onlyOwner` functions anymore. Can only be called by the current migrationOwner.     * NOTE: Renouncing migrationOwnership will leave the contract without an migrationOwner, thereby removing any functionality that is only available to the migrationOwner."
      },
      "transferFunctionalOwnership(address)": {
        "details": "Allows the current functionalOwner to set the pendingOwner address.",
        "params": {
          "newFunctionalOwner": "The address to transfer functionalOwnership to."
        }
      },
      "transferMigrationOwnership(address)": {
        "details": "Allows the current migrationOwner to set the pendingOwner address.",
        "params": {
          "newMigrationOwner": "The address to transfer migrationOwnership to."
        }
      }
    }
  },
  "userdoc": {
    "methods": {}
  }
}