{
  "contractName": "Committee",
  "abi": [
    {
      "inputs": [
        {
          "internalType": "uint256",
          "name": "_maxCommitteeSize",
          "type": "uint256"
        },
        {
          "internalType": "uint32",
          "name": "maxTimeBetweenRewardAssignments",
          "type": "uint32"
        }
      ],
      "payable": false,
      "stateMutability": "nonpayable",
      "type": "constructor"
    },
    {
      "anonymous": false,
      "inputs": [
        {
          "indexed": false,
          "internalType": "address[]",
          "name": "addrs",
          "type": "address[]"
        },
        {
          "indexed": false,
          "internalType": "uint256[]",
          "name": "weights",
          "type": "uint256[]"
        },
        {
          "indexed": false,
          "internalType": "bool[]",
          "name": "certification",
          "type": "bool[]"
        }
      ],
      "name": "CommitteeSnapshot",
      "type": "event"
    },
    {
      "anonymous": false,
      "inputs": [
        {
          "indexed": false,
          "internalType": "address",
          "name": "addr",
          "type": "address"
        }
      ],
      "name": "ContractRegistryAddressUpdated",
      "type": "event"
    },
    {
      "anonymous": false,
      "inputs": [
        {
          "indexed": true,
          "internalType": "address",
          "name": "previousFunctionalOwner",
          "type": "address"
        },
        {
          "indexed": true,
          "internalType": "address",
          "name": "newFunctionalOwner",
          "type": "address"
        }
      ],
      "name": "FunctionalOwnershipTransferred",
      "type": "event"
    },
    {
      "anonymous": false,
      "inputs": [
        {
          "indexed": false,
          "internalType": "address",
          "name": "addr",
          "type": "address"
        },
        {
          "indexed": false,
          "internalType": "uint256",
          "name": "weight",
          "type": "uint256"
        },
        {
          "indexed": false,
          "internalType": "bool",
          "name": "certification",
          "type": "bool"
        },
        {
          "indexed": false,
          "internalType": "bool",
          "name": "inCommittee",
          "type": "bool"
        }
      ],
      "name": "GuardianCommitteeChange",
      "type": "event"
    },
    {
      "anonymous": false,
      "inputs": [],
      "name": "Locked",
      "type": "event"
    },
    {
      "anonymous": false,
      "inputs": [
        {
          "indexed": false,
          "internalType": "uint8",
          "name": "newValue",
          "type": "uint8"
        },
        {
          "indexed": false,
          "internalType": "uint8",
          "name": "oldValue",
          "type": "uint8"
        }
      ],
      "name": "MaxCommitteeSizeChanged",
      "type": "event"
    },
    {
      "anonymous": false,
      "inputs": [
        {
          "indexed": false,
          "internalType": "uint32",
          "name": "newValue",
          "type": "uint32"
        },
        {
          "indexed": false,
          "internalType": "uint32",
          "name": "oldValue",
          "type": "uint32"
        }
      ],
      "name": "MaxTimeBetweenRewardAssignmentsChanged",
      "type": "event"
    },
    {
      "anonymous": false,
      "inputs": [
        {
          "indexed": true,
          "internalType": "address",
          "name": "previousMigrationOwner",
          "type": "address"
        },
        {
          "indexed": true,
          "internalType": "address",
          "name": "newMigrationOwner",
          "type": "address"
        }
      ],
      "name": "MigrationOwnershipTransferred",
      "type": "event"
    },
    {
      "anonymous": false,
      "inputs": [],
      "name": "Unlocked",
      "type": "event"
    },
    {
      "constant": false,
      "inputs": [],
      "name": "claimFunctionalOwnership",
      "outputs": [],
      "payable": false,
      "stateMutability": "nonpayable",
      "type": "function"
    },
    {
      "constant": false,
      "inputs": [],
      "name": "claimMigrationOwnership",
      "outputs": [],
      "payable": false,
      "stateMutability": "nonpayable",
      "type": "function"
    },
    {
      "constant": true,
      "inputs": [
        {
          "internalType": "uint256",
          "name": "",
          "type": "uint256"
        }
      ],
      "name": "committee",
      "outputs": [
        {
          "internalType": "address",
          "name": "addr",
          "type": "address"
        },
        {
          "internalType": "uint96",
          "name": "weight",
          "type": "uint96"
        }
      ],
      "payable": false,
      "stateMutability": "view",
      "type": "function"
    },
    {
      "constant": true,
      "inputs": [],
      "name": "functionalOwner",
      "outputs": [
        {
          "internalType": "address",
          "name": "",
          "type": "address"
        }
      ],
      "payable": false,
      "stateMutability": "view",
      "type": "function"
    },
    {
      "constant": true,
      "inputs": [],
      "name": "getBootstrapRewardsWallet",
      "outputs": [
        {
          "internalType": "contract IProtocolWallet",
          "name": "",
          "type": "address"
        }
      ],
      "payable": false,
      "stateMutability": "view",
      "type": "function"
    },
    {
      "constant": true,
      "inputs": [],
      "name": "getCertificationContract",
      "outputs": [
        {
          "internalType": "contract ICertification",
          "name": "",
          "type": "address"
        }
      ],
      "payable": false,
      "stateMutability": "view",
      "type": "function"
    },
    {
      "constant": true,
      "inputs": [],
      "name": "getCommitteeContract",
      "outputs": [
        {
          "internalType": "contract ICommittee",
          "name": "",
          "type": "address"
        }
      ],
      "payable": false,
      "stateMutability": "view",
      "type": "function"
    },
    {
      "constant": true,
      "inputs": [],
      "name": "getDelegationsContract",
      "outputs": [
        {
          "internalType": "contract IDelegations",
          "name": "",
          "type": "address"
        }
      ],
      "payable": false,
      "stateMutability": "view",
      "type": "function"
    },
    {
      "constant": true,
      "inputs": [],
      "name": "getElectionsContract",
      "outputs": [
        {
          "internalType": "contract IElections",
          "name": "",
          "type": "address"
        }
      ],
      "payable": false,
      "stateMutability": "view",
      "type": "function"
    },
    {
      "constant": true,
      "inputs": [],
      "name": "getGuardiansRegistrationContract",
      "outputs": [
        {
          "internalType": "contract IGuardiansRegistration",
          "name": "",
          "type": "address"
        }
      ],
      "payable": false,
      "stateMutability": "view",
      "type": "function"
    },
    {
      "constant": true,
      "inputs": [],
      "name": "getProtocolContract",
      "outputs": [
        {
          "internalType": "contract IProtocol",
          "name": "",
          "type": "address"
        }
      ],
      "payable": false,
      "stateMutability": "view",
      "type": "function"
    },
    {
      "constant": true,
      "inputs": [],
      "name": "getRewardsContract",
      "outputs": [
        {
          "internalType": "contract IRewards",
          "name": "",
          "type": "address"
        }
      ],
      "payable": false,
      "stateMutability": "view",
      "type": "function"
    },
    {
      "constant": true,
      "inputs": [],
      "name": "getStakingContract",
      "outputs": [
        {
          "internalType": "contract IStakingContract",
          "name": "",
          "type": "address"
        }
      ],
      "payable": false,
      "stateMutability": "view",
      "type": "function"
    },
    {
      "constant": true,
      "inputs": [],
      "name": "getStakingRewardsWallet",
      "outputs": [
        {
          "internalType": "contract IProtocolWallet",
          "name": "",
          "type": "address"
        }
      ],
      "payable": false,
      "stateMutability": "view",
      "type": "function"
    },
    {
      "constant": true,
      "inputs": [],
      "name": "getSubscriptionsContract",
      "outputs": [
        {
          "internalType": "contract ISubscriptions",
          "name": "",
          "type": "address"
        }
      ],
      "payable": false,
      "stateMutability": "view",
      "type": "function"
    },
    {
      "constant": true,
      "inputs": [],
      "name": "isFunctionalOwner",
      "outputs": [
        {
          "internalType": "bool",
          "name": "",
          "type": "bool"
        }
      ],
      "payable": false,
      "stateMutability": "view",
      "type": "function"
    },
    {
      "constant": true,
      "inputs": [],
      "name": "isMigrationOwner",
      "outputs": [
        {
          "internalType": "bool",
          "name": "",
          "type": "bool"
        }
      ],
      "payable": false,
      "stateMutability": "view",
      "type": "function"
    },
    {
      "constant": false,
      "inputs": [],
      "name": "lock",
      "outputs": [],
      "payable": false,
      "stateMutability": "nonpayable",
      "type": "function"
    },
    {
      "constant": true,
      "inputs": [],
      "name": "locked",
      "outputs": [
        {
          "internalType": "bool",
          "name": "",
          "type": "bool"
        }
      ],
      "payable": false,
      "stateMutability": "view",
      "type": "function"
    },
    {
      "constant": true,
      "inputs": [],
      "name": "migrationOwner",
      "outputs": [
        {
          "internalType": "address",
          "name": "",
          "type": "address"
        }
      ],
      "payable": false,
      "stateMutability": "view",
      "type": "function"
    },
    {
      "constant": false,
      "inputs": [],
      "name": "renounceFunctionalOwnership",
      "outputs": [],
      "payable": false,
      "stateMutability": "nonpayable",
      "type": "function"
    },
    {
      "constant": false,
      "inputs": [],
      "name": "renounceMigrationOwnership",
      "outputs": [],
      "payable": false,
      "stateMutability": "nonpayable",
      "type": "function"
    },
    {
      "constant": false,
      "inputs": [
        {
          "internalType": "contract IContractRegistry",
          "name": "_contractRegistry",
          "type": "address"
        }
      ],
      "name": "setContractRegistry",
      "outputs": [],
      "payable": false,
      "stateMutability": "nonpayable",
      "type": "function"
    },
    {
      "constant": false,
      "inputs": [
        {
          "internalType": "address",
          "name": "newFunctionalOwner",
          "type": "address"
        }
      ],
      "name": "transferFunctionalOwnership",
      "outputs": [],
      "payable": false,
      "stateMutability": "nonpayable",
      "type": "function"
    },
    {
      "constant": false,
      "inputs": [
        {
          "internalType": "address",
          "name": "newMigrationOwner",
          "type": "address"
        }
      ],
      "name": "transferMigrationOwnership",
      "outputs": [],
      "payable": false,
      "stateMutability": "nonpayable",
      "type": "function"
    },
    {
      "constant": false,
      "inputs": [],
      "name": "unlock",
      "outputs": [],
      "payable": false,
      "stateMutability": "nonpayable",
      "type": "function"
    },
    {
      "constant": true,
      "inputs": [],
      "name": "getMinCommitteeMemberWeight",
      "outputs": [
        {
          "internalType": "uint96",
          "name": "",
          "type": "uint96"
        }
      ],
      "payable": false,
      "stateMutability": "view",
      "type": "function"
    },
    {
      "constant": false,
      "inputs": [
        {
          "internalType": "address",
          "name": "addr",
          "type": "address"
        },
        {
          "internalType": "uint256",
          "name": "weight",
          "type": "uint256"
        }
      ],
      "name": "memberWeightChange",
      "outputs": [
        {
          "internalType": "bool",
          "name": "committeeChanged",
          "type": "bool"
        }
      ],
      "payable": false,
      "stateMutability": "nonpayable",
      "type": "function"
    },
    {
      "constant": false,
      "inputs": [
        {
          "internalType": "address",
          "name": "addr",
          "type": "address"
        },
        {
          "internalType": "bool",
          "name": "isCertified",
          "type": "bool"
        }
      ],
      "name": "memberCertificationChange",
      "outputs": [
        {
          "internalType": "bool",
          "name": "committeeChanged",
          "type": "bool"
        }
      ],
      "payable": false,
      "stateMutability": "nonpayable",
      "type": "function"
    },
    {
      "constant": false,
      "inputs": [
        {
          "internalType": "address",
          "name": "addr",
          "type": "address"
        },
        {
          "internalType": "uint256",
          "name": "weight",
          "type": "uint256"
        },
        {
          "internalType": "bool",
          "name": "isCertified",
          "type": "bool"
        }
      ],
      "name": "addMember",
      "outputs": [
        {
          "internalType": "bool",
          "name": "committeeChanged",
          "type": "bool"
        }
      ],
      "payable": false,
      "stateMutability": "nonpayable",
      "type": "function"
    },
    {
      "constant": false,
      "inputs": [
        {
          "internalType": "address",
          "name": "addr",
          "type": "address"
        }
      ],
      "name": "removeMember",
      "outputs": [
        {
          "internalType": "bool",
          "name": "committeeChanged",
          "type": "bool"
        }
      ],
      "payable": false,
      "stateMutability": "nonpayable",
      "type": "function"
    },
    {
      "constant": true,
      "inputs": [],
      "name": "getCommittee",
      "outputs": [
        {
          "internalType": "address[]",
          "name": "addrs",
          "type": "address[]"
        },
        {
          "internalType": "uint256[]",
          "name": "weights",
          "type": "uint256[]"
        },
        {
          "internalType": "bool[]",
          "name": "certification",
          "type": "bool[]"
        }
      ],
      "payable": false,
      "stateMutability": "view",
      "type": "function"
    },
    {
      "constant": true,
      "inputs": [],
      "name": "_getCommittee",
      "outputs": [
        {
          "internalType": "address[]",
          "name": "addrs",
          "type": "address[]"
        },
        {
          "internalType": "uint256[]",
          "name": "weights",
          "type": "uint256[]"
        },
        {
          "internalType": "bool[]",
          "name": "certification",
          "type": "bool[]"
        }
      ],
      "payable": false,
      "stateMutability": "view",
      "type": "function"
    },
    {
      "constant": false,
      "inputs": [
        {
          "internalType": "uint32",
          "name": "maxTimeBetweenRewardAssignments",
          "type": "uint32"
        }
      ],
      "name": "setMaxTimeBetweenRewardAssignments",
      "outputs": [],
      "payable": false,
      "stateMutability": "nonpayable",
      "type": "function"
    },
    {
      "constant": false,
      "inputs": [
        {
          "internalType": "uint8",
          "name": "maxCommitteeSize",
          "type": "uint8"
        }
      ],
      "name": "setMaxCommittee",
      "outputs": [],
      "payable": false,
      "stateMutability": "nonpayable",
      "type": "function"
    },
    {
      "constant": true,
      "inputs": [],
      "name": "getCommitteeInfo",
      "outputs": [
        {
          "internalType": "address[]",
          "name": "addrs",
          "type": "address[]"
        },
        {
          "internalType": "uint256[]",
          "name": "weights",
          "type": "uint256[]"
        },
        {
          "internalType": "address[]",
          "name": "orbsAddrs",
          "type": "address[]"
        },
        {
          "internalType": "bool[]",
          "name": "certification",
          "type": "bool[]"
        },
        {
          "internalType": "bytes4[]",
          "name": "ips",
          "type": "bytes4[]"
        }
      ],
      "payable": false,
      "stateMutability": "view",
      "type": "function"
    },
    {
      "constant": true,
      "inputs": [],
      "name": "getSettings",
      "outputs": [
        {
          "internalType": "uint32",
          "name": "maxTimeBetweenRewardAssignments",
          "type": "uint32"
        },
        {
          "internalType": "uint8",
          "name": "maxCommitteeSize",
          "type": "uint8"
        }
      ],
      "payable": false,
      "stateMutability": "view",
      "type": "function"
    }
  ],
  "bytecode": "0x60806040523480156200001157600080fd5b50604051620033c4380380620033c4833981810160405260408110156200003757600080fd5b5080516020909101516000620000556001600160e01b03620001dc16565b600080546001600160a01b0319166001600160a01b0383169081178255604051929350917f7e8c4fc74f50849b4ec635ed03f5d13f87cd46ae422e97479704c6fd1c164e20908290a3506000620000b46001600160e01b03620001dc16565b600380546001600160a01b0319166001600160a01b038316908117909155604051919250906000907f322ef0cb3bcc6b6f659770a0acaf7473e9bc6ebe63e04e4f28924c285c8cc5ea908290a35060008211620001435760405162461bcd60e51b81526004018080602001828103825260268152602001806200339e6026913960400191505060405180910390fd5b6020821115620001855760405162461bcd60e51b81526004018080602001828103825260238152602001806200337b6023913960400191505060405180910390fd5b6040805180820190915263ffffffff821680825260ff841660209283018190526009805463ffffffff191690921760ff60201b1916640100000000909102179055620001d3600582620001e1565b5050506200022e565b335b90565b8154818355818111156200020857600083815260209020620002089181019083016200020d565b505050565b620001de91905b808211156200022a576000815560010162000214565b5090565b61313d806200023e6000396000f3fe608060405234801561001057600080fd5b50600436106102275760003560e01c80639b9a7e6811610130578063bed1807d116100b8578063ec5e178c1161007c578063ec5e178c1461070d578063f16847ee14610715578063f303931b1461071d578063f83d08ba1461073d578063fcd13d651461074557610227565b8063bed1807d14610693578063cf3090121461069b578063ddc0d5d6146106a3578063e272079f146106ab578063e66b9c1d146106df57610227565b8063ab6acfc4116100ff578063ab6acfc41461054d578063ab8f6ffe14610555578063ad751ed31461063b578063afe7fcf414610643578063b5f1c29d1461068b57610227565b80639b9a7e68146104f15780639f587d1c14610517578063a09e0d901461053d578063a69df4b51461054557610227565b80635dc2db53116101b357806370a03b7c1161018257806370a03b7c1461048c5780637b93af4c146104af57806385b4bb53146104b75780638e68dce4146104e1578063977d4e5a146104e957610227565b80635dc2db53146102c45780635e77fe20146102e857806368f52e50146104585780636cdb67461461048457610227565b8063209df1e2116101fa578063209df1e21461029c5780632c43bdd5146102a45780633a88ab8e146102ac5780633b781309146102b45780635282346d146102bc57610227565b8063021abb931461022c5780630b1ca49a1461024857806311caadfb1461026e5780631dc669f414610292575b600080fd5b61023461076b565b604080519115158252519081900360200190f35b6102346004803603602081101561025e57600080fd5b50356001600160a01b031661078f565b6102766108de565b604080516001600160a01b039092168252519081900360200190f35b61029a610972565b005b61029a6109e2565b610276610a6f565b610234610a7e565b61029a610a95565b610276610b22565b6102cc610b87565b604080516001600160601b039092168252519081900360200190f35b6102f0610bc5565b60405180806020018060200180602001806020018060200186810386528b818151815260200191508051906020019060200280838360005b83811015610340578181015183820152602001610328565b5050505090500186810385528a818151815260200191508051906020019060200280838360005b8381101561037f578181015183820152602001610367565b50505050905001868103845289818151815260200191508051906020019060200280838360005b838110156103be5781810151838201526020016103a6565b50505050905001868103835288818151815260200191508051906020019060200280838360005b838110156103fd5781810151838201526020016103e5565b50505050905001868103825287818151815260200191508051906020019060200280838360005b8381101561043c578181015183820152602001610424565b505050509050019a505050505050505050505060405180910390f35b6102346004803603604081101561046e57600080fd5b506001600160a01b038135169060200135610c02565b610276610e01565b61029a600480360360208110156104a257600080fd5b503563ffffffff16610e6f565b61029a610f13565b6104bf610f83565b6040805163ffffffff909316835260ff90911660208301528051918290030190f35b610276610fc0565b610276611021565b61029a6004803603602081101561050757600080fd5b50356001600160a01b0316611088565b61029a6004803603602081101561052d57600080fd5b50356001600160a01b03166110ed565b610276611152565b61029a6111b9565b610276611234565b61055d611297565b60405180806020018060200180602001848103845287818151815260200191508051906020019060200280838360005b838110156105a557818101518382015260200161058d565b50505050905001848103835286818151815260200191508051906020019060200280838360005b838110156105e45781810151838201526020016105cc565b50505050905001848103825285818151815260200191508051906020019060200280838360005b8381101561062357818101518382015260200161060b565b50505050905001965050505050505060405180910390f35b6102766112af565b6106606004803603602081101561065957600080fd5b5035611310565b604080516001600160a01b0390931683526001600160601b0390911660208301528051918290030190f35b610276611348565b6102766113aa565b6102346113b9565b6102766113c9565b610234600480360360608110156106c157600080fd5b506001600160a01b0381351690602081013590604001351515611438565b610234600480360360408110156106f557600080fd5b506001600160a01b03813516906020013515156115ae565b6102766116f4565b61055d611764565b61029a6004803603602081101561073357600080fd5b503560ff166119a1565b61029a611c1d565b61029a6004803603602081101561075b57600080fd5b50356001600160a01b0316611c9e565b600080546001600160a01b0316610780611d35565b6001600160a01b031614905090565b60006107996108de565b6001600160a01b0316336001600160a01b0316146107ec576040805162461bcd60e51b815260206004820152601b6024820152600080516020613021833981519152604482015290519081900360640190fd5b600454600160a01b900460ff16156108355760405162461bcd60e51b8152600401808060200182810382526025815260200180612f386025913960400191505060405180910390fd5b61083d612ed2565b506001600160a01b0382166000818152600660208181526040808420815160a08101835290546001600160601b038116825260ff600160601b8204811683860152600160681b8204811680151594840194909452600160701b8204811615156060840152600160781b909104161515608082015294909352526108c45760009150506108d9565b600060408201526108d58382611d39565b9150505b919050565b6002546040805163349f642f60e11b81526020600482018190526009602483015268656c656374696f6e7360b81b604483015291516000936001600160a01b03169263693ec85e9260648082019391829003018186803b15801561094157600080fd5b505afa158015610955573d6000803e3d6000fd5b505050506040513d602081101561096b57600080fd5b5051905090565b6004546001600160a01b031633146109bb5760405162461bcd60e51b81526004018080602001828103825260298152602001806130e06029913960400191505060405180910390fd5b6004546109d0906001600160a01b0316611f4e565b600480546001600160a01b0319169055565b6109ea61076b565b610a255760405162461bcd60e51b8152600401808060200182810382526041815260200180612f5d6041913960600191505060405180910390fd5b600080546040516001600160a01b03909116907f7e8c4fc74f50849b4ec635ed03f5d13f87cd46ae422e97479704c6fd1c164e20908390a3600080546001600160a01b0319169055565b6000546001600160a01b031690565b6003546000906001600160a01b0316610780611d35565b610a9d610a7e565b610ad85760405162461bcd60e51b81526004018080602001828103825260438152602001806130416043913960600191505060405180910390fd5b6003546040516000916001600160a01b0316907f322ef0cb3bcc6b6f659770a0acaf7473e9bc6ebe63e04e4f28924c285c8cc5ea908390a3600380546001600160a01b0319169055565b6002546040805163349f642f60e11b8152602060048201819052600b60248301526a64656c65676174696f6e7360a81b604483015291516000936001600160a01b03169263693ec85e9260648082019391829003018186803b15801561094157600080fd5b60075460058054600092600160201b900460ff16908110610ba457fe5b600091825260209091200154600160a01b90046001600160601b0316919050565b6060806060806060610bd5611764565b919650945091508484610be782611fef565b84610bf189612148565b945094509450945094509091929394565b6000610c0c6108de565b6001600160a01b0316336001600160a01b031614610c5f576040805162461bcd60e51b815260206004820152601b6024820152600080516020613021833981519152604482015290519081900360640190fd5b600454600160a01b900460ff1615610ca85760405162461bcd60e51b8152600401808060200182810382526025815260200180612f386025913960400191505060405180910390fd5b81826001600160601b031614610cfe576040805162461bcd60e51b8152602060048201526016602482015275776569676874206973206f7574206f662072616e676560501b604482015290519081900360640190fd5b610d06612ed2565b506001600160a01b038316600090815260066020908152604091829020825160a08101845290546001600160601b038116825260ff600160601b8204811693830193909352600160681b810483161515938201849052600160701b8104831615156060830152600160781b90049091161515608082015290610d8c576000915050610dfb565b6001600160601b0383168152608081015115610ded5780600001516005826020015160ff1681548110610dbb57fe5b9060005260206000200160000160146101000a8154816001600160601b0302191690836001600160601b031602179055505b610df78482611d39565b9150505b92915050565b6002546040805163349f642f60e11b815260206004820181905260146024830152731cdd185ada5b99d4995dd85c991cd5d85b1b195d60621b604483015291516000936001600160a01b03169263693ec85e9260648082019391829003018186803b15801561094157600080fd5b610e77610a7e565b610eb25760405162461bcd60e51b81526004018080602001828103825260438152602001806130416043913960600191505060405180910390fd5b6009546040805163ffffffff8085168252909216602083015280517f5b9a02ff58ad47ece44dcf2519fbd53eb4714516ee6e28c378e8bf2326166d759281900390910190a16009805463ffffffff191663ffffffff92909216919091179055565b6001546001600160a01b03163314610f5c5760405162461bcd60e51b8152600401808060200182810382526028815260200180612ff96028913960400191505060405180910390fd5b600154610f71906001600160a01b03166121ae565b600180546001600160a01b0319169055565b600080610f8e612f00565b50506040805180820190915260095463ffffffff8116808352600160201b90910460ff16602090920182905292909150565b6002546040805163349f642f60e11b815260206004820181905260076024830152667374616b696e6760c81b604483015291516000936001600160a01b03169263693ec85e9260648082019391829003018186803b15801561094157600080fd5b6002546040805163349f642f60e11b8152602060048201819052600d60248301526c737562736372697074696f6e7360981b604483015291516000936001600160a01b03169263693ec85e9260648082019391829003018186803b15801561094157600080fd5b611090610a7e565b6110cb5760405162461bcd60e51b81526004018080602001828103825260438152602001806130416043913960600191505060405180910390fd5b600480546001600160a01b0319166001600160a01b0392909216919091179055565b6110f561076b565b6111305760405162461bcd60e51b8152600401808060200182810382526041815260200180612f5d6041913960600191505060405180910390fd5b600180546001600160a01b0319166001600160a01b0392909216919091179055565b6002546040805163349f642f60e11b8152602060048201819052600d60248301526c31b2b93a34b334b1b0ba34b7b760991b604483015291516000936001600160a01b03169263693ec85e9260648082019391829003018186803b15801561094157600080fd5b6111c161076b565b6111fc5760405162461bcd60e51b8152600401808060200182810382526041815260200180612f5d6041913960600191505060405180910390fd5b6004805460ff60a01b191690556040517f19aad37188a1d3921e29eb3c66acf43d81975e107cb650d58cca878627955fd690600090a1565b6002546040805163349f642f60e11b81526020600482018190526009602483015268636f6d6d697474656560b81b604483015291516000936001600160a01b03169263693ec85e9260648082019391829003018186803b15801561094157600080fd5b60608060606112a4611764565b925092509250909192565b6002546040805163349f642f60e11b815260206004820181905260076024830152667265776172647360c81b604483015291516000936001600160a01b03169263693ec85e9260648082019391829003018186803b15801561094157600080fd5b6005818154811061131d57fe5b6000918252602090912001546001600160a01b0381169150600160a01b90046001600160601b031682565b6002546040805163349f642f60e11b815260206004820181905260086024830152671c1c9bdd1bd8dbdb60c21b604483015291516000936001600160a01b03169263693ec85e9260648082019391829003018186803b15801561094157600080fd5b6003546001600160a01b031690565b600454600160a01b900460ff1681565b6002546040805163349f642f60e11b8152602060048201819052601560248301527433bab0b93234b0b739a932b3b4b9ba3930ba34b7b760591b604483015291516000936001600160a01b03169263693ec85e9260648082019391829003018186803b15801561094157600080fd5b60006114426108de565b6001600160a01b0316336001600160a01b031614611495576040805162461bcd60e51b815260206004820152601b6024820152600080516020613021833981519152604482015290519081900360640190fd5b600454600160a01b900460ff16156114de5760405162461bcd60e51b8152600401808060200182810382526025815260200180612f386025913960400191505060405180910390fd5b82836001600160601b031614611534576040805162461bcd60e51b8152602060048201526016602482015275776569676874206973206f7574206f662072616e676560501b604482015290519081900360640190fd5b6001600160a01b038416600090815260066020526040902054600160681b900460ff1615611564575060006115a7565b6040805160a0810182526001600160601b038516815260ff60208201526001918101919091528215156060820152600060808201526115a4908590611d39565b90505b9392505050565b60006115b86108de565b6001600160a01b0316336001600160a01b03161461160b576040805162461bcd60e51b815260206004820152601b6024820152600080516020613021833981519152604482015290519081900360640190fd5b600454600160a01b900460ff16156116545760405162461bcd60e51b8152600401808060200182810382526025815260200180612f386025913960400191505060405180910390fd5b61165c612ed2565b506001600160a01b038316600090815260066020908152604091829020825160a08101845290546001600160601b038116825260ff600160601b8204811693830193909352600160681b810483161515938201849052600160701b8104831615156060830152600160781b900490911615156080820152906116e2576000915050610dfb565b8215156060820152610df78482611d39565b6002546040805163349f642f60e11b81526020600482018190526016602483015275189bdbdd1cdd1c985c14995dd85c991cd5d85b1b195d60521b604483015291516000936001600160a01b03169263693ec85e9260648082019391829003018186803b15801561094157600080fd5b6060806060611771612f17565b506040805160608101825260075463ffffffff811680835260ff600160201b83048116602080860191909152600160281b90930416838501819052845181815281840281019093019094529192908180156117d6578160200160208202803883390190505b50955080604051908082528060200260200182016040528015611803578160200160208202803883390190505b50945080604051908082528060200260200182016040528015611830578160200160208202803883390190505b50935060008061183e612ed2565b855163ffffffff1694505b8415611996578460011660011415611986576005828154811061186857fe5b60009182526020909120015489516001600160a01b03909116908a908590811061188e57fe5b60200260200101906001600160a01b031690816001600160a01b031681525050600660008a85815181106118be57fe5b6020908102919091018101516001600160a01b03168252818101929092526040908101600020815160a08101835290546001600160601b03811680835260ff600160601b8304811695840195909552600160681b82048516151593830193909352600160701b8104841615156060830152600160781b90049092161515608083015289519192509089908590811061195257fe5b602002602001018181525050806060015187848151811061196f57fe5b911515602092830291909101909101526001909201915b600194851c949190910190611849565b505050505050909192565b6119a9610a7e565b6119e45760405162461bcd60e51b81526004018080602001828103825260438152602001806130416043913960600191505060405180910390fd5b60008160ff1611611a265760405162461bcd60e51b81526004018080602001828103825260268152602001806130846026913960400191505060405180910390fd5b60208160ff161115611a695760405162461bcd60e51b8152600401808060200182810382526023815260200180612f9e6023913960400191505060405180910390fd5b611a71612f00565b5060408051808201825260095463ffffffff8116825260ff600160201b9091048116602080840182905284519286168352820152825191927fcea1ee84d0ae7d1635ee22e1e3c1f8386ac72dae735cd8b5a237ad929041f5a892918290030190a160ff82166020820181905281516009805463ffffffff191663ffffffff9092169190911764ff000000001916600160201b909202919091179055611b14612f17565b506040805160608101825260075463ffffffff8116825260ff600160201b820481166020840152600160281b9091048116928201839052909190841610611b5c575050611c1a565b60085460408051602080820193909352815180820390930183528101815282015160ff165b8460ff168112611bb757611ba9828281518110611b9a57fe5b016020015160f81c838561224e565b909350915060001901611b81565b508151600780546020850151604086015163ffffffff1990921663ffffffff9485161764ff000000001916600160201b60ff928316021765ff00000000001916600160281b9190921602179055611c1390829060009061244a16565b6008555050505b50565b611c2561076b565b611c605760405162461bcd60e51b8152600401808060200182810382526041815260200180612f5d6041913960600191505060405180910390fd5b6004805460ff60a01b1916600160a01b1790556040517f0f2e5b6c72c6a4491efd919a9f9a409f324ef0708c11ee57d410c2cb06c0992b90600090a1565b611ca661076b565b611ce15760405162461bcd60e51b8152600401808060200182810382526041815260200180612f5d6041913960600191505060405180910390fd5b600280546001600160a01b0383166001600160a01b0319909116811790915560408051918252517ffea2d033438b968078a6264409d0104b5f3d2ce7b795afc74918e70f3534f22b9181900360200190a150565b3390565b6000611d43612f17565b506040805160608101825260075463ffffffff8116825260ff600160201b820481166020840152600160281b9091041691810191909152611d82612f00565b5060408051808201825260095463ffffffff81168252600160201b900460ff166020808301919091526008548351808301919091528351808203909201825283019092526080850151909190611e2757600080611de188888787612466565b9150915081611e0257611df48888612586565b600095505050505050610dfb565b611e0d81848761224e565b9095509250611e1f8888838689612677565b909550925050505b84604001518015611e41575084516001600160601b031615155b611e5557611e50858285612776565b611e61565b611e61868683866128b5565b86516060808901516080808b0151604080516001600160a01b038f1681526001600160601b03909616602087015292151585840152151592840192909252519396509193507f0e4930620047234134e25e969e95fed322a2e48450e0c4e83b894aedd02e1984929081900390910190a1611edb8686612586565b8251600780546020860151604087015163ffffffff1990921663ffffffff9485161764ff000000001916600160201b60ff928316021765ff00000000001916600160281b9190921602179055611f3690829060009061244a16565b600855611f4282612bd6565b50600195945050505050565b6001600160a01b038116611f935760405162461bcd60e51b8152600401808060200182810382526038815260200180612fc16038913960400191505060405180910390fd5b6003546040516001600160a01b038084169216907f322ef0cb3bcc6b6f659770a0acaf7473e9bc6ebe63e04e4f28924c285c8cc5ea90600090a3600380546001600160a01b0319166001600160a01b0392909216919091179055565b6060611ff96113c9565b6001600160a01b031663fccea80d836040518263ffffffff1660e01b81526004018080602001828103825283818151815260200191508051906020019060200280838360005b8381101561205757818101518382015260200161203f565b505050509050019250505060006040518083038186803b15801561207a57600080fd5b505afa15801561208e573d6000803e3d6000fd5b505050506040513d6000823e601f3d908101601f1916820160405260208110156120b757600080fd5b8101908080516040519392919084600160201b8211156120d657600080fd5b9083019060208201858111156120eb57600080fd5b82518660208202830111600160201b8211171561210757600080fd5b82525081516020918201928201910280838360005b8381101561213457818101518382015260200161211c565b505050509050016040525050509050919050565b60606121526113c9565b60405163634bd4cb60e11b81526020600482018181528551602484015285516001600160a01b03949094169363c697a996938793839260449092019181860191028083836000831561205757818101518382015260200161203f565b6001600160a01b0381166121f35760405162461bcd60e51b81526004018080602001828103825260368152602001806130aa6036913960400191505060405180910390fd5b600080546040516001600160a01b03808516939216917f7e8c4fc74f50849b4ec635ed03f5d13f87cd46ae422e97479704c6fd1c164e2091a3600080546001600160a01b0319166001600160a01b0392909216919091179055565b612256612f17565b8151606090600160ff87161b1663ffffffff16612277575081905082612442565b600060058660ff168154811061228957fe5b6000918252602090912001546001600160a01b031690506122a8612ed2565b506001600160a01b038116600090815260066020908152604091829020825160a08101845290546001600160601b038116825260ff600160601b8204811693830193909352600160681b81048316151593820193909352600160701b8304821615156060820152600160781b909204161515608082015261232a818787612776565b8251606080850151604080516001600160a01b03891681526001600160601b03909416602085015290151583820152600091830191909152519296509094507f0e4930620047234134e25e969e95fed322a2e48450e0c4e83b894aedd02e1984919081900360800190a16001600160a01b0390911660009081526006602090815260409182902083518154928501519385015160608601516080909601511515600160781b0260ff60781b19961515600160701b0260ff60701b19921515600160681b0260ff60681b1960ff909816600160601b0260ff60601b196001600160601b039096166bffffffffffffffffffffffff1990981697909717949094169590951795909516919091171691909117929092161790555b935093915050565b6000816020018351101561245d57600080fd5b50016020015190565b60008084604001511580612482575084516001600160601b0316155b156124925750600090508061257d565b826020015160ff16846040015160ff1610156124bc5760016124b385612ea9565b9150915061257d565b6124c4612f00565b6005856020015160ff16815481106124d857fe5b6000918252602091829020604080518082019091529101546001600160a01b03811682526001600160601b03600160a01b9091048116928201839052885191935016108061255f575080602001516001600160601b031686600001516001600160601b031614801561255f575080600001516001600160a01b0316876001600160a01b0316105b1561257157506000915081905061257d565b50505060208201516001905b94509492505050565b806040015115612643576001600160a01b038216600090815260066020908152604091829020835181549285015193850151606086015160808701511515600160781b0260ff60781b19911515600160701b0260ff60701b19931515600160681b0260ff60681b1960ff909916600160601b0260ff60601b196001600160601b039097166bffffffffffffffffffffffff199099169890981795909516969096179690961692909217169290921791909116919091179055612673565b6001600160a01b038216600090815260066020526040902080546fffffffffffffffffffffffffffffffff191690555b5050565b61267f612f17565b60606040518060400160405280886001600160a01b0316815260200187600001516001600160601b031681525060058660ff16815481106126bc57fe5b6000918252602091829020835191018054938301516001600160601b0316600160a01b026001600160a01b039283166001600160a01b0319909516949094179091169290921790915560016080880181905260ff808816928901839052855163ffffffff9383901b17929092168552604085018051909101821690819052855160f888901b928792600019011690811061275257fe5b60200101906001600160f81b031916908160001a9053509196929550919350505050565b61277e612f17565b606060005b856020015160ff1685828151811061279757fe5b016020015160f81c146127ac57600101612783565b600184604001510360ff16811015612803578481600101815181106127cd57fe5b602001015160f81c60f81b8582815181106127e457fe5b60200101906001600160f81b031916908160001a9053506001016127ac565b600060f81b85828151811061281457fe5b60200101906001600160f81b031916908160001a9053506040840180516000190160ff1690819052156128665784600185604001510360ff168151811061285757fe5b0160209081015160f81c908501525b6020860180518551600160ff9283161b191663ffffffff16865290516005805490929190911690811061289557fe5b600091825260208220018190556080969096019590955250909391925050565b6128bd612f17565b606060005b856020015160ff168582815181106128d657fe5b016020015160f81c146128eb576001016128c2565b6128f3612f00565b50604080518082019091526001600160a01b038816815286516001600160601b03166020820152612922612f00565b600186604001510360ff16831015612a6857600587846001018151811061294557fe5b0160200151815460f89190911c90811061295b57fe5b6000918252602091829020604080518082019091529101546001600160a01b03811682526001600160601b03600160a01b9091048116828401819052928501519193501611806129dd575080602001516001600160601b031682602001516001600160601b03161480156129dd5750805182516001600160a01b039182169116115b156129e757612a68565b8683600101815181106129f657fe5b602001015160f81c60f81b878481518110612a0d57fe5b602001015160f81c60f81b888581518110612a2457fe5b60200101898660010181518110612a3757fe5b6001600160f81b0319841660001a9101602001536001600160f81b0319831660001a90535050600190920191612922565b8215612ba3576005876001850381518110612a7f57fe5b0160200151815460f89190911c908110612a9557fe5b6000918252602091829020604080518082019091529101546001600160a01b03811682526001600160601b03600160a01b909104811682840181905292850151919350161080612b17575080602001516001600160601b031682602001516001600160601b0316148015612b175750805182516001600160a01b039182169116105b15612b2157612ba3565b866001840381518110612b3057fe5b602001015160f81c60f81b878481518110612b4757fe5b602001015160f81c60f81b888581518110612b5e57fe5b60200101896001870381518110612b7157fe5b6001600160f81b0319841660001a9101602001536001600160f81b0319831660001a9053505060001990920191612a68565b86600187604001510360ff1681518110612bb957fe5b6020910181015160f81c9087015250939794965093945050505050565b6000612be06112af565b90506000816001600160a01b031663a945ae5a6040518163ffffffff1660e01b815260040160206040518083038186803b158015612c1d57600080fd5b505afa158015612c31573d6000803e3d6000fd5b505050506040513d6020811015612c4757600080fd5b5051835190915063ffffffff16428290031015612c65575050611c1a565b6060806060612c72611764565b925092509250846001600160a01b031663b3ed869a8484846040518463ffffffff1660e01b815260040180806020018060200180602001848103845287818151815260200191508051906020019060200280838360005b83811015612ce1578181015183820152602001612cc9565b50505050905001848103835286818151815260200191508051906020019060200280838360005b83811015612d20578181015183820152602001612d08565b50505050905001848103825285818151815260200191508051906020019060200280838360005b83811015612d5f578181015183820152602001612d47565b505050509050019650505050505050600060405180830381600087803b158015612d8857600080fd5b505af1158015612d9c573d6000803e3d6000fd5b505050507f7f22234ba646c761dbcee1532d786b29596f3dc00717dc2d6a37ff20d33618c683838360405180806020018060200180602001848103845287818151815260200191508051906020019060200280838360005b83811015612e0c578181015183820152602001612df4565b50505050905001848103835286818151815260200191508051906020019060200280838360005b83811015612e4b578181015183820152602001612e33565b50505050905001848103825285818151815260200191508051906020019060200280838360005b83811015612e8a578181015183820152602001612e72565b50505050905001965050505050505060405180910390a1505050505050565b80516000905b60018082161415612ecc576001918201911c637fffffff16612eaf565b50919050565b6040805160a08101825260008082526020820181905291810182905260608101829052608081019190915290565b604080518082019091526000808252602082015290565b60408051606081018252600080825260208201819052918101919091529056fe636f6e7472616374206973206c6f636b656420666f722074686973206f7065726174696f6e57697468436c61696d61626c654d6967726174696f6e4f776e6572736869703a2063616c6c6572206973206e6f7420746865206d6967726174696f6e4f776e65726d6178436f6d6d697474656553697a65206d757374206265203332206174206d6f737446756e6374696f6e616c4f776e65723a206e65772066756e6374696f6e616c4f776e657220697320746865207a65726f206164647265737343616c6c6572206973206e6f74207468652070656e64696e67206d6967726174696f6e4f776e657263616c6c6572206973206e6f742074686520656c656374696f6e73000000000057697468436c61696d61626c6546756e6374696f6e616c4f776e6572736869703a2063616c6c6572206973206e6f74207468652066756e6374696f6e616c4f776e65726d6178436f6d6d697474656553697a65206d757374206265206c6172676572207468616e20304d6967726174696f6e4f776e65723a206e6577206d6967726174696f6e4f776e657220697320746865207a65726f206164647265737343616c6c6572206973206e6f74207468652070656e64696e672066756e6374696f6e616c4f776e6572a265627a7a72315820090ee837441d70faf5d74a08638b5f4193f9f4dec785953e9cb1e9094f5ccdae64736f6c634300051000326d6178436f6d6d697474656553697a65206d757374206265203332206174206d6f73746d6178436f6d6d697474656553697a65206d757374206265206c6172676572207468616e2030",
  "source": "pragma solidity 0.5.16;\n\nimport \"./spec_interfaces/ICommittee.sol\";\nimport \"./spec_interfaces/IGuardiansRegistration.sol\";\nimport \"@openzeppelin/contracts/math/Math.sol\";\nimport \"./ContractRegistryAccessor.sol\";\nimport \"./WithClaimableFunctionalOwnership.sol\";\nimport \"solidity-bytes-utils/contracts/BytesLib.sol\";\n\n/// @title Elections contract interface\ncontract Committee is ICommittee, ContractRegistryAccessor, WithClaimableFunctionalOwnership, Lockable {\n\tusing BytesLib for bytes;\n\n\tuint constant MAX_COMMITTEE_ARRAY_SIZE = 32; // Cannot be greater than 32 (number of bytes in bytes32)\n\n\tstruct CommitteeMember {\n\t\taddress addr;\n\t\tuint96 weight;\n\t}\n\tCommitteeMember[] public committee;\n\n\tstruct MemberData {\n\t\tuint96 weight;\n\t\tuint8 pos;\n\t\tbool isMember;\n\t\tbool isCertified;\n\n\t\tbool inCommittee;\n\t}\n\tmapping (address => MemberData) membersData;\n\n\t// Derived properties\n\tstruct CommitteeInfo {\n\t\tuint32 committeeBitmap; // TODO redundant, sort bytes can be used instead\n\t\tuint8 minCommitteeMemberPos;\n\t\tuint8 committeeSize;\n\t}\n\tCommitteeInfo committeeInfo;\n\tbytes32 committeeSortBytes;\n\n\tstruct Settings {\n\t\tuint32 maxTimeBetweenRewardAssignments;\n\t\tuint8 maxCommitteeSize;\n\t}\n\tSettings settings;\n\n\tmodifier onlyElectionsContract() {\n\t\trequire(msg.sender == address(getElectionsContract()), \"caller is not the elections\");\n\n\t\t_;\n\t}\n\n\tfunction findFreePos(CommitteeInfo memory info) private pure returns (uint8 pos) {\n\t\tpos = 0;\n\t\tuint32 bitmap = info.committeeBitmap;\n\t\twhile (bitmap & 1 == 1) {\n\t\t\tbitmap >>= 1;\n\t\t\tpos++;\n\t\t}\n\t}\n\n\tfunction qualifiesToEnterCommittee(address addr, MemberData memory data, CommitteeInfo memory info, Settings memory _settings) private view returns (bool qualified, uint8 entryPos) {\n\t\tif (!data.isMember || data.weight == 0) {\n\t\t\treturn (false, 0);\n\t\t}\n\n\t\tif (info.committeeSize < _settings.maxCommitteeSize) {\n\t\t\treturn (true, findFreePos(info));\n\t\t}\n\n\t\tCommitteeMember memory minMember = committee[info.minCommitteeMemberPos];\n\t\tif (data.weight < minMember.weight || data.weight == minMember.weight && addr < minMember.addr) {\n\t\t\treturn (false, 0);\n\t\t}\n\n\t\treturn (true, info.minCommitteeMemberPos);\n\t}\n\n\tfunction saveMemberData(address addr, MemberData memory data) private {\n\t\tif (data.isMember) {\n\t\t\tmembersData[addr] = data;\n\t\t} else {\n\t\t\tdelete membersData[addr];\n\t\t}\n\t}\n\n\tfunction updateOnMemberChange(address addr, MemberData memory data) private returns (bool committeeChanged) {\n\t\tCommitteeInfo memory info = committeeInfo;\n\t\tSettings memory _settings = settings;\n\t\tbytes memory sortBytes = abi.encodePacked(committeeSortBytes);\n\n\t\tif (!data.inCommittee) {\n\t\t\t(bool qualified, uint8 entryPos) = qualifiesToEnterCommittee(addr, data, info, _settings);\n\t\t\tif (!qualified) {\n\t\t\t\tsaveMemberData(addr, data);\n\t\t\t\treturn false;\n\t\t\t}\n\n\t\t\t(info, sortBytes) = removeMemberAtPos(entryPos, sortBytes, info);\n\t\t\t(info, sortBytes) = addToCommittee(addr, data, entryPos, sortBytes, info);\n\t\t}\n\n\t\t(info, sortBytes) = (data.isMember && data.weight > 0) ?\n\t\t\trankMember(addr, data, sortBytes, info) :\n\t\t\tremoveMemberFromCommittee(data, sortBytes, info);\n\n\t\temit GuardianCommitteeChange(addr, data.weight, data.isCertified, data.inCommittee);\n\n\t\tsaveMemberData(addr, data);\n\n\t\tcommitteeInfo = info;\n\t\tcommitteeSortBytes = sortBytes.toBytes32(0);\n\n\t\tassignRewardsIfNeeded(_settings);\n\n\t\treturn true;\n\t}\n\n\tfunction addToCommittee(address addr, MemberData memory data, uint8 entryPos, bytes memory sortBytes, CommitteeInfo memory info) private returns (CommitteeInfo memory newInfo, bytes memory newSortByes) {\n\t\tcommittee[entryPos] = CommitteeMember({\n\t\t\taddr: addr,\n\t\t\tweight: data.weight\n\t\t});\n\t\tdata.inCommittee = true;\n\t\tdata.pos = entryPos;\n\t\tinfo.committeeBitmap |= uint32(uint(1) << entryPos);\n\t\tinfo.committeeSize++;\n\n\t\tsortBytes[info.committeeSize - 1] = byte(entryPos);\n\t\treturn (info, sortBytes);\n\t}\n\n\tfunction removeMemberFromCommittee(MemberData memory data, bytes memory sortBytes, CommitteeInfo memory info) private returns (CommitteeInfo memory newInfo, bytes memory newSortBytes) {\n\t\tuint rank = 0;\n\t\twhile (uint8(sortBytes[rank]) != data.pos) {\n\t\t\trank++;\n\t\t}\n\n\t\tfor (; rank < info.committeeSize - 1; rank++) {\n\t\t\tsortBytes[rank] = sortBytes[rank + 1];\n\t\t}\n\t\tsortBytes[rank] = 0;\n\n\t\tinfo.committeeSize--;\n\t\tif (info.committeeSize > 0) {\n\t\t\tinfo.minCommitteeMemberPos = uint8(sortBytes[info.committeeSize - 1]);\n\t\t}\n\t\tinfo.committeeBitmap &= ~uint32(uint(1) << data.pos);\n\n\t\tdelete committee[data.pos];\n\t\tdata.inCommittee = false;\n\n\t\treturn (info, sortBytes);\n\t}\n\n\tfunction removeMemberAtPos(uint8 pos, bytes memory sortBytes, CommitteeInfo memory info) private returns (CommitteeInfo memory newInfo, bytes memory newSortBytes) {\n\t\tif (info.committeeBitmap & (uint(1) << pos) == 0) {\n\t\t\treturn (info, sortBytes);\n\t\t}\n\n\t\taddress addr = committee[pos].addr;\n\t\tMemberData memory data = membersData[addr];\n\n\t\t(newInfo, newSortBytes) = removeMemberFromCommittee(data, sortBytes, info);\n\n\t\temit GuardianCommitteeChange(addr, data.weight, data.isCertified, false);\n\n\t\tmembersData[addr] = data;\n\t}\n\n\tfunction rankMember(address addr, MemberData memory data, bytes memory sortBytes, CommitteeInfo memory info) private view returns (CommitteeInfo memory newInfo, bytes memory newSortBytes) {\n\t\tuint rank = 0;\n\t\twhile (uint8(sortBytes[rank]) != data.pos) {\n\t\t\trank++;\n\t\t}\n\n\t\tCommitteeMember memory cur = CommitteeMember({addr: addr, weight: data.weight});\n\t\tCommitteeMember memory next;\n\n\t\twhile (rank < info.committeeSize - 1) {\n\t\t\tnext = committee[uint8(sortBytes[rank + 1])];\n\t\t\tif (cur.weight > next.weight || cur.weight == next.weight && cur.addr > next.addr) break;\n\n\t\t\t(sortBytes[rank], sortBytes[rank + 1]) = (sortBytes[rank + 1], sortBytes[rank]);\n\t\t\trank++;\n\t\t}\n\n\t\twhile (rank > 0) {\n\t\t\tnext = committee[uint8(sortBytes[rank - 1])];\n\t\t\tif (cur.weight < next.weight || cur.weight == next.weight && cur.addr < next.addr) break;\n\n\t\t\t(sortBytes[rank], sortBytes[rank - 1]) = (sortBytes[rank - 1], sortBytes[rank]);\n\t\t\trank--;\n\t\t}\n\n\t\tinfo.minCommitteeMemberPos = uint8(sortBytes[info.committeeSize - 1]);\n\t\treturn (info, sortBytes);\n\t}\n\n\tfunction getMinCommitteeMemberWeight() external view returns (uint96) {\n\t\treturn committee[committeeInfo.minCommitteeMemberPos].weight;\n\t}\n\n\tfunction assignRewardsIfNeeded(Settings memory _settings) private {\n        IRewards rewardsContract = getRewardsContract();\n        uint lastAssignment = rewardsContract.getLastRewardAssignmentTime();\n        if (now - lastAssignment < _settings.maxTimeBetweenRewardAssignments) {\n             return;\n        }\n\n\t\t(address[] memory committeeAddrs, uint[] memory committeeWeights, bool[] memory committeeCertification) = _getCommittee();\n        rewardsContract.assignRewardsToCommittee(committeeAddrs, committeeWeights, committeeCertification);\n\n\t\temit CommitteeSnapshot(committeeAddrs, committeeWeights, committeeCertification);\n\t}\n\n\tconstructor(uint _maxCommitteeSize, uint32 maxTimeBetweenRewardAssignments) public {\n\t\trequire(_maxCommitteeSize > 0, \"maxCommitteeSize must be larger than 0\");\n\t\trequire(_maxCommitteeSize <= MAX_COMMITTEE_ARRAY_SIZE, \"maxCommitteeSize must be 32 at most\");\n\t\tsettings = Settings({\n\t\t\tmaxCommitteeSize: uint8(_maxCommitteeSize),\n\t\t\tmaxTimeBetweenRewardAssignments: maxTimeBetweenRewardAssignments\n\t\t});\n\n\t\tcommittee.length = MAX_COMMITTEE_ARRAY_SIZE;\n\t}\n\n\t/*\n\t * Methods restricted to other Orbs contracts\n\t */\n\n\t/// @dev Called by: Elections contract\n\t/// Notifies a weight change for sorting to a relevant committee member.\n\t/// weight = 0 indicates removal of the member from the committee (for example on unregister, voteUnready, voteOut)\n\tfunction memberWeightChange(address addr, uint256 weight) external onlyElectionsContract onlyWhenActive returns (bool committeeChanged) {\n\t\trequire(uint256(uint96(weight)) == weight, \"weight is out of range\");\n\n\t\tMemberData memory data = membersData[addr];\n\t\tif (!data.isMember) {\n\t\t\treturn false;\n\t\t}\n\t\tdata.weight = uint96(weight);\n\t\tif (data.inCommittee) {\n\t\t\tcommittee[data.pos].weight = data.weight;\n\t\t}\n\t\treturn updateOnMemberChange(addr, data);\n\t}\n\n\tfunction memberCertificationChange(address addr, bool isCertified) external onlyElectionsContract onlyWhenActive returns (bool committeeChanged) {\n\t\tMemberData memory data = membersData[addr];\n\t\tif (!data.isMember) {\n\t\t\treturn false;\n\t\t}\n\n\t\tdata.isCertified = isCertified;\n\t\treturn updateOnMemberChange(addr, data);\n\t}\n\n\tfunction addMember(address addr, uint256 weight, bool isCertified) external onlyElectionsContract onlyWhenActive returns (bool committeeChanged) {\n\t\trequire(uint256(uint96(weight)) == weight, \"weight is out of range\");\n\n\t\tif (membersData[addr].isMember) {\n\t\t\treturn false;\n\t\t}\n\n\t\treturn updateOnMemberChange(addr, MemberData({\n\t\t\tisMember: true,\n\t\t\tweight: uint96(weight),\n\t\t\tisCertified: isCertified,\n\t\t\tinCommittee: false,\n\t\t\tpos: uint8(-1)\n\t\t}));\n\t}\n\n\t/// @dev Called by: Elections contract\n\t/// Notifies a a member removal for example due to voteOut / voteUnready\n\tfunction removeMember(address addr) external onlyElectionsContract onlyWhenActive returns (bool committeeChanged) {\n\t\tMemberData memory data = membersData[addr];\n\n\t\tif (!membersData[addr].isMember) {\n\t\t\treturn false;\n\t\t}\n\n\t\tdata.isMember = false;\n\t\treturn updateOnMemberChange(addr, data);\n\t}\n\n\t/// @dev Called by: Elections contract\n\t/// Returns the committee members and their weights\n\tfunction getCommittee() external view returns (address[] memory addrs, uint256[] memory weights, bool[] memory certification) {\n\t\treturn _getCommittee();\n\t}\n\n\t/// @dev Called by: Elections contract\n\t/// Returns the committee members and their weights\n\tfunction _getCommittee() public view returns (address[] memory addrs, uint256[] memory weights, bool[] memory certification) {\n\t\tCommitteeInfo memory _committeeInfo = committeeInfo;\n\t\tuint bitmap = uint(_committeeInfo.committeeBitmap);\n\t\tuint committeeSize = _committeeInfo.committeeSize;\n\n\t\taddrs = new address[](committeeSize);\n\t\tweights = new uint[](committeeSize);\n\t\tcertification = new bool[](committeeSize);\n\t\tuint aInd = 0;\n\t\tuint pInd = 0;\n\t\tMemberData memory md;\n\t\tbitmap = uint(_committeeInfo.committeeBitmap);\n\t\twhile (bitmap != 0) {\n\t\t\tif (bitmap & 1 == 1) {\n\t\t\t\taddrs[aInd] = committee[pInd].addr;\n\t\t\t\tmd = membersData[addrs[aInd]];\n\t\t\t\tweights[aInd] = md.weight;\n\t\t\t\tcertification[aInd] = md.isCertified;\n\t\t\t\taInd++;\n\t\t\t}\n\t\t\tbitmap >>= 1;\n\t\t\tpInd++;\n\t\t}\n\t}\n\n\t/*\n\t * Governance\n\t */\n\n\tfunction setMaxTimeBetweenRewardAssignments(uint32 maxTimeBetweenRewardAssignments) external onlyFunctionalOwner /* todo onlyWhenActive */ {\n\t\temit MaxTimeBetweenRewardAssignmentsChanged(maxTimeBetweenRewardAssignments, settings.maxTimeBetweenRewardAssignments);\n\t\tsettings.maxTimeBetweenRewardAssignments = maxTimeBetweenRewardAssignments;\n\t}\n\n\tfunction setMaxCommittee(uint8 maxCommitteeSize) external onlyFunctionalOwner /* todo onlyWhenActive */ {\n\t\trequire(maxCommitteeSize > 0, \"maxCommitteeSize must be larger than 0\");\n\t\trequire(maxCommitteeSize <= MAX_COMMITTEE_ARRAY_SIZE, \"maxCommitteeSize must be 32 at most\");\n\t\tSettings memory _settings = settings;\n\t\temit MaxCommitteeSizeChanged(maxCommitteeSize, _settings.maxCommitteeSize);\n\t\t_settings.maxCommitteeSize = maxCommitteeSize;\n\t\tsettings = _settings;\n\n\t\tCommitteeInfo memory info = committeeInfo;\n\t\tif (maxCommitteeSize >= info.committeeSize) {\n\t\t\treturn;\n\t\t}\n\n\t\tbytes memory sortBytes = abi.encodePacked(committeeSortBytes);\n\t\tfor (int rank = int(info.committeeSize); rank >= int(maxCommitteeSize); rank--) {\n\t\t\t(info, sortBytes) = removeMemberAtPos(uint8(sortBytes[uint(rank)]), sortBytes, info);\n\t\t}\n\t\tcommitteeInfo = info;\n\t\tcommitteeSortBytes = sortBytes.toBytes32(0);\n\t}\n\n\t/*\n     * Getters\n     */\n\n\t/// @dev returns the current committee\n\t/// used also by the rewards and fees contracts\n\tfunction getCommitteeInfo() external view returns (address[] memory addrs, uint256[] memory weights, address[] memory orbsAddrs, bool[] memory certification, bytes4[] memory ips) {\n\t\t(addrs, weights, certification) = _getCommittee();\n\t\treturn (addrs, weights, _loadOrbsAddresses(addrs), certification, _loadIps(addrs));\n\t}\n\n\tfunction getSettings() external view returns (uint32 maxTimeBetweenRewardAssignments, uint8 maxCommitteeSize) {\n\t\tSettings memory _settings = settings;\n\t\tmaxTimeBetweenRewardAssignments = _settings.maxTimeBetweenRewardAssignments;\n\t\tmaxCommitteeSize = _settings.maxCommitteeSize;\n\t}\n\n\t/*\n\t * Private\n\t */\n\n\tfunction _loadOrbsAddresses(address[] memory addrs) private view returns (address[] memory) {\n\t\treturn getGuardiansRegistrationContract().getGuardiansOrbsAddress(addrs);\n\t}\n\n\tfunction _loadIps(address[] memory addrs) private view returns (bytes4[] memory) {\n\t\treturn getGuardiansRegistrationContract().getGuardianIps(addrs);\n\t}\n\n\tfunction _loadCertification(address[] memory addrs) private view returns (bool[] memory) {\n\t\tbool[] memory certification = new bool[](addrs.length);\n\t\tfor (uint i = 0; i < addrs.length; i++) {\n\t\t\tcertification[i] = membersData[addrs[i]].isCertified;\n\t\t}\n\t\treturn certification;\n\t}\n\n}\n",
  "sourcePath": "/Users/aviramstern/GolandProjects/orbs-ethereum-contracts-v2/contracts/Committee.sol",
  "compiler": {
    "name": "solc",
    "version": "0.5.16+commit.9c3226ce.Emscripten.clang"
  },
  "schemaVersion": "3.0.23",
  "updatedAt": "2020-08-06T21:58:43.685Z",
  "devdoc": {
    "methods": {
      "_getCommittee()": {
        "details": "Called by: Elections contract Returns the committee members and their weights"
      },
      "claimFunctionalOwnership()": {
        "details": "Allows the pendingFunctionalOwner address to finalize the transfer."
      },
      "claimMigrationOwnership()": {
        "details": "Allows the pendingMigrationOwner address to finalize the transfer."
      },
      "functionalOwner()": {
        "details": "Returns the address of the current functionalOwner."
      },
      "getCommittee()": {
        "details": "Called by: Elections contract Returns the committee members and their weights"
      },
      "getCommitteeInfo()": {
        "details": "returns the current committee used also by the rewards and fees contracts"
      },
      "isFunctionalOwner()": {
        "details": "Returns true if the caller is the current functionalOwner."
      },
      "isMigrationOwner()": {
        "details": "Returns true if the caller is the current migrationOwner."
      },
      "memberWeightChange(address,uint256)": {
        "details": "Called by: Elections contract Notifies a weight change for sorting to a relevant committee member. weight = 0 indicates removal of the member from the committee (for example on unregister, voteUnready, voteOut)"
      },
      "migrationOwner()": {
        "details": "Returns the address of the current migrationOwner."
      },
      "removeMember(address)": {
        "details": "Called by: Elections contract Notifies a a member removal for example due to voteOut / voteUnready"
      },
      "renounceFunctionalOwnership()": {
        "details": "Leaves the contract without functionalOwner. It will not be possible to call `onlyOwner` functions anymore. Can only be called by the current functionalOwner.     * NOTE: Renouncing functionalOwnership will leave the contract without an functionalOwner, thereby removing any functionality that is only available to the functionalOwner."
      },
      "renounceMigrationOwnership()": {
        "details": "Leaves the contract without migrationOwner. It will not be possible to call `onlyOwner` functions anymore. Can only be called by the current migrationOwner.     * NOTE: Renouncing migrationOwnership will leave the contract without an migrationOwner, thereby removing any functionality that is only available to the migrationOwner."
      },
      "transferFunctionalOwnership(address)": {
        "details": "Allows the current functionalOwner to set the pendingOwner address.",
        "params": {
          "newFunctionalOwner": "The address to transfer functionalOwnership to."
        }
      },
      "transferMigrationOwnership(address)": {
        "details": "Allows the current migrationOwner to set the pendingOwner address.",
        "params": {
          "newMigrationOwner": "The address to transfer migrationOwnership to."
        }
      }
    },
    "title": "Elections contract interface"
  },
  "userdoc": {
    "methods": {}
  }
}