{
  "contractName": "ContractRegistryAccessor",
  "abi": [
    {
      "anonymous": false,
      "inputs": [
        {
          "indexed": false,
          "internalType": "address",
          "name": "addr",
          "type": "address"
        }
      ],
      "name": "ContractRegistryAddressUpdated",
      "type": "event"
    },
    {
      "anonymous": false,
      "inputs": [
        {
          "indexed": true,
          "internalType": "address",
          "name": "previousMigrationOwner",
          "type": "address"
        },
        {
          "indexed": true,
          "internalType": "address",
          "name": "newMigrationOwner",
          "type": "address"
        }
      ],
      "name": "MigrationOwnershipTransferred",
      "type": "event"
    },
    {
      "constant": false,
      "inputs": [],
      "name": "claimMigrationOwnership",
      "outputs": [],
      "payable": false,
      "stateMutability": "nonpayable",
      "type": "function"
    },
    {
      "constant": true,
      "inputs": [],
      "name": "isMigrationOwner",
      "outputs": [
        {
          "internalType": "bool",
          "name": "",
          "type": "bool"
        }
      ],
      "payable": false,
      "stateMutability": "view",
      "type": "function"
    },
    {
      "constant": true,
      "inputs": [],
      "name": "migrationOwner",
      "outputs": [
        {
          "internalType": "address",
          "name": "",
          "type": "address"
        }
      ],
      "payable": false,
      "stateMutability": "view",
      "type": "function"
    },
    {
      "constant": false,
      "inputs": [],
      "name": "renounceMigrationOwnership",
      "outputs": [],
      "payable": false,
      "stateMutability": "nonpayable",
      "type": "function"
    },
    {
      "constant": false,
      "inputs": [
        {
          "internalType": "address",
          "name": "newMigrationOwner",
          "type": "address"
        }
      ],
      "name": "transferMigrationOwnership",
      "outputs": [],
      "payable": false,
      "stateMutability": "nonpayable",
      "type": "function"
    },
    {
      "constant": false,
      "inputs": [
        {
          "internalType": "contract IContractRegistry",
          "name": "_contractRegistry",
          "type": "address"
        }
      ],
      "name": "setContractRegistry",
      "outputs": [],
      "payable": false,
      "stateMutability": "nonpayable",
      "type": "function"
    },
    {
      "constant": true,
      "inputs": [],
      "name": "getProtocolContract",
      "outputs": [
        {
          "internalType": "contract IProtocol",
          "name": "",
          "type": "address"
        }
      ],
      "payable": false,
      "stateMutability": "view",
      "type": "function"
    },
    {
      "constant": true,
      "inputs": [],
      "name": "getRewardsContract",
      "outputs": [
        {
          "internalType": "contract IRewards",
          "name": "",
          "type": "address"
        }
      ],
      "payable": false,
      "stateMutability": "view",
      "type": "function"
    },
    {
      "constant": true,
      "inputs": [],
      "name": "getCommitteeContract",
      "outputs": [
        {
          "internalType": "contract ICommittee",
          "name": "",
          "type": "address"
        }
      ],
      "payable": false,
      "stateMutability": "view",
      "type": "function"
    },
    {
      "constant": true,
      "inputs": [],
      "name": "getElectionsContract",
      "outputs": [
        {
          "internalType": "contract IElections",
          "name": "",
          "type": "address"
        }
      ],
      "payable": false,
      "stateMutability": "view",
      "type": "function"
    },
    {
      "constant": true,
      "inputs": [],
      "name": "getDelegationsContract",
      "outputs": [
        {
          "internalType": "contract IDelegations",
          "name": "",
          "type": "address"
        }
      ],
      "payable": false,
      "stateMutability": "view",
      "type": "function"
    },
    {
      "constant": true,
      "inputs": [],
      "name": "getGuardiansRegistrationContract",
      "outputs": [
        {
          "internalType": "contract IGuardiansRegistration",
          "name": "",
          "type": "address"
        }
      ],
      "payable": false,
      "stateMutability": "view",
      "type": "function"
    },
    {
      "constant": true,
      "inputs": [],
      "name": "getCertificationContract",
      "outputs": [
        {
          "internalType": "contract ICertification",
          "name": "",
          "type": "address"
        }
      ],
      "payable": false,
      "stateMutability": "view",
      "type": "function"
    },
    {
      "constant": true,
      "inputs": [],
      "name": "getStakingContract",
      "outputs": [
        {
          "internalType": "contract IStakingContract",
          "name": "",
          "type": "address"
        }
      ],
      "payable": false,
      "stateMutability": "view",
      "type": "function"
    },
    {
      "constant": true,
      "inputs": [],
      "name": "getSubscriptionsContract",
      "outputs": [
        {
          "internalType": "contract ISubscriptions",
          "name": "",
          "type": "address"
        }
      ],
      "payable": false,
      "stateMutability": "view",
      "type": "function"
    },
    {
      "constant": true,
      "inputs": [],
      "name": "getStakingRewardsWallet",
      "outputs": [
        {
          "internalType": "contract IProtocolWallet",
          "name": "",
          "type": "address"
        }
      ],
      "payable": false,
      "stateMutability": "view",
      "type": "function"
    },
    {
      "constant": true,
      "inputs": [],
      "name": "getBootstrapRewardsWallet",
      "outputs": [
        {
          "internalType": "contract IProtocolWallet",
          "name": "",
          "type": "address"
        }
      ],
      "payable": false,
      "stateMutability": "view",
      "type": "function"
    }
  ],
  "bytecode": "0x608060405260006100176001600160e01b0361006616565b600080546001600160a01b0319166001600160a01b0383169081178255604051929350917f7e8c4fc74f50849b4ec635ed03f5d13f87cd46ae422e97479704c6fd1c164e20908290a35061006a565b3390565b610a45806100796000396000f3fe608060405234801561001057600080fd5b506004361061010b5760003560e01c8063977d4e5a116100a2578063ad751ed311610071578063ad751ed3146101c0578063b5f1c29d146101c8578063ddc0d5d6146101d0578063ec5e178c146101d8578063fcd13d65146101e05761010b565b8063977d4e5a146101825780639f587d1c1461018a578063a09e0d90146101b0578063ab6acfc4146101b85761010b565b80635282346d116100de5780635282346d146101625780636cdb67461461016a5780637b93af4c146101725780638e68dce41461017a5761010b565b8063021abb931461011057806311caadfb1461012c578063209df1e2146101505780632c43bdd51461015a575b600080fd5b610118610206565b604080519115158252519081900360200190f35b61013461022a565b604080516001600160a01b039092168252519081900360200190f35b6101586102be565b005b61013461034b565b61013461035a565b6101346103bf565b61015861042d565b61013461049d565b6101346104fe565b610158600480360360208110156101a057600080fd5b50356001600160a01b0316610565565b6101346105ca565b610134610631565b610134610694565b6101346106f5565b610134610757565b6101346107c6565b610158600480360360208110156101f657600080fd5b50356001600160a01b0316610836565b600080546001600160a01b031661021b6108cd565b6001600160a01b031614905090565b6002546040805163349f642f60e11b81526020600482018190526009602483015268656c656374696f6e7360b81b604483015291516000936001600160a01b03169263693ec85e9260648082019391829003018186803b15801561028d57600080fd5b505afa1580156102a1573d6000803e3d6000fd5b505050506040513d60208110156102b757600080fd5b5051905090565b6102c6610206565b6103015760405162461bcd60e51b81526004018080602001828103825260418152602001806109726041913960600191505060405180910390fd5b600080546040516001600160a01b03909116907f7e8c4fc74f50849b4ec635ed03f5d13f87cd46ae422e97479704c6fd1c164e20908390a3600080546001600160a01b0319169055565b6000546001600160a01b031690565b6002546040805163349f642f60e11b8152602060048201819052600b60248301526a64656c65676174696f6e7360a81b604483015291516000936001600160a01b03169263693ec85e9260648082019391829003018186803b15801561028d57600080fd5b6002546040805163349f642f60e11b815260206004820181905260146024830152731cdd185ada5b99d4995dd85c991cd5d85b1b195d60621b604483015291516000936001600160a01b03169263693ec85e9260648082019391829003018186803b15801561028d57600080fd5b6001546001600160a01b031633146104765760405162461bcd60e51b81526004018080602001828103825260288152602001806109b36028913960400191505060405180910390fd5b60015461048b906001600160a01b03166108d1565b600180546001600160a01b0319169055565b6002546040805163349f642f60e11b815260206004820181905260076024830152667374616b696e6760c81b604483015291516000936001600160a01b03169263693ec85e9260648082019391829003018186803b15801561028d57600080fd5b6002546040805163349f642f60e11b8152602060048201819052600d60248301526c737562736372697074696f6e7360981b604483015291516000936001600160a01b03169263693ec85e9260648082019391829003018186803b15801561028d57600080fd5b61056d610206565b6105a85760405162461bcd60e51b81526004018080602001828103825260418152602001806109726041913960600191505060405180910390fd5b600180546001600160a01b0319166001600160a01b0392909216919091179055565b6002546040805163349f642f60e11b8152602060048201819052600d60248301526c31b2b93a34b334b1b0ba34b7b760991b604483015291516000936001600160a01b03169263693ec85e9260648082019391829003018186803b15801561028d57600080fd5b6002546040805163349f642f60e11b81526020600482018190526009602483015268636f6d6d697474656560b81b604483015291516000936001600160a01b03169263693ec85e9260648082019391829003018186803b15801561028d57600080fd5b6002546040805163349f642f60e11b815260206004820181905260076024830152667265776172647360c81b604483015291516000936001600160a01b03169263693ec85e9260648082019391829003018186803b15801561028d57600080fd5b6002546040805163349f642f60e11b815260206004820181905260086024830152671c1c9bdd1bd8dbdb60c21b604483015291516000936001600160a01b03169263693ec85e9260648082019391829003018186803b15801561028d57600080fd5b6002546040805163349f642f60e11b8152602060048201819052601560248301527433bab0b93234b0b739a932b3b4b9ba3930ba34b7b760591b604483015291516000936001600160a01b03169263693ec85e9260648082019391829003018186803b15801561028d57600080fd5b6002546040805163349f642f60e11b81526020600482018190526016602483015275189bdbdd1cdd1c985c14995dd85c991cd5d85b1b195d60521b604483015291516000936001600160a01b03169263693ec85e9260648082019391829003018186803b15801561028d57600080fd5b61083e610206565b6108795760405162461bcd60e51b81526004018080602001828103825260418152602001806109726041913960600191505060405180910390fd5b600280546001600160a01b0383166001600160a01b0319909116811790915560408051918252517ffea2d033438b968078a6264409d0104b5f3d2ce7b795afc74918e70f3534f22b9181900360200190a150565b3390565b6001600160a01b0381166109165760405162461bcd60e51b81526004018080602001828103825260368152602001806109db6036913960400191505060405180910390fd5b600080546040516001600160a01b03808516939216917f7e8c4fc74f50849b4ec635ed03f5d13f87cd46ae422e97479704c6fd1c164e2091a3600080546001600160a01b0319166001600160a01b039290921691909117905556fe57697468436c61696d61626c654d6967726174696f6e4f776e6572736869703a2063616c6c6572206973206e6f7420746865206d6967726174696f6e4f776e657243616c6c6572206973206e6f74207468652070656e64696e67206d6967726174696f6e4f776e65724d6967726174696f6e4f776e65723a206e6577206d6967726174696f6e4f776e657220697320746865207a65726f2061646472657373a265627a7a72315820195a1d4dd72561081d7b1f5663ba9212b980e7c47b8180491a694cf766fe0f4164736f6c63430005100032",
  "source": "pragma solidity 0.5.16;\n\nimport \"./spec_interfaces/IContractRegistry.sol\";\nimport \"./spec_interfaces/IProtocol.sol\";\nimport \"./spec_interfaces/ICommittee.sol\";\nimport \"./interfaces/IElections.sol\";\nimport \"./spec_interfaces/IGuardiansRegistration.sol\";\nimport \"./spec_interfaces/ICertification.sol\";\nimport \"./spec_interfaces/ISubscriptions.sol\";\nimport \"./spec_interfaces/IDelegation.sol\";\nimport \"./interfaces/IRewards.sol\";\nimport \"./WithClaimableMigrationOwnership.sol\";\nimport \"./Lockable.sol\";\nimport \"./spec_interfaces/IProtocolWallet.sol\";\n\ncontract ContractRegistryAccessor is WithClaimableMigrationOwnership {\n\n    IContractRegistry contractRegistry;\n\n    event ContractRegistryAddressUpdated(address addr);\n\n    function setContractRegistry(IContractRegistry _contractRegistry) external onlyMigrationOwner {\n        contractRegistry = _contractRegistry;\n        emit ContractRegistryAddressUpdated(address(_contractRegistry));\n    }\n\n    function getProtocolContract() public view returns (IProtocol) {\n        return IProtocol(contractRegistry.get(\"protocol\"));\n    }\n\n    function getRewardsContract() public view returns (IRewards) {\n        return IRewards(contractRegistry.get(\"rewards\"));\n    }\n\n    function getCommitteeContract() public view returns (ICommittee) {\n        return ICommittee(contractRegistry.get(\"committee\"));\n    }\n\n    function getElectionsContract() public view returns (IElections) {\n        return IElections(contractRegistry.get(\"elections\"));\n    }\n\n    function getDelegationsContract() public view returns (IDelegations) {\n        return IDelegations(contractRegistry.get(\"delegations\"));\n    }\n\n    function getGuardiansRegistrationContract() public view returns (IGuardiansRegistration) {\n        return IGuardiansRegistration(contractRegistry.get(\"guardiansRegistration\"));\n    }\n\n    function getCertificationContract() public view returns (ICertification) {\n        return ICertification(contractRegistry.get(\"certification\"));\n    }\n\n    function getStakingContract() public view returns (IStakingContract) {\n        return IStakingContract(contractRegistry.get(\"staking\"));\n    }\n\n    function getSubscriptionsContract() public view returns (ISubscriptions) {\n        return ISubscriptions(contractRegistry.get(\"subscriptions\"));\n    }\n\n    function getStakingRewardsWallet() public view returns (IProtocolWallet) {\n        return IProtocolWallet(contractRegistry.get(\"stakingRewardsWallet\"));\n    }\n\n    function getBootstrapRewardsWallet() public view returns (IProtocolWallet) {\n        return IProtocolWallet(contractRegistry.get(\"bootstrapRewardsWallet\"));\n    }\n\n}\n",
  "sourcePath": "/Users/aviramstern/GolandProjects/orbs-ethereum-contracts-v2/contracts/ContractRegistryAccessor.sol",
  "compiler": {
    "name": "solc",
    "version": "0.5.16+commit.9c3226ce.Emscripten.clang"
  },
  "schemaVersion": "3.0.23",
  "updatedAt": "2020-08-06T21:58:43.708Z",
  "devdoc": {
    "methods": {
      "claimMigrationOwnership()": {
        "details": "Allows the pendingMigrationOwner address to finalize the transfer."
      },
      "isMigrationOwner()": {
        "details": "Returns true if the caller is the current migrationOwner."
      },
      "migrationOwner()": {
        "details": "Returns the address of the current migrationOwner."
      },
      "renounceMigrationOwnership()": {
        "details": "Leaves the contract without migrationOwner. It will not be possible to call `onlyOwner` functions anymore. Can only be called by the current migrationOwner.     * NOTE: Renouncing migrationOwnership will leave the contract without an migrationOwner, thereby removing any functionality that is only available to the migrationOwner."
      },
      "transferMigrationOwnership(address)": {
        "details": "Allows the current migrationOwner to set the pendingOwner address.",
        "params": {
          "newMigrationOwner": "The address to transfer migrationOwnership to."
        }
      }
    }
  },
  "userdoc": {
    "methods": {}
  }
}