{
  "contractName": "ContractRegistry",
  "abi": [
    {
      "anonymous": false,
      "inputs": [
        {
          "indexed": false,
          "internalType": "string",
          "name": "contractName",
          "type": "string"
        },
        {
          "indexed": false,
          "internalType": "address",
          "name": "addr",
          "type": "address"
        }
      ],
      "name": "ContractAddressUpdated",
      "type": "event"
    },
    {
      "anonymous": false,
      "inputs": [
        {
          "indexed": true,
          "internalType": "address",
          "name": "previousFunctionalOwner",
          "type": "address"
        },
        {
          "indexed": true,
          "internalType": "address",
          "name": "newFunctionalOwner",
          "type": "address"
        }
      ],
      "name": "FunctionalOwnershipTransferred",
      "type": "event"
    },
    {
      "anonymous": false,
      "inputs": [
        {
          "indexed": true,
          "internalType": "address",
          "name": "previousMigrationOwner",
          "type": "address"
        },
        {
          "indexed": true,
          "internalType": "address",
          "name": "newMigrationOwner",
          "type": "address"
        }
      ],
      "name": "MigrationOwnershipTransferred",
      "type": "event"
    },
    {
      "constant": false,
      "inputs": [],
      "name": "claimFunctionalOwnership",
      "outputs": [],
      "payable": false,
      "stateMutability": "nonpayable",
      "type": "function"
    },
    {
      "constant": false,
      "inputs": [],
      "name": "claimMigrationOwnership",
      "outputs": [],
      "payable": false,
      "stateMutability": "nonpayable",
      "type": "function"
    },
    {
      "constant": true,
      "inputs": [],
      "name": "functionalOwner",
      "outputs": [
        {
          "internalType": "address",
          "name": "",
          "type": "address"
        }
      ],
      "payable": false,
      "stateMutability": "view",
      "type": "function"
    },
    {
      "constant": true,
      "inputs": [],
      "name": "isFunctionalOwner",
      "outputs": [
        {
          "internalType": "bool",
          "name": "",
          "type": "bool"
        }
      ],
      "payable": false,
      "stateMutability": "view",
      "type": "function"
    },
    {
      "constant": true,
      "inputs": [],
      "name": "isMigrationOwner",
      "outputs": [
        {
          "internalType": "bool",
          "name": "",
          "type": "bool"
        }
      ],
      "payable": false,
      "stateMutability": "view",
      "type": "function"
    },
    {
      "constant": true,
      "inputs": [],
      "name": "migrationOwner",
      "outputs": [
        {
          "internalType": "address",
          "name": "",
          "type": "address"
        }
      ],
      "payable": false,
      "stateMutability": "view",
      "type": "function"
    },
    {
      "constant": false,
      "inputs": [],
      "name": "renounceFunctionalOwnership",
      "outputs": [],
      "payable": false,
      "stateMutability": "nonpayable",
      "type": "function"
    },
    {
      "constant": false,
      "inputs": [],
      "name": "renounceMigrationOwnership",
      "outputs": [],
      "payable": false,
      "stateMutability": "nonpayable",
      "type": "function"
    },
    {
      "constant": false,
      "inputs": [
        {
          "internalType": "address",
          "name": "newFunctionalOwner",
          "type": "address"
        }
      ],
      "name": "transferFunctionalOwnership",
      "outputs": [],
      "payable": false,
      "stateMutability": "nonpayable",
      "type": "function"
    },
    {
      "constant": false,
      "inputs": [
        {
          "internalType": "address",
          "name": "newMigrationOwner",
          "type": "address"
        }
      ],
      "name": "transferMigrationOwnership",
      "outputs": [],
      "payable": false,
      "stateMutability": "nonpayable",
      "type": "function"
    },
    {
      "constant": false,
      "inputs": [
        {
          "internalType": "string",
          "name": "contractName",
          "type": "string"
        },
        {
          "internalType": "address",
          "name": "addr",
          "type": "address"
        }
      ],
      "name": "set",
      "outputs": [],
      "payable": false,
      "stateMutability": "nonpayable",
      "type": "function"
    },
    {
      "constant": true,
      "inputs": [
        {
          "internalType": "string",
          "name": "contractName",
          "type": "string"
        }
      ],
      "name": "get",
      "outputs": [
        {
          "internalType": "address",
          "name": "",
          "type": "address"
        }
      ],
      "payable": false,
      "stateMutability": "view",
      "type": "function"
    }
  ],
  "bytecode": "0x608060405260006100176001600160e01b036100c716565b600080546001600160a01b0319166001600160a01b0383169081178255604051929350917f7e8c4fc74f50849b4ec635ed03f5d13f87cd46ae422e97479704c6fd1c164e20908290a35060006100746001600160e01b036100c716565b600280546001600160a01b0319166001600160a01b038316908117909155604051919250906000907f322ef0cb3bcc6b6f659770a0acaf7473e9bc6ebe63e04e4f28924c285c8cc5ea908290a3506100cb565b3390565b6109c6806100da6000396000f3fe608060405234801561001057600080fd5b50600436106100b45760003560e01c8063693ec85e11610071578063693ec85e1461011b5780637b93af4c1461018b5780639b9a7e68146101935780639f587d1c146101b9578063a815ff15146101df578063bed1807d14610258576100b4565b8063021abb93146100b95780631dc669f4146100d5578063209df1e2146100df5780632c43bdd5146100e75780633a88ab8e1461010b5780633b78130914610113575b600080fd5b6100c1610260565b604080519115158252519081900360200190f35b6100dd610284565b005b6100dd6102f4565b6100ef610381565b604080516001600160a01b039092168252519081900360200190f35b6100c1610390565b6100dd6103a7565b6100ef6004803603602081101561013157600080fd5b81019060208101813564010000000081111561014c57600080fd5b82018360208201111561015e57600080fd5b8035906020019184600183028401116401000000008311171561018057600080fd5b509092509050610434565b6100dd6104ac565b6100dd600480360360208110156101a957600080fd5b50356001600160a01b031661051c565b6100dd600480360360208110156101cf57600080fd5b50356001600160a01b0316610581565b6100dd600480360360408110156101f557600080fd5b81019060208101813564010000000081111561021057600080fd5b82018360208201111561022257600080fd5b8035906020019184600183028401116401000000008311171561024457600080fd5b9193509150356001600160a01b03166105e6565b6100ef6106d7565b600080546001600160a01b03166102756106e6565b6001600160a01b031614905090565b6003546001600160a01b031633146102cd5760405162461bcd60e51b81526004018080602001828103825260298152602001806109466029913960400191505060405180910390fd5b6003546102e2906001600160a01b03166106ea565b600380546001600160a01b0319169055565b6102fc610260565b6103375760405162461bcd60e51b815260040180806020018281038252604181526020018061082c6041913960600191505060405180910390fd5b600080546040516001600160a01b03909116907f7e8c4fc74f50849b4ec635ed03f5d13f87cd46ae422e97479704c6fd1c164e20908390a3600080546001600160a01b0319169055565b6000546001600160a01b031690565b6002546000906001600160a01b03166102756106e6565b6103af610390565b6103ea5760405162461bcd60e51b81526004018080602001828103825260438152602001806108cd6043913960600191505060405180910390fd5b6002546040516000916001600160a01b0316907f322ef0cb3bcc6b6f659770a0acaf7473e9bc6ebe63e04e4f28924c285c8cc5ea908390a3600280546001600160a01b0319169055565b600080600484846040518083838082843791909101948552505060405192839003602001909220546001600160a01b031692505050806104a55760405162461bcd60e51b815260040180806020018281038252602381526020018061096f6023913960400191505060405180910390fd5b9392505050565b6001546001600160a01b031633146104f55760405162461bcd60e51b81526004018080602001828103825260288152602001806108a56028913960400191505060405180910390fd5b60015461050a906001600160a01b031661078b565b600180546001600160a01b0319169055565b610524610390565b61055f5760405162461bcd60e51b81526004018080602001828103825260438152602001806108cd6043913960600191505060405180910390fd5b600380546001600160a01b0319166001600160a01b0392909216919091179055565b610589610260565b6105c45760405162461bcd60e51b815260040180806020018281038252604181526020018061082c6041913960600191505060405180910390fd5b600180546001600160a01b0319166001600160a01b0392909216919091179055565b6105ee610390565b6106295760405162461bcd60e51b81526004018080602001828103825260438152602001806108cd6043913960600191505060405180910390fd5b806004848460405180838380828437919091019485525050604080516020948190038501812080546001600160a01b0319166001600160a01b0397881617905594861693850193909352505080825281018390527fa42de6429c1410f4470a8ff5afeeae27c734519ac1693e8eb58798a81715c947908490849084908060608101858580828437600083820152604051601f909101601f1916909201829003965090945050505050a1505050565b6002546001600160a01b031690565b3390565b6001600160a01b03811661072f5760405162461bcd60e51b815260040180806020018281038252603881526020018061086d6038913960400191505060405180910390fd5b6002546040516001600160a01b038084169216907f322ef0cb3bcc6b6f659770a0acaf7473e9bc6ebe63e04e4f28924c285c8cc5ea90600090a3600280546001600160a01b0319166001600160a01b0392909216919091179055565b6001600160a01b0381166107d05760405162461bcd60e51b81526004018080602001828103825260368152602001806109106036913960400191505060405180910390fd5b600080546040516001600160a01b03808516939216917f7e8c4fc74f50849b4ec635ed03f5d13f87cd46ae422e97479704c6fd1c164e2091a3600080546001600160a01b0319166001600160a01b039290921691909117905556fe57697468436c61696d61626c654d6967726174696f6e4f776e6572736869703a2063616c6c6572206973206e6f7420746865206d6967726174696f6e4f776e657246756e6374696f6e616c4f776e65723a206e65772066756e6374696f6e616c4f776e657220697320746865207a65726f206164647265737343616c6c6572206973206e6f74207468652070656e64696e67206d6967726174696f6e4f776e657257697468436c61696d61626c6546756e6374696f6e616c4f776e6572736869703a2063616c6c6572206973206e6f74207468652066756e6374696f6e616c4f776e65724d6967726174696f6e4f776e65723a206e6577206d6967726174696f6e4f776e657220697320746865207a65726f206164647265737343616c6c6572206973206e6f74207468652070656e64696e672066756e6374696f6e616c4f776e657274686520636f6e7472616374206e616d65206973206e6f742072656769737465726564a265627a7a72315820aa6abec69ea07f61d92eb5210a3ec92e14878f629c964b97f4feacdcefadffd164736f6c63430005100032",
  "source": "pragma solidity 0.5.16;\nimport \"./spec_interfaces/IContractRegistry.sol\";\nimport \"./WithClaimableMigrationOwnership.sol\";\nimport \"./WithClaimableFunctionalOwnership.sol\";\n\ncontract ContractRegistry is IContractRegistry, WithClaimableMigrationOwnership, WithClaimableFunctionalOwnership {\n\n\tmapping (string => address) contracts;\n\n\tfunction set(string calldata contractName, address addr) external onlyFunctionalOwner {\n\t\tcontracts[contractName] = addr;\n\t\temit ContractAddressUpdated(contractName, addr);\n\t}\n\n\tfunction get(string calldata contractName) external view returns (address) {\n\t\taddress addr = contracts[contractName];\n\t\trequire(addr != address(0), \"the contract name is not registered\");\n\t\treturn addr;\n\t}\n}\n",
  "sourcePath": "/Users/aviramstern/GolandProjects/orbs-ethereum-contracts-v2/contracts/ContractRegistry.sol",
  "compiler": {
    "name": "solc",
    "version": "0.5.16+commit.9c3226ce.Emscripten.clang"
  },
  "schemaVersion": "3.0.23",
  "updatedAt": "2020-07-27T07:33:26.838Z",
  "devdoc": {
    "methods": {
      "claimFunctionalOwnership()": {
        "details": "Allows the pendingFunctionalOwner address to finalize the transfer."
      },
      "claimMigrationOwnership()": {
        "details": "Allows the pendingMigrationOwner address to finalize the transfer."
      },
      "functionalOwner()": {
        "details": "Returns the address of the current functionalOwner."
      },
      "isFunctionalOwner()": {
        "details": "Returns true if the caller is the current functionalOwner."
      },
      "isMigrationOwner()": {
        "details": "Returns true if the caller is the current migrationOwner."
      },
      "migrationOwner()": {
        "details": "Returns the address of the current migrationOwner."
      },
      "renounceFunctionalOwnership()": {
        "details": "Leaves the contract without functionalOwner. It will not be possible to call `onlyOwner` functions anymore. Can only be called by the current functionalOwner.     * NOTE: Renouncing functionalOwnership will leave the contract without an functionalOwner, thereby removing any functionality that is only available to the functionalOwner."
      },
      "renounceMigrationOwnership()": {
        "details": "Leaves the contract without migrationOwner. It will not be possible to call `onlyOwner` functions anymore. Can only be called by the current migrationOwner.     * NOTE: Renouncing migrationOwnership will leave the contract without an migrationOwner, thereby removing any functionality that is only available to the migrationOwner."
      },
      "transferFunctionalOwnership(address)": {
        "details": "Allows the current functionalOwner to set the pendingOwner address.",
        "params": {
          "newFunctionalOwner": "The address to transfer functionalOwnership to."
        }
      },
      "transferMigrationOwnership(address)": {
        "details": "Allows the current migrationOwner to set the pendingOwner address.",
        "params": {
          "newMigrationOwner": "The address to transfer migrationOwnership to."
        }
      }
    }
  },
  "userdoc": {
    "methods": {}
  }
}