{
  "contractName": "Delegations",
  "abi": [
    {
      "inputs": [],
      "payable": false,
      "stateMutability": "nonpayable",
      "type": "constructor"
    },
    {
      "anonymous": false,
      "inputs": [
        {
          "indexed": false,
          "internalType": "address",
          "name": "addr",
          "type": "address"
        }
      ],
      "name": "ContractRegistryAddressUpdated",
      "type": "event"
    },
    {
      "anonymous": false,
      "inputs": [
        {
          "indexed": true,
          "internalType": "address",
          "name": "from",
          "type": "address"
        },
        {
          "indexed": true,
          "internalType": "address",
          "name": "to",
          "type": "address"
        }
      ],
      "name": "Delegated",
      "type": "event"
    },
    {
      "anonymous": false,
      "inputs": [
        {
          "indexed": true,
          "internalType": "address",
          "name": "addr",
          "type": "address"
        },
        {
          "indexed": false,
          "internalType": "uint256",
          "name": "selfDelegatedStake",
          "type": "uint256"
        },
        {
          "indexed": false,
          "internalType": "uint256",
          "name": "delegatedStake",
          "type": "uint256"
        },
        {
          "indexed": false,
          "internalType": "address[]",
          "name": "delegators",
          "type": "address[]"
        },
        {
          "indexed": false,
          "internalType": "uint256[]",
          "name": "delegatorTotalStakes",
          "type": "uint256[]"
        }
      ],
      "name": "DelegatedStakeChanged",
      "type": "event"
    },
    {
      "anonymous": false,
      "inputs": [],
      "name": "DelegationImportFinalized",
      "type": "event"
    },
    {
      "anonymous": false,
      "inputs": [
        {
          "indexed": false,
          "internalType": "address[]",
          "name": "from",
          "type": "address[]"
        },
        {
          "indexed": false,
          "internalType": "address[]",
          "name": "to",
          "type": "address[]"
        },
        {
          "indexed": false,
          "internalType": "bool",
          "name": "notifiedElections",
          "type": "bool"
        }
      ],
      "name": "DelegationsImported",
      "type": "event"
    },
    {
      "anonymous": false,
      "inputs": [
        {
          "indexed": true,
          "internalType": "address",
          "name": "previousFunctionalOwner",
          "type": "address"
        },
        {
          "indexed": true,
          "internalType": "address",
          "name": "newFunctionalOwner",
          "type": "address"
        }
      ],
      "name": "FunctionalOwnershipTransferred",
      "type": "event"
    },
    {
      "anonymous": false,
      "inputs": [],
      "name": "Locked",
      "type": "event"
    },
    {
      "anonymous": false,
      "inputs": [
        {
          "indexed": true,
          "internalType": "address",
          "name": "previousMigrationOwner",
          "type": "address"
        },
        {
          "indexed": true,
          "internalType": "address",
          "name": "newMigrationOwner",
          "type": "address"
        }
      ],
      "name": "MigrationOwnershipTransferred",
      "type": "event"
    },
    {
      "anonymous": false,
      "inputs": [],
      "name": "Unlocked",
      "type": "event"
    },
    {
      "constant": false,
      "inputs": [],
      "name": "claimFunctionalOwnership",
      "outputs": [],
      "payable": false,
      "stateMutability": "nonpayable",
      "type": "function"
    },
    {
      "constant": false,
      "inputs": [],
      "name": "claimMigrationOwnership",
      "outputs": [],
      "payable": false,
      "stateMutability": "nonpayable",
      "type": "function"
    },
    {
      "constant": true,
      "inputs": [],
      "name": "delegationImportFinalized",
      "outputs": [
        {
          "internalType": "bool",
          "name": "",
          "type": "bool"
        }
      ],
      "payable": false,
      "stateMutability": "view",
      "type": "function"
    },
    {
      "constant": true,
      "inputs": [],
      "name": "functionalOwner",
      "outputs": [
        {
          "internalType": "address",
          "name": "",
          "type": "address"
        }
      ],
      "payable": false,
      "stateMutability": "view",
      "type": "function"
    },
    {
      "constant": true,
      "inputs": [],
      "name": "getBootstrapRewardsWallet",
      "outputs": [
        {
          "internalType": "contract IProtocolWallet",
          "name": "",
          "type": "address"
        }
      ],
      "payable": false,
      "stateMutability": "view",
      "type": "function"
    },
    {
      "constant": true,
      "inputs": [],
      "name": "getCertificationContract",
      "outputs": [
        {
          "internalType": "contract ICertification",
          "name": "",
          "type": "address"
        }
      ],
      "payable": false,
      "stateMutability": "view",
      "type": "function"
    },
    {
      "constant": true,
      "inputs": [],
      "name": "getCommitteeContract",
      "outputs": [
        {
          "internalType": "contract ICommittee",
          "name": "",
          "type": "address"
        }
      ],
      "payable": false,
      "stateMutability": "view",
      "type": "function"
    },
    {
      "constant": true,
      "inputs": [],
      "name": "getDelegationsContract",
      "outputs": [
        {
          "internalType": "contract IDelegations",
          "name": "",
          "type": "address"
        }
      ],
      "payable": false,
      "stateMutability": "view",
      "type": "function"
    },
    {
      "constant": true,
      "inputs": [],
      "name": "getElectionsContract",
      "outputs": [
        {
          "internalType": "contract IElections",
          "name": "",
          "type": "address"
        }
      ],
      "payable": false,
      "stateMutability": "view",
      "type": "function"
    },
    {
      "constant": true,
      "inputs": [],
      "name": "getGuardiansRegistrationContract",
      "outputs": [
        {
          "internalType": "contract IGuardiansRegistration",
          "name": "",
          "type": "address"
        }
      ],
      "payable": false,
      "stateMutability": "view",
      "type": "function"
    },
    {
      "constant": true,
      "inputs": [],
      "name": "getProtocolContract",
      "outputs": [
        {
          "internalType": "contract IProtocol",
          "name": "",
          "type": "address"
        }
      ],
      "payable": false,
      "stateMutability": "view",
      "type": "function"
    },
    {
      "constant": true,
      "inputs": [],
      "name": "getRewardsContract",
      "outputs": [
        {
          "internalType": "contract IRewards",
          "name": "",
          "type": "address"
        }
      ],
      "payable": false,
      "stateMutability": "view",
      "type": "function"
    },
    {
      "constant": true,
      "inputs": [],
      "name": "getStakingContract",
      "outputs": [
        {
          "internalType": "contract IStakingContract",
          "name": "",
          "type": "address"
        }
      ],
      "payable": false,
      "stateMutability": "view",
      "type": "function"
    },
    {
      "constant": true,
      "inputs": [],
      "name": "getStakingRewardsWallet",
      "outputs": [
        {
          "internalType": "contract IProtocolWallet",
          "name": "",
          "type": "address"
        }
      ],
      "payable": false,
      "stateMutability": "view",
      "type": "function"
    },
    {
      "constant": true,
      "inputs": [],
      "name": "getSubscriptionsContract",
      "outputs": [
        {
          "internalType": "contract ISubscriptions",
          "name": "",
          "type": "address"
        }
      ],
      "payable": false,
      "stateMutability": "view",
      "type": "function"
    },
    {
      "constant": true,
      "inputs": [],
      "name": "isFunctionalOwner",
      "outputs": [
        {
          "internalType": "bool",
          "name": "",
          "type": "bool"
        }
      ],
      "payable": false,
      "stateMutability": "view",
      "type": "function"
    },
    {
      "constant": true,
      "inputs": [],
      "name": "isMigrationOwner",
      "outputs": [
        {
          "internalType": "bool",
          "name": "",
          "type": "bool"
        }
      ],
      "payable": false,
      "stateMutability": "view",
      "type": "function"
    },
    {
      "constant": false,
      "inputs": [],
      "name": "lock",
      "outputs": [],
      "payable": false,
      "stateMutability": "nonpayable",
      "type": "function"
    },
    {
      "constant": true,
      "inputs": [],
      "name": "locked",
      "outputs": [
        {
          "internalType": "bool",
          "name": "",
          "type": "bool"
        }
      ],
      "payable": false,
      "stateMutability": "view",
      "type": "function"
    },
    {
      "constant": true,
      "inputs": [],
      "name": "migrationOwner",
      "outputs": [
        {
          "internalType": "address",
          "name": "",
          "type": "address"
        }
      ],
      "payable": false,
      "stateMutability": "view",
      "type": "function"
    },
    {
      "constant": false,
      "inputs": [],
      "name": "renounceFunctionalOwnership",
      "outputs": [],
      "payable": false,
      "stateMutability": "nonpayable",
      "type": "function"
    },
    {
      "constant": false,
      "inputs": [],
      "name": "renounceMigrationOwnership",
      "outputs": [],
      "payable": false,
      "stateMutability": "nonpayable",
      "type": "function"
    },
    {
      "constant": false,
      "inputs": [
        {
          "internalType": "contract IContractRegistry",
          "name": "_contractRegistry",
          "type": "address"
        }
      ],
      "name": "setContractRegistry",
      "outputs": [],
      "payable": false,
      "stateMutability": "nonpayable",
      "type": "function"
    },
    {
      "constant": false,
      "inputs": [
        {
          "internalType": "address",
          "name": "newFunctionalOwner",
          "type": "address"
        }
      ],
      "name": "transferFunctionalOwnership",
      "outputs": [],
      "payable": false,
      "stateMutability": "nonpayable",
      "type": "function"
    },
    {
      "constant": false,
      "inputs": [
        {
          "internalType": "address",
          "name": "newMigrationOwner",
          "type": "address"
        }
      ],
      "name": "transferMigrationOwnership",
      "outputs": [],
      "payable": false,
      "stateMutability": "nonpayable",
      "type": "function"
    },
    {
      "constant": false,
      "inputs": [],
      "name": "unlock",
      "outputs": [],
      "payable": false,
      "stateMutability": "nonpayable",
      "type": "function"
    },
    {
      "constant": true,
      "inputs": [],
      "name": "getTotalDelegatedStake",
      "outputs": [
        {
          "internalType": "uint256",
          "name": "",
          "type": "uint256"
        }
      ],
      "payable": false,
      "stateMutability": "view",
      "type": "function"
    },
    {
      "constant": false,
      "inputs": [
        {
          "internalType": "address",
          "name": "to",
          "type": "address"
        }
      ],
      "name": "delegate",
      "outputs": [],
      "payable": false,
      "stateMutability": "nonpayable",
      "type": "function"
    },
    {
      "constant": false,
      "inputs": [
        {
          "internalType": "address[]",
          "name": "from",
          "type": "address[]"
        },
        {
          "internalType": "address[]",
          "name": "to",
          "type": "address[]"
        },
        {
          "internalType": "bool",
          "name": "notifyElections",
          "type": "bool"
        }
      ],
      "name": "importDelegations",
      "outputs": [],
      "payable": false,
      "stateMutability": "nonpayable",
      "type": "function"
    },
    {
      "constant": false,
      "inputs": [],
      "name": "finalizeDelegationImport",
      "outputs": [],
      "payable": false,
      "stateMutability": "nonpayable",
      "type": "function"
    },
    {
      "constant": false,
      "inputs": [
        {
          "internalType": "address",
          "name": "addr",
          "type": "address"
        }
      ],
      "name": "refreshStakeNotification",
      "outputs": [],
      "payable": false,
      "stateMutability": "nonpayable",
      "type": "function"
    },
    {
      "constant": false,
      "inputs": [
        {
          "internalType": "address",
          "name": "_stakeOwner",
          "type": "address"
        },
        {
          "internalType": "uint256",
          "name": "_amount",
          "type": "uint256"
        },
        {
          "internalType": "bool",
          "name": "_sign",
          "type": "bool"
        },
        {
          "internalType": "uint256",
          "name": "_updatedStake",
          "type": "uint256"
        }
      ],
      "name": "stakeChange",
      "outputs": [],
      "payable": false,
      "stateMutability": "nonpayable",
      "type": "function"
    },
    {
      "constant": false,
      "inputs": [
        {
          "internalType": "address[]",
          "name": "_stakeOwners",
          "type": "address[]"
        },
        {
          "internalType": "uint256[]",
          "name": "_amounts",
          "type": "uint256[]"
        },
        {
          "internalType": "bool[]",
          "name": "_signs",
          "type": "bool[]"
        },
        {
          "internalType": "uint256[]",
          "name": "_updatedStakes",
          "type": "uint256[]"
        }
      ],
      "name": "stakeChangeBatch",
      "outputs": [],
      "payable": false,
      "stateMutability": "nonpayable",
      "type": "function"
    },
    {
      "constant": true,
      "inputs": [
        {
          "internalType": "address",
          "name": "addr",
          "type": "address"
        }
      ],
      "name": "getDelegation",
      "outputs": [
        {
          "internalType": "address",
          "name": "",
          "type": "address"
        }
      ],
      "payable": false,
      "stateMutability": "view",
      "type": "function"
    },
    {
      "constant": false,
      "inputs": [
        {
          "internalType": "address",
          "name": "_stakeOwner",
          "type": "address"
        },
        {
          "internalType": "uint256",
          "name": "_amount",
          "type": "uint256"
        }
      ],
      "name": "stakeMigration",
      "outputs": [],
      "payable": false,
      "stateMutability": "nonpayable",
      "type": "function"
    },
    {
      "constant": true,
      "inputs": [
        {
          "internalType": "address",
          "name": "addr",
          "type": "address"
        }
      ],
      "name": "getDelegatedStakes",
      "outputs": [
        {
          "internalType": "uint256",
          "name": "",
          "type": "uint256"
        }
      ],
      "payable": false,
      "stateMutability": "view",
      "type": "function"
    },
    {
      "constant": true,
      "inputs": [
        {
          "internalType": "address",
          "name": "addr",
          "type": "address"
        }
      ],
      "name": "getSelfDelegatedStake",
      "outputs": [
        {
          "internalType": "uint256",
          "name": "",
          "type": "uint256"
        }
      ],
      "payable": false,
      "stateMutability": "view",
      "type": "function"
    }
  ],
  "bytecode": "0x60806040523480156200001157600080fd5b506000620000276001600160e01b03620000da16565b600080546001600160a01b0319166001600160a01b0383169081178255604051929350917f7e8c4fc74f50849b4ec635ed03f5d13f87cd46ae422e97479704c6fd1c164e20908290a3506000620000866001600160e01b03620000da16565b600380546001600160a01b0319166001600160a01b038316908117909155604051919250906000907f322ef0cb3bcc6b6f659770a0acaf7473e9bc6ebe63e04e4f28924c285c8cc5ea908290a350620000de565b3390565b612d4480620000ee6000396000f3fe608060405234801561001057600080fd5b50600436106102275760003560e01c80638e68dce411610130578063b5f1c29d116100b8578063ddc0d5d61161007c578063ddc0d5d614610688578063ec5e178c14610690578063f83d08ba14610698578063fcd13d65146106a0578063fde36764146106c657610227565b8063b5f1c29d1461063c578063bed1807d14610644578063ce257ab81461064c578063cf30901214610678578063cf3b670b1461068057610227565b80639f587d1c116100ff5780639f587d1c146105f6578063a09e0d901461061c578063a69df4b514610624578063ab6acfc41461062c578063ad751ed31461063457610227565b80638e68dce41461046257806390ef9d3f1461046a578063977d4e5a146105c85780639b9a7e68146105d057610227565b80632c43bdd5116101b35780635c19a95c116101825780635c19a95c146103645780635cf193161461038a5780636cdb67461461044a5780637b93af4c146104525780638ac1bde71461045a57610227565b80632c43bdd5146103445780633a88ab8e1461034c5780633b781309146103545780635282346d1461035c57610227565b806311caadfb116101fa57806311caadfb146102b25780631dc669f4146102d6578063209df1e2146102de57806327cd7f02146102e65780632b2937681461031e57610227565b8063021abb931461022c5780630bac4725146102485780630dbf4458146102505780630e3b7c9514610278575b600080fd5b6102346106ec565b604080519115158252519081900360200190f35b610234610710565b6102766004803603602081101561026657600080fd5b50356001600160a01b0316610719565b005b6102766004803603608081101561028e57600080fd5b506001600160a01b03813516906020810135906040810135151590606001356107fd565b6102ba6108b1565b604080516001600160a01b039092168252519081900360200190f35b610276610945565b6102766109b5565b61030c600480360360208110156102fc57600080fd5b50356001600160a01b0316610a42565b60408051918252519081900360200190f35b6102ba6004803603602081101561033457600080fd5b50356001600160a01b0316610a78565b6102ba610a8a565b610234610a99565b610276610ab0565b6102ba610b3d565b6102766004803603602081101561037a57600080fd5b50356001600160a01b0316610ba2565b610276600480360360608110156103a057600080fd5b810190602081018135600160201b8111156103ba57600080fd5b8201836020820111156103cc57600080fd5b803590602001918460208302840111600160201b831117156103ed57600080fd5b919390929091602081019035600160201b81111561040a57600080fd5b82018360208201111561041c57600080fd5b803590602001918460208302840111600160201b8311171561043d57600080fd5b9193509150351515610bf7565b6102ba610e98565b610276610f06565b610276610f76565b6102ba611049565b6102766004803603608081101561048057600080fd5b810190602081018135600160201b81111561049a57600080fd5b8201836020820111156104ac57600080fd5b803590602001918460208302840111600160201b831117156104cd57600080fd5b919390929091602081019035600160201b8111156104ea57600080fd5b8201836020820111156104fc57600080fd5b803590602001918460208302840111600160201b8311171561051d57600080fd5b919390929091602081019035600160201b81111561053a57600080fd5b82018360208201111561054c57600080fd5b803590602001918460208302840111600160201b8311171561056d57600080fd5b919390929091602081019035600160201b81111561058a57600080fd5b82018360208201111561059c57600080fd5b803590602001918460208302840111600160201b831117156105bd57600080fd5b5090925090506110aa565b6102ba6112df565b610276600480360360208110156105e657600080fd5b50356001600160a01b0316611346565b6102766004803603602081101561060c57600080fd5b50356001600160a01b03166113ab565b6102ba611410565b610276611477565b6102ba6114f2565b6102ba611555565b6102ba6115b6565b6102ba611618565b6102766004803603604081101561066257600080fd5b506001600160a01b038135169060200135611627565b6102346116cb565b61030c6116db565b6102ba6116e1565b6102ba611750565b6102766117c0565b610276600480360360208110156106b657600080fd5b50356001600160a01b0316611841565b61030c600480360360208110156106dc57600080fd5b50356001600160a01b03166118d8565b600080546001600160a01b031661070161197d565b6001600160a01b031614905090565b60085460ff1681565b600454600160a01b900460ff16156107625760405162461bcd60e51b8152600401808060200182810382526025815260200180612ad76025913960400191505060405180910390fd5b6107fa8160006001610772611049565b6001600160a01b031663e9aea8c8866040518263ffffffff1660e01b815260040180826001600160a01b03166001600160a01b0316815260200191505060206040518083038186803b1580156107c757600080fd5b505afa1580156107db573d6000803e3d6000fd5b505050506040513d60208110156107f157600080fd5b50516001611981565b50565b610805611049565b6001600160a01b0316336001600160a01b0316146108545760405162461bcd60e51b8152600401808060200182810382526022815260200180612bfd6022913960400191505060405180910390fd5b600454600160a01b900460ff161561089d5760405162461bcd60e51b8152600401808060200182810382526025815260200180612ad76025913960400191505060405180910390fd5b6108ab848484846001611981565b50505050565b6002546040805163349f642f60e11b81526020600482018190526009602483015268656c656374696f6e7360b81b604483015291516000936001600160a01b03169263693ec85e9260648082019391829003018186803b15801561091457600080fd5b505afa158015610928573d6000803e3d6000fd5b505050506040513d602081101561093e57600080fd5b5051905090565b6004546001600160a01b0316331461098e5760405162461bcd60e51b8152600401808060200182810382526029815260200180612cb96029913960400191505060405180910390fd5b6004546109a3906001600160a01b0316611bd5565b600480546001600160a01b0319169055565b6109bd6106ec565b6109f85760405162461bcd60e51b8152600401808060200182810382526041815260200180612afc6041913960600191505060405180910390fd5b600080546040516001600160a01b03909116907f7e8c4fc74f50849b4ec635ed03f5d13f87cd46ae422e97479704c6fd1c164e20908390a3600080546001600160a01b0319169055565b6000610a4d82611c76565b610a58576000610a72565b6001600160a01b0382166000908152600660205260409020545b92915050565b6000610a8382611c9b565b5192915050565b6000546001600160a01b031690565b6003546000906001600160a01b031661070161197d565b610ab8610a99565b610af35760405162461bcd60e51b8152600401808060200182810382526043815260200180612c1f6043913960600191505060405180910390fd5b6003546040516000916001600160a01b0316907f322ef0cb3bcc6b6f659770a0acaf7473e9bc6ebe63e04e4f28924c285c8cc5ea908390a3600380546001600160a01b0319169055565b6002546040805163349f642f60e11b8152602060048201819052600b60248301526a64656c65676174696f6e7360a81b604483015291516000936001600160a01b03169263693ec85e9260648082019391829003018186803b15801561091457600080fd5b600454600160a01b900460ff1615610beb5760405162461bcd60e51b8152600401808060200182810382526025815260200180612ad76025913960400191505060405180910390fd5b6107fa33826001611d00565b610bff6106ec565b610c3a5760405162461bcd60e51b8152600401808060200182810382526041815260200180612afc6041913960600191505060405180910390fd5b60085460ff1615610c92576040805162461bcd60e51b815260206004820152601f60248201527f64656c65676174696f6e20696d706f7274207761732066696e616c697a656400604482015290519081900360640190fd5b838214610cd05760405162461bcd60e51b8152600401808060200182810382526029815260200180612aae6029913960400191505060405180910390fd5b60005b84811015610df157610da8868683818110610cea57fe5b905060200201356001600160a01b031660006001610d06611049565b6001600160a01b031663e9aea8c88b8b88818110610d2057fe5b905060200201356001600160a01b03166040518263ffffffff1660e01b815260040180826001600160a01b03166001600160a01b0316815260200191505060206040518083038186803b158015610d7657600080fd5b505afa158015610d8a573d6000803e3d6000fd5b505050506040513d6020811015610da057600080fd5b505186611981565b610de9868683818110610db757fe5b905060200201356001600160a01b0316858584818110610dd357fe5b905060200201356001600160a01b031684611d00565b600101610cd3565b507f4308082f10208a0b4bce38e3d9e4baf64a3e9bdded86fe14bcaa89c3fce581088585858585604051808060200180602001841515151581526020018381038352888882818152602001925060200280828437600083820152601f01601f19169091018481038352868152602090810191508790870280828437600083820152604051601f909101601f1916909201829003995090975050505050505050a15050505050565b6002546040805163349f642f60e11b815260206004820181905260146024830152731cdd185ada5b99d4995dd85c991cd5d85b1b195d60621b604483015291516000936001600160a01b03169263693ec85e9260648082019391829003018186803b15801561091457600080fd5b6001546001600160a01b03163314610f4f5760405162461bcd60e51b8152600401808060200182810382526028815260200180612bd56028913960400191505060405180910390fd5b600154610f64906001600160a01b031661220f565b600180546001600160a01b0319169055565b610f7e6106ec565b610fb95760405162461bcd60e51b8152600401808060200182810382526041815260200180612afc6041913960600191505060405180910390fd5b60085460ff1615611011576040805162461bcd60e51b815260206004820152601f60248201527f64656c65676174696f6e20696d706f7274207761732066696e616c697a656400604482015290519081900360640190fd5b6008805460ff191660011790556040517f5640a8aac60d91fe97ba171d4d30470e0bb6cfa156848d72aa8389389fdfe69990600090a1565b6002546040805163349f642f60e11b815260206004820181905260076024830152667374616b696e6760c81b604483015291516000936001600160a01b03169263693ec85e9260648082019391829003018186803b15801561091457600080fd5b6110b2611049565b6001600160a01b0316336001600160a01b0316146111015760405162461bcd60e51b8152600401808060200182810382526022815260200180612bfd6022913960400191505060405180910390fd5b600454600160a01b900460ff161561114a5760405162461bcd60e51b8152600401808060200182810382526025815260200180612ad76025913960400191505060405180910390fd5b868581146111895760405162461bcd60e51b815260040180806020018281038252602e815260200180612ce2602e913960400191505060405180910390fd5b8084146111c75760405162461bcd60e51b815260040180806020018281038252602c815260200180612b3d602c913960400191505060405180910390fd5b8082146112055760405162461bcd60e51b8152600401808060200182810382526034815260200180612ba16034913960400191505060405180910390fd5b6112d489898080602002602001604051908101604052809392919081815260200183836020028082843760009201919091525050604080516020808d0282810182019093528c82529093508c92508b91829185019084908082843760009201919091525050604080516020808c0282810182019093528b82529093508b92508a91829185019084908082843760009201919091525050604080516020808b0282810182019093528a82529093508a9250899182918501908490808284376000920191909152506122af92505050565b505050505050505050565b6002546040805163349f642f60e11b8152602060048201819052600d60248301526c737562736372697074696f6e7360981b604483015291516000936001600160a01b03169263693ec85e9260648082019391829003018186803b15801561091457600080fd5b61134e610a99565b6113895760405162461bcd60e51b8152600401808060200182810382526043815260200180612c1f6043913960600191505060405180910390fd5b600480546001600160a01b0319166001600160a01b0392909216919091179055565b6113b36106ec565b6113ee5760405162461bcd60e51b8152600401808060200182810382526041815260200180612afc6041913960600191505060405180910390fd5b600180546001600160a01b0319166001600160a01b0392909216919091179055565b6002546040805163349f642f60e11b8152602060048201819052600d60248301526c31b2b93a34b334b1b0ba34b7b760991b604483015291516000936001600160a01b03169263693ec85e9260648082019391829003018186803b15801561091457600080fd5b61147f6106ec565b6114ba5760405162461bcd60e51b8152600401808060200182810382526041815260200180612afc6041913960600191505060405180910390fd5b6004805460ff60a01b191690556040517f19aad37188a1d3921e29eb3c66acf43d81975e107cb650d58cca878627955fd690600090a1565b6002546040805163349f642f60e11b81526020600482018190526009602483015268636f6d6d697474656560b81b604483015291516000936001600160a01b03169263693ec85e9260648082019391829003018186803b15801561091457600080fd5b6002546040805163349f642f60e11b815260206004820181905260076024830152667265776172647360c81b604483015291516000936001600160a01b03169263693ec85e9260648082019391829003018186803b15801561091457600080fd5b6002546040805163349f642f60e11b815260206004820181905260086024830152671c1c9bdd1bd8dbdb60c21b604483015291516000936001600160a01b03169263693ec85e9260648082019391829003018186803b15801561091457600080fd5b6003546001600160a01b031690565b61162f611049565b6001600160a01b0316336001600160a01b03161461167e5760405162461bcd60e51b8152600401808060200182810382526022815260200180612bfd6022913960400191505060405180910390fd5b600454600160a01b900460ff16156116c75760405162461bcd60e51b8152600401808060200182810382526025815260200180612ad76025913960400191505060405180910390fd5b5050565b600454600160a01b900460ff1681565b60075490565b6002546040805163349f642f60e11b8152602060048201819052601560248301527433bab0b93234b0b739a932b3b4b9ba3930ba34b7b760591b604483015291516000936001600160a01b03169263693ec85e9260648082019391829003018186803b15801561091457600080fd5b6002546040805163349f642f60e11b81526020600482018190526016602483015275189bdbdd1cdd1c985c14995dd85c991cd5d85b1b195d60521b604483015291516000936001600160a01b03169263693ec85e9260648082019391829003018186803b15801561091457600080fd5b6117c86106ec565b6118035760405162461bcd60e51b8152600401808060200182810382526041815260200180612afc6041913960600191505060405180910390fd5b6004805460ff60a01b1916600160a01b1790556040517f0f2e5b6c72c6a4491efd919a9f9a409f324ef0708c11ee57d410c2cb06c0992b90600090a1565b6118496106ec565b6118845760405162461bcd60e51b8152600401808060200182810382526041815260200180612afc6041913960600191505060405180910390fd5b600280546001600160a01b0383166001600160a01b0319909116811790915560408051918252517ffea2d033438b968078a6264409d0104b5f3d2ce7b795afc74918e70f3534f22b9181900360200190a150565b60006118e382611c76565b6118ee576000610a72565b6118f6611049565b6001600160a01b031663e9aea8c8836040518263ffffffff1660e01b815260040180826001600160a01b03166001600160a01b0316815260200191505060206040518083038186803b15801561194b57600080fd5b505afa15801561195f573d6000803e3d6000fd5b505050506040513d602081101561197557600080fd5b505192915050565b3390565b611989612a63565b61199286611c9b565b80516001600160a01b031660009081526006602090815260409091205490820151919250906119ee576001600160a01b0387166000908152600560205260409020805460ff60a01b1916600160a01b1790559294506001935084925b600085611a0a57611a05828863ffffffff61254f16565b611a1a565b611a1a828863ffffffff61259816565b83516001600160a01b03166000908152600660205260408120829055845191925090611a4590611c76565b6007549091508115611a835787611a6b57611a66818a63ffffffff61254f16565b611a7b565b611a7b818a63ffffffff61259816565b600781905590505b8515611bb657611a916108b1565b6001600160a01b03166361885df88660000151611aac611049565b6001600160a01b031663e9aea8c889600001516040518263ffffffff1660e01b815260040180826001600160a01b03166001600160a01b0316815260200191505060206040518083038186803b158015611b0557600080fd5b505afa158015611b19573d6000803e3d6000fd5b505050506040513d6020811015611b2f57600080fd5b505185611b3d576000611b3f565b865b856040518563ffffffff1660e01b815260040180856001600160a01b03166001600160a01b03168152602001848152602001838152602001828152602001945050505050600060405180830381600087803b158015611b9d57600080fd5b505af1158015611bb1573d6000803e3d6000fd5b505050505b8815611bc9578451611bc9908b896125f2565b50505050505050505050565b6001600160a01b038116611c1a5760405162461bcd60e51b8152600401808060200182810382526038815260200180612b696038913960400191505060405180910390fd5b6003546040516001600160a01b038084169216907f322ef0cb3bcc6b6f659770a0acaf7473e9bc6ebe63e04e4f28924c285c8cc5ea90600090a3600380546001600160a01b0319166001600160a01b0392909216919091179055565b6000816001600160a01b0316611c8b83610a78565b6001600160a01b03161492915050565b611ca3612a63565b506001600160a01b03818116600090815260056020908152604091829020825180840190935254928316808352600160a01b90930460ff161515908201529015611cee578051611cf0565b815b6001600160a01b03168152919050565b6000611d0b84610a78565b90506001600160a01b038316611d525760405162461bcd60e51b8152600401808060200182810382526021815260200180612c986021913960400191505060405180910390fd5b611d5a612a7a565b611d6382612788565b9050611d6d612a7a565b611d7685612788565b6001600160a01b03878116600090815260056020526040812080546001600160a01b03191692891692909217909155909150611db0611049565b6001600160a01b031663e9aea8c8886040518263ffffffff1660e01b815260040180826001600160a01b03166001600160a01b0316815260200191505060206040518083038186803b158015611e0557600080fd5b505afa158015611e19573d6000803e3d6000fd5b505050506040513d6020811015611e2f57600080fd5b50516001600160a01b038816600090815260056020526040902054909150600160a01b900460ff1615611e8f576020830151611e71908263ffffffff61254f16565b6001600160a01b038516600090815260066020526040902055611eb9565b6001600160a01b0387166000908152600560205260409020805460ff60a01b1916600160a01b1790555b6020820151611ece908263ffffffff61259816565b6001600160a01b038716600090815260066020526040902055611eef612a7a565b611ef885612788565b9050611f02612a7a565b611f0b88612788565b90506000611f588260600151611f408760600151611f4c8760600151611f408c6060015160075461254f90919063ffffffff16565b9063ffffffff61259816565b9063ffffffff61254f16565b600781905590508715612192576000611f6f6108b1565b90506000611f7b611049565b9050816001600160a01b03166361885df88a836001600160a01b031663e9aea8c88d6040518263ffffffff1660e01b815260040180826001600160a01b03166001600160a01b0316815260200191505060206040518083038186803b158015611fe357600080fd5b505afa158015611ff7573d6000803e3d6000fd5b505050506040513d602081101561200d57600080fd5b50516060890151604080516001600160e01b031960e087901b1681526001600160a01b039094166004850152602484019290925260448301526064820187905251608480830192600092919082900301818387803b15801561206e57600080fd5b505af1158015612082573d6000803e3d6000fd5b50505050816001600160a01b03166361885df88c836001600160a01b031663e9aea8c88f6040518263ffffffff1660e01b815260040180826001600160a01b03166001600160a01b0316815260200191505060206040518083038186803b1580156120ec57600080fd5b505afa158015612100573d6000803e3d6000fd5b505050506040513d602081101561211657600080fd5b50516060880151604080516001600160e01b031960e087901b1681526001600160a01b039094166004850152602484019290925260448301526064820187905251608480830192600092919082900301818387803b15801561217757600080fd5b505af115801561218b573d6000803e3d6000fd5b5050505050505b886001600160a01b03168a6001600160a01b03167f4bc154dd35d6a5cb9206482ecb473cdbf2473006d6bce728b9cc0741bcc59ea260405160405180910390a383158015906121f35750886001600160a01b0316876001600160a01b031614155b15611bc957612204878b60006125f2565b611bc9898b866125f2565b6001600160a01b0381166122545760405162461bcd60e51b8152600401808060200182810382526036815260200180612c626036913960400191505060405180910390fd5b600080546040516001600160a01b03808516939216917f7e8c4fc74f50849b4ec635ed03f5d13f87cd46ae422e97479704c6fd1c164e2091a3600080546001600160a01b0319166001600160a01b0392909216919091179055565b6000805b8551811015612547576122c4612a63565b6122e08783815181106122d357fe5b6020026020010151611c9b565b80516001600160a01b0381166000908152600660205260409020549192509080845b8a5186101561245d57808614612324576123218b87815181106122d357fe5b94505b84516001600160a01b0385811691161461233d5761245d565b84602001516123e75787868151811061235257fe5b60200260200101518a878151811061236657fe5b602002602001018181525050600189878151811061238057fe5b6020026020010190151590811515815250506001600560008d89815181106123a457fe5b60200260200101516001600160a01b03166001600160a01b0316815260200190815260200160002060000160146101000a81548160ff0219169083151502179055505b8886815181106123f357fe5b602002602001015161242a576124258a878151811061240e57fe5b60200260200101518461254f90919063ffffffff16565b612450565b6124508a878151811061243957fe5b60200260200101518461259890919063ffffffff16565b6001909601959250612302565b6001600160a01b0384166000908152600660205260409020839055612487848c8a84808b036127e0565b61248f611049565b6001600160a01b031663e9aea8c8856040518263ffffffff1660e01b815260040180826001600160a01b03166001600160a01b0316815260200191505060206040518083038186803b1580156124e457600080fd5b505afa1580156124f8573d6000803e3d6000fd5b505050506040513d602081101561250e57600080fd5b5051965061251b84611c76565b1561253d5761253983611f408460075461254f90919063ffffffff16565b6007555b50505050506122b3565b505050505050565b600061259183836040518060400160405280601e81526020017f536166654d6174683a207375627472616374696f6e206f766572666c6f7700008152506129cc565b9392505050565b600082820183811015612591576040805162461bcd60e51b815260206004820152601b60248201527f536166654d6174683a206164646974696f6e206f766572666c6f770000000000604482015290519081900360640190fd5b604080516001808252818301909252606091602080830190803883395050604080516001808252818301909252929350606092915060208083019080388339019050509050838260008151811061264557fe5b60200260200101906001600160a01b031690816001600160a01b031681525050828160008151811061267357fe5b602002602001018181525050846001600160a01b03167fc871bacd56fb38f4a732b2f4e535e718f1adcd3b5758bc1b273618131f8eec816126b3876118d8565b60066000896001600160a01b03166001600160a01b03168152602001908152602001600020548585604051808581526020018481526020018060200180602001838103835285818151815260200191508051906020019060200280838360005b8381101561272b578181015183820152602001612713565b50505050905001838103825284818151815260200191508051906020019060200280838360005b8381101561276a578181015183820152602001612752565b50505050905001965050505050505060405180910390a25050505050565b612790612a7a565b6001600160a01b038216808252600090815260066020908152604090912054908201526127bc82611c76565b1515604082018190526127d05760006127d6565b80602001515b6060820152919050565b60608160405190808252806020026020018201604052801561280c578160200160208202803883390190505b50905060608260405190808252806020026020018201604052801561283b578160200160208202803883390190505b50905060005b838110156128c057868582018151811061285757fe5b602002602001015183828151811061286b57fe5b60200260200101906001600160a01b031690816001600160a01b031681525050858582018151811061289957fe5b60200260200101518282815181106128ad57fe5b6020908102919091010152600101612841565b50866001600160a01b03167fc871bacd56fb38f4a732b2f4e535e718f1adcd3b5758bc1b273618131f8eec816128f5896118d8565b600660008b6001600160a01b03166001600160a01b03168152602001908152602001600020548585604051808581526020018481526020018060200180602001838103835285818151815260200191508051906020019060200280838360005b8381101561296d578181015183820152602001612955565b50505050905001838103825284818151815260200191508051906020019060200280838360005b838110156129ac578181015183820152602001612994565b50505050905001965050505050505060405180910390a250505050505050565b60008184841115612a5b5760405162461bcd60e51b81526004018080602001828103825283818151815260200191508051906020019080838360005b83811015612a20578181015183820152602001612a08565b50505050905090810190601f168015612a4d5780820380516001836020036101000a031916815260200191505b509250505060405180910390fd5b505050900390565b604080518082019091526000808252602082015290565b604051806080016040528060006001600160a01b031681526020016000815260200160001515815260200160008152509056fe66726f6d20616e6420746f20617272617973206d757374206265206f662073616d65206c656e677468636f6e7472616374206973206c6f636b656420666f722074686973206f7065726174696f6e57697468436c61696d61626c654d6967726174696f6e4f776e6572736869703a2063616c6c6572206973206e6f7420746865206d6967726174696f6e4f776e65725f7374616b654f776e6572732c205f7369676e73202d206172726179206c656e677468206d69736d6174636846756e6374696f6e616c4f776e65723a206e65772066756e6374696f6e616c4f776e657220697320746865207a65726f20616464726573735f7374616b654f776e6572732c205f757064617465645374616b6573202d206172726179206c656e677468206d69736d6174636843616c6c6572206973206e6f74207468652070656e64696e67206d6967726174696f6e4f776e657263616c6c6572206973206e6f7420746865207374616b696e6720636f6e747261637457697468436c61696d61626c6546756e6374696f6e616c4f776e6572736869703a2063616c6c6572206973206e6f74207468652066756e6374696f6e616c4f776e65724d6967726174696f6e4f776e65723a206e6577206d6967726174696f6e4f776e657220697320746865207a65726f206164647265737363616e6e6f742064656c656761746520746f2061207a65726f206164647265737343616c6c6572206973206e6f74207468652070656e64696e672066756e6374696f6e616c4f776e65725f7374616b654f776e6572732c205f616d6f756e7473202d206172726179206c656e677468206d69736d61746368a265627a7a723158204be294463be94012fdc758c0c0a448cca5cc3eae53af7158c7940a15fc8b550664736f6c63430005100032",
  "source": "pragma solidity 0.5.16;\n\nimport \"@openzeppelin/contracts/math/SafeMath.sol\";\nimport \"@openzeppelin/contracts/math/Math.sol\";\n\nimport \"./spec_interfaces/ICommitteeListener.sol\";\nimport \"./interfaces/IElections.sol\";\nimport \"./spec_interfaces/IGuardiansRegistration.sol\";\nimport \"./IStakingContract.sol\";\nimport \"./spec_interfaces/ICommittee.sol\";\nimport \"./spec_interfaces/ICertification.sol\";\nimport \"./ContractRegistryAccessor.sol\";\nimport \"./spec_interfaces/IDelegation.sol\";\nimport \"./WithClaimableFunctionalOwnership.sol\";\nimport \"./IStakeChangeNotifier.sol\";\n\ncontract Delegations is IDelegations, IStakeChangeNotifier, ContractRegistryAccessor, WithClaimableFunctionalOwnership, Lockable {\n\tusing SafeMath for uint256;\n\tusing SafeMath for uint128;\n\n\t// TODO consider using structs instead of multiple mappings\n\tstruct StakeOwnerData {\n\t\taddress delegation;\n\t\tbool isSelfStakeInitialized;\n\t}\n\tmapping (address => StakeOwnerData) stakeOwnersData;\n\tmapping (address => uint256) uncappedStakes;\n\n\tuint256 totalDelegatedStake;\n\n\tmodifier onlyStakingContract() {\n\t\trequire(msg.sender == address(getStakingContract()), \"caller is not the staking contract\");\n\n\t\t_;\n\t}\n\n\tconstructor() public {}\n\n\tfunction getTotalDelegatedStake() external view returns (uint256) {\n\t\treturn totalDelegatedStake;\n\t}\n\n\tstruct DelegateStatus {\n\t\taddress addr;\n\t\tuint256 uncappedStakes;\n\t\tbool isSelfDelegating;\n\t\tuint256 delegatedStake;\n\t}\n\n\tfunction getDelegateStatus(address addr) private view returns (DelegateStatus memory status) {\n\t\tstatus.addr = addr;\n\t\tstatus.uncappedStakes = uncappedStakes[addr];\n\t\tstatus.isSelfDelegating = _isSelfDelegating(addr);\n\t\tstatus.delegatedStake = status.isSelfDelegating ? status.uncappedStakes : 0;\n\n\t\treturn status;\n\t}\n\n\tfunction delegateFrom(address from, address to, bool notifyElections) private {\n\t\taddress prevDelegate = getDelegation(from);\n\n\t\trequire(to != address(0), \"cannot delegate to a zero address\");\n\n\t\tDelegateStatus memory prevDelegateStatusBefore = getDelegateStatus(prevDelegate);\n\t\tDelegateStatus memory newDelegateStatusBefore = getDelegateStatus(to);\n\n\t\tstakeOwnersData[from].delegation = to;\n\n\t\tuint256 delegatorStake = getStakingContract().getStakeBalanceOf(from);\n\n\t\tif (stakeOwnersData[from].isSelfStakeInitialized) {\n\t\t\tuncappedStakes[prevDelegate] = prevDelegateStatusBefore.uncappedStakes.sub(delegatorStake);\n\t\t} else {\n\t\t\tstakeOwnersData[from].isSelfStakeInitialized = true;\n\t\t}\n\t\tuncappedStakes[to] = newDelegateStatusBefore.uncappedStakes.add(delegatorStake);\n\n\t\tDelegateStatus memory prevDelegateStatusAfter = getDelegateStatus(prevDelegate);\n\t\tDelegateStatus memory newDelegateStatusAfter = getDelegateStatus(to);\n\n\t\tuint256 _totalDelegatedStake = totalDelegatedStake.sub(\n\t\t\tprevDelegateStatusBefore.delegatedStake\n\t\t).add(\n\t\t\tprevDelegateStatusAfter.delegatedStake\n\t\t).sub(\n\t\t\tnewDelegateStatusBefore.delegatedStake\n\t\t).add(\n\t\t\tnewDelegateStatusAfter.delegatedStake\n\t\t);\n\n\t\ttotalDelegatedStake = _totalDelegatedStake;\n\n\t\tif (notifyElections) {\n\t\t\tIElections elections = getElectionsContract();\n\t\t\tIStakingContract staking = getStakingContract();\n\n\t\t\telections.delegatedStakeChange(\n\t\t\t\tprevDelegate,\n\t\t\t\tstaking.getStakeBalanceOf(prevDelegate),\n\t\t\t\tprevDelegateStatusAfter.delegatedStake,\n\t\t\t\t_totalDelegatedStake\n\t\t\t);\n\n\t\t\telections.delegatedStakeChange(\n\t\t\t\tto,\n\t\t\t\tstaking.getStakeBalanceOf(to),\n\t\t\t\tnewDelegateStatusAfter.delegatedStake,\n\t\t\t\t_totalDelegatedStake\n\t\t\t);\n\t\t}\n\n\t\temit Delegated(from, to);\n\n\t\tif (delegatorStake != 0 && prevDelegate != to) {\n\t\t\temitDelegatedStakeChanged(prevDelegate, from, 0);\n\t\t\temitDelegatedStakeChanged(to, from, delegatorStake);\n\t\t}\n\t}\n\n\tfunction delegate(address to) external onlyWhenActive {\n\t\tdelegateFrom(msg.sender, to, true);\n\t}\n\n\tbool public delegationImportFinalized;\n\n\tmodifier onlyDuringDelegationImport {\n\t\trequire(!delegationImportFinalized, \"delegation import was finalized\");\n\n\t\t_;\n\t}\n\n\tfunction importDelegations(address[] calldata from, address[] calldata to, bool notifyElections) external onlyMigrationOwner onlyDuringDelegationImport {\n\t\trequire(from.length == to.length, \"from and to arrays must be of same length\");\n\n\t\tfor (uint i = 0; i < from.length; i++) {\n\t\t\t_stakeChange(from[i], 0, true, getStakingContract().getStakeBalanceOf(from[i]), notifyElections);\n\t\t\tdelegateFrom(from[i], to[i], notifyElections);\n\t\t}\n\n\t\temit DelegationsImported(from, to, notifyElections);\n\t}\n\n\tfunction finalizeDelegationImport() external onlyMigrationOwner onlyDuringDelegationImport {\n\t\tdelegationImportFinalized = true;\n\t\temit DelegationImportFinalized();\n\t}\n\n\tfunction refreshStakeNotification(address addr) external onlyWhenActive {\n\t\t_stakeChange(addr, 0, true, getStakingContract().getStakeBalanceOf(addr), true);\n\t}\n\n\tfunction stakeChange(address _stakeOwner, uint256 _amount, bool _sign, uint256 _updatedStake) external onlyStakingContract onlyWhenActive {\n\t\t_stakeChange(_stakeOwner, _amount, _sign, _updatedStake, true);\n\t}\n\n\tfunction emitDelegatedStakeChanged(address _delegate, address delegator, uint256 delegatorStake) private {\n\t\taddress[] memory delegators = new address[](1);\n\t\tuint256[] memory delegatorTotalStakes = new uint256[](1);\n\n\t\tdelegators[0] = delegator;\n\t\tdelegatorTotalStakes[0] = delegatorStake;\n\n\t\temit DelegatedStakeChanged(\n\t\t\t_delegate,\n\t\t\tgetSelfDelegatedStake(_delegate),\n\t\t\tuncappedStakes[_delegate],\n\t\t\tdelegators,\n\t\t\tdelegatorTotalStakes\n\t\t);\n\t}\n\n\tfunction emitDelegatedStakeChangedSlice(address commonDelegate, address[] memory delegators, uint256[] memory delegatorsStakes, uint startIdx, uint sliceLen) private {\n\t\taddress[] memory delegatorsSlice = new address[](sliceLen);\n\t\tuint256[] memory delegatorTotalStakesSlice = new uint256[](sliceLen);\n\n\t\tfor (uint j = 0; j < sliceLen; j++) {\n\t\t\tdelegatorsSlice[j] = delegators[j + startIdx];\n\t\t\tdelegatorTotalStakesSlice[j] = delegatorsStakes[j + startIdx];\n\t\t}\n\n\t\temit DelegatedStakeChanged(\n\t\t\tcommonDelegate,\n\t\t\tgetSelfDelegatedStake(commonDelegate),\n\t\t\tuncappedStakes[commonDelegate],\n\t\t\tdelegatorsSlice,\n\t\t\tdelegatorTotalStakesSlice\n\t\t);\n\t}\n\n\t// TODO add tests to equivalence of batched and non batched notifications\n\tfunction stakeChangeBatch(address[] calldata _stakeOwners, uint256[] calldata _amounts, bool[] calldata _signs, uint256[] calldata _updatedStakes) external onlyStakingContract onlyWhenActive {\n\t\tuint batchLength = _stakeOwners.length;\n\t\trequire(batchLength == _amounts.length, \"_stakeOwners, _amounts - array length mismatch\");\n\t\trequire(batchLength == _signs.length, \"_stakeOwners, _signs - array length mismatch\");\n\t\trequire(batchLength == _updatedStakes.length, \"_stakeOwners, _updatedStakes - array length mismatch\");\n\n\t\t_processStakeChangeBatch(_stakeOwners, _amounts, _signs, _updatedStakes);\n\t}\n\n\tfunction getDelegation(address addr) public view returns (address) {\n\t\treturn getStakeOwnerData(addr).delegation;\n\t}\n\n\tfunction getStakeOwnerData(address addr) private view returns (StakeOwnerData memory data) {\n\t\tdata = stakeOwnersData[addr];\n\t\tdata.delegation = (data.delegation == address(0)) ? addr : data.delegation;\n\t\treturn data;\n\t}\n\n\tfunction stakeMigration(address _stakeOwner, uint256 _amount) external onlyStakingContract onlyWhenActive {}\n\n\tfunction _processStakeChangeBatch(address[] memory stakeOwners, uint256[] memory amounts, bool[] memory signs, uint256[] memory updatedStakes) private {\n\t\tuint delegateSelfStake;\n\n\t\tuint i = 0;\n\t\twhile (i < stakeOwners.length) {\n\t\t\t// init sequence\n\t\t\tStakeOwnerData memory curStakeOwnerData = getStakeOwnerData(stakeOwners[i]);\n\t\t\taddress sequenceDelegate = curStakeOwnerData.delegation;\n\t\t\tuint currentUncappedStake = uncappedStakes[sequenceDelegate];\n\t\t\tuint prevUncappedStake = currentUncappedStake;\n\n\t\t\tuint sequenceStartIdx = i;\n\t\t\tfor (i = sequenceStartIdx; i < stakeOwners.length; i++) { // aggregate sequence stakes changes\n\t\t\t\tif (i != sequenceStartIdx) curStakeOwnerData = getStakeOwnerData(stakeOwners[i]);\n\t\t\t\tif (sequenceDelegate != curStakeOwnerData.delegation) break;\n\n\t\t\t\tif (!curStakeOwnerData.isSelfStakeInitialized) {\n\t\t\t\t\tamounts[i] = updatedStakes[i];\n\t\t\t\t\tsigns[i] = true;\n\t\t\t\t\tstakeOwnersData[stakeOwners[i]].isSelfStakeInitialized = true;\n\t\t\t\t}\n\n\t\t\t\tcurrentUncappedStake = signs[i] ?\n\t\t\t\t\tcurrentUncappedStake.add(amounts[i]) :\n\t\t\t\t\tcurrentUncappedStake.sub(amounts[i]);\n\t\t\t}\n\n\t\t\t// closing sequence\n\t\t\tuncappedStakes[sequenceDelegate] = currentUncappedStake;\n\t\t\temitDelegatedStakeChangedSlice(sequenceDelegate, stakeOwners, updatedStakes, sequenceStartIdx, i - sequenceStartIdx);\n\t\t\tdelegateSelfStake = getStakingContract().getStakeBalanceOf(sequenceDelegate);\n\n\t\t\tif (_isSelfDelegating(sequenceDelegate)) {\n\t\t\t\ttotalDelegatedStake = totalDelegatedStake.sub(prevUncappedStake).add(currentUncappedStake);\n\t\t\t}\n\t\t}\n\t}\n\n\tfunction _stakeChange(address _stakeOwner, uint256 _amount, bool _sign, uint256 _updatedStake, bool notifyElections) private {\n\t\tStakeOwnerData memory stakeOwnerData = getStakeOwnerData(_stakeOwner);\n\n\t\tuint256 prevUncappedStake = uncappedStakes[stakeOwnerData.delegation];\n\n\t\tif (!stakeOwnerData.isSelfStakeInitialized) {\n\t\t\t_amount = _updatedStake;\n\t\t\t_sign = true;\n\t\t\tstakeOwnersData[_stakeOwner].isSelfStakeInitialized = true;\n\t\t}\n\n\t\tuint256 newUncappedStake = _sign ? prevUncappedStake.add(_amount) : prevUncappedStake.sub(_amount);\n\n\t\tuncappedStakes[stakeOwnerData.delegation] = newUncappedStake;\n\n\t\tbool isSelfDelegating = _isSelfDelegating(stakeOwnerData.delegation);\n\t\tuint256 _totalDelegatedStake = totalDelegatedStake;\n\t\tif (isSelfDelegating) {\n\t\t\t_totalDelegatedStake = _sign ? _totalDelegatedStake.add(_amount) : _totalDelegatedStake.sub(_amount);\n\t\t\ttotalDelegatedStake = _totalDelegatedStake;\n\t\t}\n\n\t\tif (notifyElections) {\n\t\t\tgetElectionsContract().delegatedStakeChange(\n\t\t\t\tstakeOwnerData.delegation,\n\t\t\t\tgetStakingContract().getStakeBalanceOf(stakeOwnerData.delegation),\n\t\t\t\tisSelfDelegating ? newUncappedStake : 0,\n\t\t\t\t_totalDelegatedStake\n\t\t\t);\n\t\t}\n\n\t\tif (_amount > 0) {\n\t\t\temitDelegatedStakeChanged(stakeOwnerData.delegation, _stakeOwner, _updatedStake);\n\t\t}\n\t}\n\n\tfunction getDelegatedStakes(address addr) external view returns (uint256) {\n\t\treturn _isSelfDelegating(addr) ? uncappedStakes[addr] : 0;\n\t}\n\n\tfunction getSelfDelegatedStake(address addr) public view returns (uint256) {\n\t\treturn _isSelfDelegating(addr) ? getStakingContract().getStakeBalanceOf(addr) : 0;\n\t}\n\n\tfunction _isSelfDelegating(address addr) private view returns (bool) {\n\t\treturn  getDelegation(addr) == addr;\n\t}\n}\n",
  "sourcePath": "/Users/aviramstern/GolandProjects/orbs-ethereum-contracts-v2/contracts/Delegations.sol",
  "compiler": {
    "name": "solc",
    "version": "0.5.16+commit.9c3226ce.Emscripten.clang"
  },
  "schemaVersion": "3.0.23",
  "updatedAt": "2020-08-06T21:58:43.719Z",
  "devdoc": {
    "methods": {
      "claimFunctionalOwnership()": {
        "details": "Allows the pendingFunctionalOwner address to finalize the transfer."
      },
      "claimMigrationOwnership()": {
        "details": "Allows the pendingMigrationOwner address to finalize the transfer."
      },
      "functionalOwner()": {
        "details": "Returns the address of the current functionalOwner."
      },
      "isFunctionalOwner()": {
        "details": "Returns true if the caller is the current functionalOwner."
      },
      "isMigrationOwner()": {
        "details": "Returns true if the caller is the current migrationOwner."
      },
      "migrationOwner()": {
        "details": "Returns the address of the current migrationOwner."
      },
      "renounceFunctionalOwnership()": {
        "details": "Leaves the contract without functionalOwner. It will not be possible to call `onlyOwner` functions anymore. Can only be called by the current functionalOwner.     * NOTE: Renouncing functionalOwnership will leave the contract without an functionalOwner, thereby removing any functionality that is only available to the functionalOwner."
      },
      "renounceMigrationOwnership()": {
        "details": "Leaves the contract without migrationOwner. It will not be possible to call `onlyOwner` functions anymore. Can only be called by the current migrationOwner.     * NOTE: Renouncing migrationOwnership will leave the contract without an migrationOwner, thereby removing any functionality that is only available to the migrationOwner."
      },
      "transferFunctionalOwnership(address)": {
        "details": "Allows the current functionalOwner to set the pendingOwner address.",
        "params": {
          "newFunctionalOwner": "The address to transfer functionalOwnership to."
        }
      },
      "transferMigrationOwnership(address)": {
        "details": "Allows the current migrationOwner to set the pendingOwner address.",
        "params": {
          "newMigrationOwner": "The address to transfer migrationOwnership to."
        }
      }
    }
  },
  "userdoc": {
    "methods": {}
  }
}