{
  "contractName": "Elections",
  "abi": [
    {
      "inputs": [
        {
          "internalType": "uint32",
          "name": "minSelfStakePercentMille",
          "type": "uint32"
        },
        {
          "internalType": "uint8",
          "name": "voteUnreadyPercentageThreshold",
          "type": "uint8"
        },
        {
          "internalType": "uint32",
          "name": "voteUnreadyTimeoutSeconds",
          "type": "uint32"
        },
        {
          "internalType": "uint8",
          "name": "voteOutPercentageThreshold",
          "type": "uint8"
        }
      ],
      "payable": false,
      "stateMutability": "nonpayable",
      "type": "constructor"
    },
    {
      "anonymous": false,
      "inputs": [
        {
          "indexed": false,
          "internalType": "address",
          "name": "addr",
          "type": "address"
        }
      ],
      "name": "ContractRegistryAddressUpdated",
      "type": "event"
    },
    {
      "anonymous": false,
      "inputs": [
        {
          "indexed": true,
          "internalType": "address",
          "name": "previousFunctionalOwner",
          "type": "address"
        },
        {
          "indexed": true,
          "internalType": "address",
          "name": "newFunctionalOwner",
          "type": "address"
        }
      ],
      "name": "FunctionalOwnershipTransferred",
      "type": "event"
    },
    {
      "anonymous": false,
      "inputs": [
        {
          "indexed": false,
          "internalType": "address",
          "name": "addr",
          "type": "address"
        },
        {
          "indexed": false,
          "internalType": "bool",
          "name": "readyToSync",
          "type": "bool"
        },
        {
          "indexed": false,
          "internalType": "bool",
          "name": "readyForCommittee",
          "type": "bool"
        }
      ],
      "name": "GuardianStatusUpdated",
      "type": "event"
    },
    {
      "anonymous": false,
      "inputs": [
        {
          "indexed": false,
          "internalType": "address",
          "name": "guardian",
          "type": "address"
        }
      ],
      "name": "GuardianVotedOut",
      "type": "event"
    },
    {
      "anonymous": false,
      "inputs": [
        {
          "indexed": false,
          "internalType": "address",
          "name": "guardian",
          "type": "address"
        }
      ],
      "name": "GuardianVotedUnready",
      "type": "event"
    },
    {
      "anonymous": false,
      "inputs": [],
      "name": "Locked",
      "type": "event"
    },
    {
      "anonymous": false,
      "inputs": [
        {
          "indexed": true,
          "internalType": "address",
          "name": "previousMigrationOwner",
          "type": "address"
        },
        {
          "indexed": true,
          "internalType": "address",
          "name": "newMigrationOwner",
          "type": "address"
        }
      ],
      "name": "MigrationOwnershipTransferred",
      "type": "event"
    },
    {
      "anonymous": false,
      "inputs": [
        {
          "indexed": false,
          "internalType": "uint32",
          "name": "newValue",
          "type": "uint32"
        },
        {
          "indexed": false,
          "internalType": "uint32",
          "name": "oldValue",
          "type": "uint32"
        }
      ],
      "name": "MinSelfStakePercentMilleChanged",
      "type": "event"
    },
    {
      "anonymous": false,
      "inputs": [
        {
          "indexed": false,
          "internalType": "address",
          "name": "addr",
          "type": "address"
        },
        {
          "indexed": false,
          "internalType": "uint256",
          "name": "selfStake",
          "type": "uint256"
        },
        {
          "indexed": false,
          "internalType": "uint256",
          "name": "delegated_stake",
          "type": "uint256"
        },
        {
          "indexed": false,
          "internalType": "uint256",
          "name": "effective_stake",
          "type": "uint256"
        }
      ],
      "name": "StakeChanged",
      "type": "event"
    },
    {
      "anonymous": false,
      "inputs": [],
      "name": "Unlocked",
      "type": "event"
    },
    {
      "anonymous": false,
      "inputs": [
        {
          "indexed": false,
          "internalType": "address",
          "name": "voter",
          "type": "address"
        },
        {
          "indexed": false,
          "internalType": "address",
          "name": "subject",
          "type": "address"
        }
      ],
      "name": "VoteOutCasted",
      "type": "event"
    },
    {
      "anonymous": false,
      "inputs": [
        {
          "indexed": false,
          "internalType": "uint8",
          "name": "newValue",
          "type": "uint8"
        },
        {
          "indexed": false,
          "internalType": "uint8",
          "name": "oldValue",
          "type": "uint8"
        }
      ],
      "name": "VoteOutPercentageThresholdChanged",
      "type": "event"
    },
    {
      "anonymous": false,
      "inputs": [
        {
          "indexed": false,
          "internalType": "address",
          "name": "voter",
          "type": "address"
        },
        {
          "indexed": false,
          "internalType": "address",
          "name": "subject",
          "type": "address"
        }
      ],
      "name": "VoteUnreadyCasted",
      "type": "event"
    },
    {
      "anonymous": false,
      "inputs": [
        {
          "indexed": false,
          "internalType": "uint8",
          "name": "newValue",
          "type": "uint8"
        },
        {
          "indexed": false,
          "internalType": "uint8",
          "name": "oldValue",
          "type": "uint8"
        }
      ],
      "name": "VoteUnreadyPercentageThresholdChanged",
      "type": "event"
    },
    {
      "anonymous": false,
      "inputs": [
        {
          "indexed": false,
          "internalType": "uint32",
          "name": "newValue",
          "type": "uint32"
        },
        {
          "indexed": false,
          "internalType": "uint32",
          "name": "oldValue",
          "type": "uint32"
        }
      ],
      "name": "VoteUnreadyTimeoutSecondsChanged",
      "type": "event"
    },
    {
      "constant": false,
      "inputs": [],
      "name": "claimFunctionalOwnership",
      "outputs": [],
      "payable": false,
      "stateMutability": "nonpayable",
      "type": "function"
    },
    {
      "constant": false,
      "inputs": [],
      "name": "claimMigrationOwnership",
      "outputs": [],
      "payable": false,
      "stateMutability": "nonpayable",
      "type": "function"
    },
    {
      "constant": true,
      "inputs": [],
      "name": "functionalOwner",
      "outputs": [
        {
          "internalType": "address",
          "name": "",
          "type": "address"
        }
      ],
      "payable": false,
      "stateMutability": "view",
      "type": "function"
    },
    {
      "constant": true,
      "inputs": [],
      "name": "getBootstrapRewardsWallet",
      "outputs": [
        {
          "internalType": "contract IProtocolWallet",
          "name": "",
          "type": "address"
        }
      ],
      "payable": false,
      "stateMutability": "view",
      "type": "function"
    },
    {
      "constant": true,
      "inputs": [],
      "name": "getCertificationContract",
      "outputs": [
        {
          "internalType": "contract ICertification",
          "name": "",
          "type": "address"
        }
      ],
      "payable": false,
      "stateMutability": "view",
      "type": "function"
    },
    {
      "constant": true,
      "inputs": [],
      "name": "getCommitteeContract",
      "outputs": [
        {
          "internalType": "contract ICommittee",
          "name": "",
          "type": "address"
        }
      ],
      "payable": false,
      "stateMutability": "view",
      "type": "function"
    },
    {
      "constant": true,
      "inputs": [],
      "name": "getDelegationsContract",
      "outputs": [
        {
          "internalType": "contract IDelegations",
          "name": "",
          "type": "address"
        }
      ],
      "payable": false,
      "stateMutability": "view",
      "type": "function"
    },
    {
      "constant": true,
      "inputs": [],
      "name": "getElectionsContract",
      "outputs": [
        {
          "internalType": "contract IElections",
          "name": "",
          "type": "address"
        }
      ],
      "payable": false,
      "stateMutability": "view",
      "type": "function"
    },
    {
      "constant": true,
      "inputs": [],
      "name": "getGuardiansRegistrationContract",
      "outputs": [
        {
          "internalType": "contract IGuardiansRegistration",
          "name": "",
          "type": "address"
        }
      ],
      "payable": false,
      "stateMutability": "view",
      "type": "function"
    },
    {
      "constant": true,
      "inputs": [],
      "name": "getProtocolContract",
      "outputs": [
        {
          "internalType": "contract IProtocol",
          "name": "",
          "type": "address"
        }
      ],
      "payable": false,
      "stateMutability": "view",
      "type": "function"
    },
    {
      "constant": true,
      "inputs": [],
      "name": "getRewardsContract",
      "outputs": [
        {
          "internalType": "contract IRewards",
          "name": "",
          "type": "address"
        }
      ],
      "payable": false,
      "stateMutability": "view",
      "type": "function"
    },
    {
      "constant": true,
      "inputs": [],
      "name": "getStakingContract",
      "outputs": [
        {
          "internalType": "contract IStakingContract",
          "name": "",
          "type": "address"
        }
      ],
      "payable": false,
      "stateMutability": "view",
      "type": "function"
    },
    {
      "constant": true,
      "inputs": [],
      "name": "getStakingRewardsWallet",
      "outputs": [
        {
          "internalType": "contract IProtocolWallet",
          "name": "",
          "type": "address"
        }
      ],
      "payable": false,
      "stateMutability": "view",
      "type": "function"
    },
    {
      "constant": true,
      "inputs": [],
      "name": "getSubscriptionsContract",
      "outputs": [
        {
          "internalType": "contract ISubscriptions",
          "name": "",
          "type": "address"
        }
      ],
      "payable": false,
      "stateMutability": "view",
      "type": "function"
    },
    {
      "constant": true,
      "inputs": [],
      "name": "isFunctionalOwner",
      "outputs": [
        {
          "internalType": "bool",
          "name": "",
          "type": "bool"
        }
      ],
      "payable": false,
      "stateMutability": "view",
      "type": "function"
    },
    {
      "constant": true,
      "inputs": [],
      "name": "isMigrationOwner",
      "outputs": [
        {
          "internalType": "bool",
          "name": "",
          "type": "bool"
        }
      ],
      "payable": false,
      "stateMutability": "view",
      "type": "function"
    },
    {
      "constant": false,
      "inputs": [],
      "name": "lock",
      "outputs": [],
      "payable": false,
      "stateMutability": "nonpayable",
      "type": "function"
    },
    {
      "constant": true,
      "inputs": [],
      "name": "locked",
      "outputs": [
        {
          "internalType": "bool",
          "name": "",
          "type": "bool"
        }
      ],
      "payable": false,
      "stateMutability": "view",
      "type": "function"
    },
    {
      "constant": true,
      "inputs": [],
      "name": "migrationOwner",
      "outputs": [
        {
          "internalType": "address",
          "name": "",
          "type": "address"
        }
      ],
      "payable": false,
      "stateMutability": "view",
      "type": "function"
    },
    {
      "constant": false,
      "inputs": [],
      "name": "renounceFunctionalOwnership",
      "outputs": [],
      "payable": false,
      "stateMutability": "nonpayable",
      "type": "function"
    },
    {
      "constant": false,
      "inputs": [],
      "name": "renounceMigrationOwnership",
      "outputs": [],
      "payable": false,
      "stateMutability": "nonpayable",
      "type": "function"
    },
    {
      "constant": false,
      "inputs": [
        {
          "internalType": "contract IContractRegistry",
          "name": "_contractRegistry",
          "type": "address"
        }
      ],
      "name": "setContractRegistry",
      "outputs": [],
      "payable": false,
      "stateMutability": "nonpayable",
      "type": "function"
    },
    {
      "constant": false,
      "inputs": [
        {
          "internalType": "address",
          "name": "newFunctionalOwner",
          "type": "address"
        }
      ],
      "name": "transferFunctionalOwnership",
      "outputs": [],
      "payable": false,
      "stateMutability": "nonpayable",
      "type": "function"
    },
    {
      "constant": false,
      "inputs": [
        {
          "internalType": "address",
          "name": "newMigrationOwner",
          "type": "address"
        }
      ],
      "name": "transferMigrationOwnership",
      "outputs": [],
      "payable": false,
      "stateMutability": "nonpayable",
      "type": "function"
    },
    {
      "constant": false,
      "inputs": [],
      "name": "unlock",
      "outputs": [],
      "payable": false,
      "stateMutability": "nonpayable",
      "type": "function"
    },
    {
      "constant": false,
      "inputs": [
        {
          "internalType": "address",
          "name": "addr",
          "type": "address"
        }
      ],
      "name": "guardianRegistered",
      "outputs": [],
      "payable": false,
      "stateMutability": "nonpayable",
      "type": "function"
    },
    {
      "constant": false,
      "inputs": [
        {
          "internalType": "address",
          "name": "addr",
          "type": "address"
        }
      ],
      "name": "guardianUnregistered",
      "outputs": [],
      "payable": false,
      "stateMutability": "nonpayable",
      "type": "function"
    },
    {
      "constant": false,
      "inputs": [
        {
          "internalType": "address",
          "name": "addr",
          "type": "address"
        },
        {
          "internalType": "bool",
          "name": "isCertified",
          "type": "bool"
        }
      ],
      "name": "guardianCertificationChanged",
      "outputs": [],
      "payable": false,
      "stateMutability": "nonpayable",
      "type": "function"
    },
    {
      "constant": false,
      "inputs": [],
      "name": "readyForCommittee",
      "outputs": [],
      "payable": false,
      "stateMutability": "nonpayable",
      "type": "function"
    },
    {
      "constant": false,
      "inputs": [],
      "name": "readyToSync",
      "outputs": [],
      "payable": false,
      "stateMutability": "nonpayable",
      "type": "function"
    },
    {
      "constant": false,
      "inputs": [
        {
          "internalType": "address",
          "name": "subjectAddr",
          "type": "address"
        }
      ],
      "name": "voteUnready",
      "outputs": [],
      "payable": false,
      "stateMutability": "nonpayable",
      "type": "function"
    },
    {
      "constant": false,
      "inputs": [
        {
          "internalType": "address",
          "name": "subject",
          "type": "address"
        }
      ],
      "name": "voteOut",
      "outputs": [],
      "payable": false,
      "stateMutability": "nonpayable",
      "type": "function"
    },
    {
      "constant": true,
      "inputs": [
        {
          "internalType": "address",
          "name": "addr",
          "type": "address"
        }
      ],
      "name": "getVoteOutVote",
      "outputs": [
        {
          "internalType": "address",
          "name": "",
          "type": "address"
        }
      ],
      "payable": false,
      "stateMutability": "view",
      "type": "function"
    },
    {
      "constant": true,
      "inputs": [
        {
          "internalType": "address",
          "name": "addr",
          "type": "address"
        }
      ],
      "name": "getAccumulatedStakesForVoteOut",
      "outputs": [
        {
          "internalType": "uint256",
          "name": "",
          "type": "uint256"
        }
      ],
      "payable": false,
      "stateMutability": "view",
      "type": "function"
    },
    {
      "constant": false,
      "inputs": [
        {
          "internalType": "address",
          "name": "addr",
          "type": "address"
        },
        {
          "internalType": "uint256",
          "name": "selfStake",
          "type": "uint256"
        },
        {
          "internalType": "uint256",
          "name": "delegatedStake",
          "type": "uint256"
        },
        {
          "internalType": "uint256",
          "name": "totalDelegatedStake",
          "type": "uint256"
        }
      ],
      "name": "delegatedStakeChange",
      "outputs": [],
      "payable": false,
      "stateMutability": "nonpayable",
      "type": "function"
    },
    {
      "constant": false,
      "inputs": [
        {
          "internalType": "uint32",
          "name": "voteUnreadyTimeoutSeconds",
          "type": "uint32"
        }
      ],
      "name": "setVoteUnreadyTimeoutSeconds",
      "outputs": [],
      "payable": false,
      "stateMutability": "nonpayable",
      "type": "function"
    },
    {
      "constant": false,
      "inputs": [
        {
          "internalType": "uint32",
          "name": "minSelfStakePercentMille",
          "type": "uint32"
        }
      ],
      "name": "setMinSelfStakePercentMille",
      "outputs": [],
      "payable": false,
      "stateMutability": "nonpayable",
      "type": "function"
    },
    {
      "constant": false,
      "inputs": [
        {
          "internalType": "uint8",
          "name": "voteOutPercentageThreshold",
          "type": "uint8"
        }
      ],
      "name": "setVoteOutPercentageThreshold",
      "outputs": [],
      "payable": false,
      "stateMutability": "nonpayable",
      "type": "function"
    },
    {
      "constant": false,
      "inputs": [
        {
          "internalType": "uint8",
          "name": "voteUnreadyPercentageThreshold",
          "type": "uint8"
        }
      ],
      "name": "setVoteUnreadyPercentageThreshold",
      "outputs": [],
      "payable": false,
      "stateMutability": "nonpayable",
      "type": "function"
    },
    {
      "constant": true,
      "inputs": [],
      "name": "getSettings",
      "outputs": [
        {
          "internalType": "uint32",
          "name": "voteUnreadyTimeoutSeconds",
          "type": "uint32"
        },
        {
          "internalType": "uint32",
          "name": "minSelfStakePercentMille",
          "type": "uint32"
        },
        {
          "internalType": "uint8",
          "name": "voteUnreadyPercentageThreshold",
          "type": "uint8"
        },
        {
          "internalType": "uint8",
          "name": "voteOutPercentageThreshold",
          "type": "uint8"
        }
      ],
      "payable": false,
      "stateMutability": "view",
      "type": "function"
    }
  ],
  "bytecode": "0x60806040523480156200001157600080fd5b506040516200340b3803806200340b833981810160405260808110156200003757600080fd5b50805160208201516040830151606090930151919290916000620000636001600160e01b036200027316565b600080546001600160a01b0319166001600160a01b0383169081178255604051929350917f7e8c4fc74f50849b4ec635ed03f5d13f87cd46ae422e97479704c6fd1c164e20908290a3506000620000c26001600160e01b036200027316565b600380546001600160a01b0319166001600160a01b038316908117909155604051919250906000907f322ef0cb3bcc6b6f659770a0acaf7473e9bc6ebe63e04e4f28924c285c8cc5ea908290a350620186a08463ffffffff1611156200015a5760405162461bcd60e51b815260040180806020018281038252602f815260200180620033dc602f913960400191505060405180910390fd5b60648360ff1611156200019f5760405162461bcd60e51b8152600401808060200182810382526038815260200180620033a46038913960400191505060405180910390fd5b60648160ff161115620001e45760405162461bcd60e51b8152600401808060200182810382526034815260200180620033706034913960400191505060405180910390fd5b6040805160808101825263ffffffff938416808252959093166020840181905260ff948516918401829052919093166060909201829052600a805463ffffffff191690941763ffffffff60201b19166401000000009091021760ff60401b1916680100000000000000009092029190911760ff60481b1916690100000000000000000090910217905562000277565b3390565b6130e980620002876000396000f3fe608060405234801561001057600080fd5b50600436106102485760003560e01c80638e68dce41161013b578063bed1807d116100b8578063e56c9b6b1161007c578063e56c9b6b14610549578063e7366dc814610569578063ec5e178c14610597578063f83d08ba1461059f578063fcd13d65146105a757610248565b8063bed1807d146104e8578063cf309012146104f0578063d3705cb7146104f8578063d55c9bcf1461051b578063ddc0d5d61461054157610248565b8063a69df4b5116100ff578063a69df4b514610490578063a7616cb114610498578063ab6acfc4146104d0578063ad751ed3146104d8578063b5f1c29d146104e057610248565b80638e68dce41461042c578063977d4e5a146104345780639b9a7e681461043c5780639f587d1c14610462578063a09e0d901461048857610248565b80635ecf16a6116101c95780636887694b1161018d5780636887694b146103ba5780636cdb6746146103da5780637b93af4c146103e257806385b4bb53146103ea578063868ca49d1461042457610248565b80635ecf16a6146102ed5780636049d86214610313578063615c25451461033657806361885df81461035c578063676b15a71461039457610248565b8063245dcad311610210578063245dcad3146102c55780632c43bdd5146102cd5780633a88ab8e146102d55780633b781309146102dd5780635282346d146102e557610248565b8063021abb931461024d57806307b490af1461026957806311caadfb146102915780631dc669f4146102b5578063209df1e2146102bd575b600080fd5b6102556105cd565b604080519115158252519081900360200190f35b61028f6004803603602081101561027f57600080fd5b50356001600160a01b03166105f1565b005b6102996108c1565b604080516001600160a01b039092168252519081900360200190f35b61028f610955565b61028f6109c5565b61028f610a52565b610299610ce2565b610255610cf1565b61028f610d08565b610299610d95565b61028f6004803603602081101561030357600080fd5b50356001600160a01b0316610dfa565b61028f6004803603602081101561032957600080fd5b503563ffffffff16610e54565b6102996004803603602081101561034c57600080fd5b50356001600160a01b0316610ef8565b61028f6004803603608081101561037257600080fd5b506001600160a01b038135169060208101359060408101359060600135610f16565b61028f600480360360208110156103aa57600080fd5b50356001600160a01b0316611023565b61028f600480360360208110156103d057600080fd5b503560ff16611423565b610299611518565b61028f611586565b6103f26115f6565b6040805163ffffffff958616815293909416602084015260ff9182168385015216606082015290519081900360800190f35b61028f611661565b6102996117d5565b610299611836565b61028f6004803603602081101561045257600080fd5b50356001600160a01b031661189d565b61028f6004803603602081101561047857600080fd5b50356001600160a01b0316611902565b610299611967565b61028f6119ce565b6104be600480360360208110156104ae57600080fd5b50356001600160a01b0316611a49565b60408051918252519081900360200190f35b610299611a64565b610299611ac7565b610299611b28565b610299611b8a565b610255611b99565b61028f6004803603602081101561050e57600080fd5b503563ffffffff16611ba9565b61028f6004803603602081101561053157600080fd5b50356001600160a01b0316611ca8565b610299611d3e565b61028f6004803603602081101561055f57600080fd5b503560ff16611dad565b61028f6004803603604081101561057f57600080fd5b506001600160a01b0381351690602001351515611ea3565b610299611f30565b61028f611fa0565b61028f600480360360208110156105bd57600080fd5b50356001600160a01b0316612021565b600080546001600160a01b03166105e26120b8565b6001600160a01b031614905090565b600454600160a01b900460ff161561063a5760405162461bcd60e51b8152600401808060200182810382526025815260200180612e166025913960400191505060405180910390fd5b610642612dee565b5060408051608081018252600a5463ffffffff8082168352600160201b82041660208084019190915260ff600160401b8304811684860152600160481b9092049091166060830152336000908152600790915291822080546001600160a01b038581166001600160a01b031983161790925591929116906106c1610d95565b6001600160a01b03166327cd7f02336040518263ffffffff1660e01b815260040180826001600160a01b03166001600160a01b0316815260200191505060206040518083038186803b15801561071657600080fd5b505afa15801561072a573d6000803e3d6000fd5b505050506040513d602081101561074057600080fd5b505190506001600160a01b038216610765573360009081526006602052604090208190555b6001600160a01b03841661078457336000908152600660205260408120555b600061078e610d95565b6001600160a01b031663cf3b670b6040518163ffffffff1660e01b815260040160206040518083038186803b1580156107c657600080fd5b505afa1580156107da573d6000803e3d6000fd5b505050506040513d60208110156107f057600080fd5b505190506001600160a01b0383161580159061081e5750846001600160a01b0316836001600160a01b031614155b15610831576108318360008484886120bc565b6001600160a01b03851615610877576000856001600160a01b0316846001600160a01b03161415610863576000610865565b825b90506108758682600085896120bc565b505b604080513381526001600160a01b038716602082015281517f275bb5f10bdccb6cea621dfabf75682103f2392a02061d953ebe212cfa26ef0e929181900390910190a15050505050565b6002546040805163349f642f60e11b81526020600482018190526009602483015268656c656374696f6e7360b81b604483015291516000936001600160a01b03169263693ec85e9260648082019391829003018186803b15801561092457600080fd5b505afa158015610938573d6000803e3d6000fd5b505050506040513d602081101561094e57600080fd5b5051905090565b6004546001600160a01b0316331461099e5760405162461bcd60e51b81526004018080602001828103825260298152602001806130566029913960400191505060405180910390fd5b6004546109b3906001600160a01b031661228c565b600480546001600160a01b0319169055565b6109cd6105cd565b610a085760405162461bcd60e51b8152600401808060200182810382526041815260200180612e3b6041913960600191505060405180910390fd5b600080546040516001600160a01b03909116907f7e8c4fc74f50849b4ec635ed03f5d13f87cd46ae422e97479704c6fd1c164e20908390a3600080546001600160a01b0319169055565b6000610a5c611d3e565b6001600160a01b03166310b3b293336040518263ffffffff1660e01b815260040180826001600160a01b03166001600160a01b0316815260200191505060206040518083038186803b158015610ab157600080fd5b505afa158015610ac5573d6000803e3d6000fd5b505050506040513d6020811015610adb57600080fd5b50519050610ae88161232d565b15610b30576040805162461bcd60e51b815260206004820152601360248201527218d85b1b195c881a5cc81d9bdd19590b5bdd5d606a1b604482015290519081900360640190fd5b604080516001600160a01b0383168152600160208201819052818301529051600080516020612f168339815191529181900360600190a1610b6f611a64565b60408051608081018252600a5463ffffffff8082168352600160201b820416602083015260ff600160401b8204811693830193909352600160481b900490911660608201526001600160a01b03919091169063e272079f908390610bd490829061234b565b610bdc611967565b6001600160a01b031663dc8b6d73866040518263ffffffff1660e01b815260040180826001600160a01b03166001600160a01b0316815260200191505060206040518083038186803b158015610c3157600080fd5b505afa158015610c45573d6000803e3d6000fd5b505050506040513d6020811015610c5b57600080fd5b5051604080516001600160e01b031960e087901b1681526001600160a01b0390941660048501526024840192909252151560448301525160648083019260209291908290030181600087803b158015610cb357600080fd5b505af1158015610cc7573d6000803e3d6000fd5b505050506040513d6020811015610cdd57600080fd5b505050565b6000546001600160a01b031690565b6003546000906001600160a01b03166105e26120b8565b610d10610cf1565b610d4b5760405162461bcd60e51b8152600401808060200182810382526043815260200180612fdd6043913960600191505060405180910390fd5b6003546040516000916001600160a01b0316907f322ef0cb3bcc6b6f659770a0acaf7473e9bc6ebe63e04e4f28924c285c8cc5ea908390a3600380546001600160a01b0319169055565b6002546040805163349f642f60e11b8152602060048201819052600b60248301526a64656c65676174696f6e7360a81b604483015291516000936001600160a01b03169263693ec85e9260648082019391829003018186803b15801561092457600080fd5b610e02611d3e565b6001600160a01b0316336001600160a01b031614610e515760405162461bcd60e51b8152600401808060200182810382526031815260200180612f366031913960400191505060405180910390fd5b50565b610e5c610cf1565b610e975760405162461bcd60e51b8152600401808060200182810382526043815260200180612fdd6043913960600191505060405180910390fd5b600a546040805163ffffffff8085168252909216602083015280517f2427a76397e086eb5b055730cfbde47e53ffe5cf9f53d889710ad988150963c99281900390910190a1600a805463ffffffff191663ffffffff92909216919091179055565b6001600160a01b039081166000908152600760205260409020541690565b610f1e610d95565b6001600160a01b0316336001600160a01b031614610f6d5760405162461bcd60e51b8152600401808060200182810382526026815260200180612fb76026913960400191505060405180910390fd5b600454600160a01b900460ff1615610fb65760405162461bcd60e51b8152600401808060200182810382526025815260200180612e166025913960400191505060405180910390fd5b610fbe612dee565b5060408051608081018252600a5463ffffffff8082168352600160201b820416602083015260ff600160401b8204811693830193909352600160481b9004909116606082015261101085858584612471565b61101c8584848461256c565b5050505050565b600454600160a01b900460ff161561106c5760405162461bcd60e51b8152600401808060200182810382526025815260200180612e166025913960400191505060405180910390fd5b6000611077336125bd565b6001600160a01b03808216600081815260056020908152604080832094881680845294825291829020429055815192835282019290925281519293507f5b5ed1bc1b5bcfd388e5a0ac824cde2750edf4dab08582860302e6295c2c4635929081900390910190a160608060606110eb611a64565b6001600160a01b031663ab8f6ffe6040518163ffffffff1660e01b815260040160006040518083038186803b15801561112357600080fd5b505afa158015611137573d6000803e3d6000fd5b505050506040513d6000823e601f3d908101601f19168201604052606081101561116057600080fd5b8101908080516040519392919084600160201b82111561117f57600080fd5b90830190602082018581111561119457600080fd5b82518660208202830111600160201b821117156111b057600080fd5b82525081516020918201928201910280838360005b838110156111dd5781810151838201526020016111c5565b5050505090500160405260200180516040519392919084600160201b82111561120557600080fd5b90830190602082018581111561121a57600080fd5b82518660208202830111600160201b8211171561123657600080fd5b82525081516020918201928201910280838360005b8381101561126357818101518382015260200161124b565b5050505090500160405260200180516040519392919084600160201b82111561128b57600080fd5b9083019060208201858111156112a057600080fd5b82518660208202830111600160201b821117156112bc57600080fd5b82525081516020918201928201910280838360005b838110156112e95781810151838201526020016112d1565b50505050905001604052505050925092509250600061130a848484896127df565b9050801561141b5761131c8487612a49565b604080516001600160a01b038816815290517fc808d7f6285926a53d708653414e2d2a88e3c1715debb80fb09ca41d744e5ba69181900360200190a1604080516001600160a01b0388168152600060208201819052818301529051600080516020612f168339815191529181900360600190a1611397611a64565b6001600160a01b0316630b1ca49a876040518263ffffffff1660e01b815260040180826001600160a01b03166001600160a01b03168152602001915050602060405180830381600087803b1580156113ee57600080fd5b505af1158015611402573d6000803e3d6000fd5b505050506040513d602081101561141857600080fd5b50505b505050505050565b61142b610cf1565b6114665760405162461bcd60e51b8152600401808060200182810382526043815260200180612fdd6043913960600191505060405180910390fd5b60648160ff1611156114a95760405162461bcd60e51b815260040180806020018281038252603a815260200180612e7c603a913960400191505060405180910390fd5b600a546040805160ff8481168252600160401b909304909216602083015280517f4c6b52c721c1410e2ca6d8ffa4f4060d25ea5c08da923dc8d85d8d64b9e0ce8a9281900390910190a1600a805460ff909216600160401b0268ff000000000000000019909216919091179055565b6002546040805163349f642f60e11b815260206004820181905260146024830152731cdd185ada5b99d4995dd85c991cd5d85b1b195d60621b604483015291516000936001600160a01b03169263693ec85e9260648082019391829003018186803b15801561092457600080fd5b6001546001600160a01b031633146115cf5760405162461bcd60e51b8152600401808060200182810382526028815260200180612eee6028913960400191505060405180910390fd5b6001546115e4906001600160a01b0316612aa4565b600180546001600160a01b0319169055565b600080600080611604612dee565b505060408051608081018252600a5463ffffffff808216808452600160201b83049091166020840181905260ff600160401b84048116958501869052600160481b9093049092166060909301929092529095909450909250829150565b600061166b611d3e565b6001600160a01b03166310b3b293336040518263ffffffff1660e01b815260040180826001600160a01b03166001600160a01b0316815260200191505060206040518083038186803b1580156116c057600080fd5b505afa1580156116d4573d6000803e3d6000fd5b505050506040513d60208110156116ea57600080fd5b505190506116f78161232d565b1561173f576040805162461bcd60e51b815260206004820152601360248201527218d85b1b195c881a5cc81d9bdd19590b5bdd5d606a1b604482015290519081900360640190fd5b604080516001600160a01b0383168152600160208201526000818301529051600080516020612f168339815191529181900360600190a161177e611a64565b6001600160a01b0316630b1ca49a826040518263ffffffff1660e01b815260040180826001600160a01b03166001600160a01b03168152602001915050602060405180830381600087803b158015610cb357600080fd5b6002546040805163349f642f60e11b815260206004820181905260076024830152667374616b696e6760c81b604483015291516000936001600160a01b03169263693ec85e9260648082019391829003018186803b15801561092457600080fd5b6002546040805163349f642f60e11b8152602060048201819052600d60248301526c737562736372697074696f6e7360981b604483015291516000936001600160a01b03169263693ec85e9260648082019391829003018186803b15801561092457600080fd5b6118a5610cf1565b6118e05760405162461bcd60e51b8152600401808060200182810382526043815260200180612fdd6043913960600191505060405180910390fd5b600480546001600160a01b0319166001600160a01b0392909216919091179055565b61190a6105cd565b6119455760405162461bcd60e51b8152600401808060200182810382526041815260200180612e3b6041913960600191505060405180910390fd5b600180546001600160a01b0319166001600160a01b0392909216919091179055565b6002546040805163349f642f60e11b8152602060048201819052600d60248301526c31b2b93a34b334b1b0ba34b7b760991b604483015291516000936001600160a01b03169263693ec85e9260648082019391829003018186803b15801561092457600080fd5b6119d66105cd565b611a115760405162461bcd60e51b8152600401808060200182810382526041815260200180612e3b6041913960600191505060405180910390fd5b6004805460ff60a01b191690556040517f19aad37188a1d3921e29eb3c66acf43d81975e107cb650d58cca878627955fd690600090a1565b6001600160a01b031660009081526008602052604090205490565b6002546040805163349f642f60e11b81526020600482018190526009602483015268636f6d6d697474656560b81b604483015291516000936001600160a01b03169263693ec85e9260648082019391829003018186803b15801561092457600080fd5b6002546040805163349f642f60e11b815260206004820181905260076024830152667265776172647360c81b604483015291516000936001600160a01b03169263693ec85e9260648082019391829003018186803b15801561092457600080fd5b6002546040805163349f642f60e11b815260206004820181905260086024830152671c1c9bdd1bd8dbdb60c21b604483015291516000936001600160a01b03169263693ec85e9260648082019391829003018186803b15801561092457600080fd5b6003546001600160a01b031690565b600454600160a01b900460ff1681565b611bb1610cf1565b611bec5760405162461bcd60e51b8152600401808060200182810382526043815260200180612fdd6043913960600191505060405180910390fd5b620186a08163ffffffff161115611c345760405162461bcd60e51b815260040180806020018281038252602f815260200180612f67602f913960400191505060405180910390fd5b600a546040805163ffffffff8481168252600160201b909304909216602083015280517f5f1e6a4b65e5b155a39124570a9d52d1a94b94d17b9cefb044afd83367344f739281900390910190a1600a805463ffffffff909216600160201b0267ffffffff0000000019909216919091179055565b611cb0611d3e565b6001600160a01b0316336001600160a01b031614611cff5760405162461bcd60e51b8152600401808060200182810382526031815260200180612f366031913960400191505060405180910390fd5b604080516001600160a01b0383168152600060208201819052818301529051600080516020612f168339815191529181900360600190a161177e611a64565b6002546040805163349f642f60e11b8152602060048201819052601560248301527433bab0b93234b0b739a932b3b4b9ba3930ba34b7b760591b604483015291516000936001600160a01b03169263693ec85e9260648082019391829003018186803b15801561092457600080fd5b611db5610cf1565b611df05760405162461bcd60e51b8152600401808060200182810382526043815260200180612fdd6043913960600191505060405180910390fd5b60648160ff161115611e335760405162461bcd60e51b815260040180806020018281038252603681526020018061307f6036913960400191505060405180910390fd5b600a546040805160ff8481168252600160481b909304909216602083015280517f9fba7f85fbe066a702355a0fde85fdd320d323248d6f6b15419e8579356aac239281900390910190a1600a805460ff909216600160481b0269ff00000000000000000019909216919091179055565b611eab611a64565b6040805163e66b9c1d60e01b81526001600160a01b03858116600483015284151560248301529151929091169163e66b9c1d916044808201926020929091908290030181600087803b158015611f0057600080fd5b505af1158015611f14573d6000803e3d6000fd5b505050506040513d6020811015611f2a57600080fd5b50505050565b6002546040805163349f642f60e11b81526020600482018190526016602483015275189bdbdd1cdd1c985c14995dd85c991cd5d85b1b195d60521b604483015291516000936001600160a01b03169263693ec85e9260648082019391829003018186803b15801561092457600080fd5b611fa86105cd565b611fe35760405162461bcd60e51b8152600401808060200182810382526041815260200180612e3b6041913960600191505060405180910390fd5b6004805460ff60a01b1916600160a01b1790556040517f0f2e5b6c72c6a4491efd919a9f9a409f324ef0708c11ee57d410c2cb06c0992b90600090a1565b6120296105cd565b6120645760405162461bcd60e51b8152600401808060200182810382526041815260200180612e3b6041913960600191505060405180910390fd5b600280546001600160a01b0383166001600160a01b0319909116811790915560408051918252517ffea2d033438b968078a6264409d0104b5f3d2ce7b795afc74918e70f3534f22b9181900360200190a150565b3390565b6120c58561232d565b156120cf5761101c565b6001600160a01b03851660009081526008602052604081205461210a9086906120fe908763ffffffff612b4416565b9063ffffffff612b8616565b9050600080841180156121445750606083015160ff166121418561213585606463ffffffff612be016565b9063ffffffff612c3916565b10155b9050801561226b576001600160a01b038716600081815260096020908152604091829020805460ff19166001179055815192835290517f0bc20ba748c0b7a01e134c521b1e20764a53c3a6b4710a54cbbcf6c8bb3ba3079281900390910190a1604080516001600160a01b0389168152600060208201819052818301529051600080516020612f168339815191529181900360600190a16121e3611a64565b6001600160a01b0316630b1ca49a886040518263ffffffff1660e01b815260040180826001600160a01b03166001600160a01b03168152602001915050602060405180830381600087803b15801561223a57600080fd5b505af115801561224e573d6000803e3d6000fd5b505050506040513d602081101561226457600080fd5b5060009250505b506001600160a01b0386166000908152600860205260409020555050505050565b6001600160a01b0381166122d15760405162461bcd60e51b8152600401808060200182810382526038815260200180612eb66038913960400191505060405180910390fd5b6003546040516001600160a01b038084169216907f322ef0cb3bcc6b6f659770a0acaf7473e9bc6ebe63e04e4f28924c285c8cc5ea90600090a3600380546001600160a01b0319166001600160a01b0392909216919091179055565b6001600160a01b031660009081526009602052604090205460ff1690565b60006124686123586117d5565b6001600160a01b031663e9aea8c8856040518263ffffffff1660e01b815260040180826001600160a01b03166001600160a01b0316815260200191505060206040518083038186803b1580156123ad57600080fd5b505afa1580156123c1573d6000803e3d6000fd5b505050506040513d60208110156123d757600080fd5b50516123e1610d95565b6001600160a01b03166327cd7f02866040518263ffffffff1660e01b815260040180826001600160a01b03166001600160a01b0316815260200191505060206040518083038186803b15801561243657600080fd5b505afa15801561244a573d6000803e3d6000fd5b505050506040513d602081101561246057600080fd5b505184612c7b565b90505b92915050565b600061247e848484612c7b565b604080516001600160a01b0388168152602081018790528082018690526060810183905290519192507fd5c5ef58495d970aa497140d952854435af4876c07e0735daaa3fc32874c3cf8919081900360800190a16124da611a64565b6001600160a01b03166368f52e5086836040518363ffffffff1660e01b815260040180836001600160a01b03166001600160a01b0316815260200182815260200192505050602060405180830381600087803b15801561253957600080fd5b505af115801561254d573d6000803e3d6000fd5b505050506040513d602081101561256357600080fd5b50505050505050565b6001600160a01b0380851660009081526007602052604090205416806125925750611f2a565b6001600160a01b038516600090815260066020526040902080549085905561141b82868387876120bc565b604080516001808252818301909252600091606091906020808301908038833901905050905082816000815181106125f157fe5b60200260200101906001600160a01b031690816001600160a01b031681525050600061261b611d3e565b6001600160a01b031663bdb813ab836040518263ffffffff1660e01b81526004018080602001828103825283818151815260200191508051906020019060200280838360005b83811015612679578181015183820152602001612661565b505050509050019250505060006040518083038186803b15801561269c57600080fd5b505afa1580156126b0573d6000803e3d6000fd5b505050506040513d6000823e601f3d908101601f1916820160405260208110156126d957600080fd5b8101908080516040519392919084600160201b8211156126f857600080fd5b90830190602082018581111561270d57600080fd5b82518660208202830111600160201b8211171561272957600080fd5b82525081516020918201928201910280838360005b8381101561275657818101518382015260200161273e565b5050505090500160405250505060008151811061276f57fe5b6020026020010151905060006001600160a01b0316816001600160a01b031614156127d8576040805162461bcd60e51b8152602060048201526014602482015273756e6b6e6f776e206f726273206164647265737360601b604482015290519081900360640190fd5b9392505050565b60006127e9612dee565b5060408051608081018252600a5463ffffffff8082168352600160201b820416602083015260ff600160401b8204811693830193909352600160481b900490911660608201526000808080808080805b8d518110156129d2578d818151811061284e57fe5b602002602001015193508c818151811061286457fe5b602002602001015192508a6001600160a01b0316846001600160a01b031614801561289f57508b818151811061289657fe5b60200260200101515b156128a957600191505b6128b9888463ffffffff612b8616565b97508b81815181106128c757fe5b6020026020010151156128e7576128e4868463ffffffff612b8616565b95505b6001600160a01b038085166000908152600560209081526040808320938f168352929052205480156129c957896000015163ffffffff166129318242612b4490919063ffffffff16565b101561297a57612947888563ffffffff612b8616565b97508c828151811061295557fe5b60200260200101511561297557612972868563ffffffff612b8616565b95505b6129c9565b600060056000876001600160a01b03166001600160a01b0316815260200190815260200160002060008e6001600160a01b03166001600160a01b03168152602001908152602001600020819055505b50600101612839565b506000871180156129fe5750604088015160ff166129fb8861213589606463ffffffff612be016565b10155b80612a385750808015612a115750600085115b8015612a385750604088015160ff16612a358661213587606463ffffffff612be016565b10155b9d9c50505050505050505050505050565b60005b8251811015610cdd57600060056000858481518110612a6757fe5b6020908102919091018101516001600160a01b03908116835282820193909352604091820160009081209387168152929052902055600101612a4c565b6001600160a01b038116612ae95760405162461bcd60e51b81526004018080602001828103825260368152602001806130206036913960400191505060405180910390fd5b600080546040516001600160a01b03808516939216917f7e8c4fc74f50849b4ec635ed03f5d13f87cd46ae422e97479704c6fd1c164e2091a3600080546001600160a01b0319166001600160a01b0392909216919091179055565b600061246883836040518060400160405280601e81526020017f536166654d6174683a207375627472616374696f6e206f766572666c6f770000815250612cf2565b600082820183811015612468576040805162461bcd60e51b815260206004820152601b60248201527f536166654d6174683a206164646974696f6e206f766572666c6f770000000000604482015290519081900360640190fd5b600082612bef5750600061246b565b82820282848281612bfc57fe5b04146124685760405162461bcd60e51b8152600401808060200182810382526021815260200180612f966021913960400191505060405180910390fd5b600061246883836040518060400160405280601a81526020017f536166654d6174683a206469766973696f6e206279207a65726f000000000000815250612d89565b600083612c8a575060006127d8565b612ca7826020015163ffffffff1684612be090919063ffffffff16565b612cba85620186a063ffffffff612be016565b10612cc65750816127d8565b612cea826020015163ffffffff16612135620186a087612be090919063ffffffff16565b949350505050565b60008184841115612d815760405162461bcd60e51b81526004018080602001828103825283818151815260200191508051906020019080838360005b83811015612d46578181015183820152602001612d2e565b50505050905090810190601f168015612d735780820380516001836020036101000a031916815260200191505b509250505060405180910390fd5b505050900390565b60008183612dd85760405162461bcd60e51b8152602060048201818152835160248401528351909283926044909101919085019080838360008315612d46578181015183820152602001612d2e565b506000838581612de457fe5b0495945050505050565b6040805160808101825260008082526020820181905291810182905260608101919091529056fe636f6e7472616374206973206c6f636b656420666f722074686973206f7065726174696f6e57697468436c61696d61626c654d6967726174696f6e4f776e6572736869703a2063616c6c6572206973206e6f7420746865206d6967726174696f6e4f776e6572766f7465556e726561647950657263656e746167655468726573686f6c64206d757374206e6f74206265206c6172676572207468616e2031303046756e6374696f6e616c4f776e65723a206e65772066756e6374696f6e616c4f776e657220697320746865207a65726f206164647265737343616c6c6572206973206e6f74207468652070656e64696e67206d6967726174696f6e4f776e6572f2de790499b85c5800832caf02f18e7ddecfa1d20b3ddc6a8c44be78838d1cec63616c6c6572206973206e6f742074686520677561726469616e20726567697374726174696f6e7320636f6e74726163746d696e53656c665374616b6550657263656e744d696c6c65206d75737420626520313030303030206174206d6f7374536166654d6174683a206d756c7469706c69636174696f6e206f766572666c6f7763616c6c6572206973206e6f74207468652064656c65676174696f6e7320636f6e747261637457697468436c61696d61626c6546756e6374696f6e616c4f776e6572736869703a2063616c6c6572206973206e6f74207468652066756e6374696f6e616c4f776e65724d6967726174696f6e4f776e65723a206e6577206d6967726174696f6e4f776e657220697320746865207a65726f206164647265737343616c6c6572206973206e6f74207468652070656e64696e672066756e6374696f6e616c4f776e6572766f74654f757450657263656e746167655468726573686f6c64206d757374206e6f74206265206c6172676572207468616e20313030a265627a7a72315820bfe49edf7de908cb807e50f98e4c2b99fd0ea75e6f539f167faa1d40677a107764736f6c63430005100032766f74654f757450657263656e746167655468726573686f6c64206d757374206265206265747765656e203020616e6420313030766f7465556e726561647950657263656e746167655468726573686f6c64206d757374206265206265747765656e203020616e64203130306d696e53656c665374616b6550657263656e744d696c6c65206d757374206265206174206d6f737420313030303030",
  "source": "pragma solidity 0.5.16;\n\nimport \"@openzeppelin/contracts/math/SafeMath.sol\";\nimport \"@openzeppelin/contracts/math/Math.sol\";\n\nimport \"./spec_interfaces/ICommitteeListener.sol\";\nimport \"./spec_interfaces/IDelegation.sol\";\nimport \"./interfaces/IElections.sol\";\nimport \"./spec_interfaces/IGuardiansRegistration.sol\";\nimport \"./IStakingContract.sol\";\nimport \"./spec_interfaces/ICommittee.sol\";\nimport \"./spec_interfaces/ICertification.sol\";\nimport \"./ContractRegistryAccessor.sol\";\nimport \"./WithClaimableFunctionalOwnership.sol\";\n\n\ncontract Elections is IElections, ContractRegistryAccessor, WithClaimableFunctionalOwnership, Lockable {\n\tusing SafeMath for uint256;\n\n\tmapping (address => mapping (address => uint256)) votedUnreadyVotes; // by => to => timestamp\n\tmapping (address => uint256) votersStake;\n\tmapping (address => address) voteOutVotes; // by => to\n\tmapping (address => uint256) accumulatedStakesForVoteOut; // addr => total stake\n\tmapping (address => bool) votedOutGuardians;\n\n\tstruct Settings {\n\t\tuint32 voteUnreadyTimeoutSeconds;\n\t\tuint32 minSelfStakePercentMille;\n\t\tuint8 voteUnreadyPercentageThreshold;\n\t\tuint8 voteOutPercentageThreshold;\n\t}\n\tSettings settings;\n\n\tmodifier onlyDelegationsContract() {\n\t\trequire(msg.sender == address(getDelegationsContract()), \"caller is not the delegations contract\");\n\n\t\t_;\n\t}\n\n\tmodifier onlyGuardiansRegistrationContract() {\n\t\trequire(msg.sender == address(getGuardiansRegistrationContract()), \"caller is not the guardian registrations contract\");\n\n\t\t_;\n\t}\n\n\tconstructor(uint32 minSelfStakePercentMille, uint8 voteUnreadyPercentageThreshold, uint32 voteUnreadyTimeoutSeconds, uint8 voteOutPercentageThreshold) public {\n\t\trequire(minSelfStakePercentMille <= 100000, \"minSelfStakePercentMille must be at most 100000\");\n\t\trequire(voteUnreadyPercentageThreshold >= 0 && voteUnreadyPercentageThreshold <= 100, \"voteUnreadyPercentageThreshold must be between 0 and 100\");\n\t\trequire(voteOutPercentageThreshold >= 0 && voteOutPercentageThreshold <= 100, \"voteOutPercentageThreshold must be between 0 and 100\");\n\n\t\tsettings = Settings({\n\t\t\tminSelfStakePercentMille: minSelfStakePercentMille,\n\t\t\tvoteUnreadyPercentageThreshold: voteUnreadyPercentageThreshold,\n\t\t\tvoteUnreadyTimeoutSeconds: voteUnreadyTimeoutSeconds,\n\t\t\tvoteOutPercentageThreshold: voteOutPercentageThreshold\n\t\t});\n\t}\n\n\t/// @dev Called by: guardian registration contract\n\t/// Notifies a new guardian was registered\n\tfunction guardianRegistered(address addr) external onlyGuardiansRegistrationContract {\n\t}\n\n\t/// @dev Called by: guardian registration contract\n\t/// Notifies a new guardian was unregistered\n\tfunction guardianUnregistered(address addr) external onlyGuardiansRegistrationContract {\n\t\temit GuardianStatusUpdated(addr, false, false);\n\t\tgetCommitteeContract().removeMember(addr);\n\t}\n\n\t/// @dev Called by: guardian registration contract\n\t/// Notifies on a guardian certification change\n\tfunction guardianCertificationChanged(address addr, bool isCertified) external {\n\t\tgetCommitteeContract().memberCertificationChange(addr, isCertified);\n\t}\n\n\tfunction requireNotVotedOut(address addr) private view {\n\t\trequire(!isVotedOut(addr), \"caller is voted-out\");\n\t}\n\n\tfunction readyForCommittee() external {\n\t\taddress guardianAddr = getGuardiansRegistrationContract().resolveGuardianAddress(msg.sender); // this validates registration\n\t\trequire(!isVotedOut(guardianAddr), \"caller is voted-out\");\n\n\t\temit GuardianStatusUpdated(guardianAddr, true, true);\n\t\tgetCommitteeContract().addMember(guardianAddr, getCommitteeEffectiveStake(guardianAddr, settings), getCertificationContract().isGuardianCertified(guardianAddr));\n\t}\n\n\tfunction readyToSync() external {\n\t\taddress guardianAddr = getGuardiansRegistrationContract().resolveGuardianAddress(msg.sender); // this validates registration\n\t\trequire(!isVotedOut(guardianAddr), \"caller is voted-out\");\n\n\t\temit GuardianStatusUpdated(guardianAddr, true, false);\n\t\tgetCommitteeContract().removeMember(guardianAddr);\n\t}\n\n\tfunction clearCommitteeUnreadyVotes(address[] memory committee, address votee) private {\n\t\tfor (uint i = 0; i < committee.length; i++) {\n\t\t\tvotedUnreadyVotes[committee[i]][votee] = 0; // clear vote-outs\n\t\t}\n\t}\n\n\tfunction isCommitteeVoteUnreadyThresholdReached(address[] memory committee, uint256[] memory weights, bool[] memory certification, address votee) private returns (bool) {\n\t\tSettings memory _settings = settings;\n\n\t\tuint256 totalCommitteeStake = 0;\n\t\tuint256 totalVoteUnreadyStake = 0;\n\t\tuint256 totalCertifiedStake = 0;\n\t\tuint256 totalCertifiedVoteUnreadyStake = 0;\n\n\t\taddress member;\n\t\tuint256 memberStake;\n\t\tbool isVoteeCertified;\n\t\tfor (uint i = 0; i < committee.length; i++) {\n\t\t\tmember = committee[i];\n\t\t\tmemberStake = weights[i];\n\n\t\t\tif (member == votee && certification[i]) {\n\t\t\t\tisVoteeCertified = true;\n\t\t\t}\n\n\t\t\ttotalCommitteeStake = totalCommitteeStake.add(memberStake);\n\t\t\tif (certification[i]) {\n\t\t\t\ttotalCertifiedStake = totalCertifiedStake.add(memberStake);\n\t\t\t}\n\n\t\t\tuint256 votedAt = votedUnreadyVotes[member][votee];\n\t\t\tif (votedAt != 0) {\n\t\t\t\tif (now.sub(votedAt) < _settings.voteUnreadyTimeoutSeconds) {\n\t\t\t\t\t// Vote is valid\n\t\t\t\t\ttotalVoteUnreadyStake = totalVoteUnreadyStake.add(memberStake);\n\t\t\t\t\tif (certification[i]) {\n\t\t\t\t\t\ttotalCertifiedVoteUnreadyStake = totalCertifiedVoteUnreadyStake.add(memberStake);\n\t\t\t\t\t}\n\t\t\t\t} else {\n\t\t\t\t\t// Vote is stale, delete from state\n\t\t\t\t\tvotedUnreadyVotes[member][votee] = 0;\n\t\t\t\t}\n\t\t\t}\n\t\t}\n\n\t\treturn (totalCommitteeStake > 0 && totalVoteUnreadyStake.mul(100).div(totalCommitteeStake) >= _settings.voteUnreadyPercentageThreshold)\n\t\t\t|| (isVoteeCertified && totalCertifiedStake > 0 && totalCertifiedVoteUnreadyStake.mul(100).div(totalCertifiedStake) >= _settings.voteUnreadyPercentageThreshold);\n\t}\n\n\tfunction voteUnready(address subjectAddr) external onlyWhenActive {\n\t\taddress sender = getMainAddrFromOrbsAddr(msg.sender);\n\t\tvotedUnreadyVotes[sender][subjectAddr] = now;\n\t\temit VoteUnreadyCasted(sender, subjectAddr);\n\n\t\t(address[] memory generalCommittee, uint256[] memory generalWeights, bool[] memory certification) = getCommitteeContract().getCommittee();\n\n\t\tbool votedUnready = isCommitteeVoteUnreadyThresholdReached(generalCommittee, generalWeights, certification, subjectAddr);\n\t\tif (votedUnready) {\n\t\t\tclearCommitteeUnreadyVotes(generalCommittee, subjectAddr);\n\t\t\temit GuardianVotedUnready(subjectAddr);\n\t\t\temit GuardianStatusUpdated(subjectAddr, false, false);\n            getCommitteeContract().removeMember(subjectAddr);\n\t\t}\n\t}\n\n\tfunction voteOut(address subject) external onlyWhenActive {\n\t\tSettings memory _settings = settings;\n\n\t\taddress prevSubject = voteOutVotes[msg.sender];\n\t\tvoteOutVotes[msg.sender] = subject;\n\n\t\tuint256 voterStake = getDelegationsContract().getDelegatedStakes(msg.sender);\n\n\t\tif (prevSubject == address(0)) {\n\t\t\tvotersStake[msg.sender] = voterStake;\n\t\t}\n\n\t\tif (subject == address(0)) {\n\t\t\tdelete votersStake[msg.sender];\n\t\t}\n\n\t\tuint totalStake = getDelegationsContract().getTotalDelegatedStake();\n\n\t\tif (prevSubject != address(0) && prevSubject != subject) {\n\t\t\t_applyVoteOutVotesFor(prevSubject, 0, voterStake, totalStake, _settings);\n\t\t}\n\n\t\tif (subject != address(0)) {\n\t\t\tuint voteStakeAdded = prevSubject != subject ? voterStake : 0;\n\t\t\t_applyVoteOutVotesFor(subject, voteStakeAdded, 0, totalStake, _settings); // recheck also if not new\n\t\t}\n\t\temit VoteOutCasted(msg.sender, subject);\n\t}\n\n\tfunction calcGovernanceEffectiveStake(bool selfDelegating, uint256 totalDelegatedStake) private pure returns (uint256) {\n\t\treturn selfDelegating ? totalDelegatedStake : 0;\n\t}\n\n\tfunction getVoteOutVote(address addr) external view returns (address) {\n\t\treturn voteOutVotes[addr];\n\t}\n\n\tfunction getAccumulatedStakesForVoteOut(address addr) external view returns (uint256) {\n\t\treturn accumulatedStakesForVoteOut[addr];\n\t}\n\n\tfunction _applyStakesToVoteOutBy(address voter, uint256 currentVoterStake, uint256 totalGovernanceStake, Settings memory _settings) private {\n\t\taddress subjectAddr = voteOutVotes[voter];\n\t\tif (subjectAddr == address(0)) return;\n\n\t\tuint256 prevVoterStake = votersStake[voter];\n\t\tvotersStake[voter] = currentVoterStake;\n\n\t\t_applyVoteOutVotesFor(subjectAddr, currentVoterStake, prevVoterStake, totalGovernanceStake, _settings);\n\t}\n\n    function _applyVoteOutVotesFor(address subjectAddr, uint256 voteOutStakeAdded, uint256 voteOutStakeRemoved, uint256 totalGovernanceStake, Settings memory _settings) private {\n\t\tif (isVotedOut(subjectAddr)) {\n\t\t\treturn;\n\t\t}\n\n\t\tuint256 accumulated = accumulatedStakesForVoteOut[subjectAddr].\n\t\t\tsub(voteOutStakeRemoved).\n\t\t\tadd(voteOutStakeAdded);\n\n\t\tbool shouldBeVotedOut = totalGovernanceStake > 0 && accumulated.mul(100).div(totalGovernanceStake) >= _settings.voteOutPercentageThreshold;\n\t\tif (shouldBeVotedOut) {\n\t\t\tvotedOutGuardians[subjectAddr] = true;\n\t\t\temit GuardianVotedOut(subjectAddr);\n\n\t\t\temit GuardianStatusUpdated(subjectAddr, false, false);\n\t\t\tgetCommitteeContract().removeMember(subjectAddr);\n\n\t\t\taccumulated = 0;\n\t\t}\n\n\t\taccumulatedStakesForVoteOut[subjectAddr] = accumulated;\n\t}\n\n\tfunction isVotedOut(address addr) private view returns (bool) {\n\t\treturn votedOutGuardians[addr];\n\t}\n\n\tfunction delegatedStakeChange(address addr, uint256 selfStake, uint256 delegatedStake, uint256 totalDelegatedStake) external onlyDelegationsContract onlyWhenActive {\n\t\tSettings memory _settings = settings;\n\t\t_applyDelegatedStake(addr, selfStake, delegatedStake, _settings);\n\t\t_applyStakesToVoteOutBy(addr, delegatedStake, totalDelegatedStake, _settings);\n\t}\n\n\tfunction getMainAddrFromOrbsAddr(address orbsAddr) private view returns (address) {\n\t\taddress[] memory orbsAddrArr = new address[](1);\n\t\torbsAddrArr[0] = orbsAddr;\n\t\taddress sender = getGuardiansRegistrationContract().getEthereumAddresses(orbsAddrArr)[0];\n\t\trequire(sender != address(0), \"unknown orbs address\");\n\t\treturn sender;\n\t}\n\n\tfunction _applyDelegatedStake(address addr, uint256 selfStake, uint256 delegatedStake, Settings memory _settings) private {\n\t\tuint effectiveStake = getCommitteeEffectiveStake(selfStake, delegatedStake, _settings);\n\t\temit StakeChanged(addr, selfStake, delegatedStake, effectiveStake);\n\n\t\tgetCommitteeContract().memberWeightChange(addr, effectiveStake);\n\t}\n\n\tfunction getCommitteeEffectiveStake(uint256 selfStake, uint256 delegatedStake, Settings memory _settings) private view returns (uint256) {\n\t\tif (selfStake == 0) {\n\t\t\treturn 0;\n\t\t}\n\n\t\tif (selfStake.mul(100000) >= delegatedStake.mul(_settings.minSelfStakePercentMille)) {\n\t\t\treturn delegatedStake;\n\t\t}\n\n\t\treturn selfStake.mul(100000).div(_settings.minSelfStakePercentMille); // never overflows or divides by zero\n\t}\n\n\tfunction getCommitteeEffectiveStake(address v, Settings memory _settings) private view returns (uint256) {\n\t\treturn getCommitteeEffectiveStake(getStakingContract().getStakeBalanceOf(v), getDelegationsContract().getDelegatedStakes(v), _settings);\n\t}\n\n\tfunction removeMemberFromCommittees(address addr) private {\n\t\tgetCommitteeContract().removeMember(addr);\n\t}\n\n\tfunction addMemberToCommittees(address addr, Settings memory _settings) private {\n\t\tgetCommitteeContract().addMember(addr, getCommitteeEffectiveStake(addr, _settings), getCertificationContract().isGuardianCertified(addr));\n\t}\n\n\tfunction setVoteUnreadyTimeoutSeconds(uint32 voteUnreadyTimeoutSeconds) external onlyFunctionalOwner /* todo onlyWhenActive */ {\n\t\temit VoteUnreadyTimeoutSecondsChanged(voteUnreadyTimeoutSeconds, settings.voteUnreadyTimeoutSeconds);\n\t\tsettings.voteUnreadyTimeoutSeconds = voteUnreadyTimeoutSeconds;\n\t}\n\n\tfunction setMinSelfStakePercentMille(uint32 minSelfStakePercentMille) external onlyFunctionalOwner /* todo onlyWhenActive */ {\n\t\trequire(minSelfStakePercentMille <= 100000, \"minSelfStakePercentMille must be 100000 at most\");\n\t\temit MinSelfStakePercentMilleChanged(minSelfStakePercentMille, settings.minSelfStakePercentMille);\n\t\tsettings.minSelfStakePercentMille = minSelfStakePercentMille;\n\t}\n\n\tfunction setVoteOutPercentageThreshold(uint8 voteOutPercentageThreshold) external onlyFunctionalOwner /* todo onlyWhenActive */ {\n\t\trequire(voteOutPercentageThreshold <= 100, \"voteOutPercentageThreshold must not be larger than 100\");\n\t\temit VoteOutPercentageThresholdChanged(voteOutPercentageThreshold, settings.voteOutPercentageThreshold);\n\t\tsettings.voteOutPercentageThreshold = voteOutPercentageThreshold;\n\t}\n\n\tfunction setVoteUnreadyPercentageThreshold(uint8 voteUnreadyPercentageThreshold) external onlyFunctionalOwner /* todo onlyWhenActive */ {\n\t\trequire(voteUnreadyPercentageThreshold <= 100, \"voteUnreadyPercentageThreshold must not be larger than 100\");\n\t\temit VoteUnreadyPercentageThresholdChanged(voteUnreadyPercentageThreshold, settings.voteUnreadyPercentageThreshold);\n\t\tsettings.voteUnreadyPercentageThreshold = voteUnreadyPercentageThreshold;\n\t}\n\n\tfunction getSettings() external view returns (\n\t\tuint32 voteUnreadyTimeoutSeconds,\n\t\tuint32 minSelfStakePercentMille,\n\t\tuint8 voteUnreadyPercentageThreshold,\n\t\tuint8 voteOutPercentageThreshold\n\t) {\n\t\tSettings memory _settings = settings;\n\t\tvoteUnreadyTimeoutSeconds = _settings.voteUnreadyTimeoutSeconds;\n\t\tminSelfStakePercentMille = _settings.minSelfStakePercentMille;\n\t\tvoteUnreadyPercentageThreshold = _settings.voteUnreadyPercentageThreshold;\n\t\tvoteOutPercentageThreshold = _settings.voteUnreadyPercentageThreshold;\n\t}\n\n}\n",
  "sourcePath": "/Users/aviramstern/GolandProjects/orbs-ethereum-contracts-v2/contracts/Elections.sol",
  "compiler": {
    "name": "solc",
    "version": "0.5.16+commit.9c3226ce.Emscripten.clang"
  },
  "schemaVersion": "3.0.23",
  "updatedAt": "2020-08-06T21:58:43.743Z",
  "devdoc": {
    "methods": {
      "claimFunctionalOwnership()": {
        "details": "Allows the pendingFunctionalOwner address to finalize the transfer."
      },
      "claimMigrationOwnership()": {
        "details": "Allows the pendingMigrationOwner address to finalize the transfer."
      },
      "functionalOwner()": {
        "details": "Returns the address of the current functionalOwner."
      },
      "guardianCertificationChanged(address,bool)": {
        "details": "Called by: guardian registration contract Notifies on a guardian certification change"
      },
      "guardianRegistered(address)": {
        "details": "Called by: guardian registration contract Notifies a new guardian was registered"
      },
      "guardianUnregistered(address)": {
        "details": "Called by: guardian registration contract Notifies a new guardian was unregistered"
      },
      "isFunctionalOwner()": {
        "details": "Returns true if the caller is the current functionalOwner."
      },
      "isMigrationOwner()": {
        "details": "Returns true if the caller is the current migrationOwner."
      },
      "migrationOwner()": {
        "details": "Returns the address of the current migrationOwner."
      },
      "renounceFunctionalOwnership()": {
        "details": "Leaves the contract without functionalOwner. It will not be possible to call `onlyOwner` functions anymore. Can only be called by the current functionalOwner.     * NOTE: Renouncing functionalOwnership will leave the contract without an functionalOwner, thereby removing any functionality that is only available to the functionalOwner."
      },
      "renounceMigrationOwnership()": {
        "details": "Leaves the contract without migrationOwner. It will not be possible to call `onlyOwner` functions anymore. Can only be called by the current migrationOwner.     * NOTE: Renouncing migrationOwnership will leave the contract without an migrationOwner, thereby removing any functionality that is only available to the migrationOwner."
      },
      "transferFunctionalOwnership(address)": {
        "details": "Allows the current functionalOwner to set the pendingOwner address.",
        "params": {
          "newFunctionalOwner": "The address to transfer functionalOwnership to."
        }
      },
      "transferMigrationOwnership(address)": {
        "details": "Allows the current migrationOwner to set the pendingOwner address.",
        "params": {
          "newMigrationOwner": "The address to transfer migrationOwnership to."
        }
      }
    }
  },
  "userdoc": {
    "methods": {}
  }
}