{
  "contractName": "FeesWallet",
  "abi": [
    {
      "inputs": [
        {
          "internalType": "contract IERC20",
          "name": "_token",
          "type": "address"
        }
      ],
      "payable": false,
      "stateMutability": "nonpayable",
      "type": "constructor"
    },
    {
      "anonymous": false,
      "inputs": [
        {
          "indexed": false,
          "internalType": "address",
          "name": "addr",
          "type": "address"
        }
      ],
      "name": "ContractRegistryAddressUpdated",
      "type": "event"
    },
    {
      "anonymous": false,
      "inputs": [
        {
          "indexed": false,
          "internalType": "address",
          "name": "addr",
          "type": "address"
        }
      ],
      "name": "EmergencyWithdrawal",
      "type": "event"
    },
    {
      "anonymous": false,
      "inputs": [
        {
          "indexed": false,
          "internalType": "uint256",
          "name": "bucketId",
          "type": "uint256"
        },
        {
          "indexed": false,
          "internalType": "uint256",
          "name": "added",
          "type": "uint256"
        },
        {
          "indexed": false,
          "internalType": "uint256",
          "name": "total",
          "type": "uint256"
        }
      ],
      "name": "FeesAddedToBucket",
      "type": "event"
    },
    {
      "anonymous": false,
      "inputs": [
        {
          "indexed": false,
          "internalType": "uint256",
          "name": "bucketId",
          "type": "uint256"
        },
        {
          "indexed": false,
          "internalType": "uint256",
          "name": "withdrawn",
          "type": "uint256"
        },
        {
          "indexed": false,
          "internalType": "uint256",
          "name": "total",
          "type": "uint256"
        }
      ],
      "name": "FeesWithdrawnFromBucket",
      "type": "event"
    },
    {
      "anonymous": false,
      "inputs": [
        {
          "indexed": true,
          "internalType": "address",
          "name": "previousFunctionalOwner",
          "type": "address"
        },
        {
          "indexed": true,
          "internalType": "address",
          "name": "newFunctionalOwner",
          "type": "address"
        }
      ],
      "name": "FunctionalOwnershipTransferred",
      "type": "event"
    },
    {
      "anonymous": false,
      "inputs": [
        {
          "indexed": true,
          "internalType": "address",
          "name": "previousMigrationOwner",
          "type": "address"
        },
        {
          "indexed": true,
          "internalType": "address",
          "name": "newMigrationOwner",
          "type": "address"
        }
      ],
      "name": "MigrationOwnershipTransferred",
      "type": "event"
    },
    {
      "constant": false,
      "inputs": [],
      "name": "claimFunctionalOwnership",
      "outputs": [],
      "payable": false,
      "stateMutability": "nonpayable",
      "type": "function"
    },
    {
      "constant": false,
      "inputs": [],
      "name": "claimMigrationOwnership",
      "outputs": [],
      "payable": false,
      "stateMutability": "nonpayable",
      "type": "function"
    },
    {
      "constant": true,
      "inputs": [],
      "name": "functionalOwner",
      "outputs": [
        {
          "internalType": "address",
          "name": "",
          "type": "address"
        }
      ],
      "payable": false,
      "stateMutability": "view",
      "type": "function"
    },
    {
      "constant": true,
      "inputs": [],
      "name": "getBootstrapRewardsWallet",
      "outputs": [
        {
          "internalType": "contract IProtocolWallet",
          "name": "",
          "type": "address"
        }
      ],
      "payable": false,
      "stateMutability": "view",
      "type": "function"
    },
    {
      "constant": true,
      "inputs": [],
      "name": "getCertificationContract",
      "outputs": [
        {
          "internalType": "contract ICertification",
          "name": "",
          "type": "address"
        }
      ],
      "payable": false,
      "stateMutability": "view",
      "type": "function"
    },
    {
      "constant": true,
      "inputs": [],
      "name": "getCertifiedFeesWallet",
      "outputs": [
        {
          "internalType": "contract IFeesWallet",
          "name": "",
          "type": "address"
        }
      ],
      "payable": false,
      "stateMutability": "view",
      "type": "function"
    },
    {
      "constant": true,
      "inputs": [],
      "name": "getCommitteeContract",
      "outputs": [
        {
          "internalType": "contract ICommittee",
          "name": "",
          "type": "address"
        }
      ],
      "payable": false,
      "stateMutability": "view",
      "type": "function"
    },
    {
      "constant": true,
      "inputs": [],
      "name": "getDelegationsContract",
      "outputs": [
        {
          "internalType": "contract IDelegations",
          "name": "",
          "type": "address"
        }
      ],
      "payable": false,
      "stateMutability": "view",
      "type": "function"
    },
    {
      "constant": true,
      "inputs": [],
      "name": "getElectionsContract",
      "outputs": [
        {
          "internalType": "contract IElections",
          "name": "",
          "type": "address"
        }
      ],
      "payable": false,
      "stateMutability": "view",
      "type": "function"
    },
    {
      "constant": true,
      "inputs": [],
      "name": "getGeneralFeesWallet",
      "outputs": [
        {
          "internalType": "contract IFeesWallet",
          "name": "",
          "type": "address"
        }
      ],
      "payable": false,
      "stateMutability": "view",
      "type": "function"
    },
    {
      "constant": true,
      "inputs": [],
      "name": "getGuardiansRegistrationContract",
      "outputs": [
        {
          "internalType": "contract IGuardiansRegistration",
          "name": "",
          "type": "address"
        }
      ],
      "payable": false,
      "stateMutability": "view",
      "type": "function"
    },
    {
      "constant": true,
      "inputs": [],
      "name": "getProtocolContract",
      "outputs": [
        {
          "internalType": "contract IProtocol",
          "name": "",
          "type": "address"
        }
      ],
      "payable": false,
      "stateMutability": "view",
      "type": "function"
    },
    {
      "constant": true,
      "inputs": [],
      "name": "getRewardsContract",
      "outputs": [
        {
          "internalType": "contract IRewards",
          "name": "",
          "type": "address"
        }
      ],
      "payable": false,
      "stateMutability": "view",
      "type": "function"
    },
    {
      "constant": true,
      "inputs": [],
      "name": "getStakingContract",
      "outputs": [
        {
          "internalType": "contract IStakingContract",
          "name": "",
          "type": "address"
        }
      ],
      "payable": false,
      "stateMutability": "view",
      "type": "function"
    },
    {
      "constant": true,
      "inputs": [],
      "name": "getStakingRewardsWallet",
      "outputs": [
        {
          "internalType": "contract IProtocolWallet",
          "name": "",
          "type": "address"
        }
      ],
      "payable": false,
      "stateMutability": "view",
      "type": "function"
    },
    {
      "constant": true,
      "inputs": [],
      "name": "getSubscriptionsContract",
      "outputs": [
        {
          "internalType": "contract ISubscriptions",
          "name": "",
          "type": "address"
        }
      ],
      "payable": false,
      "stateMutability": "view",
      "type": "function"
    },
    {
      "constant": true,
      "inputs": [],
      "name": "isFunctionalOwner",
      "outputs": [
        {
          "internalType": "bool",
          "name": "",
          "type": "bool"
        }
      ],
      "payable": false,
      "stateMutability": "view",
      "type": "function"
    },
    {
      "constant": true,
      "inputs": [],
      "name": "isMigrationOwner",
      "outputs": [
        {
          "internalType": "bool",
          "name": "",
          "type": "bool"
        }
      ],
      "payable": false,
      "stateMutability": "view",
      "type": "function"
    },
    {
      "constant": true,
      "inputs": [],
      "name": "migrationOwner",
      "outputs": [
        {
          "internalType": "address",
          "name": "",
          "type": "address"
        }
      ],
      "payable": false,
      "stateMutability": "view",
      "type": "function"
    },
    {
      "constant": false,
      "inputs": [],
      "name": "renounceFunctionalOwnership",
      "outputs": [],
      "payable": false,
      "stateMutability": "nonpayable",
      "type": "function"
    },
    {
      "constant": false,
      "inputs": [],
      "name": "renounceMigrationOwnership",
      "outputs": [],
      "payable": false,
      "stateMutability": "nonpayable",
      "type": "function"
    },
    {
      "constant": false,
      "inputs": [
        {
          "internalType": "contract IContractRegistry",
          "name": "_contractRegistry",
          "type": "address"
        }
      ],
      "name": "setContractRegistry",
      "outputs": [],
      "payable": false,
      "stateMutability": "nonpayable",
      "type": "function"
    },
    {
      "constant": false,
      "inputs": [
        {
          "internalType": "address",
          "name": "newFunctionalOwner",
          "type": "address"
        }
      ],
      "name": "transferFunctionalOwnership",
      "outputs": [],
      "payable": false,
      "stateMutability": "nonpayable",
      "type": "function"
    },
    {
      "constant": false,
      "inputs": [
        {
          "internalType": "address",
          "name": "newMigrationOwner",
          "type": "address"
        }
      ],
      "name": "transferMigrationOwnership",
      "outputs": [],
      "payable": false,
      "stateMutability": "nonpayable",
      "type": "function"
    },
    {
      "constant": false,
      "inputs": [],
      "name": "collectFees",
      "outputs": [
        {
          "internalType": "uint256",
          "name": "collectedFees",
          "type": "uint256"
        }
      ],
      "payable": false,
      "stateMutability": "nonpayable",
      "type": "function"
    },
    {
      "constant": false,
      "inputs": [
        {
          "internalType": "uint256",
          "name": "amount",
          "type": "uint256"
        },
        {
          "internalType": "uint256",
          "name": "monthlyRate",
          "type": "uint256"
        },
        {
          "internalType": "uint256",
          "name": "fromTimestamp",
          "type": "uint256"
        }
      ],
      "name": "fillFeeBuckets",
      "outputs": [],
      "payable": false,
      "stateMutability": "nonpayable",
      "type": "function"
    },
    {
      "constant": false,
      "inputs": [
        {
          "internalType": "uint256",
          "name": "bucketStartTime",
          "type": "uint256"
        },
        {
          "internalType": "uint256",
          "name": "amount",
          "type": "uint256"
        }
      ],
      "name": "acceptBucketMigration",
      "outputs": [],
      "payable": false,
      "stateMutability": "nonpayable",
      "type": "function"
    },
    {
      "constant": false,
      "inputs": [
        {
          "internalType": "contract IMigratableFeesWallet",
          "name": "destination",
          "type": "address"
        },
        {
          "internalType": "uint256",
          "name": "bucketStartTime",
          "type": "uint256"
        }
      ],
      "name": "migrateBucket",
      "outputs": [],
      "payable": false,
      "stateMutability": "nonpayable",
      "type": "function"
    },
    {
      "constant": false,
      "inputs": [],
      "name": "emergencyWithdraw",
      "outputs": [],
      "payable": false,
      "stateMutability": "nonpayable",
      "type": "function"
    }
  ],
  "bytecode": "0x608060405234801561001057600080fd5b50604051611dc1380380611dc18339818101604052602081101561003357600080fd5b505160006100486001600160e01b0361011c16565b600080546001600160a01b0319166001600160a01b0383169081178255604051929350917f7e8c4fc74f50849b4ec635ed03f5d13f87cd46ae422e97479704c6fd1c164e20908290a35060006100a56001600160e01b0361011c16565b600380546001600160a01b0319166001600160a01b038316908117909155604051919250906000907f322ef0cb3bcc6b6f659770a0acaf7473e9bc6ebe63e04e4f28924c285c8cc5ea908290a350600580546001600160a01b0319166001600160a01b039290921691909117905542600755610120565b3390565b611c928061012f6000396000f3fe608060405234801561001057600080fd5b50600436106101cf5760003560e01c80638e68dce411610104578063ad751ed3116100a2578063db2e21bc11610071578063db2e21bc1461037c578063ddc0d5d614610384578063ec5e178c1461038c578063fcd13d6514610394576101cf565b8063ad751ed31461034a578063b5f1c29d14610352578063bed1807d1461035a578063c879657214610362576101cf565b80639b9a7e68116100de5780639b9a7e68146102ee5780639f587d1c14610314578063a09e0d901461033a578063ab6acfc414610342576101cf565b80638e68dce4146102d6578063977d4e5a146102de5780639b0e4c7f146102e6576101cf565b80632c43bdd5116101715780635282346d1161014b5780635282346d146102955780636cdb67461461029d578063732852e0146102a55780637b93af4c146102ce576101cf565b80632c43bdd51461027d5780633a88ab8e146102855780633b7813091461028d576101cf565b8063133afda3116101ad578063133afda31461021c5780631dc669f41461024a578063209ab43e14610252578063209df1e214610275576101cf565b8063021abb93146101d4578063116421b6146101f057806311caadfb14610214575b600080fd5b6101dc6103ba565b604080519115158252519081900360200190f35b6101f86103de565b604080516001600160a01b039092168252519081900360200190f35b6101f861047c565b6102486004803603604081101561023257600080fd5b506001600160a01b0381351690602001356104df565b005b6102486106c3565b6102486004803603604081101561026857600080fd5b5080359060200135610733565b610248610844565b6101f86108d1565b6101dc6108e0565b6102486108f7565b6101f8610984565b6101f86109e9565b610248600480360360608110156102bb57600080fd5b5080359060208101359060400135610a57565b610248610c08565b6101f8610c78565b6101f8610cd9565b6101f8610d40565b6102486004803603602081101561030457600080fd5b50356001600160a01b0316610dab565b6102486004803603602081101561032a57600080fd5b50356001600160a01b0316610e10565b6101f8610e75565b6101f8610edc565b6101f8610f3f565b6101f8610fa0565b6101f8611002565b61036a611011565b60408051918252519081900360200190f35b610248611263565b6101f8611411565b6101f8611480565b610248600480360360208110156103aa57600080fd5b50356001600160a01b03166114f0565b600080546001600160a01b03166103cf611587565b6001600160a01b031614905090565b6002546040805163349f642f60e11b8152602060048201819052601360248301527218d95c9d1a599a59591199595cd5d85b1b195d606a1b604483015291516000936001600160a01b03169263693ec85e9260648082019391829003018186803b15801561044b57600080fd5b505afa15801561045f573d6000803e3d6000fd5b505050506040513d602081101561047557600080fd5b5051905090565b6002546040805163349f642f60e11b81526020600482018190526009602483015268656c656374696f6e7360b81b604483015291516000936001600160a01b03169263693ec85e9260648082019391829003018186803b15801561044b57600080fd5b6104e76103ba565b6105225760405162461bcd60e51b8152600401808060200182810382526041815260200180611a946041913960600191505060405180910390fd5b8061052c8261158b565b146105685760405162461bcd60e51b8152600401808060200182810382526033815260200180611a186033913960400191505060405180910390fd5b6000818152600660205260409020548061058257506106bf565b600082815260066020908152604080832083905580518581529182018490528181019290925290517ff7cf471b1a70d08124afae779569878256f4d0fd4729dc55cfb0025571dcf4999181900360600190a16005546040805163095ea7b360e01b81526001600160a01b038681166004830152602482018590529151919092169163095ea7b39160448083019260209291908290030181600087803b15801561062a57600080fd5b505af115801561063e573d6000803e3d6000fd5b505050506040513d602081101561065457600080fd5b50506040805163104d5a1f60e11b8152600481018490526024810183905290516001600160a01b0385169163209ab43e91604480830192600092919082900301818387803b1580156106a557600080fd5b505af11580156106b9573d6000803e3d6000fd5b50505050505b5050565b6004546001600160a01b0316331461070c5760405162461bcd60e51b8152600401808060200182810382526029815260200180611bfa6029913960400191505060405180910390fd5b600454610721906001600160a01b0316611596565b600480546001600160a01b0319169055565b8161073d8361158b565b146107795760405162461bcd60e51b8152600401808060200182810382526033815260200180611a186033913960400191505060405180910390fd5b6107838282611637565b600554604080516323b872dd60e01b81523360048201523060248201526044810184905290516001600160a01b03909216916323b872dd916064808201926020929091908290030181600087803b1580156107dd57600080fd5b505af11580156107f1573d6000803e3d6000fd5b505050506040513d602081101561080757600080fd5b50516106bf5760405162461bcd60e51b815260040180806020018281038252603b815260200180611c23603b913960400191505060405180910390fd5b61084c6103ba565b6108875760405162461bcd60e51b8152600401808060200182810382526041815260200180611a946041913960600191505060405180910390fd5b600080546040516001600160a01b03909116907f7e8c4fc74f50849b4ec635ed03f5d13f87cd46ae422e97479704c6fd1c164e20908390a3600080546001600160a01b0319169055565b6000546001600160a01b031690565b6003546000906001600160a01b03166103cf611587565b6108ff6108e0565b61093a5760405162461bcd60e51b8152600401808060200182810382526043815260200180611b816043913960600191505060405180910390fd5b6003546040516000916001600160a01b0316907f322ef0cb3bcc6b6f659770a0acaf7473e9bc6ebe63e04e4f28924c285c8cc5ea908390a3600380546001600160a01b0319169055565b6002546040805163349f642f60e11b8152602060048201819052600b60248301526a64656c65676174696f6e7360a81b604483015291516000936001600160a01b03169263693ec85e9260648082019391829003018186803b15801561044b57600080fd5b6002546040805163349f642f60e11b815260206004820181905260146024830152731cdd185ada5b99d4995dd85c991cd5d85b1b195d60621b604483015291516000936001600160a01b03169263693ec85e9260648082019391829003018186803b15801561044b57600080fd5b6000610a628261158b565b9050610a6d4261158b565b811015610aab5760405162461bcd60e51b815260040180806020018281038252602b815260200180611b0d602b913960400191505060405180910390fd5b836000610ad882610ad362278d00610ac789828a0683036116b1565b9063ffffffff61171316565b611755565b9050610ae48382611637565b610af4828263ffffffff61176b16565b91505b8115610b3f57610b108362278d0063ffffffff6117ad16565b9250610b1c8583611755565b9050610b288382611637565b610b38828263ffffffff61176b16565b9150610af7565b600554604080516323b872dd60e01b81523360048201523060248201526044810189905290516001600160a01b03909216916323b872dd916064808201926020929091908290030181600087803b158015610b9957600080fd5b505af1158015610bad573d6000803e3d6000fd5b505050506040513d6020811015610bc357600080fd5b5051610c005760405162461bcd60e51b8152600401808060200182810382526027815260200180611a6d6027913960400191505060405180910390fd5b505050505050565b6001546001600160a01b03163314610c515760405162461bcd60e51b8152600401808060200182810382526028815260200180611b386028913960400191505060405180910390fd5b600154610c66906001600160a01b0316611807565b600180546001600160a01b0319169055565b6002546040805163349f642f60e11b815260206004820181905260076024830152667374616b696e6760c81b604483015291516000936001600160a01b03169263693ec85e9260648082019391829003018186803b15801561044b57600080fd5b6002546040805163349f642f60e11b8152602060048201819052600d60248301526c737562736372697074696f6e7360981b604483015291516000936001600160a01b03169263693ec85e9260648082019391829003018186803b15801561044b57600080fd5b6002546040805163349f642f60e11b8152602060048201819052601160248301527019d95b995c985b1199595cd5d85b1b195d607a1b604483015291516000936001600160a01b03169263693ec85e9260648082019391829003018186803b15801561044b57600080fd5b610db36108e0565b610dee5760405162461bcd60e51b8152600401808060200182810382526043815260200180611b816043913960600191505060405180910390fd5b600480546001600160a01b0319166001600160a01b0392909216919091179055565b610e186103ba565b610e535760405162461bcd60e51b8152600401808060200182810382526041815260200180611a946041913960600191505060405180910390fd5b600180546001600160a01b0319166001600160a01b0392909216919091179055565b6002546040805163349f642f60e11b8152602060048201819052600d60248301526c31b2b93a34b334b1b0ba34b7b760991b604483015291516000936001600160a01b03169263693ec85e9260648082019391829003018186803b15801561044b57600080fd5b6002546040805163349f642f60e11b81526020600482018190526009602483015268636f6d6d697474656560b81b604483015291516000936001600160a01b03169263693ec85e9260648082019391829003018186803b15801561044b57600080fd5b6002546040805163349f642f60e11b815260206004820181905260076024830152667265776172647360c81b604483015291516000936001600160a01b03169263693ec85e9260648082019391829003018186803b15801561044b57600080fd5b6002546040805163349f642f60e11b815260206004820181905260086024830152671c1c9bdd1bd8dbdb60c21b604483015291516000936001600160a01b03169263693ec85e9260648082019391829003018186803b15801561044b57600080fd5b6003546001600160a01b031690565b600061101b610f3f565b6001600160a01b0316336001600160a01b03161461106a5760405162461bcd60e51b8152600401808060200182810382526022815260200180611a4b6022913960400191505060405180910390fd5b60075460005b60188110801561107f57504282105b1561119e57600061108f8361158b565b905060006110a68262278d0063ffffffff6117ad16565b905060006110b48242611755565b905060006110c8828763ffffffff61176b16565b905060006110dc848863ffffffff61176b16565b60008681526006602052604081205491925082848302816110f957fe5b04998a01999050611110828263ffffffff61176b16565b60008881526006602090815260409182902083905581518a815290810184905280820183905290519193507ff7cf471b1a70d08124afae779569878256f4d0fd4729dc55cfb0025571dcf499919081900360600190a18498508589111561117357fe5b8589141561118b576000878152600660205260408120555b5050600190950194506110709350505050565b60078290556005546040805163a9059cbb60e01b81523360048201526024810186905290516001600160a01b039092169163a9059cbb916044808201926020929091908290030181600087803b1580156111f757600080fd5b505af115801561120b573d6000803e3d6000fd5b505050506040513d602081101561122157600080fd5b505161125e5760405162461bcd60e51b81526004018080602001828103825260388152602001806119a46038913960400191505060405180910390fd5b505090565b61126b6103ba565b6112a65760405162461bcd60e51b8152600401808060200182810382526041815260200180611a946041913960600191505060405180910390fd5b6040805133815290517fa70f26764574533b4d511b70b39191ceaaa63e9eb8f2b43e4646488a014be3499181900360200190a1600554604080516370a0823160e01b815230600482015290516001600160a01b039092169163a9059cbb91339184916370a08231916024808301926020929190829003018186803b15801561132d57600080fd5b505afa158015611341573d6000803e3d6000fd5b505050506040513d602081101561135757600080fd5b5051604080516001600160e01b031960e086901b1681526001600160a01b03909316600484015260248301919091525160448083019260209291908290030181600087803b1580156113a857600080fd5b505af11580156113bc573d6000803e3d6000fd5b505050506040513d60208110156113d257600080fd5b505161140f5760405162461bcd60e51b815260040180806020018281038252603c8152602001806119dc603c913960400191505060405180910390fd5b565b6002546040805163349f642f60e11b8152602060048201819052601560248301527433bab0b93234b0b739a932b3b4b9ba3930ba34b7b760591b604483015291516000936001600160a01b03169263693ec85e9260648082019391829003018186803b15801561044b57600080fd5b6002546040805163349f642f60e11b81526020600482018190526016602483015275189bdbdd1cdd1c985c14995dd85c991cd5d85b1b195d60521b604483015291516000936001600160a01b03169263693ec85e9260648082019391829003018186803b15801561044b57600080fd5b6114f86103ba565b6115335760405162461bcd60e51b8152600401808060200182810382526041815260200180611a946041913960600191505060405180910390fd5b600280546001600160a01b0383166001600160a01b0319909116811790915560408051918252517ffea2d033438b968078a6264409d0104b5f3d2ce7b795afc74918e70f3534f22b9181900360200190a150565b3390565b62278d008106900390565b6001600160a01b0381166115db5760405162461bcd60e51b8152600401808060200182810382526038815260200180611ad56038913960400191505060405180910390fd5b6003546040516001600160a01b038084169216907f322ef0cb3bcc6b6f659770a0acaf7473e9bc6ebe63e04e4f28924c285c8cc5ea90600090a3600380546001600160a01b0319166001600160a01b0392909216919091179055565b600082815260066020526040812054611656908363ffffffff6117ad16565b600084815260066020908152604091829020839055815186815290810185905280820183905290519192507fbf684526d3d5800fd3b7102cd676719792b58d33c1cfbf2518df4c3737a500e8919081900360600190a1505050565b6000826116c05750600061170d565b828202828482816116cd57fe5b041461170a5760405162461bcd60e51b8152600401808060200182810382526021815260200180611b606021913960400191505060405180910390fd5b90505b92915050565b600061170a83836040518060400160405280601a81526020017f536166654d6174683a206469766973696f6e206279207a65726f0000000000008152506118a7565b6000818310611764578161170a565b5090919050565b600061170a83836040518060400160405280601e81526020017f536166654d6174683a207375627472616374696f6e206f766572666c6f770000815250611949565b60008282018381101561170a576040805162461bcd60e51b815260206004820152601b60248201527f536166654d6174683a206164646974696f6e206f766572666c6f770000000000604482015290519081900360640190fd5b6001600160a01b03811661184c5760405162461bcd60e51b8152600401808060200182810382526036815260200180611bc46036913960400191505060405180910390fd5b600080546040516001600160a01b03808516939216917f7e8c4fc74f50849b4ec635ed03f5d13f87cd46ae422e97479704c6fd1c164e2091a3600080546001600160a01b0319166001600160a01b0392909216919091179055565b600081836119335760405162461bcd60e51b81526004018080602001828103825283818151815260200191508051906020019080838360005b838110156118f85781810151838201526020016118e0565b50505050905090810190601f1680156119255780820380516001836020036101000a031916815260200191505b509250505060405180910390fd5b50600083858161193f57fe5b0495945050505050565b6000818484111561199b5760405162461bcd60e51b81526020600482018181528351602484015283519092839260449091019190850190808383600083156118f85781810151838201526020016118e0565b50505090039056fe4665657357616c6c65743a3a6661696c656420746f207472616e7366657220636f6c6c6563746564206665657320746f2072657761726473494665657357616c6c65743a3a656d657267656e63795769746864726177202d207472616e73666572206661696c6564202866656520746f6b656e296275636b6574537461727454696d65206d75737420626520746865202073746172742074696d65206f662061206275636b657463616c6c6572206973206e6f7420746865207265776172647320636f6e74726163746661696c656420746f207472616e73666572206665657320696e746f206665652077616c6c657457697468436c61696d61626c654d6967726174696f6e4f776e6572736869703a2063616c6c6572206973206e6f7420746865206d6967726174696f6e4f776e657246756e6374696f6e616c4f776e65723a206e65772066756e6374696f6e616c4f776e657220697320746865207a65726f206164647265737346656557616c6c65743a3a63616e6e6f742066696c6c206275636b65742066726f6d20746865207061737443616c6c6572206973206e6f74207468652070656e64696e67206d6967726174696f6e4f776e6572536166654d6174683a206d756c7469706c69636174696f6e206f766572666c6f7757697468436c61696d61626c6546756e6374696f6e616c4f776e6572736869703a2063616c6c6572206973206e6f74207468652066756e6374696f6e616c4f776e65724d6967726174696f6e4f776e65723a206e6577206d6967726174696f6e4f776e657220697320746865207a65726f206164647265737343616c6c6572206973206e6f74207468652070656e64696e672066756e6374696f6e616c4f776e65726661696c656420746f207472616e73666572206665657320696e746f206665652077616c6c6574206f6e206275636b6574206d6967726174696f6ea265627a7a723158205ca350b07cd73cbc47a187868cc34ac27e4240d4fd178fb83f1030db61f77fbf64736f6c63430005100032",
  "source": "pragma solidity 0.5.16;\n\nimport \"@openzeppelin/contracts/token/ERC20/IERC20.sol\";\nimport \"@openzeppelin/contracts/math/Math.sol\";\nimport \"@openzeppelin/contracts/math/SafeMath.sol\";\n\nimport \"./spec_interfaces/IContractRegistry.sol\";\nimport \"./spec_interfaces/IMigratableFeesWallet.sol\";\nimport \"./ContractRegistryAccessor.sol\";\nimport \"./WithClaimableFunctionalOwnership.sol\";\nimport \"./spec_interfaces/IFeesWallet.sol\";\n\n\n/// @title Fees Wallet contract interface, manages the fee buckets\ncontract FeesWallet is IFeesWallet, ContractRegistryAccessor, WithClaimableFunctionalOwnership {\n    using SafeMath for uint256;\n\n    event FeesWithdrawnFromBucket(uint256 bucketId, uint256 withdrawn, uint256 total);\n    event FeesAddedToBucket(uint256 bucketId, uint256 added, uint256 total);\n\n    IERC20 token;\n\n    uint256 constant BUCKET_TIME_PERIOD = 30 days;\n    uint constant MAX_FEE_BUCKET_ITERATIONS = 24;\n\n    mapping(uint256 => uint256) buckets;\n    uint256 lastCollectedAt;\n\n    modifier onlyRewardsContract() {\n        require(msg.sender == address(getRewardsContract()), \"caller is not the rewards contract\");\n\n        _;\n    }\n\n    constructor(IERC20 _token) public {\n        token = _token;\n        lastCollectedAt = now;\n    }\n\n    /// @dev collect fees from the buckets since the last call and transfers the amount back.\n    /// Called by: only Rewards contract.\n    function collectFees() external onlyRewardsContract returns (uint256 collectedFees)  {\n        // TODO we often do integer division for rate related calculation, which floors the result. Do we need to address this?\n        // TODO for an empty committee or a committee with 0 total stake the divided amounts will be locked in the contract FOREVER\n\n        // Fee pool\n        uint _lastCollectedAt = lastCollectedAt;\n        uint bucketsPayed = 0;\n        while (bucketsPayed < MAX_FEE_BUCKET_ITERATIONS && _lastCollectedAt < now) {\n            uint256 bucketStart = _bucketTime(_lastCollectedAt);\n            uint256 bucketEnd = bucketStart.add(BUCKET_TIME_PERIOD);\n            uint256 payUntil = Math.min(bucketEnd, now);\n            uint256 bucketDuration = payUntil.sub(_lastCollectedAt);\n            uint256 remainingBucketTime = bucketEnd.sub(_lastCollectedAt);\n\n            uint256 bucketTotal = buckets[bucketStart];\n            uint256 amount = bucketTotal * bucketDuration / remainingBucketTime;\n            collectedFees += amount;\n            bucketTotal = bucketTotal.sub(amount);\n            buckets[bucketStart] = bucketTotal;\n            emit FeesWithdrawnFromBucket(bucketStart, amount, bucketTotal);\n\n            _lastCollectedAt = payUntil;\n\n            assert(_lastCollectedAt <= bucketEnd);\n            if (_lastCollectedAt == bucketEnd) {\n                delete buckets[bucketStart];\n            }\n\n            bucketsPayed++;\n        }\n\n        lastCollectedAt = _lastCollectedAt;\n\n        require(token.transfer(msg.sender, collectedFees), \"FeesWallet::failed to transfer collected fees to rewards\"); // TODO in that case, transfer the remaining balance?\n    }\n\n    /*\n     *   External methods\n     */\n\n    /// @dev Called by: subscriptions contract.\n    /// Top-ups the fee pool with the given amount at the given rate (typically called by the subscriptions contract).\n    function fillFeeBuckets(uint256 amount, uint256 monthlyRate, uint256 fromTimestamp) external {\n        uint256 bucket = _bucketTime(fromTimestamp);\n        require(bucket >= _bucketTime(now), \"FeeWallet::cannot fill bucket from the past\");\n\n        uint256 _amount = amount;\n\n        // add the partial amount to the first bucket\n        uint256 bucketAmount = Math.min(amount, monthlyRate.mul(BUCKET_TIME_PERIOD - fromTimestamp % BUCKET_TIME_PERIOD).div(BUCKET_TIME_PERIOD));\n        fillFeeBucket(bucket, bucketAmount);\n        _amount = _amount.sub(bucketAmount);\n\n        // following buckets are added with the monthly rate\n        while (_amount > 0) {\n            bucket = bucket.add(BUCKET_TIME_PERIOD);\n            bucketAmount = Math.min(monthlyRate, _amount);\n            fillFeeBucket(bucket, bucketAmount);\n\n            _amount = _amount.sub(bucketAmount);\n        }\n\n        require(token.transferFrom(msg.sender, address(this), amount), \"failed to transfer fees into fee wallet\");\n    }\n\n    function fillFeeBucket(uint256 bucketId, uint256 amount) private {\n        uint256 bucketTotal = buckets[bucketId].add(amount);\n        buckets[bucketId] = bucketTotal;\n        emit FeesAddedToBucket(bucketId, amount, bucketTotal);\n    }\n\n    /// @dev Called by the old FeesWallet contract.\n    /// Part of the IMigratableFeesWallet interface.\n    function acceptBucketMigration(uint256 bucketStartTime, uint256 amount) external {\n        require(_bucketTime(bucketStartTime) == bucketStartTime,  \"bucketStartTime must be the  start time of a bucket\");\n        fillFeeBucket(bucketStartTime, amount);\n        require(token.transferFrom(msg.sender, address(this), amount), \"failed to transfer fees into fee wallet on bucket migration\");\n    }\n\n    /*\n     * General governance\n     */\n\n    /// @dev migrates the fees of bucket starting at startTimestamp.\n    /// bucketStartTime must be a bucket's start time.\n    /// Calls acceptBucketMigration in the destination contract.\n    function migrateBucket(IMigratableFeesWallet destination, uint256 bucketStartTime) external onlyMigrationOwner {\n        require(_bucketTime(bucketStartTime) == bucketStartTime,  \"bucketStartTime must be the  start time of a bucket\");\n\n        uint bucketAmount = buckets[bucketStartTime];\n        if (bucketAmount == 0) return;\n\n        buckets[bucketStartTime] = 0;\n        emit FeesWithdrawnFromBucket(bucketStartTime, bucketAmount, 0);\n\n        token.approve(address(destination), bucketAmount);\n        destination.acceptBucketMigration(bucketStartTime, bucketAmount);\n    }\n\n    /*\n     * Emergency\n     */\n\n    /// @dev an emergency withdrawal enables withdrawal of all funds to an escrow account. To be use in emergencies only.\n    function emergencyWithdraw() external onlyMigrationOwner {\n        emit EmergencyWithdrawal(msg.sender);\n        require(token.transfer(msg.sender, token.balanceOf(address(this))), \"IFeesWallet::emergencyWithdraw - transfer failed (fee token)\");\n    }\n\n    function _bucketTime(uint256 time) private pure returns (uint256) {\n        return time - time % BUCKET_TIME_PERIOD;\n    }\n\n}\n",
  "sourcePath": "/Users/aviramstern/GolandProjects/orbs-ethereum-contracts-v2/contracts/FeesWallet.sol",
  "compiler": {
    "name": "solc",
    "version": "0.5.16+commit.9c3226ce.Emscripten.clang"
  },
  "schemaVersion": "3.0.23",
  "updatedAt": "2020-08-05T19:51:46.929Z",
  "devdoc": {
    "methods": {
      "acceptBucketMigration(uint256,uint256)": {
        "details": "Called by the old FeesWallet contract. Part of the IMigratableFeesWallet interface."
      },
      "claimFunctionalOwnership()": {
        "details": "Allows the pendingFunctionalOwner address to finalize the transfer."
      },
      "claimMigrationOwnership()": {
        "details": "Allows the pendingMigrationOwner address to finalize the transfer."
      },
      "collectFees()": {
        "details": "collect fees from the buckets since the last call and transfers the amount back. Called by: only Rewards contract."
      },
      "emergencyWithdraw()": {
        "details": "an emergency withdrawal enables withdrawal of all funds to an escrow account. To be use in emergencies only."
      },
      "fillFeeBuckets(uint256,uint256,uint256)": {
        "details": "Called by: subscriptions contract. Top-ups the fee pool with the given amount at the given rate (typically called by the subscriptions contract)."
      },
      "functionalOwner()": {
        "details": "Returns the address of the current functionalOwner."
      },
      "isFunctionalOwner()": {
        "details": "Returns true if the caller is the current functionalOwner."
      },
      "isMigrationOwner()": {
        "details": "Returns true if the caller is the current migrationOwner."
      },
      "migrateBucket(address,uint256)": {
        "details": "migrates the fees of bucket starting at startTimestamp. bucketStartTime must be a bucket's start time. Calls acceptBucketMigration in the destination contract."
      },
      "migrationOwner()": {
        "details": "Returns the address of the current migrationOwner."
      },
      "renounceFunctionalOwnership()": {
        "details": "Leaves the contract without functionalOwner. It will not be possible to call `onlyOwner` functions anymore. Can only be called by the current functionalOwner.     * NOTE: Renouncing functionalOwnership will leave the contract without an functionalOwner, thereby removing any functionality that is only available to the functionalOwner."
      },
      "renounceMigrationOwnership()": {
        "details": "Leaves the contract without migrationOwner. It will not be possible to call `onlyOwner` functions anymore. Can only be called by the current migrationOwner.     * NOTE: Renouncing migrationOwnership will leave the contract without an migrationOwner, thereby removing any functionality that is only available to the migrationOwner."
      },
      "transferFunctionalOwnership(address)": {
        "details": "Allows the current functionalOwner to set the pendingOwner address.",
        "params": {
          "newFunctionalOwner": "The address to transfer functionalOwnership to."
        }
      },
      "transferMigrationOwnership(address)": {
        "details": "Allows the current migrationOwner to set the pendingOwner address.",
        "params": {
          "newMigrationOwner": "The address to transfer migrationOwnership to."
        }
      }
    },
    "title": "Fees Wallet contract interface, manages the fee buckets"
  },
  "userdoc": {
    "methods": {}
  }
}