{
  "contractName": "GuardiansWallet",
  "abi": [
    {
      "inputs": [
        {
          "internalType": "contract IERC20",
          "name": "_feesToken",
          "type": "address"
        },
        {
          "internalType": "contract IERC20",
          "name": "_stakingToken",
          "type": "address"
        },
        {
          "internalType": "contract IERC20",
          "name": "_bootstrapToken",
          "type": "address"
        },
        {
          "internalType": "uint32",
          "name": "_maxDelegatorsStakingRewardsPercentMille",
          "type": "uint32"
        }
      ],
      "payable": false,
      "stateMutability": "nonpayable",
      "type": "constructor"
    },
    {
      "anonymous": false,
      "inputs": [
        {
          "indexed": false,
          "internalType": "address",
          "name": "guardian",
          "type": "address"
        },
        {
          "indexed": false,
          "internalType": "uint256",
          "name": "amount",
          "type": "uint256"
        }
      ],
      "name": "BootstrapRewardsWithdrawn",
      "type": "event"
    },
    {
      "anonymous": false,
      "inputs": [
        {
          "indexed": false,
          "internalType": "address",
          "name": "addr",
          "type": "address"
        }
      ],
      "name": "ContractRegistryAddressUpdated",
      "type": "event"
    },
    {
      "anonymous": false,
      "inputs": [
        {
          "indexed": false,
          "internalType": "address",
          "name": "addr",
          "type": "address"
        }
      ],
      "name": "EmergencyWithdrawal",
      "type": "event"
    },
    {
      "anonymous": false,
      "inputs": [
        {
          "indexed": false,
          "internalType": "address",
          "name": "guardian",
          "type": "address"
        },
        {
          "indexed": false,
          "internalType": "uint256",
          "name": "amount",
          "type": "uint256"
        }
      ],
      "name": "FeesWithdrawn",
      "type": "event"
    },
    {
      "anonymous": false,
      "inputs": [
        {
          "indexed": true,
          "internalType": "address",
          "name": "previousFunctionalOwner",
          "type": "address"
        },
        {
          "indexed": true,
          "internalType": "address",
          "name": "newFunctionalOwner",
          "type": "address"
        }
      ],
      "name": "FunctionalOwnershipTransferred",
      "type": "event"
    },
    {
      "anonymous": false,
      "inputs": [
        {
          "indexed": false,
          "internalType": "uint32",
          "name": "maxDelegatorsStakingRewardsPercentMille",
          "type": "uint32"
        }
      ],
      "name": "MaxDelegatorsStakingRewardsChanged",
      "type": "event"
    },
    {
      "anonymous": false,
      "inputs": [
        {
          "indexed": true,
          "internalType": "address",
          "name": "previousMigrationOwner",
          "type": "address"
        },
        {
          "indexed": true,
          "internalType": "address",
          "name": "newMigrationOwner",
          "type": "address"
        }
      ],
      "name": "MigrationOwnershipTransferred",
      "type": "event"
    },
    {
      "anonymous": false,
      "inputs": [
        {
          "indexed": false,
          "internalType": "address[]",
          "name": "assignees",
          "type": "address[]"
        },
        {
          "indexed": false,
          "internalType": "uint256[]",
          "name": "stakingRewards",
          "type": "uint256[]"
        },
        {
          "indexed": false,
          "internalType": "uint256[]",
          "name": "fees",
          "type": "uint256[]"
        },
        {
          "indexed": false,
          "internalType": "uint256[]",
          "name": "bootstrapRewards",
          "type": "uint256[]"
        }
      ],
      "name": "RewardsAssigned",
      "type": "event"
    },
    {
      "anonymous": false,
      "inputs": [
        {
          "indexed": true,
          "internalType": "address",
          "name": "distributer",
          "type": "address"
        },
        {
          "indexed": false,
          "internalType": "uint256",
          "name": "fromBlock",
          "type": "uint256"
        },
        {
          "indexed": false,
          "internalType": "uint256",
          "name": "toBlock",
          "type": "uint256"
        },
        {
          "indexed": false,
          "internalType": "uint256",
          "name": "split",
          "type": "uint256"
        },
        {
          "indexed": false,
          "internalType": "uint256",
          "name": "txIndex",
          "type": "uint256"
        },
        {
          "indexed": false,
          "internalType": "address[]",
          "name": "to",
          "type": "address[]"
        },
        {
          "indexed": false,
          "internalType": "uint256[]",
          "name": "amounts",
          "type": "uint256[]"
        }
      ],
      "name": "StakingRewardsDistributed",
      "type": "event"
    },
    {
      "constant": false,
      "inputs": [],
      "name": "claimFunctionalOwnership",
      "outputs": [],
      "payable": false,
      "stateMutability": "nonpayable",
      "type": "function"
    },
    {
      "constant": false,
      "inputs": [],
      "name": "claimMigrationOwnership",
      "outputs": [],
      "payable": false,
      "stateMutability": "nonpayable",
      "type": "function"
    },
    {
      "constant": true,
      "inputs": [],
      "name": "functionalOwner",
      "outputs": [
        {
          "internalType": "address",
          "name": "",
          "type": "address"
        }
      ],
      "payable": false,
      "stateMutability": "view",
      "type": "function"
    },
    {
      "constant": true,
      "inputs": [],
      "name": "getBootstrapRewardsWallet",
      "outputs": [
        {
          "internalType": "contract IProtocolWallet",
          "name": "",
          "type": "address"
        }
      ],
      "payable": false,
      "stateMutability": "view",
      "type": "function"
    },
    {
      "constant": true,
      "inputs": [],
      "name": "getCertificationContract",
      "outputs": [
        {
          "internalType": "contract ICertification",
          "name": "",
          "type": "address"
        }
      ],
      "payable": false,
      "stateMutability": "view",
      "type": "function"
    },
    {
      "constant": true,
      "inputs": [],
      "name": "getCertifiedFeesWallet",
      "outputs": [
        {
          "internalType": "contract IFeesWallet",
          "name": "",
          "type": "address"
        }
      ],
      "payable": false,
      "stateMutability": "view",
      "type": "function"
    },
    {
      "constant": true,
      "inputs": [],
      "name": "getCommitteeContract",
      "outputs": [
        {
          "internalType": "contract ICommittee",
          "name": "",
          "type": "address"
        }
      ],
      "payable": false,
      "stateMutability": "view",
      "type": "function"
    },
    {
      "constant": true,
      "inputs": [],
      "name": "getDelegationsContract",
      "outputs": [
        {
          "internalType": "contract IDelegations",
          "name": "",
          "type": "address"
        }
      ],
      "payable": false,
      "stateMutability": "view",
      "type": "function"
    },
    {
      "constant": true,
      "inputs": [],
      "name": "getElectionsContract",
      "outputs": [
        {
          "internalType": "contract IElections",
          "name": "",
          "type": "address"
        }
      ],
      "payable": false,
      "stateMutability": "view",
      "type": "function"
    },
    {
      "constant": true,
      "inputs": [],
      "name": "getGeneralFeesWallet",
      "outputs": [
        {
          "internalType": "contract IFeesWallet",
          "name": "",
          "type": "address"
        }
      ],
      "payable": false,
      "stateMutability": "view",
      "type": "function"
    },
    {
      "constant": true,
      "inputs": [],
      "name": "getGuardiansRegistrationContract",
      "outputs": [
        {
          "internalType": "contract IGuardiansRegistration",
          "name": "",
          "type": "address"
        }
      ],
      "payable": false,
      "stateMutability": "view",
      "type": "function"
    },
    {
      "constant": true,
      "inputs": [],
      "name": "getGuardiansWallet",
      "outputs": [
        {
          "internalType": "contract IGuardiansWallet",
          "name": "",
          "type": "address"
        }
      ],
      "payable": false,
      "stateMutability": "view",
      "type": "function"
    },
    {
      "constant": true,
      "inputs": [],
      "name": "getProtocolContract",
      "outputs": [
        {
          "internalType": "contract IProtocol",
          "name": "",
          "type": "address"
        }
      ],
      "payable": false,
      "stateMutability": "view",
      "type": "function"
    },
    {
      "constant": true,
      "inputs": [],
      "name": "getRewardsContract",
      "outputs": [
        {
          "internalType": "contract IRewards",
          "name": "",
          "type": "address"
        }
      ],
      "payable": false,
      "stateMutability": "view",
      "type": "function"
    },
    {
      "constant": true,
      "inputs": [],
      "name": "getStakingContract",
      "outputs": [
        {
          "internalType": "contract IStakingContract",
          "name": "",
          "type": "address"
        }
      ],
      "payable": false,
      "stateMutability": "view",
      "type": "function"
    },
    {
      "constant": true,
      "inputs": [],
      "name": "getStakingRewardsWallet",
      "outputs": [
        {
          "internalType": "contract IProtocolWallet",
          "name": "",
          "type": "address"
        }
      ],
      "payable": false,
      "stateMutability": "view",
      "type": "function"
    },
    {
      "constant": true,
      "inputs": [],
      "name": "getSubscriptionsContract",
      "outputs": [
        {
          "internalType": "contract ISubscriptions",
          "name": "",
          "type": "address"
        }
      ],
      "payable": false,
      "stateMutability": "view",
      "type": "function"
    },
    {
      "constant": true,
      "inputs": [],
      "name": "isFunctionalOwner",
      "outputs": [
        {
          "internalType": "bool",
          "name": "",
          "type": "bool"
        }
      ],
      "payable": false,
      "stateMutability": "view",
      "type": "function"
    },
    {
      "constant": true,
      "inputs": [],
      "name": "isMigrationOwner",
      "outputs": [
        {
          "internalType": "bool",
          "name": "",
          "type": "bool"
        }
      ],
      "payable": false,
      "stateMutability": "view",
      "type": "function"
    },
    {
      "constant": true,
      "inputs": [],
      "name": "migrationOwner",
      "outputs": [
        {
          "internalType": "address",
          "name": "",
          "type": "address"
        }
      ],
      "payable": false,
      "stateMutability": "view",
      "type": "function"
    },
    {
      "constant": false,
      "inputs": [],
      "name": "renounceFunctionalOwnership",
      "outputs": [],
      "payable": false,
      "stateMutability": "nonpayable",
      "type": "function"
    },
    {
      "constant": false,
      "inputs": [],
      "name": "renounceMigrationOwnership",
      "outputs": [],
      "payable": false,
      "stateMutability": "nonpayable",
      "type": "function"
    },
    {
      "constant": false,
      "inputs": [
        {
          "internalType": "contract IContractRegistry",
          "name": "_contractRegistry",
          "type": "address"
        }
      ],
      "name": "setContractRegistry",
      "outputs": [],
      "payable": false,
      "stateMutability": "nonpayable",
      "type": "function"
    },
    {
      "constant": false,
      "inputs": [
        {
          "internalType": "address",
          "name": "newFunctionalOwner",
          "type": "address"
        }
      ],
      "name": "transferFunctionalOwnership",
      "outputs": [],
      "payable": false,
      "stateMutability": "nonpayable",
      "type": "function"
    },
    {
      "constant": false,
      "inputs": [
        {
          "internalType": "address",
          "name": "newMigrationOwner",
          "type": "address"
        }
      ],
      "name": "transferMigrationOwnership",
      "outputs": [],
      "payable": false,
      "stateMutability": "nonpayable",
      "type": "function"
    },
    {
      "constant": false,
      "inputs": [
        {
          "internalType": "address[]",
          "name": "guardians",
          "type": "address[]"
        },
        {
          "internalType": "uint256[]",
          "name": "stakingRewards",
          "type": "uint256[]"
        },
        {
          "internalType": "uint256[]",
          "name": "fees",
          "type": "uint256[]"
        },
        {
          "internalType": "uint256[]",
          "name": "bootstrapRewards",
          "type": "uint256[]"
        }
      ],
      "name": "assignRewardsToGuardians",
      "outputs": [],
      "payable": false,
      "stateMutability": "nonpayable",
      "type": "function"
    },
    {
      "constant": false,
      "inputs": [
        {
          "internalType": "uint32",
          "name": "_maxDelegatorsStakingRewardsPercentMille",
          "type": "uint32"
        }
      ],
      "name": "setMaxDelegatorsStakingRewards",
      "outputs": [],
      "payable": false,
      "stateMutability": "nonpayable",
      "type": "function"
    },
    {
      "constant": true,
      "inputs": [
        {
          "internalType": "address",
          "name": "addr",
          "type": "address"
        }
      ],
      "name": "getBootstrapBalance",
      "outputs": [
        {
          "internalType": "uint256",
          "name": "",
          "type": "uint256"
        }
      ],
      "payable": false,
      "stateMutability": "view",
      "type": "function"
    },
    {
      "constant": false,
      "inputs": [],
      "name": "withdrawBootstrapFunds",
      "outputs": [],
      "payable": false,
      "stateMutability": "nonpayable",
      "type": "function"
    },
    {
      "constant": true,
      "inputs": [
        {
          "internalType": "address",
          "name": "addr",
          "type": "address"
        }
      ],
      "name": "getStakingRewardBalance",
      "outputs": [
        {
          "internalType": "uint256",
          "name": "",
          "type": "uint256"
        }
      ],
      "payable": false,
      "stateMutability": "view",
      "type": "function"
    },
    {
      "constant": false,
      "inputs": [
        {
          "internalType": "uint256",
          "name": "totalAmount",
          "type": "uint256"
        },
        {
          "internalType": "uint256",
          "name": "fromBlock",
          "type": "uint256"
        },
        {
          "internalType": "uint256",
          "name": "toBlock",
          "type": "uint256"
        },
        {
          "internalType": "uint256",
          "name": "split",
          "type": "uint256"
        },
        {
          "internalType": "uint256",
          "name": "txIndex",
          "type": "uint256"
        },
        {
          "internalType": "address[]",
          "name": "to",
          "type": "address[]"
        },
        {
          "internalType": "uint256[]",
          "name": "amounts",
          "type": "uint256[]"
        }
      ],
      "name": "distributeStakingRewards",
      "outputs": [],
      "payable": false,
      "stateMutability": "nonpayable",
      "type": "function"
    },
    {
      "constant": false,
      "inputs": [],
      "name": "withdrawFees",
      "outputs": [],
      "payable": false,
      "stateMutability": "nonpayable",
      "type": "function"
    },
    {
      "constant": true,
      "inputs": [
        {
          "internalType": "address",
          "name": "addr",
          "type": "address"
        }
      ],
      "name": "getFeeBalance",
      "outputs": [
        {
          "internalType": "uint256",
          "name": "",
          "type": "uint256"
        }
      ],
      "payable": false,
      "stateMutability": "view",
      "type": "function"
    },
    {
      "constant": false,
      "inputs": [],
      "name": "emergencyWithdraw",
      "outputs": [],
      "payable": false,
      "stateMutability": "nonpayable",
      "type": "function"
    }
  ],
  "bytecode": "0x60806040523480156200001157600080fd5b506040516200317238038062003172833981810160405260808110156200003757600080fd5b50805160208201516040830151606090930151919290916000620000636001600160e01b03620002cc16565b600080546001600160a01b0319166001600160a01b0383169081178255604051929350917f7e8c4fc74f50849b4ec635ed03f5d13f87cd46ae422e97479704c6fd1c164e20908290a3506000620000c26001600160e01b03620002cc16565b600380546001600160a01b0319166001600160a01b038316908117909155604051919250906000907f322ef0cb3bcc6b6f659770a0acaf7473e9bc6ebe63e04e4f28924c285c8cc5ea908290a350620186a08163ffffffff1611156200015a5760405162461bcd60e51b81526004018080602001828103825260478152602001806200312b6047913960600191505060405180910390fd5b6001600160a01b038416620001b6576040805162461bcd60e51b815260206004820152601760248201527f66656573546f6b656e206d757374206e6f742062652030000000000000000000604482015290519081900360640190fd5b6001600160a01b03831662000212576040805162461bcd60e51b815260206004820152601a60248201527f7374616b696e67546f6b656e206d757374206e6f742062652030000000000000604482015290519081900360640190fd5b6001600160a01b0382166200026e576040805162461bcd60e51b815260206004820152601c60248201527f626f6f747374726170546f6b656e206d757374206e6f74206265203000000000604482015290519081900360640190fd5b6009805463ffffffff90921663ffffffff19909216919091179055600580546001600160a01b039485166001600160a01b031991821617909155600680549385169382169390931790925560078054919093169116179055620002d0565b3390565b612e4b80620002e06000396000f3fe608060405234801561001057600080fd5b50600436106102065760003560e01c80637b93af4c1161011a578063ab6acfc4116100ad578063c78f68031161007c578063c78f6803146105f5578063db2e21bc1461061b578063ddc0d5d614610623578063ec5e178c1461062b578063fcd13d651461063357610206565b8063ab6acfc4146105d5578063ad751ed3146105dd578063b5f1c29d146105e5578063bed1807d146105ed57610206565b80639b0e4c7f116100e95780639b0e4c7f146105795780639b9a7e68146105815780639f587d1c146105a7578063a09e0d90146105cd57610206565b80637b93af4c1461053b5780637d22c291146105435780638e68dce414610569578063977d4e5a1461057157610206565b80633a88ab8e1161019d5780635282346d1161016c5780635282346d14610423578063531a95481461042b57806365f1f4811461044e5780636cdb674614610456578063737705b71461045e57610206565b80633a88ab8e146102ad5780633b781309146102b55780634344b034146102bd578063476343ee1461041b57610206565b8063209df1e2116101d9578063209df1e21461025d57806323524ea7146102655780632a8c78df1461029d5780632c43bdd5146102a557610206565b8063021abb931461020b578063116421b61461022757806311caadfb1461024b5780631dc669f414610253575b600080fd5b610213610659565b604080519115158252519081900360200190f35b61022f61067d565b604080516001600160a01b039092168252519081900360200190f35b61022f61071b565b61025b61077e565b005b61025b6107ee565b61028b6004803603602081101561027b57600080fd5b50356001600160a01b031661087b565b60408051918252519081900360200190f35b61022f6108ab565b61022f610914565b610213610923565b61025b61093a565b61025b600480360360808110156102d357600080fd5b810190602081018135600160201b8111156102ed57600080fd5b8201836020820111156102ff57600080fd5b803590602001918460208302840111600160201b8311171561032057600080fd5b919390929091602081019035600160201b81111561033d57600080fd5b82018360208201111561034f57600080fd5b803590602001918460208302840111600160201b8311171561037057600080fd5b919390929091602081019035600160201b81111561038d57600080fd5b82018360208201111561039f57600080fd5b803590602001918460208302840111600160201b831117156103c057600080fd5b919390929091602081019035600160201b8111156103dd57600080fd5b8201836020820111156103ef57600080fd5b803590602001918460208302840111600160201b8311171561041057600080fd5b5090925090506109c7565b61025b610e63565b61022f610fd0565b61025b6004803603602081101561044157600080fd5b503563ffffffff16611035565b61025b61110e565b61022f61126a565b61025b600480360360e081101561047457600080fd5b8135916020810135916040820135916060810135916080820135919081019060c0810160a0820135600160201b8111156104ad57600080fd5b8201836020820111156104bf57600080fd5b803590602001918460208302840111600160201b831117156104e057600080fd5b919390929091602081019035600160201b8111156104fd57600080fd5b82018360208201111561050f57600080fd5b803590602001918460208302840111600160201b8311171561053057600080fd5b5090925090506112d8565b61025b611b6e565b61028b6004803603602081101561055957600080fd5b50356001600160a01b0316611bde565b61022f611c0f565b61022f611c70565b61022f611cd7565b61025b6004803603602081101561059757600080fd5b50356001600160a01b0316611d42565b61025b600480360360208110156105bd57600080fd5b50356001600160a01b0316611da7565b61022f611e0c565b61022f611e73565b61022f611ed6565b61022f611f37565b61022f611f99565b61028b6004803603602081101561060b57600080fd5b50356001600160a01b0316611fa8565b61025b611fd9565b61022f6123f3565b61022f612462565b61025b6004803603602081101561064957600080fd5b50356001600160a01b03166124d2565b600080546001600160a01b031661066e612569565b6001600160a01b031614905090565b6002546040805163349f642f60e11b8152602060048201819052601360248301527218d95c9d1a599a59591199595cd5d85b1b195d606a1b604483015291516000936001600160a01b03169263693ec85e9260648082019391829003018186803b1580156106ea57600080fd5b505afa1580156106fe573d6000803e3d6000fd5b505050506040513d602081101561071457600080fd5b5051905090565b6002546040805163349f642f60e11b81526020600482018190526009602483015268656c656374696f6e7360b81b604483015291516000936001600160a01b03169263693ec85e9260648082019391829003018186803b1580156106ea57600080fd5b6004546001600160a01b031633146107c75760405162461bcd60e51b8152600401808060200182810382526029815260200180612dab6029913960400191505060405180910390fd5b6004546107dc906001600160a01b031661256d565b600480546001600160a01b0319169055565b6107f6610659565b6108315760405162461bcd60e51b81526004018080602001828103825260418152602001806129b56041913960600191505060405180910390fd5b600080546040516001600160a01b03909116907f7e8c4fc74f50849b4ec635ed03f5d13f87cd46ae422e97479704c6fd1c164e20908390a3600080546001600160a01b0319169055565b6001600160a01b0381166000908152600860205260408120546108a59065ffffffffffff1661260e565b92915050565b6002546040805163349f642f60e11b8152602060048201819052600f60248301526e19dd585c991a585b9cd5d85b1b195d608a1b604483015291516000936001600160a01b03169263693ec85e9260648082019391829003018186803b1580156106ea57600080fd5b6000546001600160a01b031690565b6003546000906001600160a01b031661066e612569565b610942610923565b61097d5760405162461bcd60e51b8152600401808060200182810382526043815260200180612c3e6043913960600191505060405180910390fd5b6003546040516000916001600160a01b0316907f322ef0cb3bcc6b6f659770a0acaf7473e9bc6ebe63e04e4f28924c285c8cc5ea908390a3600380546001600160a01b0319169055565b60008060006109d461296c565b60005b8b811015610bc657600860008e8e848181106109ef57fe5b602090810292909201356001600160a01b03168352508181019290925260409081016000208151606081018352905465ffffffffffff8082168352600160301b8204811694830194909452600160601b9004909216908201529150610a65878783818110610a5957fe5b90506020020135612625565b82510165ffffffffffff168252610a97878783818110610a8157fe5b905060200201358661263290919063ffffffff16565b9450610aa8898983818110610a5957fe5b6020830180519190910165ffffffffffff169052610ae1898983818110610acb57fe5b905060200201358561263290919063ffffffff16565b9350610af28b8b83818110610a5957fe5b6040830180519190910165ffffffffffff169052610b2b8b8b83818110610b1557fe5b905060200201358461263290919063ffffffff16565b925081600860008f8f85818110610b3e57fe5b602090810292909201356001600160a01b03168352508181019290925260409081016000208351815493850151949092015165ffffffffffff1990931665ffffffffffff928316176bffffffffffff0000000000001916600160301b948316949094029390931765ffffffffffff60601b1916600160601b91909216021790556001016109d7565b50600554604080516323b872dd60e01b81523360048201523060248201526044810186905290516001600160a01b03909216916323b872dd916064808201926020929091908290030181600087803b158015610c2157600080fd5b505af1158015610c35573d6000803e3d6000fd5b505050506040513d6020811015610c4b57600080fd5b5050600754604080516323b872dd60e01b81523360048201523060248201526044810187905290516001600160a01b03909216916323b872dd916064808201926020929091908290030181600087803b158015610ca757600080fd5b505af1158015610cbb573d6000803e3d6000fd5b505050506040513d6020811015610cd157600080fd5b5050600654604080516323b872dd60e01b81523360048201523060248201526044810185905290516001600160a01b03909216916323b872dd916064808201926020929091908290030181600087803b158015610d2d57600080fd5b505af1158015610d41573d6000803e3d6000fd5b505050506040513d6020811015610d5757600080fd5b505060408051608080825281018d90527f5605e6af292f52f5db8c573024e2a4cd3f97e3af551148badc043c2150091f26918e918e918e918e918e918e918e918e918190602082810191830190606084019060a08501908e908e0280828437600083820152601f01601f191690910186810385528b8152602090810191508c908c0280828437600083820152601f01601f19169091018681038452898152602090810191508a908a0280828437600083820152601f01601f19169091018681038352878152602090810191508890880280828437600083820152604051601f909101601f19169092018290039e50909c50505050505050505050505050a1505050505050505050505050565b6000610e6d6123f3565b6001600160a01b03166310b3b293336040518263ffffffff1660e01b815260040180826001600160a01b03166001600160a01b0316815260200191505060206040518083038186803b158015610ec257600080fd5b505afa158015610ed6573d6000803e3d6000fd5b505050506040513d6020811015610eec57600080fd5b50516001600160a01b038116600090815260086020526040902080546bffffffffffff000000000000198116909155909150600160301b900465ffffffffffff167fc0819c13be868895eb93e40eaceb96de976442fa1d404e5c55f14bb65a8c489a82610f588361260e565b604080516001600160a01b03909316835260208301919091528051918290030190a1600554610f91906001600160a01b03168383612693565b610fcc5760405162461bcd60e51b81526004018080602001828103825260378152602001806129f66037913960400191505060405180910390fd5b5050565b6002546040805163349f642f60e11b8152602060048201819052600b60248301526a64656c65676174696f6e7360a81b604483015291516000936001600160a01b03169263693ec85e9260648082019391829003018186803b1580156106ea57600080fd5b61103d610923565b6110785760405162461bcd60e51b8152600401808060200182810382526043815260200180612c3e6043913960600191505060405180910390fd5b620186a08163ffffffff1611156110c05760405162461bcd60e51b8152600401808060200182810382526047815260200180612a8b6047913960600191505060405180910390fd5b6009805463ffffffff831663ffffffff19909116811790915560408051918252517f41b601885e44600c749e03dfecdd2ff57bd9468338f4248162dcaf7172bad67b9181900360200190a150565b60006111186123f3565b6001600160a01b03166310b3b293336040518263ffffffff1660e01b815260040180826001600160a01b03166001600160a01b0316815260200191505060206040518083038186803b15801561116d57600080fd5b505afa158015611181573d6000803e3d6000fd5b505050506040513d602081101561119757600080fd5b50516001600160a01b0381166000908152600860205260409020805465ffffffffffff19811690915590915065ffffffffffff167ff016dfd39ab60cf02047a75146cefa5843da08291fdb6bafd742b4dd7ee83986826111f68361260e565b604080516001600160a01b03909316835260208301919091528051918290030190a160075461122f906001600160a01b03168383612693565b610fcc5760405162461bcd60e51b815260040180806020018281038252603c815260200180612b26603c913960400191505060405180910390fd5b6002546040805163349f642f60e11b815260206004820181905260146024830152731cdd185ada5b99d4995dd85c991cd5d85b1b195d60621b604483015291516000936001600160a01b03169263693ec85e9260648082019391829003018186803b1580156106ea57600080fd5b826113145760405162461bcd60e51b8152600401808060200182810382526028815260200180612d836028913960400191505060405180910390fd5b8281146113525760405162461bcd60e51b815260040180806020018281038252602c815260200180612ad2602c913960400191505060405180910390fd5b600061135d8a612625565b90506113688161260e565b8a146113bb576040805162461bcd60e51b815260206004820152601f60248201527f746f74616c416d6f756e74206d75737420646976696465206279203165313500604482015290519081900360640190fd5b6113c361296c565b6113cb6123f3565b6001600160a01b03166310b3b293336040518263ffffffff1660e01b815260040180826001600160a01b03166001600160a01b0316815260200191505060206040518083038186803b15801561142057600080fd5b505afa158015611434573d6000803e3d6000fd5b505050506040513d602081101561144a57600080fd5b50516001600160a01b0316602082015260005b858110156114d45781602001516001600160a01b031687878381811061147f57fe5b905060200201356001600160a01b03166001600160a01b0316146114cc576114c68585838181106114ac57fe5b90506020020135836040015161263290919063ffffffff16565b60408301525b60010161145d565b506114e381604001518c612731565b61151e5760405162461bcd60e51b815260040180806020018281038252606b815260200180612cd9606b913960800191505060405180910390fd5b61152661298c565b506020808201516001600160a01b03166000908152600a8252604090819020815160808101835281548152600182015493810193909352600281015491830182905260030154606083015215808352158061157f57508a155b6115ba5760405162461bcd60e51b8152600401808060200182810382526026815260200180612a2d6026913960400191505060405180910390fd5b8151806115cd575080602001516001018b145b156116f557871561160f5760405162461bcd60e51b8152600401808060200182810382526047815260200180612bd66047913960600191505060405180910390fd5b438a10611663576040805162461bcd60e51b815260206004820152601b60248201527f746f426c6f636b206d75737420626520696e2074686520706173740000000000604482015290519081900360640190fd5b8a8a10156116a25760405162461bcd60e51b8152600401808060200182810382526022815260200180612c816022913960400191505060405180910390fd5b8a815260208082018b8152606083018b815260016040808601828152878601516001600160a01b03166000908152600a909652942085518155925190830155915160028201559051600390910155611846565b80604001518814611740576040805162461bcd60e51b815260206004820152601060248201526f0e8f092dcc8caf040dad2e6dac2e8c6d60831b604482015290519081900360640190fd5b80602001518a1461178b576040805162461bcd60e51b815260206004820152601060248201526f0e8de84d8dec6d640dad2e6dac2e8c6d60831b604482015290519081900360640190fd5b80518b146117d5576040805162461bcd60e51b81526020600482015260126024820152710cce4deda84d8dec6d640dad2e6dac2e8c6d60731b604482015290519081900360640190fd5b8060600151891461181e576040805162461bcd60e51b815260206004820152600e60248201526d0e6e0d8d2e840dad2e6dac2e8c6d60931b604482015290519081900360640190fd5b6020808301516001600160a01b03166000908152600a90915260409020600189016002909101555b6020808301516001600160a01b031660009081526008909152604090205465ffffffffffff600160601b909104811690841611156118b55760405162461bcd60e51b815260040180806020018281038252602f815260200180612ba7602f913960400191505060405180910390fd5b6020808301516001600160a01b03166000908152600890915260409020546118f690600160601b900465ffffffffffff90811690851663ffffffff61277f16565b6020808401516001600160a01b03166000908152600890915260408120805465ffffffffffff93909316600160601b0265ffffffffffff60601b1990931692909217909155611943611c0f565b60065490915061195d906001600160a01b031682866127c1565b50806001600160a01b03166319d6a88d8e8a8a8a8a6040518663ffffffff1660e01b81526004018086815260200180602001806020018381038352878782818152602001925060200280828437600083820152601f01601f19169091018481038352858152602090810191508690860280828437600081840152601f19601f820116905080830192505050975050505050505050600060405180830381600087803b158015611a0b57600080fd5b505af1158015611a1f573d6000803e3d6000fd5b50505050611a2b610fd0565b6001600160a01b0316630dbf445884602001516040518263ffffffff1660e01b815260040180826001600160a01b03166001600160a01b03168152602001915050600060405180830381600087803b158015611a8657600080fd5b505af1158015611a9a573d6000803e3d6000fd5b5050505082602001516001600160a01b03167fe677d53fefda61f5b7cae19aefb90e192831b8cc8def10c72882e9e50ff294238d8d8d8d8d8d8d8d6040518089815260200188815260200187815260200186815260200180602001806020018381038352878782818152602001925060200280828437600083820152601f01601f19169091018481038352858152602090810191508690860280828437600083820152604051601f909101601f19169092018290039c50909a5050505050505050505050a250505050505050505050505050565b6001546001600160a01b03163314611bb75760405162461bcd60e51b8152600401808060200182810382526028815260200180612afe6028913960400191505060405180910390fd5b600154611bcc906001600160a01b03166127dc565b600180546001600160a01b0319169055565b6001600160a01b0381166000908152600860205260408120546108a590600160601b900465ffffffffffff1661260e565b6002546040805163349f642f60e11b815260206004820181905260076024830152667374616b696e6760c81b604483015291516000936001600160a01b03169263693ec85e9260648082019391829003018186803b1580156106ea57600080fd5b6002546040805163349f642f60e11b8152602060048201819052600d60248301526c737562736372697074696f6e7360981b604483015291516000936001600160a01b03169263693ec85e9260648082019391829003018186803b1580156106ea57600080fd5b6002546040805163349f642f60e11b8152602060048201819052601160248301527019d95b995c985b1199595cd5d85b1b195d607a1b604483015291516000936001600160a01b03169263693ec85e9260648082019391829003018186803b1580156106ea57600080fd5b611d4a610923565b611d855760405162461bcd60e51b8152600401808060200182810382526043815260200180612c3e6043913960600191505060405180910390fd5b600480546001600160a01b0319166001600160a01b0392909216919091179055565b611daf610659565b611dea5760405162461bcd60e51b81526004018080602001828103825260418152602001806129b56041913960600191505060405180910390fd5b600180546001600160a01b0319166001600160a01b0392909216919091179055565b6002546040805163349f642f60e11b8152602060048201819052600d60248301526c31b2b93a34b334b1b0ba34b7b760991b604483015291516000936001600160a01b03169263693ec85e9260648082019391829003018186803b1580156106ea57600080fd5b6002546040805163349f642f60e11b81526020600482018190526009602483015268636f6d6d697474656560b81b604483015291516000936001600160a01b03169263693ec85e9260648082019391829003018186803b1580156106ea57600080fd5b6002546040805163349f642f60e11b815260206004820181905260076024830152667265776172647360c81b604483015291516000936001600160a01b03169263693ec85e9260648082019391829003018186803b1580156106ea57600080fd5b6002546040805163349f642f60e11b815260206004820181905260086024830152671c1c9bdd1bd8dbdb60c21b604483015291516000936001600160a01b03169263693ec85e9260648082019391829003018186803b1580156106ea57600080fd5b6003546001600160a01b031690565b6001600160a01b0381166000908152600860205260408120546108a590600160301b900465ffffffffffff1661260e565b611fe1610659565b61201c5760405162461bcd60e51b81526004018080602001828103825260418152602001806129b56041913960600191505060405180910390fd5b6040805133815290517fa70f26764574533b4d511b70b39191ceaaa63e9eb8f2b43e4646488a014be3499181900360200190a1600554604080516370a0823160e01b815230600482015290516001600160a01b039092169163a9059cbb91339184916370a08231916024808301926020929190829003018186803b1580156120a357600080fd5b505afa1580156120b7573d6000803e3d6000fd5b505050506040513d60208110156120cd57600080fd5b5051604080516001600160e01b031960e086901b1681526001600160a01b03909316600484015260248301919091525160448083019260209291908290030181600087803b15801561211e57600080fd5b505af1158015612132573d6000803e3d6000fd5b505050506040513d602081101561214857600080fd5b50516121855760405162461bcd60e51b815260040180806020018281038252603f815260200180612d44603f913960400191505060405180910390fd5b600654604080516370a0823160e01b815230600482015290516001600160a01b039092169163a9059cbb91339184916370a08231916024808301926020929190829003018186803b1580156121d957600080fd5b505afa1580156121ed573d6000803e3d6000fd5b505050506040513d602081101561220357600080fd5b5051604080516001600160e01b031960e086901b1681526001600160a01b03909316600484015260248301919091525160448083019260209291908290030181600087803b15801561225457600080fd5b505af1158015612268573d6000803e3d6000fd5b505050506040513d602081101561227e57600080fd5b50516122bb5760405162461bcd60e51b8152600401808060200182810382526043815260200180612dd46043913960600191505060405180910390fd5b600754604080516370a0823160e01b815230600482015290516001600160a01b039092169163a9059cbb91339184916370a08231916024808301926020929190829003018186803b15801561230f57600080fd5b505afa158015612323573d6000803e3d6000fd5b505050506040513d602081101561233957600080fd5b5051604080516001600160e01b031960e086901b1681526001600160a01b03909316600484015260248301919091525160448083019260209291908290030181600087803b15801561238a57600080fd5b505af115801561239e573d6000803e3d6000fd5b505050506040513d60208110156123b457600080fd5b50516123f15760405162461bcd60e51b8152600401808060200182810382526045815260200180612b626045913960600191505060405180910390fd5b565b6002546040805163349f642f60e11b8152602060048201819052601560248301527433bab0b93234b0b739a932b3b4b9ba3930ba34b7b760591b604483015291516000936001600160a01b03169263693ec85e9260648082019391829003018186803b1580156106ea57600080fd5b6002546040805163349f642f60e11b81526020600482018190526016602483015275189bdbdd1cdd1c985c14995dd85c991cd5d85b1b195d60521b604483015291516000936001600160a01b03169263693ec85e9260648082019391829003018186803b1580156106ea57600080fd5b6124da610659565b6125155760405162461bcd60e51b81526004018080602001828103825260418152602001806129b56041913960600191505060405180910390fd5b600280546001600160a01b0383166001600160a01b0319909116811790915560408051918252517ffea2d033438b968078a6264409d0104b5f3d2ce7b795afc74918e70f3534f22b9181900360200190a150565b3390565b6001600160a01b0381166125b25760405162461bcd60e51b8152600401808060200182810382526038815260200180612a536038913960400191505060405180910390fd5b6003546040516001600160a01b038084169216907f322ef0cb3bcc6b6f659770a0acaf7473e9bc6ebe63e04e4f28924c285c8cc5ea90600090a3600380546001600160a01b0319166001600160a01b0392909216919091179055565b65ffffffffffff811666038d7ea4c6800002919050565b66038d7ea4c68000900490565b60008282018381101561268c576040805162461bcd60e51b815260206004820152601b60248201527f536166654d6174683a206164646974696f6e206f766572666c6f770000000000604482015290519081900360640190fd5b9392505050565b6000836001600160a01b031663a9059cbb846126ae8561260e565b6040518363ffffffff1660e01b815260040180836001600160a01b03166001600160a01b0316815260200182815260200192505050602060405180830381600087803b1580156126fd57600080fd5b505af1158015612711573d6000803e3d6000fd5b505050506040513d602081101561272757600080fd5b5051949350505050565b6000612763612750612743600161260e565b849063ffffffff61263216565b60095463ffffffff908116919061287c16565b61277684620186a063ffffffff61287c16565b11159392505050565b600061268c83836040518060400160405280601e81526020017f536166654d6174683a207375627472616374696f6e206f766572666c6f7700008152506128d5565b6000836001600160a01b031663095ea7b3846126ae8561260e565b6001600160a01b0381166128215760405162461bcd60e51b8152600401808060200182810382526036815260200180612ca36036913960400191505060405180910390fd5b600080546040516001600160a01b03808516939216917f7e8c4fc74f50849b4ec635ed03f5d13f87cd46ae422e97479704c6fd1c164e2091a3600080546001600160a01b0319166001600160a01b0392909216919091179055565b60008261288b575060006108a5565b8282028284828161289857fe5b041461268c5760405162461bcd60e51b8152600401808060200182810382526021815260200180612c1d6021913960400191505060405180910390fd5b600081848411156129645760405162461bcd60e51b81526004018080602001828103825283818151815260200191508051906020019080838360005b83811015612929578181015183820152602001612911565b50505050905090810190601f1680156129565780820380516001836020036101000a031916815260200191505b509250505060405180910390fd5b505050900390565b604080516060810182526000808252602082018190529181019190915290565b604051806080016040528060008152602001600081526020016000815260200160008152509056fe57697468436c61696d61626c654d6967726174696f6e4f776e6572736869703a2063616c6c6572206973206e6f7420746865206d6967726174696f6e4f776e6572526577617264733a3a636c61696d45787465726e616c546f6b656e52657761726473202d20696e73756666696369656e742066756e64736f6e207468652066697273742062617463682066726f6d426c6f636b206d757374206265203046756e6374696f6e616c4f776e65723a206e65772066756e6374696f6e616c4f776e657220697320746865207a65726f20616464726573735f6d617844656c656761746f72735374616b696e675265776172647350657263656e744d696c6c65206d757374206e6f74206265206c6172676572207468616e20313030303030657870656374656420746f20616e6420616d6f756e747320746f206265206f662073616d65206c656e67746843616c6c6572206973206e6f74207468652070656e64696e67206d6967726174696f6e4f776e6572477561726469616e7357616c6c65743a3a7769746864726177426f6f74737472617046756e6473202d20696e73756666696369656e742066756e6473477561726469616e57616c6c65743a3a656d657267656e63795769746864726177202d207472616e73666572206661696c65642028626f6f74737472617020746f6b656e296e6f7420656e6f756768206d656d6265722062616c616e636520666f72207468697320646973747269627574696f6e7478496e646578206d757374206265203020666f7220746865206669727374207472616e73616374696f6e206f662061206e657720646973747269627574696f6e206261746368536166654d6174683a206d756c7469706c69636174696f6e206f766572666c6f7757697468436c61696d61626c6546756e6374696f6e616c4f776e6572736869703a2063616c6c6572206973206e6f74207468652066756e6374696f6e616c4f776e6572746f426c6f636b206d757374206265206174206c656173742066726f6d426c6f636b4d6967726174696f6e4f776e65723a206e6577206d6967726174696f6e4f776e657220697320746865207a65726f2061646472657373546f74616c2064656c656761746f7273207265776172642028746f5b313a6e5d29206d757374206265206c657373207468656e206d617844656c656761746f72735374616b696e675265776172647350657263656e744d696c6c65206f6620746f74616c20616d6f756e74477561726469616e57616c6c65743a3a656d657267656e63795769746864726177202d207472616e73666572206661696c6564202866656520746f6b656e296c697374206d75737420636f6e7461696e206174206c65617374206f6e6520726563697069656e7443616c6c6572206973206e6f74207468652070656e64696e672066756e6374696f6e616c4f776e6572477561726469616e57616c6c65743a3a656d657267656e63795769746864726177202d207472616e73666572206661696c656420287374616b696e6720746f6b656e29a265627a7a72315820418500b6cd03d9416c4ffbde7d27cbc77932ce2b4ee2bf6b351258c49ec54f3864736f6c634300051000325f6d617844656c656761746f72735374616b696e675265776172647350657263656e744d696c6c65206d757374206e6f74206265206c6172676572207468616e20313030303030",
  "source": "pragma solidity 0.5.16;\n\nimport \"@openzeppelin/contracts/math/SafeMath.sol\";\n\nimport \"./IStakingContract.sol\";\nimport \"./ContractRegistryAccessor.sol\";\nimport \"./WithClaimableFunctionalOwnership.sol\";\nimport \"./Erc20AccessorWithTokenGranularity.sol\";\n\ncontract GuardiansWallet is IGuardiansWallet, ContractRegistryAccessor, WithClaimableFunctionalOwnership, ERC20AccessorWithTokenGranularity {\n    using SafeMath for uint256;\n    using SafeMath for uint48;\n\n    IERC20 feesToken;\n    IERC20 stakingToken;\n    IERC20 bootstrapToken;\n\n    struct Balance {\n        uint48 bootstrapRewards;\n        uint48 fees;\n        uint48 stakingRewards;\n    }\n    mapping(address => Balance) balances;\n\n    uint32 maxDelegatorsStakingRewardsPercentMille;\n\n    constructor(IERC20 _feesToken, IERC20 _stakingToken, IERC20 _bootstrapToken, uint32 _maxDelegatorsStakingRewardsPercentMille) public {\n        require(_maxDelegatorsStakingRewardsPercentMille <= 100000, \"_maxDelegatorsStakingRewardsPercentMille must not be larger than 100000\");\n        require(_feesToken != IERC20(0), \"feesToken must not be 0\");\n        require(_stakingToken != IERC20(0), \"stakingToken must not be 0\");\n        require(_bootstrapToken != IERC20(0), \"bootstrapToken must not be 0\");\n\n        maxDelegatorsStakingRewardsPercentMille = _maxDelegatorsStakingRewardsPercentMille;\n        feesToken = _feesToken;\n        stakingToken = _stakingToken;\n        bootstrapToken = _bootstrapToken;\n    }\n\n    function assignRewardsToGuardians(address[] calldata guardians, uint256[] calldata stakingRewards, uint256[] calldata fees, uint256[] calldata bootstrapRewards) external {\n        uint totalBootstrapRewards;\n        uint totalFees;\n        uint totalStakingRewards;\n        Balance memory balance;\n\n        for (uint i = 0; i < guardians.length; i++) {\n            balance = balances[guardians[i]];\n\n            balance.bootstrapRewards += toUint48Granularity(bootstrapRewards[i]);\n            totalBootstrapRewards = totalBootstrapRewards.add(bootstrapRewards[i]);\n\n            balance.fees += toUint48Granularity(fees[i]);\n            totalFees = totalFees.add(fees[i]);\n\n            balance.stakingRewards += toUint48Granularity(stakingRewards[i]);\n            totalStakingRewards = totalStakingRewards.add(stakingRewards[i]);\n\n            balances[guardians[i]] = balance;\n        }\n\n        feesToken.transferFrom(msg.sender, address(this), totalFees);\n        bootstrapToken.transferFrom(msg.sender, address(this), totalBootstrapRewards);\n        stakingToken.transferFrom(msg.sender,  address(this), totalStakingRewards);\n\n        emit RewardsAssigned(guardians, stakingRewards, fees, bootstrapRewards);\n    }\n\n    function setMaxDelegatorsStakingRewards(uint32 _maxDelegatorsStakingRewardsPercentMille) external onlyFunctionalOwner {\n        require(_maxDelegatorsStakingRewardsPercentMille <= 100000, \"_maxDelegatorsStakingRewardsPercentMille must not be larger than 100000\");\n        maxDelegatorsStakingRewardsPercentMille = _maxDelegatorsStakingRewardsPercentMille;\n        emit MaxDelegatorsStakingRewardsChanged(_maxDelegatorsStakingRewardsPercentMille);\n    }\n\n    function getBootstrapBalance(address addr) external view returns (uint256) {\n        return toUint256Granularity(balances[addr].bootstrapRewards);\n    }\n\n    function withdrawBootstrapFunds() external {\n        address guardianAddress = getGuardiansRegistrationContract().resolveGuardianAddress(msg.sender);\n\n        uint48 amount = balances[guardianAddress].bootstrapRewards;\n\n        balances[guardianAddress].bootstrapRewards = 0;\n\n        emit BootstrapRewardsWithdrawn(guardianAddress, toUint256Granularity(amount));\n        require(transfer(bootstrapToken, guardianAddress, amount), \"GuardiansWallet::withdrawBootstrapFunds - insufficient funds\");\n    }\n\n    function getStakingRewardBalance(address addr) external view returns (uint256) {\n        return toUint256Granularity(balances[addr].stakingRewards);\n    }\n\n    struct DistributorBatchState {\n        uint256 fromBlock;\n        uint256 toBlock;\n        uint256 nextTxIndex;\n        uint split;\n    }\n    mapping (address => DistributorBatchState) distributorBatchState;\n\n    function isDelegatorRewardsBelowThreshold(uint256 delegatorRewards, uint256 totalRewards) private view returns (bool) {\n        return delegatorRewards.mul(100000) <= uint(maxDelegatorsStakingRewardsPercentMille).mul(totalRewards.add(toUint256Granularity(1))); // +1 is added to account for rounding errors\n    }\n\n    struct distributeStakingRewardsVars {\n        bool firstTxBySender;\n        address guardianAddr;\n        uint256 delegatorsAmount;\n    }\n    function distributeStakingRewards(uint256 totalAmount, uint256 fromBlock, uint256 toBlock, uint split, uint txIndex, address[] calldata to, uint256[] calldata amounts) external {\n        require(to.length > 0, \"list must contain at least one recipient\");\n        require(to.length == amounts.length, \"expected to and amounts to be of same length\");\n        uint48 totalAmount_uint48 = toUint48Granularity(totalAmount);\n        require(totalAmount == toUint256Granularity(totalAmount_uint48), \"totalAmount must divide by 1e15\");\n\n        distributeStakingRewardsVars memory vars;\n\n        vars.guardianAddr = getGuardiansRegistrationContract().resolveGuardianAddress(msg.sender);\n\n        for (uint i = 0; i < to.length; i++) {\n            if (to[i] != vars.guardianAddr) {\n                vars.delegatorsAmount = vars.delegatorsAmount.add(amounts[i]);\n            }\n        }\n        require(isDelegatorRewardsBelowThreshold(vars.delegatorsAmount, totalAmount), \"Total delegators reward (to[1:n]) must be less then maxDelegatorsStakingRewardsPercentMille of total amount\");\n\n        DistributorBatchState memory ds = distributorBatchState[vars.guardianAddr];\n        vars.firstTxBySender = ds.nextTxIndex == 0;\n\n        require(!vars.firstTxBySender || fromBlock == 0, \"on the first batch fromBlock must be 0\");\n\n        if (vars.firstTxBySender || fromBlock == ds.toBlock + 1) { // New distribution batch\n            require(txIndex == 0, \"txIndex must be 0 for the first transaction of a new distribution batch\");\n            require(toBlock < block.number, \"toBlock must be in the past\");\n            require(toBlock >= fromBlock, \"toBlock must be at least fromBlock\");\n            ds.fromBlock = fromBlock;\n            ds.toBlock = toBlock;\n            ds.split = split;\n            ds.nextTxIndex = 1;\n            distributorBatchState[vars.guardianAddr] = ds;\n        } else {\n            require(txIndex == ds.nextTxIndex, \"txIndex mismatch\");\n            require(toBlock == ds.toBlock, \"toBlock mismatch\");\n            require(fromBlock == ds.fromBlock, \"fromBlock mismatch\");\n            require(split == ds.split, \"split mismatch\");\n            distributorBatchState[vars.guardianAddr].nextTxIndex = txIndex + 1;\n        }\n\n        require(totalAmount_uint48 <= balances[vars.guardianAddr].stakingRewards, \"not enough member balance for this distribution\");\n\n        balances[vars.guardianAddr].stakingRewards = uint48(balances[vars.guardianAddr].stakingRewards.sub(totalAmount_uint48));\n\n        IStakingContract stakingContract = getStakingContract();\n\n        approve(stakingToken, address(stakingContract), totalAmount_uint48);\n        stakingContract.distributeRewards(totalAmount, to, amounts); // TODO should we rely on staking contract to verify total amount?\n\n        getDelegationsContract().refreshStakeNotification(vars.guardianAddr);\n\n        emit StakingRewardsDistributed(vars.guardianAddr, fromBlock, toBlock, split, txIndex, to, amounts);\n    }\n\n    // fees\n\n    function withdrawFees() external {\n        address guardianAddress = getGuardiansRegistrationContract().resolveGuardianAddress(msg.sender);\n        uint48 amount = balances[guardianAddress].fees;\n        balances[guardianAddress].fees = 0;\n        emit FeesWithdrawn(guardianAddress, toUint256Granularity(amount));\n        require(transfer(feesToken, guardianAddress, amount), \"Rewards::claimExternalTokenRewards - insufficient funds\");\n    }\n\n    function getFeeBalance(address addr) external view returns (uint256) {\n        return toUint256Granularity(balances[addr].fees);\n    }\n\n    function emergencyWithdraw() external onlyMigrationOwner {\n        emit EmergencyWithdrawal(msg.sender);\n        require(feesToken.transfer(msg.sender, feesToken.balanceOf(address(this))), \"GuardianWallet::emergencyWithdraw - transfer failed (fee token)\");\n        require(stakingToken.transfer(msg.sender, stakingToken.balanceOf(address(this))), \"GuardianWallet::emergencyWithdraw - transfer failed (staking token)\");\n        require(bootstrapToken.transfer(msg.sender, bootstrapToken.balanceOf(address(this))), \"GuardianWallet::emergencyWithdraw - transfer failed (bootstrap token)\");\n    }\n\n}\n",
  "sourcePath": "/Users/aviramstern/GolandProjects/orbs-ethereum-contracts-v2/contracts/GuardiansWallet.sol",
  "compiler": {
    "name": "solc",
    "version": "0.5.16+commit.9c3226ce.Emscripten.clang"
  },
  "schemaVersion": "3.0.23",
  "updatedAt": "2020-07-30T05:19:44.118Z",
  "devdoc": {
    "methods": {
      "claimFunctionalOwnership()": {
        "details": "Allows the pendingFunctionalOwner address to finalize the transfer."
      },
      "claimMigrationOwnership()": {
        "details": "Allows the pendingMigrationOwner address to finalize the transfer."
      },
      "functionalOwner()": {
        "details": "Returns the address of the current functionalOwner."
      },
      "isFunctionalOwner()": {
        "details": "Returns true if the caller is the current functionalOwner."
      },
      "isMigrationOwner()": {
        "details": "Returns true if the caller is the current migrationOwner."
      },
      "migrationOwner()": {
        "details": "Returns the address of the current migrationOwner."
      },
      "renounceFunctionalOwnership()": {
        "details": "Leaves the contract without functionalOwner. It will not be possible to call `onlyOwner` functions anymore. Can only be called by the current functionalOwner.     * NOTE: Renouncing functionalOwnership will leave the contract without an functionalOwner, thereby removing any functionality that is only available to the functionalOwner."
      },
      "renounceMigrationOwnership()": {
        "details": "Leaves the contract without migrationOwner. It will not be possible to call `onlyOwner` functions anymore. Can only be called by the current migrationOwner.     * NOTE: Renouncing migrationOwnership will leave the contract without an migrationOwner, thereby removing any functionality that is only available to the migrationOwner."
      },
      "transferFunctionalOwnership(address)": {
        "details": "Allows the current functionalOwner to set the pendingOwner address.",
        "params": {
          "newFunctionalOwner": "The address to transfer functionalOwnership to."
        }
      },
      "transferMigrationOwnership(address)": {
        "details": "Allows the current migrationOwner to set the pendingOwner address.",
        "params": {
          "newMigrationOwner": "The address to transfer migrationOwnership to."
        }
      }
    }
  },
  "userdoc": {
    "methods": {}
  }
}