{
  "contractName": "GuardiansRegistration",
  "abi": [
    {
      "anonymous": false,
      "inputs": [
        {
          "indexed": false,
          "internalType": "address",
          "name": "addr",
          "type": "address"
        }
      ],
      "name": "ContractRegistryAddressUpdated",
      "type": "event"
    },
    {
      "anonymous": false,
      "inputs": [
        {
          "indexed": true,
          "internalType": "address",
          "name": "previousFunctionalOwner",
          "type": "address"
        },
        {
          "indexed": true,
          "internalType": "address",
          "name": "newFunctionalOwner",
          "type": "address"
        }
      ],
      "name": "FunctionalOwnershipTransferred",
      "type": "event"
    },
    {
      "anonymous": false,
      "inputs": [
        {
          "indexed": false,
          "internalType": "address",
          "name": "addr",
          "type": "address"
        },
        {
          "indexed": false,
          "internalType": "bytes4",
          "name": "ip",
          "type": "bytes4"
        },
        {
          "indexed": false,
          "internalType": "address",
          "name": "orbsAddr",
          "type": "address"
        },
        {
          "indexed": false,
          "internalType": "string",
          "name": "name",
          "type": "string"
        },
        {
          "indexed": false,
          "internalType": "string",
          "name": "website",
          "type": "string"
        },
        {
          "indexed": false,
          "internalType": "string",
          "name": "contact",
          "type": "string"
        }
      ],
      "name": "GuardianDataUpdated",
      "type": "event"
    },
    {
      "anonymous": false,
      "inputs": [
        {
          "indexed": false,
          "internalType": "address",
          "name": "addr",
          "type": "address"
        },
        {
          "indexed": false,
          "internalType": "string",
          "name": "key",
          "type": "string"
        },
        {
          "indexed": false,
          "internalType": "string",
          "name": "newValue",
          "type": "string"
        },
        {
          "indexed": false,
          "internalType": "string",
          "name": "oldValue",
          "type": "string"
        }
      ],
      "name": "GuardianMetadataChanged",
      "type": "event"
    },
    {
      "anonymous": false,
      "inputs": [
        {
          "indexed": false,
          "internalType": "address",
          "name": "addr",
          "type": "address"
        }
      ],
      "name": "GuardianRegistered",
      "type": "event"
    },
    {
      "anonymous": false,
      "inputs": [
        {
          "indexed": false,
          "internalType": "address",
          "name": "addr",
          "type": "address"
        }
      ],
      "name": "GuardianUnregistered",
      "type": "event"
    },
    {
      "anonymous": false,
      "inputs": [],
      "name": "Locked",
      "type": "event"
    },
    {
      "anonymous": false,
      "inputs": [
        {
          "indexed": true,
          "internalType": "address",
          "name": "previousMigrationOwner",
          "type": "address"
        },
        {
          "indexed": true,
          "internalType": "address",
          "name": "newMigrationOwner",
          "type": "address"
        }
      ],
      "name": "MigrationOwnershipTransferred",
      "type": "event"
    },
    {
      "anonymous": false,
      "inputs": [],
      "name": "Unlocked",
      "type": "event"
    },
    {
      "constant": false,
      "inputs": [],
      "name": "claimFunctionalOwnership",
      "outputs": [],
      "payable": false,
      "stateMutability": "nonpayable",
      "type": "function"
    },
    {
      "constant": false,
      "inputs": [],
      "name": "claimMigrationOwnership",
      "outputs": [],
      "payable": false,
      "stateMutability": "nonpayable",
      "type": "function"
    },
    {
      "constant": true,
      "inputs": [],
      "name": "functionalOwner",
      "outputs": [
        {
          "internalType": "address",
          "name": "",
          "type": "address"
        }
      ],
      "payable": false,
      "stateMutability": "view",
      "type": "function"
    },
    {
      "constant": true,
      "inputs": [],
      "name": "getBootstrapRewardsWallet",
      "outputs": [
        {
          "internalType": "contract IProtocolWallet",
          "name": "",
          "type": "address"
        }
      ],
      "payable": false,
      "stateMutability": "view",
      "type": "function"
    },
    {
      "constant": true,
      "inputs": [],
      "name": "getCertificationContract",
      "outputs": [
        {
          "internalType": "contract ICertification",
          "name": "",
          "type": "address"
        }
      ],
      "payable": false,
      "stateMutability": "view",
      "type": "function"
    },
    {
      "constant": true,
      "inputs": [],
      "name": "getCommitteeContract",
      "outputs": [
        {
          "internalType": "contract ICommittee",
          "name": "",
          "type": "address"
        }
      ],
      "payable": false,
      "stateMutability": "view",
      "type": "function"
    },
    {
      "constant": true,
      "inputs": [],
      "name": "getDelegationsContract",
      "outputs": [
        {
          "internalType": "contract IDelegations",
          "name": "",
          "type": "address"
        }
      ],
      "payable": false,
      "stateMutability": "view",
      "type": "function"
    },
    {
      "constant": true,
      "inputs": [],
      "name": "getElectionsContract",
      "outputs": [
        {
          "internalType": "contract IElections",
          "name": "",
          "type": "address"
        }
      ],
      "payable": false,
      "stateMutability": "view",
      "type": "function"
    },
    {
      "constant": true,
      "inputs": [],
      "name": "getGuardiansRegistrationContract",
      "outputs": [
        {
          "internalType": "contract IGuardiansRegistration",
          "name": "",
          "type": "address"
        }
      ],
      "payable": false,
      "stateMutability": "view",
      "type": "function"
    },
    {
      "constant": true,
      "inputs": [],
      "name": "getProtocolContract",
      "outputs": [
        {
          "internalType": "contract IProtocol",
          "name": "",
          "type": "address"
        }
      ],
      "payable": false,
      "stateMutability": "view",
      "type": "function"
    },
    {
      "constant": true,
      "inputs": [],
      "name": "getRewardsContract",
      "outputs": [
        {
          "internalType": "contract IRewards",
          "name": "",
          "type": "address"
        }
      ],
      "payable": false,
      "stateMutability": "view",
      "type": "function"
    },
    {
      "constant": true,
      "inputs": [],
      "name": "getStakingContract",
      "outputs": [
        {
          "internalType": "contract IStakingContract",
          "name": "",
          "type": "address"
        }
      ],
      "payable": false,
      "stateMutability": "view",
      "type": "function"
    },
    {
      "constant": true,
      "inputs": [],
      "name": "getStakingRewardsWallet",
      "outputs": [
        {
          "internalType": "contract IProtocolWallet",
          "name": "",
          "type": "address"
        }
      ],
      "payable": false,
      "stateMutability": "view",
      "type": "function"
    },
    {
      "constant": true,
      "inputs": [],
      "name": "getSubscriptionsContract",
      "outputs": [
        {
          "internalType": "contract ISubscriptions",
          "name": "",
          "type": "address"
        }
      ],
      "payable": false,
      "stateMutability": "view",
      "type": "function"
    },
    {
      "constant": true,
      "inputs": [
        {
          "internalType": "address",
          "name": "",
          "type": "address"
        },
        {
          "internalType": "string",
          "name": "",
          "type": "string"
        }
      ],
      "name": "guardianMetadata",
      "outputs": [
        {
          "internalType": "string",
          "name": "",
          "type": "string"
        }
      ],
      "payable": false,
      "stateMutability": "view",
      "type": "function"
    },
    {
      "constant": true,
      "inputs": [
        {
          "internalType": "address",
          "name": "",
          "type": "address"
        }
      ],
      "name": "guardians",
      "outputs": [
        {
          "internalType": "address",
          "name": "orbsAddr",
          "type": "address"
        },
        {
          "internalType": "bytes4",
          "name": "ip",
          "type": "bytes4"
        },
        {
          "internalType": "string",
          "name": "name",
          "type": "string"
        },
        {
          "internalType": "string",
          "name": "website",
          "type": "string"
        },
        {
          "internalType": "string",
          "name": "contact",
          "type": "string"
        },
        {
          "internalType": "uint256",
          "name": "registrationTime",
          "type": "uint256"
        },
        {
          "internalType": "uint256",
          "name": "lastUpdateTime",
          "type": "uint256"
        }
      ],
      "payable": false,
      "stateMutability": "view",
      "type": "function"
    },
    {
      "constant": true,
      "inputs": [
        {
          "internalType": "bytes4",
          "name": "",
          "type": "bytes4"
        }
      ],
      "name": "ipToGuardian",
      "outputs": [
        {
          "internalType": "address",
          "name": "",
          "type": "address"
        }
      ],
      "payable": false,
      "stateMutability": "view",
      "type": "function"
    },
    {
      "constant": true,
      "inputs": [],
      "name": "isFunctionalOwner",
      "outputs": [
        {
          "internalType": "bool",
          "name": "",
          "type": "bool"
        }
      ],
      "payable": false,
      "stateMutability": "view",
      "type": "function"
    },
    {
      "constant": true,
      "inputs": [],
      "name": "isMigrationOwner",
      "outputs": [
        {
          "internalType": "bool",
          "name": "",
          "type": "bool"
        }
      ],
      "payable": false,
      "stateMutability": "view",
      "type": "function"
    },
    {
      "constant": false,
      "inputs": [],
      "name": "lock",
      "outputs": [],
      "payable": false,
      "stateMutability": "nonpayable",
      "type": "function"
    },
    {
      "constant": true,
      "inputs": [],
      "name": "locked",
      "outputs": [
        {
          "internalType": "bool",
          "name": "",
          "type": "bool"
        }
      ],
      "payable": false,
      "stateMutability": "view",
      "type": "function"
    },
    {
      "constant": true,
      "inputs": [],
      "name": "migrationOwner",
      "outputs": [
        {
          "internalType": "address",
          "name": "",
          "type": "address"
        }
      ],
      "payable": false,
      "stateMutability": "view",
      "type": "function"
    },
    {
      "constant": true,
      "inputs": [
        {
          "internalType": "address",
          "name": "",
          "type": "address"
        }
      ],
      "name": "orbsAddressToEthereumAddress",
      "outputs": [
        {
          "internalType": "address",
          "name": "",
          "type": "address"
        }
      ],
      "payable": false,
      "stateMutability": "view",
      "type": "function"
    },
    {
      "constant": false,
      "inputs": [],
      "name": "renounceFunctionalOwnership",
      "outputs": [],
      "payable": false,
      "stateMutability": "nonpayable",
      "type": "function"
    },
    {
      "constant": false,
      "inputs": [],
      "name": "renounceMigrationOwnership",
      "outputs": [],
      "payable": false,
      "stateMutability": "nonpayable",
      "type": "function"
    },
    {
      "constant": false,
      "inputs": [
        {
          "internalType": "contract IContractRegistry",
          "name": "_contractRegistry",
          "type": "address"
        }
      ],
      "name": "setContractRegistry",
      "outputs": [],
      "payable": false,
      "stateMutability": "nonpayable",
      "type": "function"
    },
    {
      "constant": false,
      "inputs": [
        {
          "internalType": "address",
          "name": "newFunctionalOwner",
          "type": "address"
        }
      ],
      "name": "transferFunctionalOwnership",
      "outputs": [],
      "payable": false,
      "stateMutability": "nonpayable",
      "type": "function"
    },
    {
      "constant": false,
      "inputs": [
        {
          "internalType": "address",
          "name": "newMigrationOwner",
          "type": "address"
        }
      ],
      "name": "transferMigrationOwnership",
      "outputs": [],
      "payable": false,
      "stateMutability": "nonpayable",
      "type": "function"
    },
    {
      "constant": false,
      "inputs": [],
      "name": "unlock",
      "outputs": [],
      "payable": false,
      "stateMutability": "nonpayable",
      "type": "function"
    },
    {
      "constant": false,
      "inputs": [
        {
          "internalType": "bytes4",
          "name": "ip",
          "type": "bytes4"
        },
        {
          "internalType": "address",
          "name": "orbsAddr",
          "type": "address"
        },
        {
          "internalType": "string",
          "name": "name",
          "type": "string"
        },
        {
          "internalType": "string",
          "name": "website",
          "type": "string"
        },
        {
          "internalType": "string",
          "name": "contact",
          "type": "string"
        }
      ],
      "name": "registerGuardian",
      "outputs": [],
      "payable": false,
      "stateMutability": "nonpayable",
      "type": "function"
    },
    {
      "constant": false,
      "inputs": [
        {
          "internalType": "bytes4",
          "name": "ip",
          "type": "bytes4"
        },
        {
          "internalType": "address",
          "name": "orbsAddr",
          "type": "address"
        },
        {
          "internalType": "string",
          "name": "name",
          "type": "string"
        },
        {
          "internalType": "string",
          "name": "website",
          "type": "string"
        },
        {
          "internalType": "string",
          "name": "contact",
          "type": "string"
        }
      ],
      "name": "updateGuardian",
      "outputs": [],
      "payable": false,
      "stateMutability": "nonpayable",
      "type": "function"
    },
    {
      "constant": false,
      "inputs": [
        {
          "internalType": "bytes4",
          "name": "ip",
          "type": "bytes4"
        }
      ],
      "name": "updateGuardianIp",
      "outputs": [],
      "payable": false,
      "stateMutability": "nonpayable",
      "type": "function"
    },
    {
      "constant": false,
      "inputs": [
        {
          "internalType": "string",
          "name": "key",
          "type": "string"
        },
        {
          "internalType": "string",
          "name": "value",
          "type": "string"
        }
      ],
      "name": "setMetadata",
      "outputs": [],
      "payable": false,
      "stateMutability": "nonpayable",
      "type": "function"
    },
    {
      "constant": true,
      "inputs": [
        {
          "internalType": "address",
          "name": "addr",
          "type": "address"
        },
        {
          "internalType": "string",
          "name": "key",
          "type": "string"
        }
      ],
      "name": "getMetadata",
      "outputs": [
        {
          "internalType": "string",
          "name": "",
          "type": "string"
        }
      ],
      "payable": false,
      "stateMutability": "view",
      "type": "function"
    },
    {
      "constant": false,
      "inputs": [],
      "name": "unregisterGuardian",
      "outputs": [],
      "payable": false,
      "stateMutability": "nonpayable",
      "type": "function"
    },
    {
      "constant": true,
      "inputs": [
        {
          "internalType": "address",
          "name": "addr",
          "type": "address"
        }
      ],
      "name": "getGuardianData",
      "outputs": [
        {
          "internalType": "bytes4",
          "name": "ip",
          "type": "bytes4"
        },
        {
          "internalType": "address",
          "name": "orbsAddr",
          "type": "address"
        },
        {
          "internalType": "string",
          "name": "name",
          "type": "string"
        },
        {
          "internalType": "string",
          "name": "website",
          "type": "string"
        },
        {
          "internalType": "string",
          "name": "contact",
          "type": "string"
        },
        {
          "internalType": "uint256",
          "name": "registration_time",
          "type": "uint256"
        },
        {
          "internalType": "uint256",
          "name": "last_update_time",
          "type": "uint256"
        }
      ],
      "payable": false,
      "stateMutability": "view",
      "type": "function"
    },
    {
      "constant": true,
      "inputs": [
        {
          "internalType": "address[]",
          "name": "addrs",
          "type": "address[]"
        }
      ],
      "name": "getGuardiansOrbsAddress",
      "outputs": [
        {
          "internalType": "address[]",
          "name": "orbsAddrs",
          "type": "address[]"
        }
      ],
      "payable": false,
      "stateMutability": "view",
      "type": "function"
    },
    {
      "constant": true,
      "inputs": [
        {
          "internalType": "address",
          "name": "addr",
          "type": "address"
        }
      ],
      "name": "getGuardianIp",
      "outputs": [
        {
          "internalType": "bytes4",
          "name": "ip",
          "type": "bytes4"
        }
      ],
      "payable": false,
      "stateMutability": "view",
      "type": "function"
    },
    {
      "constant": true,
      "inputs": [
        {
          "internalType": "address[]",
          "name": "addrs",
          "type": "address[]"
        }
      ],
      "name": "getGuardianIps",
      "outputs": [
        {
          "internalType": "bytes4[]",
          "name": "ips",
          "type": "bytes4[]"
        }
      ],
      "payable": false,
      "stateMutability": "view",
      "type": "function"
    },
    {
      "constant": true,
      "inputs": [
        {
          "internalType": "address",
          "name": "addr",
          "type": "address"
        }
      ],
      "name": "isRegistered",
      "outputs": [
        {
          "internalType": "bool",
          "name": "",
          "type": "bool"
        }
      ],
      "payable": false,
      "stateMutability": "view",
      "type": "function"
    },
    {
      "constant": true,
      "inputs": [
        {
          "internalType": "address",
          "name": "ethereumOrOrbsAddress",
          "type": "address"
        }
      ],
      "name": "resolveGuardianAddress",
      "outputs": [
        {
          "internalType": "address",
          "name": "ethereumAddress",
          "type": "address"
        }
      ],
      "payable": false,
      "stateMutability": "view",
      "type": "function"
    },
    {
      "constant": true,
      "inputs": [
        {
          "internalType": "address[]",
          "name": "ethereumAddrs",
          "type": "address[]"
        }
      ],
      "name": "getOrbsAddresses",
      "outputs": [
        {
          "internalType": "address[]",
          "name": "orbsAddrs",
          "type": "address[]"
        }
      ],
      "payable": false,
      "stateMutability": "view",
      "type": "function"
    },
    {
      "constant": true,
      "inputs": [
        {
          "internalType": "address[]",
          "name": "orbsAddrs",
          "type": "address[]"
        }
      ],
      "name": "getEthereumAddresses",
      "outputs": [
        {
          "internalType": "address[]",
          "name": "ethereumAddrs",
          "type": "address[]"
        }
      ],
      "payable": false,
      "stateMutability": "view",
      "type": "function"
    }
  ],
  "bytecode": "0x60806040526000620000196001600160e01b03620000cc16565b600080546001600160a01b0319166001600160a01b0383169081178255604051929350917f7e8c4fc74f50849b4ec635ed03f5d13f87cd46ae422e97479704c6fd1c164e20908290a3506000620000786001600160e01b03620000cc16565b600380546001600160a01b0319166001600160a01b038316908117909155604051919250906000907f322ef0cb3bcc6b6f659770a0acaf7473e9bc6ebe63e04e4f28924c285c8cc5ea908290a350620000d0565b3390565b6137b080620000e06000396000f3fe608060405234801561001057600080fd5b50600436106102695760003560e01c80639b9a7e6811610151578063bed1807d116100c3578063ddc0d5d611610087578063ddc0d5d614610cbe578063ec5e178c14610cc6578063f064e8fa14610cce578063f83d08ba14610d4c578063fccea80d14610d54578063fcd13d6514610dc257610269565b8063bed1807d14610aed578063c3c5a54714610af5578063c697a99614610b1b578063cf30901214610b89578063d280749a14610b9157610269565b8063a69df4b511610115578063a69df4b514610a57578063ab6acfc414610a5f578063ad751ed314610a67578063b5f1c29d14610a6f578063b6fe2b0414610a77578063bdb813ab14610a7f57610269565b80639b9a7e681461091e5780639f587d1c146109445780639f713d121461096a578063a09e0d9014610a28578063a31731a714610a3057610269565b80633b781309116101ea5780635bcdb4e0116101ae5780635bcdb4e0146107925780636cdb6746146108bb5780637b93af4c146108c35780638e68dce4146108cb578063906ac0f0146108d3578063977d4e5a1461091657610269565b80633b781309146104ef5780634b139a47146104f757806351335b501461059f5780635282346d1461065d578063557606521461066557610269565b80631dc669f4116102315780631dc669f4146104a6578063209df1e2146104b05780632c43bdd5146104b85780633120f1da146104c05780633a88ab8e146104e757610269565b8063021abb931461026e5780630633b14a1461028a57806310b3b2931461043657806311caadfb146104785780631cb9934814610480575b600080fd5b610276610de8565b604080519115158252519081900360200190f35b6102b0600480360360208110156102a057600080fd5b50356001600160a01b0316610e0d565b60405180886001600160a01b03166001600160a01b03168152602001876001600160e01b0319166001600160e01b0319168152602001806020018060200180602001868152602001858152602001848103845289818151815260200191508051906020019080838360005b8381101561033357818101518382015260200161031b565b50505050905090810190601f1680156103605780820380516001836020036101000a031916815260200191505b5084810383528851815288516020918201918a019080838360005b8381101561039357818101518382015260200161037b565b50505050905090810190601f1680156103c05780820380516001836020036101000a031916815260200191505b50848103825287518152875160209182019189019080838360005b838110156103f35781810151838201526020016103db565b50505050905090810190601f1680156104205780820380516001836020036101000a031916815260200191505b509a505050505050505050505060405180910390f35b61045c6004803603602081101561044c57600080fd5b50356001600160a01b0316610ff9565b604080516001600160a01b039092168252519081900360200190f35b61045c611086565b61045c6004803603602081101561049657600080fd5b50356001600160a01b031661111a565b6104ae611135565b005b6104ae6111a5565b61045c611232565b6104ae600480360360208110156104d657600080fd5b50356001600160e01b031916611241565b6102766114da565b6104ae6114f1565b61051d6004803603602081101561050d57600080fd5b50356001600160a01b031661157e565b60405180886001600160e01b0319166001600160e01b0319168152602001876001600160a01b03166001600160a01b03168152602001806020018060200180602001868152602001858152602001848103845289818151815260200191508051906020019080838360008381101561033357818101518382015260200161031b565b6104ae600480360360408110156105b557600080fd5b810190602081018135600160201b8111156105cf57600080fd5b8201836020820111156105e157600080fd5b803590602001918460018302840111600160201b8311171561060257600080fd5b919390929091602081019035600160201b81111561061f57600080fd5b82018360208201111561063157600080fd5b803590602001918460018302840111600160201b8311171561065257600080fd5b509092509050611827565b61045c611afa565b6104ae600480360360a081101561067b57600080fd5b6001600160e01b0319823516916001600160a01b0360208201351691810190606081016040820135600160201b8111156106b457600080fd5b8201836020820111156106c657600080fd5b803590602001918460018302840111600160201b831117156106e757600080fd5b919390929091602081019035600160201b81111561070457600080fd5b82018360208201111561071657600080fd5b803590602001918460018302840111600160201b8311171561073757600080fd5b919390929091602081019035600160201b81111561075457600080fd5b82018360208201111561076657600080fd5b803590602001918460018302840111600160201b8311171561078757600080fd5b509092509050611b5f565b610846600480360360408110156107a857600080fd5b6001600160a01b038235169190810190604081016020820135600160201b8111156107d257600080fd5b8201836020820111156107e457600080fd5b803590602001918460018302840111600160201b8311171561080557600080fd5b91908080601f016020809104026020016040519081016040528093929190818152602001838380828437600092019190915250929550611cb3945050505050565b6040805160208082528351818301528351919283929083019185019080838360005b83811015610880578181015183820152602001610868565b50505050905090810190601f1680156108ad5780820380516001836020036101000a031916815260200191505b509250505060405180910390f35b61045c611d65565b6104ae611dd3565b61045c611e43565b6108f9600480360360208110156108e957600080fd5b50356001600160a01b0316611ea4565b604080516001600160e01b03199092168252519081900360200190f35b61045c611f10565b6104ae6004803603602081101561093457600080fd5b50356001600160a01b0316611f77565b6104ae6004803603602081101561095a57600080fd5b50356001600160a01b0316611fdc565b6109d86004803603602081101561098057600080fd5b810190602081018135600160201b81111561099a57600080fd5b8201836020820111156109ac57600080fd5b803590602001918460208302840111600160201b831117156109cd57600080fd5b509092509050612041565b60408051602080825283518183015283519192839290830191858101910280838360005b83811015610a145781810151838201526020016109fc565b505050509050019250505060405180910390f35b61045c612148565b61045c60048036036020811015610a4657600080fd5b50356001600160e01b0319166121af565b6104ae6121ca565b61045c612245565b61045c6122a8565b61045c612309565b6104ae61236b565b6109d860048036036020811015610a9557600080fd5b810190602081018135600160201b811115610aaf57600080fd5b820183602082011115610ac157600080fd5b803590602001918460208302840111600160201b83111715610ae257600080fd5b509092509050612561565b61045c612688565b61027660048036036020811015610b0b57600080fd5b50356001600160a01b0316612697565b6109d860048036036020811015610b3157600080fd5b810190602081018135600160201b811115610b4b57600080fd5b820183602082011115610b5d57600080fd5b803590602001918460208302840111600160201b83111715610b7e57600080fd5b5090925090506126b7565b61027661276f565b6104ae600480360360a0811015610ba757600080fd5b6001600160e01b0319823516916001600160a01b0360208201351691810190606081016040820135600160201b811115610be057600080fd5b820183602082011115610bf257600080fd5b803590602001918460018302840111600160201b83111715610c1357600080fd5b919390929091602081019035600160201b811115610c3057600080fd5b820183602082011115610c4257600080fd5b803590602001918460018302840111600160201b83111715610c6357600080fd5b919390929091602081019035600160201b811115610c8057600080fd5b820183602082011115610c9257600080fd5b803590602001918460018302840111600160201b83111715610cb357600080fd5b50909250905061277f565b61045c612983565b61045c6129f2565b61084660048036036040811015610ce457600080fd5b6001600160a01b038235169190810190604081016020820135600160201b811115610d0e57600080fd5b820183602082011115610d2057600080fd5b803590602001918460018302840111600160201b83111715610d4157600080fd5b509092509050612a62565b6104ae612b75565b6109d860048036036020811015610d6a57600080fd5b810190602081018135600160201b811115610d8457600080fd5b820183602082011115610d9657600080fd5b803590602001918460208302840111600160201b83111715610db757600080fd5b509092509050612bf6565b6104ae60048036036020811015610dd857600080fd5b50356001600160a01b0316612c97565b600080546001600160a01b0316610dfd612d2e565b6001600160a01b03161490505b90565b6005602090815260009182526040918290208054600180830180548651600261010094831615949094026000190190911692909204601f81018690048602830186019096528582526001600160a01b03831695600160a01b90930460e01b9491929091830182828015610ec15780601f10610e9657610100808354040283529160200191610ec1565b820191906000526020600020905b815481529060010190602001808311610ea457829003601f168201915b50505060028085018054604080516020601f6000196101006001871615020190941695909504928301859004850281018501909152818152959695945090925090830182828015610f535780601f10610f2857610100808354040283529160200191610f53565b820191906000526020600020905b815481529060010190602001808311610f3657829003601f168201915b5050505060038301805460408051602060026001851615610100026000190190941693909304601f8101849004840282018401909252818152949594935090830182828015610fe35780601f10610fb857610100808354040283529160200191610fe3565b820191906000526020600020905b815481529060010190602001808311610fc657829003601f168201915b5050505050908060040154908060050154905087565b600061100482612697565b1561101057508061102d565b506001600160a01b03808216600090815260066020526040902054165b6001600160a01b038116611081576040805162461bcd60e51b815260206004820152601660248201527543616e6e6f74207265736f6c7665206164647265737360501b604482015290519081900360640190fd5b919050565b6002546040805163349f642f60e11b81526020600482018190526009602483015268656c656374696f6e7360b81b604483015291516000936001600160a01b03169263693ec85e9260648082019391829003018186803b1580156110e957600080fd5b505afa1580156110fd573d6000803e3d6000fd5b505050506040513d602081101561111357600080fd5b5051905090565b6006602052600090815260409020546001600160a01b031681565b6004546001600160a01b0316331461117e5760405162461bcd60e51b81526004018080602001828103825260298152602001806137536029913960400191505060405180910390fd5b600454611193906001600160a01b0316612d32565b600480546001600160a01b0319169055565b6111ad610de8565b6111e85760405162461bcd60e51b81526004018080602001828103825260418152602001806135b26041913960600191505060405180910390fd5b600080546040516001600160a01b03909116907f7e8c4fc74f50849b4ec635ed03f5d13f87cd46ae422e97479704c6fd1c164e20908390a3600080546001600160a01b0319169055565b6000546001600160a01b031690565b600454600160a01b900460ff161561128a5760405162461bcd60e51b815260040180806020018281038252602581526020018061353d6025913960400191505060405180910390fd5b600061129533610ff9565b905061129f61336f565b6001600160a01b03828116600090815260056020908152604091829020825160e0808201855282549586168252600160a01b90950490941b6001600160e01b03191684830152600180820180548551600261010094831615949094026000190190911692909204601f810185900485028301850186528083529294860193919290918301828280156113725780601f1061134757610100808354040283529160200191611372565b820191906000526020600020905b81548152906001019060200180831161135557829003601f168201915b5050509183525050600282810180546040805160206001841615610100026000190190931694909404601f810183900483028501830190915280845293810193908301828280156114045780601f106113d957610100808354040283529160200191611404565b820191906000526020600020905b8154815290600101906020018083116113e757829003601f168201915b505050918352505060038201805460408051602060026001851615610100026000190190941693909304601f81018490048402820184019092528181529382019392918301828280156114985780601f1061146d57610100808354040283529160200191611498565b820191906000526020600020905b81548152906001019060200180831161147b57829003601f168201915b505050505081526020016004820154815260200160058201548152505090506114d582848360000151846040015185606001518660800151612dd3565b505050565b6003546000906001600160a01b0316610dfd612d2e565b6114f96114da565b6115345760405162461bcd60e51b81526004018080602001828103825260438152602001806136aa6043913960600191505060405180910390fd5b6003546040516000916001600160a01b0316907f322ef0cb3bcc6b6f659770a0acaf7473e9bc6ebe63e04e4f28924c285c8cc5ea908390a3600380546001600160a01b0319169055565b600080606080606060008061159288612697565b6115cd5760405162461bcd60e51b815260040180806020018281038252602b81526020018061367f602b913960400191505060405180910390fd5b6115d561336f565b6001600160a01b03898116600090815260056020908152604091829020825160e0808201855282549586168252600160a01b90950490941b6001600160e01b03191684830152600180820180548551600261010094831615949094026000190190911692909204601f810185900485028301850186528083529294860193919290918301828280156116a85780601f1061167d576101008083540402835291602001916116a8565b820191906000526020600020905b81548152906001019060200180831161168b57829003601f168201915b5050509183525050600282810180546040805160206001841615610100026000190190931694909404601f8101839004830285018301909152808452938101939083018282801561173a5780601f1061170f5761010080835404028352916020019161173a565b820191906000526020600020905b81548152906001019060200180831161171d57829003601f168201915b505050918352505060038201805460408051602060026001851615610100026000190190941693909304601f81018490048402820184019092528181529382019392918301828280156117ce5780601f106117a3576101008083540402835291602001916117ce565b820191906000526020600020905b8154815290600101906020018083116117b157829003601f168201915b50505091835250506004820154602080830191909152600590920154604091820152908201518251918301516060840151608085015160a086015160c090960151939f949e50919c509a50985091965090945092505050565b61183033612697565b61187e576040805162461bcd60e51b815260206004820152601a60248201527911dd585c991a585b881a5cc81b9bdd081c9959da5cdd195c995960321b604482015290519081900360640190fd5b600454600160a01b900460ff16156118c75760405162461bcd60e51b815260040180806020018281038252602581526020018061353d6025913960400191505060405180910390fd5b336000908152600860205260409081902090516060919086908690808383808284379190910194855250506040805160209481900385018120805460026001821615610100026000190190911604601f810187900487028301870190935282825290949093509091508301828280156119815780601f1061195657610100808354040283529160200191611981565b820191906000526020600020905b81548152906001019060200180831161196457829003601f168201915b50505050509050828260086000336001600160a01b03166001600160a01b031681526020019081526020016000208787604051808383808284378083019250505092505050908152602001604051809103902091906119e19291906133bf565b507f1cf3d48eb5d849f59c9ee28edc1564cde8ca0e708ccaecf5416a48d3810c565733868686868660405180876001600160a01b03166001600160a01b031681526020018060200180602001806020018481038452898982818152602001925080828437600083820152601f01601f1916909101858103845287815260200190508787808284376000838201819052601f909101601f191690920186810384528751815287516020918201939189019250908190849084905b83811015611ab2578181015183820152602001611a9a565b50505050905090810190601f168015611adf5780820380516001836020036101000a031916815260200191505b50995050505050505050505060405180910390a15050505050565b6002546040805163349f642f60e11b8152602060048201819052600b60248301526a64656c65676174696f6e7360a81b604483015291516000936001600160a01b03169263693ec85e9260648082019391829003018186803b1580156110e957600080fd5b611b6833612697565b611bb6576040805162461bcd60e51b815260206004820152601a60248201527911dd585c991a585b881a5cc81b9bdd081c9959da5cdd195c995960321b604482015290519081900360640190fd5b600454600160a01b900460ff1615611bff5760405162461bcd60e51b815260040180806020018281038252602581526020018061353d6025913960400191505060405180910390fd5b611ca933898989898080601f01602080910402602001604051908101604052809392919081815260200183838082843760009201919091525050604080516020601f8d018190048102820181019092528b815292508b91508a908190840183828082843760009201919091525050604080516020601f8c018190048102820181019092528a815292508a9150899081908401838280828437600092019190915250612dd392505050565b5050505050505050565b60086020908152600092835260409283902082518084018301805192815290830193830193909320925281548351601f6002600019610100600186161502019093169290920491820183900483028101830190945280845290830182828015611d5d5780601f10611d3257610100808354040283529160200191611d5d565b820191906000526020600020905b815481529060010190602001808311611d4057829003601f168201915b505050505081565b6002546040805163349f642f60e11b815260206004820181905260146024830152731cdd185ada5b99d4995dd85c991cd5d85b1b195d60621b604483015291516000936001600160a01b03169263693ec85e9260648082019391829003018186803b1580156110e957600080fd5b6001546001600160a01b03163314611e1c5760405162461bcd60e51b81526004018080602001828103825260288152602001806136576028913960400191505060405180910390fd5b600154611e31906001600160a01b03166132cf565b600180546001600160a01b0319169055565b6002546040805163349f642f60e11b815260206004820181905260076024830152667374616b696e6760c81b604483015291516000936001600160a01b03169263693ec85e9260648082019391829003018186803b1580156110e957600080fd5b6000611eaf82612697565b611eea5760405162461bcd60e51b81526004018080602001828103825260298152602001806135626029913960400191505060405180910390fd5b506001600160a01b0316600090815260056020526040902054600160a01b900460e01b90565b6002546040805163349f642f60e11b8152602060048201819052600d60248301526c737562736372697074696f6e7360981b604483015291516000936001600160a01b03169263693ec85e9260648082019391829003018186803b1580156110e957600080fd5b611f7f6114da565b611fba5760405162461bcd60e51b81526004018080602001828103825260438152602001806136aa6043913960600191505060405180910390fd5b600480546001600160a01b0319166001600160a01b0392909216919091179055565b611fe4610de8565b61201f5760405162461bcd60e51b81526004018080602001828103825260418152602001806135b26041913960600191505060405180910390fd5b600180546001600160a01b0319166001600160a01b0392909216919091179055565b60408051828152602080840282010190915260609082801561206d578160200160208202803883390190505b50905060005b828110156121415761209f84848381811061208a57fe5b905060200201356001600160a01b0316612697565b6120da5760405162461bcd60e51b815260040180806020018281038252602c81526020018061362b602c913960400191505060405180910390fd5b600560008585848181106120ea57fe5b6001600160a01b03602091820293909301358316845283019390935260409091016000205484519116915083908390811061212157fe5b6001600160a01b0390921660209283029190910190910152600101612073565b5092915050565b6002546040805163349f642f60e11b8152602060048201819052600d60248301526c31b2b93a34b334b1b0ba34b7b760991b604483015291516000936001600160a01b03169263693ec85e9260648082019391829003018186803b1580156110e957600080fd5b6007602052600090815260409020546001600160a01b031681565b6121d2610de8565b61220d5760405162461bcd60e51b81526004018080602001828103825260418152602001806135b26041913960600191505060405180910390fd5b6004805460ff60a01b191690556040517f19aad37188a1d3921e29eb3c66acf43d81975e107cb650d58cca878627955fd690600090a1565b6002546040805163349f642f60e11b81526020600482018190526009602483015268636f6d6d697474656560b81b604483015291516000936001600160a01b03169263693ec85e9260648082019391829003018186803b1580156110e957600080fd5b6002546040805163349f642f60e11b815260206004820181905260076024830152667265776172647360c81b604483015291516000936001600160a01b03169263693ec85e9260648082019391829003018186803b1580156110e957600080fd5b6002546040805163349f642f60e11b815260206004820181905260086024830152671c1c9bdd1bd8dbdb60c21b604483015291516000936001600160a01b03169263693ec85e9260648082019391829003018186803b1580156110e957600080fd5b61237433612697565b6123c2576040805162461bcd60e51b815260206004820152601a60248201527911dd585c991a585b881a5cc81b9bdd081c9959da5cdd195c995960321b604482015290519081900360640190fd5b600454600160a01b900460ff161561240b5760405162461bcd60e51b815260040180806020018281038252602581526020018061353d6025913960400191505060405180910390fd5b33600081815260056020818152604080842080546001600160a01b031685526006835281852080546001600160a01b03199081169091558154600160a01b900460e01b6001600160e01b03191686526007845291852080549092169091559383525281546001600160c01b0319168255612488600183018261343d565b61249660028301600061343d565b6124a460038301600061343d565b506000600482018190556005909101556124bc611086565b6001600160a01b031663d55c9bcf336040518263ffffffff1660e01b815260040180826001600160a01b03166001600160a01b03168152602001915050600060405180830381600087803b15801561251357600080fd5b505af1158015612527573d6000803e3d6000fd5b50506040805133815290517f2fe9bc8838e6b50cb0de2202d0b5155e4c8f529edf544078d9d019e9789ffb239350908190036020019150a1565b60408051828152602080840282010190915260609082801561258d578160200160208202803883390190505b50905060005b8281101561214157600660008585848181106125ab57fe5b905060200201356001600160a01b03166001600160a01b03166001600160a01b0316815260200190815260200160002060009054906101000a90046001600160a01b03168282815181106125fb57fe5b60200260200101906001600160a01b031690816001600160a01b03168152505060006001600160a01b031682828151811061263257fe5b60200260200101516001600160a01b031614156126805760405162461bcd60e51b81526004018080602001828103825260308152602001806137236030913960400191505060405180910390fd5b600101612593565b6003546001600160a01b031690565b6001600160a01b0316600090815260056020526040902060040154151590565b6040805182815260208084028201019091526060908280156126e3578160200160208202803883390190505b50905060005b82811015612141576005600085858481811061270157fe5b905060200201356001600160a01b03166001600160a01b03166001600160a01b0316815260200190815260200160002060000160149054906101000a900460e01b82828151811061274e57fe5b6001600160e01b0319909216602092830291909101909101526001016126e9565b600454600160a01b900460ff1681565b600454600160a01b900460ff16156127c85760405162461bcd60e51b815260040180806020018281038252602581526020018061353d6025913960400191505060405180910390fd5b6127d133612697565b1561280d5760405162461bcd60e51b815260040180806020018281038252603081526020018061350d6030913960400191505060405180910390fd5b3360008181526005602090815260409182902042600490910155815192835290517fc2d72ac93e7fb29c534663a530cd3db012d5c336965e423e0ed5ee7a64ed87459281900390910190a161290233898989898080601f01602080910402602001604051908101604052809392919081815260200183838082843760009201919091525050604080516020601f8d018190048102820181019092528b815292508b91508a908190840183828082843760009201919091525050604080516020601f8c018190048102820181019092528a815292508a9150899081908401838280828437600092019190915250612dd392505050565b61290a611086565b6001600160a01b0316635ecf16a6336040518263ffffffff1660e01b815260040180826001600160a01b03166001600160a01b03168152602001915050600060405180830381600087803b15801561296157600080fd5b505af1158015612975573d6000803e3d6000fd5b505050505050505050505050565b6002546040805163349f642f60e11b8152602060048201819052601560248301527433bab0b93234b0b739a932b3b4b9ba3930ba34b7b760591b604483015291516000936001600160a01b03169263693ec85e9260648082019391829003018186803b1580156110e957600080fd5b6002546040805163349f642f60e11b81526020600482018190526016602483015275189bdbdd1cdd1c985c14995dd85c991cd5d85b1b195d60521b604483015291516000936001600160a01b03169263693ec85e9260648082019391829003018186803b1580156110e957600080fd5b6060612a6d84612697565b612aa85760405162461bcd60e51b815260040180806020018281038252602781526020018061358b6027913960400191505060405180910390fd5b6001600160a01b03841660009081526008602052604090819020905184908490808383808284379190910194855250506040805160209481900385018120805460026001821615610100026000190190911604601f81018790048702830187019093528282529094909350909150830182828015612b675780601f10612b3c57610100808354040283529160200191612b67565b820191906000526020600020905b815481529060010190602001808311612b4a57829003601f168201915b505050505090509392505050565b612b7d610de8565b612bb85760405162461bcd60e51b81526004018080602001828103825260418152602001806135b26041913960600191505060405180910390fd5b6004805460ff60a01b1916600160a01b1790556040517f0f2e5b6c72c6a4491efd919a9f9a409f324ef0708c11ee57d410c2cb06c0992b90600090a1565b604080518281526020808402820101909152606090828015612c22578160200160208202803883390190505b50905060005b828110156121415760056000858584818110612c4057fe5b6001600160a01b036020918202939093013583168452830193909352604090910160002054845191169150839083908110612c7757fe5b6001600160a01b0390921660209283029190910190910152600101612c28565b612c9f610de8565b612cda5760405162461bcd60e51b81526004018080602001828103825260418152602001806135b26041913960600191505060405180910390fd5b600280546001600160a01b0383166001600160a01b0319909116811790915560408051918252517ffea2d033438b968078a6264409d0104b5f3d2ce7b795afc74918e70f3534f22b9181900360200190a150565b3390565b6001600160a01b038116612d775760405162461bcd60e51b81526004018080602001828103825260388152602001806135f36038913960400191505060405180910390fd5b6003546040516001600160a01b038084169216907f322ef0cb3bcc6b6f659770a0acaf7473e9bc6ebe63e04e4f28924c285c8cc5ea90600090a3600380546001600160a01b0319166001600160a01b0392909216919091179055565b6001600160a01b038416612e2e576040805162461bcd60e51b815260206004820152601d60248201527f6f7262732061646472657373206d757374206265206e6f6e207a65726f000000604482015290519081900360640190fd5b8251612e76576040805162461bcd60e51b81526020600482015260126024820152713730b6b29036bab9ba1031329033b4bb32b760711b604482015290519081900360640190fd5b8051612ec1576040805162461bcd60e51b815260206004820152601560248201527431b7b73a30b1ba1036bab9ba1031329033b4bb32b760591b604482015290519081900360640190fd5b6001600160a01b038087166000908152600560209081526040808320546001600160e01b0319600160a01b90910460e01b81168452600790925280832080546001600160a01b031916905590881682529020541615612f5e576040805162461bcd60e51b8152602060048201526014602482015273697020697320616c726561647920696e2075736560601b604482015290519081900360640190fd5b6001600160e01b03198516600090815260076020908152604080832080546001600160a01b03808c166001600160a01b03199283168117909355918552600584528285205482168552600690935281842080549093169092558682168352909120541615613013576040805162461bcd60e51b815260206004820152601e60248201527f6f726273206164647265737320697320616c726561647920696e207573650000604482015290519081900360640190fd5b6001600160a01b03848116600081815260066020908152604080832080546001600160a01b0319908116968d1696871790915594835260058252909120805490931690911763ffffffff60a01b1916600160a01b60e089901c0217825584516130829260010191860190613484565b506001600160a01b038616600090815260056020908152604090912083516130b292600290920191850190613484565b506001600160a01b038616600090815260056020908152604090912082516130e292600390920191840190613484565b504260056000886001600160a01b03166001600160a01b03168152602001908152602001600020600501819055507f72d822d06ac7801005280598ec183fd02b8aa7c8ea0dec3ef9a3e411574d481286868686868660405180876001600160a01b03166001600160a01b03168152602001866001600160e01b0319166001600160e01b0319168152602001856001600160a01b03166001600160a01b03168152602001806020018060200180602001848103845287818151815260200191508051906020019080838360005b838110156131c65781810151838201526020016131ae565b50505050905090810190601f1680156131f35780820380516001836020036101000a031916815260200191505b50848103835286518152865160209182019188019080838360005b8381101561322657818101518382015260200161320e565b50505050905090810190601f1680156132535780820380516001836020036101000a031916815260200191505b50848103825285518152855160209182019187019080838360005b8381101561328657818101518382015260200161326e565b50505050905090810190601f1680156132b35780820380516001836020036101000a031916815260200191505b50995050505050505050505060405180910390a1505050505050565b6001600160a01b0381166133145760405162461bcd60e51b81526004018080602001828103825260368152602001806136ed6036913960400191505060405180910390fd5b600080546040516001600160a01b03808516939216917f7e8c4fc74f50849b4ec635ed03f5d13f87cd46ae422e97479704c6fd1c164e2091a3600080546001600160a01b0319166001600160a01b0392909216919091179055565b6040518060e0016040528060006001600160a01b0316815260200160006001600160e01b031916815260200160608152602001606081526020016060815260200160008152602001600081525090565b828054600181600116156101000203166002900490600052602060002090601f016020900481019282601f106134005782800160ff1982351617855561342d565b8280016001018555821561342d579182015b8281111561342d578235825591602001919060010190613412565b506134399291506134f2565b5090565b50805460018160011615610100020316600290046000825580601f106134635750613481565b601f01602090049060005260206000209081019061348191906134f2565b50565b828054600181600116156101000203166002900490600052602060002090601f016020900481019282601f106134c557805160ff191683800117855561342d565b8280016001018555821561342d579182015b8281111561342d5782518255916020019190600101906134d7565b610e0a91905b8082111561343957600081556001016134f856fe7265676973746572477561726469616e3a20477561726469616e20697320616c72656164792072656769737465726564636f6e7472616374206973206c6f636b656420666f722074686973206f7065726174696f6e676574477561726469616e49703a20477561726469616e206973206e6f7420726567697374657265646765744d657461646174613a20477561726469616e206973206e6f74207265676973746572656457697468436c61696d61626c654d6967726174696f6e4f776e6572736869703a2063616c6c6572206973206e6f7420746865206d6967726174696f6e4f776e657246756e6374696f6e616c4f776e65723a206e65772066756e6374696f6e616c4f776e657220697320746865207a65726f20616464726573736765744f7262734164647265737365733a20477561726469616e206973206e6f74207265676973746572656443616c6c6572206973206e6f74207468652070656e64696e67206d6967726174696f6e4f776e6572676574477561726469616e446174613a20477561726469616e206973206e6f74207265676973746572656457697468436c61696d61626c6546756e6374696f6e616c4f776e6572736869703a2063616c6c6572206973206e6f74207468652066756e6374696f6e616c4f776e65724d6967726174696f6e4f776e65723a206e6577206d6967726174696f6e4f776e657220697320746865207a65726f2061646472657373676574457468657265756d4164647265737365733a20477561726469616e206973206e6f74207265676973746572656443616c6c6572206973206e6f74207468652070656e64696e672066756e6374696f6e616c4f776e6572a265627a7a723158208bba66770e7abf212261b3b96e337fc60fc70cb8a5cd2c22fa6f30dcfe807c1f64736f6c63430005100032",
  "source": "pragma solidity 0.5.16;\n\nimport \"./spec_interfaces/IGuardiansRegistration.sol\";\nimport \"./interfaces/IElections.sol\";\nimport \"./ContractRegistryAccessor.sol\";\nimport \"./WithClaimableFunctionalOwnership.sol\";\n\ncontract GuardiansRegistration is IGuardiansRegistration, ContractRegistryAccessor, WithClaimableFunctionalOwnership, Lockable {\n\n\tmodifier onlyRegisteredGuardian {\n\t\trequire(isRegistered(msg.sender), \"Guardian is not registered\");\n\n\t\t_;\n\t}\n\n\tstruct Guardian {\n\t\taddress orbsAddr;\n\t\tbytes4 ip;\n\t\tstring name;\n\t\tstring website;\n\t\tstring contact;\n\t\tuint256 registrationTime;\n\t\tuint256 lastUpdateTime;\n\t}\n\tmapping (address => Guardian) public guardians;\n\tmapping (address => address) public orbsAddressToEthereumAddress;\n\tmapping (bytes4 => address) public ipToGuardian;\n\tmapping (address => mapping(string => string)) public guardianMetadata;\n\n\t/*\n     * External methods\n     */\n\n    /// @dev Called by a participant who wishes to register as a guardian\n\tfunction registerGuardian(bytes4 ip, address orbsAddr, string calldata name, string calldata website, string calldata contact) external onlyWhenActive {\n\t\trequire(!isRegistered(msg.sender), \"registerGuardian: Guardian is already registered\");\n\n\t\tguardians[msg.sender].registrationTime = now;\n\t\temit GuardianRegistered(msg.sender);\n\n\t\t_updateGuardian(msg.sender, ip, orbsAddr, name, website, contact);\n\n\t\tgetElectionsContract().guardianRegistered(msg.sender);\n\t}\n\n    /// @dev Called by a participant who wishes to update its properties\n\tfunction updateGuardian(bytes4 ip, address orbsAddr, string calldata name, string calldata website, string calldata contact) external onlyRegisteredGuardian onlyWhenActive {\n\t\t_updateGuardian(msg.sender, ip, orbsAddr, name, website, contact);\n\t}\n\n\tfunction updateGuardianIp(bytes4 ip) external onlyWhenActive {\n\t\taddress guardianAddr = resolveGuardianAddress(msg.sender);\n\t\tGuardian memory data = guardians[guardianAddr];\n\t\t_updateGuardian(guardianAddr, ip, data.orbsAddr, data.name, data.website, data.contact);\n\t}\n\n    /// @dev Called by a prticipant to update additional guardian metadata properties.\n    function setMetadata(string calldata key, string calldata value) external onlyRegisteredGuardian onlyWhenActive {\n\t\tstring memory oldValue = guardianMetadata[msg.sender][key];\n\t\tguardianMetadata[msg.sender][key] = value;\n\t\temit GuardianMetadataChanged(msg.sender, key, value, oldValue);\n\t}\n\n\tfunction getMetadata(address addr, string calldata key) external view returns (string memory) {\n\t\trequire(isRegistered(addr), \"getMetadata: Guardian is not registered\");\n\t\treturn guardianMetadata[addr][key];\n\t}\n\n\t/// @dev Called by a participant who wishes to unregister\n\tfunction unregisterGuardian() external onlyRegisteredGuardian onlyWhenActive {\n\t\tdelete orbsAddressToEthereumAddress[guardians[msg.sender].orbsAddr];\n\t\tdelete ipToGuardian[guardians[msg.sender].ip];\n\t\tdelete guardians[msg.sender];\n\n\t\tgetElectionsContract().guardianUnregistered(msg.sender);\n\n\t\temit GuardianUnregistered(msg.sender);\n\t}\n\n    /// @dev Returns a guardian's data\n    /// Used also by the Election contract\n\tfunction getGuardianData(address addr) external view returns (bytes4 ip, address orbsAddr, string memory name, string memory website, string memory contact, uint registration_time, uint last_update_time) {\n\t\trequire(isRegistered(addr), \"getGuardianData: Guardian is not registered\");\n\t\tGuardian memory v = guardians[addr];\n\t\treturn (v.ip, v.orbsAddr, v.name, v.website, v.contact, v.registrationTime, v.lastUpdateTime);\n\t}\n\n\tfunction getGuardiansOrbsAddress(address[] calldata addrs) external view returns (address[] memory orbsAddrs) {\n\t\torbsAddrs = new address[](addrs.length);\n\t\tfor (uint i = 0; i < addrs.length; i++) {\n\t\t\torbsAddrs[i] = guardians[addrs[i]].orbsAddr;\n\t\t}\n\t}\n\n\tfunction getGuardianIp(address addr) external view returns (bytes4 ip) {\n\t\trequire(isRegistered(addr), \"getGuardianIp: Guardian is not registered\");\n\t\treturn guardians[addr].ip;\n\t}\n\n\tfunction getGuardianIps(address[] calldata addrs) external view returns (bytes4[] memory ips) {\n\t\tips = new bytes4[](addrs.length);\n\t\tfor (uint i = 0; i < addrs.length; i++) {\n\t\t\tips[i] = guardians[addrs[i]].ip;\n\t\t}\n\t}\n\n\tfunction isRegistered(address addr) public view returns (bool) {\n\t\treturn guardians[addr].registrationTime != 0;\n\t}\n\n\tfunction resolveGuardianAddress(address ethereumOrOrbsAddress) public view returns (address ethereumAddress) {\n\t\tif (isRegistered(ethereumOrOrbsAddress)) {\n\t\t\tethereumAddress = ethereumOrOrbsAddress;\n\t\t} else {\n\t\t\tethereumAddress = orbsAddressToEthereumAddress[ethereumOrOrbsAddress];\n\t\t}\n\n\t\trequire(ethereumAddress != address(0), \"Cannot resolve address\");\n\t}\n\n\t/*\n     * Methods restricted to other Orbs contracts\n     */\n\n    /// @dev Translates a list guardians Ethereum addresses to Orbs addresses\n    /// Used by the Election conract\n\tfunction getOrbsAddresses(address[] calldata ethereumAddrs) external view returns (address[] memory orbsAddrs) {\n\t\torbsAddrs = new address[](ethereumAddrs.length);\n\t\tfor (uint i = 0; i < ethereumAddrs.length; i++) {\n\t\t\trequire(isRegistered(ethereumAddrs[i]), \"getOrbsAddresses: Guardian is not registered\"); // todo: can be optimized, or maybe omit?\n\t\t\torbsAddrs[i] = guardians[ethereumAddrs[i]].orbsAddr;\n\t\t}\n\t}\n\n\t/// @dev Translates a list guardians Orbs addresses to Ethereum addresses\n\t/// Used by the Election contract\n\tfunction getEthereumAddresses(address[] calldata orbsAddrs) external view returns (address[] memory ethereumAddrs) {\n\t\tethereumAddrs = new address[](orbsAddrs.length);\n\t\tfor (uint i = 0; i < orbsAddrs.length; i++) {\n\t\t\tethereumAddrs[i] = orbsAddressToEthereumAddress[orbsAddrs[i]];\n\t\t\trequire(ethereumAddrs[i] != address(0), \"getEthereumAddresses: Guardian is not registered\"); // todo: omit?\n\t\t}\n\t}\n\n\t/*\n\t * Private methods\n\t */\n\n\tfunction _updateGuardian(address guardianAddr, bytes4 ip, address orbsAddr, string memory name, string memory website, string memory contact) private {\n\t\trequire(orbsAddr != address(0), \"orbs address must be non zero\");\n\t\trequire(bytes(name).length != 0, \"name must be given\");\n\t\trequire(bytes(contact).length != 0, \"contact must be given\");\n\t\t// TODO which are mandatory?\n\n\t\tdelete ipToGuardian[guardians[guardianAddr].ip];\n\t\trequire(ipToGuardian[ip] == address(0), \"ip is already in use\");\n\t\tipToGuardian[ip] = guardianAddr;\n\n\t\tdelete orbsAddressToEthereumAddress[guardians[guardianAddr].orbsAddr];\n\t\trequire(orbsAddressToEthereumAddress[orbsAddr] == address(0), \"orbs address is already in use\");\n\t\torbsAddressToEthereumAddress[orbsAddr] = guardianAddr;\n\n\t\tguardians[guardianAddr].orbsAddr = orbsAddr;\n\t\tguardians[guardianAddr].ip = ip;\n\t\tguardians[guardianAddr].name = name;\n\t\tguardians[guardianAddr].website = website;\n\t\tguardians[guardianAddr].contact = contact;\n\t\tguardians[guardianAddr].lastUpdateTime = now;\n\n        emit GuardianDataUpdated(guardianAddr, ip, orbsAddr, name, website, contact);\n    }\n\n}\n",
  "sourcePath": "/Users/aviramstern/GolandProjects/orbs-ethereum-contracts-v2/contracts/GuardiansRegistration.sol",
  "compiler": {
    "name": "solc",
    "version": "0.5.16+commit.9c3226ce.Emscripten.clang"
  },
  "schemaVersion": "3.0.23",
  "updatedAt": "2020-08-06T21:58:43.760Z",
  "devdoc": {
    "methods": {
      "claimFunctionalOwnership()": {
        "details": "Allows the pendingFunctionalOwner address to finalize the transfer."
      },
      "claimMigrationOwnership()": {
        "details": "Allows the pendingMigrationOwner address to finalize the transfer."
      },
      "functionalOwner()": {
        "details": "Returns the address of the current functionalOwner."
      },
      "getEthereumAddresses(address[])": {
        "details": "Translates a list guardians Orbs addresses to Ethereum addresses Used by the Election contract"
      },
      "getGuardianData(address)": {
        "details": "Returns a guardian's data Used also by the Election contract"
      },
      "getOrbsAddresses(address[])": {
        "details": "Translates a list guardians Ethereum addresses to Orbs addresses Used by the Election conract"
      },
      "isFunctionalOwner()": {
        "details": "Returns true if the caller is the current functionalOwner."
      },
      "isMigrationOwner()": {
        "details": "Returns true if the caller is the current migrationOwner."
      },
      "migrationOwner()": {
        "details": "Returns the address of the current migrationOwner."
      },
      "registerGuardian(bytes4,address,string,string,string)": {
        "details": "Called by a participant who wishes to register as a guardian"
      },
      "renounceFunctionalOwnership()": {
        "details": "Leaves the contract without functionalOwner. It will not be possible to call `onlyOwner` functions anymore. Can only be called by the current functionalOwner.     * NOTE: Renouncing functionalOwnership will leave the contract without an functionalOwner, thereby removing any functionality that is only available to the functionalOwner."
      },
      "renounceMigrationOwnership()": {
        "details": "Leaves the contract without migrationOwner. It will not be possible to call `onlyOwner` functions anymore. Can only be called by the current migrationOwner.     * NOTE: Renouncing migrationOwnership will leave the contract without an migrationOwner, thereby removing any functionality that is only available to the migrationOwner."
      },
      "setMetadata(string,string)": {
        "details": "Called by a prticipant to update additional guardian metadata properties."
      },
      "transferFunctionalOwnership(address)": {
        "details": "Allows the current functionalOwner to set the pendingOwner address.",
        "params": {
          "newFunctionalOwner": "The address to transfer functionalOwnership to."
        }
      },
      "transferMigrationOwnership(address)": {
        "details": "Allows the current migrationOwner to set the pendingOwner address.",
        "params": {
          "newMigrationOwner": "The address to transfer migrationOwnership to."
        }
      },
      "unregisterGuardian()": {
        "details": "Called by a participant who wishes to unregister"
      },
      "updateGuardian(bytes4,address,string,string,string)": {
        "details": "Called by a participant who wishes to update its properties"
      }
    }
  },
  "userdoc": {
    "methods": {}
  }
}