{
  "contractName": "Lockable",
  "abi": [
    {
      "anonymous": false,
      "inputs": [],
      "name": "Locked",
      "type": "event"
    },
    {
      "anonymous": false,
      "inputs": [
        {
          "indexed": true,
          "internalType": "address",
          "name": "previousMigrationOwner",
          "type": "address"
        },
        {
          "indexed": true,
          "internalType": "address",
          "name": "newMigrationOwner",
          "type": "address"
        }
      ],
      "name": "MigrationOwnershipTransferred",
      "type": "event"
    },
    {
      "anonymous": false,
      "inputs": [],
      "name": "Unlocked",
      "type": "event"
    },
    {
      "constant": false,
      "inputs": [],
      "name": "claimMigrationOwnership",
      "outputs": [],
      "payable": false,
      "stateMutability": "nonpayable",
      "type": "function"
    },
    {
      "constant": true,
      "inputs": [],
      "name": "isMigrationOwner",
      "outputs": [
        {
          "internalType": "bool",
          "name": "",
          "type": "bool"
        }
      ],
      "payable": false,
      "stateMutability": "view",
      "type": "function"
    },
    {
      "constant": true,
      "inputs": [],
      "name": "locked",
      "outputs": [
        {
          "internalType": "bool",
          "name": "",
          "type": "bool"
        }
      ],
      "payable": false,
      "stateMutability": "view",
      "type": "function"
    },
    {
      "constant": true,
      "inputs": [],
      "name": "migrationOwner",
      "outputs": [
        {
          "internalType": "address",
          "name": "",
          "type": "address"
        }
      ],
      "payable": false,
      "stateMutability": "view",
      "type": "function"
    },
    {
      "constant": false,
      "inputs": [],
      "name": "renounceMigrationOwnership",
      "outputs": [],
      "payable": false,
      "stateMutability": "nonpayable",
      "type": "function"
    },
    {
      "constant": false,
      "inputs": [
        {
          "internalType": "address",
          "name": "newMigrationOwner",
          "type": "address"
        }
      ],
      "name": "transferMigrationOwnership",
      "outputs": [],
      "payable": false,
      "stateMutability": "nonpayable",
      "type": "function"
    },
    {
      "constant": false,
      "inputs": [],
      "name": "lock",
      "outputs": [],
      "payable": false,
      "stateMutability": "nonpayable",
      "type": "function"
    },
    {
      "constant": false,
      "inputs": [],
      "name": "unlock",
      "outputs": [],
      "payable": false,
      "stateMutability": "nonpayable",
      "type": "function"
    }
  ],
  "bytecode": "0x608060405260006100176001600160e01b0361006616565b600080546001600160a01b0319166001600160a01b0383169081178255604051929350917f7e8c4fc74f50849b4ec635ed03f5d13f87cd46ae422e97479704c6fd1c164e20908290a35061006a565b3390565b610536806100796000396000f3fe608060405234801561001057600080fd5b50600436106100885760003560e01c80639f587d1c1161005b5780639f587d1c146100df578063a69df4b514610105578063cf3090121461010d578063f83d08ba1461011557610088565b8063021abb931461008d578063209df1e2146100a95780632c43bdd5146100b35780637b93af4c146100d7575b600080fd5b61009561011d565b604080519115158252519081900360200190f35b6100b1610141565b005b6100bb6101ce565b604080516001600160a01b039092168252519081900360200190f35b6100b16101dd565b6100b1600480360360208110156100f557600080fd5b50356001600160a01b031661024d565b6100b16102b2565b61009561032d565b6100b161033d565b600080546001600160a01b03166101326103be565b6001600160a01b031614905090565b61014961011d565b6101845760405162461bcd60e51b81526004018080602001828103825260418152602001806104636041913960600191505060405180910390fd5b600080546040516001600160a01b03909116907f7e8c4fc74f50849b4ec635ed03f5d13f87cd46ae422e97479704c6fd1c164e20908390a3600080546001600160a01b0319169055565b6000546001600160a01b031690565b6001546001600160a01b031633146102265760405162461bcd60e51b81526004018080602001828103825260288152602001806104a46028913960400191505060405180910390fd5b60015461023b906001600160a01b03166103c2565b600180546001600160a01b0319169055565b61025561011d565b6102905760405162461bcd60e51b81526004018080602001828103825260418152602001806104636041913960600191505060405180910390fd5b600180546001600160a01b0319166001600160a01b0392909216919091179055565b6102ba61011d565b6102f55760405162461bcd60e51b81526004018080602001828103825260418152602001806104636041913960600191505060405180910390fd5b6001805460ff60a01b191690556040517f19aad37188a1d3921e29eb3c66acf43d81975e107cb650d58cca878627955fd690600090a1565b600154600160a01b900460ff1681565b61034561011d565b6103805760405162461bcd60e51b81526004018080602001828103825260418152602001806104636041913960600191505060405180910390fd5b6001805460ff60a01b1916600160a01b1790556040517f0f2e5b6c72c6a4491efd919a9f9a409f324ef0708c11ee57d410c2cb06c0992b90600090a1565b3390565b6001600160a01b0381166104075760405162461bcd60e51b81526004018080602001828103825260368152602001806104cc6036913960400191505060405180910390fd5b600080546040516001600160a01b03808516939216917f7e8c4fc74f50849b4ec635ed03f5d13f87cd46ae422e97479704c6fd1c164e2091a3600080546001600160a01b0319166001600160a01b039290921691909117905556fe57697468436c61696d61626c654d6967726174696f6e4f776e6572736869703a2063616c6c6572206973206e6f7420746865206d6967726174696f6e4f776e657243616c6c6572206973206e6f74207468652070656e64696e67206d6967726174696f6e4f776e65724d6967726174696f6e4f776e65723a206e6577206d6967726174696f6e4f776e657220697320746865207a65726f2061646472657373a265627a7a7231582035140e1efdf7c14d99a83e8cbbf524999a2140ac60815a898071dd2aa8e70df864736f6c63430005100032",
  "source": "pragma solidity 0.5.16;\n\nimport \"./WithClaimableMigrationOwnership.sol\";\n\n\n/**\n * @title Claimable\n * @dev Extension for the Ownable contract, where the ownership needs to be claimed.\n * This allows the new owner to accept the transfer.\n */\ncontract Lockable is WithClaimableMigrationOwnership {\n\n    bool public locked;\n\n    event Locked();\n    event Unlocked();\n\n    function lock() external onlyMigrationOwner {\n        locked = true;\n        emit Locked();\n    }\n\n    function unlock() external onlyMigrationOwner {\n        locked = false;\n        emit Unlocked();\n    }\n\n    modifier onlyWhenActive() {\n        require(!locked, \"contract is locked for this operation\");\n\n        _;\n    }\n}\n",
  "sourcePath": "/Users/aviramstern/GolandProjects/orbs-ethereum-contracts-v2/contracts/Lockable.sol",
  "compiler": {
    "name": "solc",
    "version": "0.5.16+commit.9c3226ce.Emscripten.clang"
  },
  "schemaVersion": "3.0.23",
  "updatedAt": "2020-07-27T07:33:26.896Z",
  "devdoc": {
    "details": "Extension for the Ownable contract, where the ownership needs to be claimed. This allows the new owner to accept the transfer.",
    "methods": {
      "claimMigrationOwnership()": {
        "details": "Allows the pendingMigrationOwner address to finalize the transfer."
      },
      "isMigrationOwner()": {
        "details": "Returns true if the caller is the current migrationOwner."
      },
      "migrationOwner()": {
        "details": "Returns the address of the current migrationOwner."
      },
      "renounceMigrationOwnership()": {
        "details": "Leaves the contract without migrationOwner. It will not be possible to call `onlyOwner` functions anymore. Can only be called by the current migrationOwner.     * NOTE: Renouncing migrationOwnership will leave the contract without an migrationOwner, thereby removing any functionality that is only available to the migrationOwner."
      },
      "transferMigrationOwnership(address)": {
        "details": "Allows the current migrationOwner to set the pendingOwner address.",
        "params": {
          "newMigrationOwner": "The address to transfer migrationOwnership to."
        }
      }
    },
    "title": "Claimable"
  },
  "userdoc": {
    "methods": {}
  }
}