{
  "contractName": "MonthlySubscriptionPlan",
  "abi": [
    {
      "inputs": [
        {
          "internalType": "contract IERC20",
          "name": "_erc20",
          "type": "address"
        },
        {
          "internalType": "string",
          "name": "_tier",
          "type": "string"
        },
        {
          "internalType": "uint256",
          "name": "_monthlyRate",
          "type": "uint256"
        }
      ],
      "payable": false,
      "stateMutability": "nonpayable",
      "type": "constructor"
    },
    {
      "anonymous": false,
      "inputs": [
        {
          "indexed": false,
          "internalType": "address",
          "name": "addr",
          "type": "address"
        }
      ],
      "name": "ContractRegistryAddressUpdated",
      "type": "event"
    },
    {
      "anonymous": false,
      "inputs": [
        {
          "indexed": true,
          "internalType": "address",
          "name": "previousFunctionalOwner",
          "type": "address"
        },
        {
          "indexed": true,
          "internalType": "address",
          "name": "newFunctionalOwner",
          "type": "address"
        }
      ],
      "name": "FunctionalOwnershipTransferred",
      "type": "event"
    },
    {
      "anonymous": false,
      "inputs": [
        {
          "indexed": true,
          "internalType": "address",
          "name": "previousMigrationOwner",
          "type": "address"
        },
        {
          "indexed": true,
          "internalType": "address",
          "name": "newMigrationOwner",
          "type": "address"
        }
      ],
      "name": "MigrationOwnershipTransferred",
      "type": "event"
    },
    {
      "constant": false,
      "inputs": [],
      "name": "claimFunctionalOwnership",
      "outputs": [],
      "payable": false,
      "stateMutability": "nonpayable",
      "type": "function"
    },
    {
      "constant": false,
      "inputs": [],
      "name": "claimMigrationOwnership",
      "outputs": [],
      "payable": false,
      "stateMutability": "nonpayable",
      "type": "function"
    },
    {
      "constant": true,
      "inputs": [],
      "name": "functionalOwner",
      "outputs": [
        {
          "internalType": "address",
          "name": "",
          "type": "address"
        }
      ],
      "payable": false,
      "stateMutability": "view",
      "type": "function"
    },
    {
      "constant": true,
      "inputs": [],
      "name": "getBootstrapRewardsWallet",
      "outputs": [
        {
          "internalType": "contract IProtocolWallet",
          "name": "",
          "type": "address"
        }
      ],
      "payable": false,
      "stateMutability": "view",
      "type": "function"
    },
    {
      "constant": true,
      "inputs": [],
      "name": "getCertificationContract",
      "outputs": [
        {
          "internalType": "contract ICertification",
          "name": "",
          "type": "address"
        }
      ],
      "payable": false,
      "stateMutability": "view",
      "type": "function"
    },
    {
      "constant": true,
      "inputs": [],
      "name": "getCommitteeContract",
      "outputs": [
        {
          "internalType": "contract ICommittee",
          "name": "",
          "type": "address"
        }
      ],
      "payable": false,
      "stateMutability": "view",
      "type": "function"
    },
    {
      "constant": true,
      "inputs": [],
      "name": "getDelegationsContract",
      "outputs": [
        {
          "internalType": "contract IDelegations",
          "name": "",
          "type": "address"
        }
      ],
      "payable": false,
      "stateMutability": "view",
      "type": "function"
    },
    {
      "constant": true,
      "inputs": [],
      "name": "getElectionsContract",
      "outputs": [
        {
          "internalType": "contract IElections",
          "name": "",
          "type": "address"
        }
      ],
      "payable": false,
      "stateMutability": "view",
      "type": "function"
    },
    {
      "constant": true,
      "inputs": [],
      "name": "getGuardiansRegistrationContract",
      "outputs": [
        {
          "internalType": "contract IGuardiansRegistration",
          "name": "",
          "type": "address"
        }
      ],
      "payable": false,
      "stateMutability": "view",
      "type": "function"
    },
    {
      "constant": true,
      "inputs": [],
      "name": "getProtocolContract",
      "outputs": [
        {
          "internalType": "contract IProtocol",
          "name": "",
          "type": "address"
        }
      ],
      "payable": false,
      "stateMutability": "view",
      "type": "function"
    },
    {
      "constant": true,
      "inputs": [],
      "name": "getRewardsContract",
      "outputs": [
        {
          "internalType": "contract IRewards",
          "name": "",
          "type": "address"
        }
      ],
      "payable": false,
      "stateMutability": "view",
      "type": "function"
    },
    {
      "constant": true,
      "inputs": [],
      "name": "getStakingContract",
      "outputs": [
        {
          "internalType": "contract IStakingContract",
          "name": "",
          "type": "address"
        }
      ],
      "payable": false,
      "stateMutability": "view",
      "type": "function"
    },
    {
      "constant": true,
      "inputs": [],
      "name": "getStakingRewardsWallet",
      "outputs": [
        {
          "internalType": "contract IProtocolWallet",
          "name": "",
          "type": "address"
        }
      ],
      "payable": false,
      "stateMutability": "view",
      "type": "function"
    },
    {
      "constant": true,
      "inputs": [],
      "name": "getSubscriptionsContract",
      "outputs": [
        {
          "internalType": "contract ISubscriptions",
          "name": "",
          "type": "address"
        }
      ],
      "payable": false,
      "stateMutability": "view",
      "type": "function"
    },
    {
      "constant": true,
      "inputs": [],
      "name": "isFunctionalOwner",
      "outputs": [
        {
          "internalType": "bool",
          "name": "",
          "type": "bool"
        }
      ],
      "payable": false,
      "stateMutability": "view",
      "type": "function"
    },
    {
      "constant": true,
      "inputs": [],
      "name": "isMigrationOwner",
      "outputs": [
        {
          "internalType": "bool",
          "name": "",
          "type": "bool"
        }
      ],
      "payable": false,
      "stateMutability": "view",
      "type": "function"
    },
    {
      "constant": true,
      "inputs": [],
      "name": "migrationOwner",
      "outputs": [
        {
          "internalType": "address",
          "name": "",
          "type": "address"
        }
      ],
      "payable": false,
      "stateMutability": "view",
      "type": "function"
    },
    {
      "constant": true,
      "inputs": [],
      "name": "monthlyRate",
      "outputs": [
        {
          "internalType": "uint256",
          "name": "",
          "type": "uint256"
        }
      ],
      "payable": false,
      "stateMutability": "view",
      "type": "function"
    },
    {
      "constant": false,
      "inputs": [],
      "name": "renounceFunctionalOwnership",
      "outputs": [],
      "payable": false,
      "stateMutability": "nonpayable",
      "type": "function"
    },
    {
      "constant": false,
      "inputs": [],
      "name": "renounceMigrationOwnership",
      "outputs": [],
      "payable": false,
      "stateMutability": "nonpayable",
      "type": "function"
    },
    {
      "constant": false,
      "inputs": [
        {
          "internalType": "contract IContractRegistry",
          "name": "_contractRegistry",
          "type": "address"
        }
      ],
      "name": "setContractRegistry",
      "outputs": [],
      "payable": false,
      "stateMutability": "nonpayable",
      "type": "function"
    },
    {
      "constant": true,
      "inputs": [],
      "name": "tier",
      "outputs": [
        {
          "internalType": "string",
          "name": "",
          "type": "string"
        }
      ],
      "payable": false,
      "stateMutability": "view",
      "type": "function"
    },
    {
      "constant": false,
      "inputs": [
        {
          "internalType": "address",
          "name": "newFunctionalOwner",
          "type": "address"
        }
      ],
      "name": "transferFunctionalOwnership",
      "outputs": [],
      "payable": false,
      "stateMutability": "nonpayable",
      "type": "function"
    },
    {
      "constant": false,
      "inputs": [
        {
          "internalType": "address",
          "name": "newMigrationOwner",
          "type": "address"
        }
      ],
      "name": "transferMigrationOwnership",
      "outputs": [],
      "payable": false,
      "stateMutability": "nonpayable",
      "type": "function"
    },
    {
      "constant": false,
      "inputs": [
        {
          "internalType": "uint256",
          "name": "amount",
          "type": "uint256"
        },
        {
          "internalType": "bool",
          "name": "isCertified",
          "type": "bool"
        },
        {
          "internalType": "string",
          "name": "deploymentSubset",
          "type": "string"
        }
      ],
      "name": "createVC",
      "outputs": [],
      "payable": false,
      "stateMutability": "nonpayable",
      "type": "function"
    },
    {
      "constant": false,
      "inputs": [
        {
          "internalType": "uint256",
          "name": "vcid",
          "type": "uint256"
        },
        {
          "internalType": "uint256",
          "name": "amount",
          "type": "uint256"
        }
      ],
      "name": "extendSubscription",
      "outputs": [],
      "payable": false,
      "stateMutability": "nonpayable",
      "type": "function"
    }
  ],
  "bytecode": "0x60806040523480156200001157600080fd5b50604051620018bb380380620018bb833981810160405260608110156200003757600080fd5b8151602083018051604051929492938301929190846401000000008211156200005f57600080fd5b9083019060208201858111156200007557600080fd5b82516401000000008111828201881017156200009057600080fd5b82525081516020918201929091019080838360005b83811015620000bf578181015183820152602001620000a5565b50505050905090810190601f168015620000ed5780820380516001836020036101000a031916815260200191505b50604052602001519150600090506200010e6001600160e01b036200025316565b600080546001600160a01b0319166001600160a01b0383169081178255604051929350917f7e8c4fc74f50849b4ec635ed03f5d13f87cd46ae422e97479704c6fd1c164e20908290a35060006200016d6001600160e01b036200025316565b600380546001600160a01b0319166001600160a01b038316908117909155604051919250906000907f322ef0cb3bcc6b6f659770a0acaf7473e9bc6ebe63e04e4f28924c285c8cc5ea908290a350600082511162000212576040805162461bcd60e51b815260206004820152601f60248201527f6d757374207370656369667920612076616c69642074696572206c6162656c00604482015290519081900360640190fd5b81516200022790600590602085019062000258565b50600780546001600160a01b0319166001600160a01b03949094169390931790925550600655620002fa565b335b90565b828054600181600116156101000203166002900490600052602060002090601f016020900481019282601f106200029b57805160ff1916838001178555620002cb565b82800160010185558215620002cb579182015b82811115620002cb578251825591602001919060010190620002ae565b50620002d9929150620002dd565b5090565b6200025591905b80821115620002d95760008155600101620002e4565b6115b1806200030a6000396000f3fe608060405234801561001057600080fd5b506004361061018e5760003560e01c8063977d4e5a116100de578063ad751ed311610097578063d868507311610071578063d8685073146103ae578063ddc0d5d6146103d1578063ec5e178c146103d9578063fcd13d65146103e15761018e565b8063ad751ed314610396578063b5f1c29d1461039e578063bed1807d146103a65761018e565b8063977d4e5a146102b45780639b22ec63146102bc5780639b9a7e681461033a5780639f587d1c14610360578063a09e0d9014610386578063ab6acfc41461038e5761018e565b80633a88ab8e1161014b5780636ba3381a116101255780636ba3381a146102825780636cdb67461461029c5780637b93af4c146102a45780638e68dce4146102ac5761018e565b80633a88ab8e1461026a5780633b781309146102725780635282346d1461027a5761018e565b8063021abb931461019357806311caadfb146101af57806316f4d022146101d35780631dc669f414610250578063209df1e21461025a5780632c43bdd514610262575b600080fd5b61019b610407565b604080519115158252519081900360200190f35b6101b761042b565b604080516001600160a01b039092168252519081900360200190f35b6101db6104bf565b6040805160208082528351818301528351919283929083019185019080838360005b838110156102155781810151838201526020016101fd565b50505050905090810190601f1680156102425780820380516001836020036101000a031916815260200191505b509250505060405180910390f35b61025861054d565b005b6102586105bd565b6101b761064a565b61019b610659565b610258610670565b6101b76106fd565b61028a610762565b60408051918252519081900360200190f35b6101b7610768565b6102586107d6565b6101b7610846565b6101b76108a7565b610258600480360360608110156102d257600080fd5b81359160208101351515918101906060810160408201356401000000008111156102fb57600080fd5b82018360208201111561030d57600080fd5b8035906020019184600183028401116401000000008311171561032f57600080fd5b50909250905061090e565b6102586004803603602081101561035057600080fd5b50356001600160a01b0316610c34565b6102586004803603602081101561037657600080fd5b50356001600160a01b0316610c99565b6101b7610cfe565b6101b7610d65565b6101b7610dc8565b6101b7610e29565b6101b7610e8b565b610258600480360360408110156103c457600080fd5b5080359060200135610e9a565b6101b76110d8565b6101b7611147565b610258600480360360208110156103f757600080fd5b50356001600160a01b03166111b7565b600080546001600160a01b031661041c61124e565b6001600160a01b031614905090565b6002546040805163349f642f60e11b81526020600482018190526009602483015268656c656374696f6e7360b81b604483015291516000936001600160a01b03169263693ec85e9260648082019391829003018186803b15801561048e57600080fd5b505afa1580156104a2573d6000803e3d6000fd5b505050506040513d60208110156104b857600080fd5b5051905090565b6005805460408051602060026001851615610100026000190190941693909304601f810184900484028201840190925281815292918301828280156105455780601f1061051a57610100808354040283529160200191610545565b820191906000526020600020905b81548152906001019060200180831161052857829003601f168201915b505050505081565b6004546001600160a01b031633146105965760405162461bcd60e51b81526004018080602001828103825260298152602001806115126029913960400191505060405180910390fd5b6004546105ab906001600160a01b0316611252565b600480546001600160a01b0319169055565b6105c5610407565b6106005760405162461bcd60e51b81526004018080602001828103825260418152602001806113946041913960600191505060405180910390fd5b600080546040516001600160a01b03909116907f7e8c4fc74f50849b4ec635ed03f5d13f87cd46ae422e97479704c6fd1c164e20908390a3600080546001600160a01b0319169055565b6000546001600160a01b031690565b6003546000906001600160a01b031661041c61124e565b610678610659565b6106b35760405162461bcd60e51b81526004018080602001828103825260438152602001806114756043913960600191505060405180910390fd5b6003546040516000916001600160a01b0316907f322ef0cb3bcc6b6f659770a0acaf7473e9bc6ebe63e04e4f28924c285c8cc5ea908390a3600380546001600160a01b0319169055565b6002546040805163349f642f60e11b8152602060048201819052600b60248301526a64656c65676174696f6e7360a81b604483015291516000936001600160a01b03169263693ec85e9260648082019391829003018186803b15801561048e57600080fd5b60065481565b6002546040805163349f642f60e11b815260206004820181905260146024830152731cdd185ada5b99d4995dd85c991cd5d85b1b195d60621b604483015291516000936001600160a01b03169263693ec85e9260648082019391829003018186803b15801561048e57600080fd5b6001546001600160a01b0316331461081f5760405162461bcd60e51b815260040180806020018281038252602881526020018061144d6028913960400191505060405180910390fd5b600154610834906001600160a01b03166112f3565b600180546001600160a01b0319169055565b6002546040805163349f642f60e11b815260206004820181905260076024830152667374616b696e6760c81b604483015291516000936001600160a01b03169263693ec85e9260648082019391829003018186803b15801561048e57600080fd5b6002546040805163349f642f60e11b8152602060048201819052600d60248301526c737562736372697074696f6e7360981b604483015291516000936001600160a01b03169263693ec85e9260648082019391829003018186803b15801561048e57600080fd5b60008411610958576040805162461bcd60e51b81526020600482015260126024820152716d75737420696e636c7564652066756e647360701b604482015290519081900360640190fd5b60006109626108a7565b600754604080516323b872dd60e01b81523360048201523060248201526044810189905290519293506001600160a01b03909116916323b872dd916064808201926020929091908290030181600087803b1580156109bf57600080fd5b505af11580156109d3573d6000803e3d6000fd5b505050506040513d60208110156109e957600080fd5b5051610a265760405162461bcd60e51b81526004018080602001828103825260248152602001806114ee6024913960400191505060405180910390fd5b6007546040805163095ea7b360e01b81526001600160a01b038481166004830152602482018990529151919092169163095ea7b39160448083019260209291908290030181600087803b158015610a7c57600080fd5b505af1158015610a90573d6000803e3d6000fd5b505050506040513d6020811015610aa657600080fd5b5051610ae35760405162461bcd60e51b81526004018080602001828103825260248152602001806114ee6024913960400191505060405180910390fd5b600654604051632cf4cc6b60e11b815260248101829052604481018790523360648201819052861515608483015260c060048301908152600580546002600019610100600184161502019091160460c485018190526001600160a01b038716956359e998d695929490938c9391928c928c928c929091829160a482019160e401908b908015610bb35780601f10610b8857610100808354040283529160200191610bb3565b820191906000526020600020905b815481529060010190602001808311610b9657829003601f168201915b50508381038252848152602001858580828437600081840152601f19601f82011690508083019250505099505050505050505050506040805180830381600087803b158015610c0157600080fd5b505af1158015610c15573d6000803e3d6000fd5b505050506040513d6040811015610c2b57600080fd5b50505050505050565b610c3c610659565b610c775760405162461bcd60e51b81526004018080602001828103825260438152602001806114756043913960600191505060405180910390fd5b600480546001600160a01b0319166001600160a01b0392909216919091179055565b610ca1610407565b610cdc5760405162461bcd60e51b81526004018080602001828103825260418152602001806113946041913960600191505060405180910390fd5b600180546001600160a01b0319166001600160a01b0392909216919091179055565b6002546040805163349f642f60e11b8152602060048201819052600d60248301526c31b2b93a34b334b1b0ba34b7b760991b604483015291516000936001600160a01b03169263693ec85e9260648082019391829003018186803b15801561048e57600080fd5b6002546040805163349f642f60e11b81526020600482018190526009602483015268636f6d6d697474656560b81b604483015291516000936001600160a01b03169263693ec85e9260648082019391829003018186803b15801561048e57600080fd5b6002546040805163349f642f60e11b815260206004820181905260076024830152667265776172647360c81b604483015291516000936001600160a01b03169263693ec85e9260648082019391829003018186803b15801561048e57600080fd5b6002546040805163349f642f60e11b815260206004820181905260086024830152671c1c9bdd1bd8dbdb60c21b604483015291516000936001600160a01b03169263693ec85e9260648082019391829003018186803b15801561048e57600080fd5b6003546001600160a01b031690565b60008111610ee4576040805162461bcd60e51b81526020600482015260126024820152716d75737420696e636c7564652066756e647360701b604482015290519081900360640190fd5b6000610eee6108a7565b600754604080516323b872dd60e01b81523360048201523060248201526044810186905290519293506001600160a01b03909116916323b872dd916064808201926020929091908290030181600087803b158015610f4b57600080fd5b505af1158015610f5f573d6000803e3d6000fd5b505050506040513d6020811015610f7557600080fd5b5051610fb25760405162461bcd60e51b815260040180806020018281038252604081526020018061140d6040913960400191505060405180910390fd5b6007546040805163095ea7b360e01b81526001600160a01b038481166004830152602482018690529151919092169163095ea7b39160448083019260209291908290030181600087803b15801561100857600080fd5b505af115801561101c573d6000803e3d6000fd5b505050506040513d602081101561103257600080fd5b505161106f5760405162461bcd60e51b815260040180806020018281038252604281526020018061153b6042913960600191505060405180910390fd5b604080516339435b5960e01b8152600481018590526024810184905233604482015290516001600160a01b038316916339435b5991606480830192600092919082900301818387803b1580156110c457600080fd5b505af1158015610c2b573d6000803e3d6000fd5b6002546040805163349f642f60e11b8152602060048201819052601560248301527433bab0b93234b0b739a932b3b4b9ba3930ba34b7b760591b604483015291516000936001600160a01b03169263693ec85e9260648082019391829003018186803b15801561048e57600080fd5b6002546040805163349f642f60e11b81526020600482018190526016602483015275189bdbdd1cdd1c985c14995dd85c991cd5d85b1b195d60521b604483015291516000936001600160a01b03169263693ec85e9260648082019391829003018186803b15801561048e57600080fd5b6111bf610407565b6111fa5760405162461bcd60e51b81526004018080602001828103825260418152602001806113946041913960600191505060405180910390fd5b600280546001600160a01b0383166001600160a01b0319909116811790915560408051918252517ffea2d033438b968078a6264409d0104b5f3d2ce7b795afc74918e70f3534f22b9181900360200190a150565b3390565b6001600160a01b0381166112975760405162461bcd60e51b81526004018080602001828103825260388152602001806113d56038913960400191505060405180910390fd5b6003546040516001600160a01b038084169216907f322ef0cb3bcc6b6f659770a0acaf7473e9bc6ebe63e04e4f28924c285c8cc5ea90600090a3600380546001600160a01b0319166001600160a01b0392909216919091179055565b6001600160a01b0381166113385760405162461bcd60e51b81526004018080602001828103825260368152602001806114b86036913960400191505060405180910390fd5b600080546040516001600160a01b03808516939216917f7e8c4fc74f50849b4ec635ed03f5d13f87cd46ae422e97479704c6fd1c164e2091a3600080546001600160a01b0319166001600160a01b039290921691909117905556fe57697468436c61696d61626c654d6967726174696f6e4f776e6572736869703a2063616c6c6572206973206e6f7420746865206d6967726174696f6e4f776e657246756e6374696f6e616c4f776e65723a206e65772066756e6374696f6e616c4f776e657220697320746865207a65726f20616464726573736661696c656420746f207472616e7366657220737562736372697074696f6e20666565732066726f6d20766320706179657220746f207375627363726962657243616c6c6572206973206e6f74207468652070656e64696e67206d6967726174696f6e4f776e657257697468436c61696d61626c6546756e6374696f6e616c4f776e6572736869703a2063616c6c6572206973206e6f74207468652066756e6374696f6e616c4f776e65724d6967726174696f6e4f776e65723a206e6577206d6967726174696f6e4f776e657220697320746865207a65726f20616464726573736661696c656420746f207472616e7366657220737562736372697074696f6e206665657343616c6c6572206973206e6f74207468652070656e64696e672066756e6374696f6e616c4f776e65726661696c656420746f20617070726f766520737562736372697074696f6e206665657320746f20737562736372697074696f6e732062792073756273637269626572a265627a7a7231582094d82819063add766bcf5862de6bcb887f4841ac9d637c62c592e4b25a5304f764736f6c63430005100032",
  "source": "pragma solidity 0.5.16;\n\nimport \"@openzeppelin/contracts/math/SafeMath.sol\";\nimport \"@openzeppelin/contracts/token/ERC20/IERC20.sol\";\n\nimport \"./Subscriptions.sol\";\nimport \"./ContractRegistry.sol\";\n\ncontract MonthlySubscriptionPlan is ContractRegistryAccessor, WithClaimableFunctionalOwnership {\n\n    string public tier;\n    uint256 public monthlyRate;\n\n    IERC20 erc20;\n\n    constructor(IERC20 _erc20, string memory _tier, uint256 _monthlyRate) public {\n        require(bytes(_tier).length > 0, \"must specify a valid tier label\");\n\n        tier = _tier;\n        erc20 = _erc20;\n        monthlyRate = _monthlyRate;\n    }\n\n    function createVC(uint256 amount, bool isCertified, string calldata deploymentSubset) external {\n        require(amount > 0, \"must include funds\");\n\n        ISubscriptions subs = getSubscriptionsContract();\n\n        require(erc20.transferFrom(msg.sender, address(this), amount), \"failed to transfer subscription fees\");\n        require(erc20.approve(address(subs), amount), \"failed to transfer subscription fees\");\n        subs.createVC(tier, monthlyRate, amount, msg.sender, isCertified, deploymentSubset);\n    }\n\n    function extendSubscription(uint256 vcid, uint256 amount) external {\n        require(amount > 0, \"must include funds\");\n\n        ISubscriptions subs = getSubscriptionsContract();\n\n        require(erc20.transferFrom(msg.sender, address(this), amount), \"failed to transfer subscription fees from vc payer to subscriber\");\n        require(erc20.approve(address(subs), amount), \"failed to approve subscription fees to subscriptions by subscriber\");\n        subs.extendSubscription(vcid, amount, msg.sender);\n    }\n}\n",
  "sourcePath": "/Users/aviramstern/GolandProjects/orbs-ethereum-contracts-v2/contracts/MonthlySubscriptionPlan.sol",
  "compiler": {
    "name": "solc",
    "version": "0.5.16+commit.9c3226ce.Emscripten.clang"
  },
  "schemaVersion": "3.0.23",
  "updatedAt": "2020-08-06T21:58:43.772Z",
  "devdoc": {
    "methods": {
      "claimFunctionalOwnership()": {
        "details": "Allows the pendingFunctionalOwner address to finalize the transfer."
      },
      "claimMigrationOwnership()": {
        "details": "Allows the pendingMigrationOwner address to finalize the transfer."
      },
      "functionalOwner()": {
        "details": "Returns the address of the current functionalOwner."
      },
      "isFunctionalOwner()": {
        "details": "Returns true if the caller is the current functionalOwner."
      },
      "isMigrationOwner()": {
        "details": "Returns true if the caller is the current migrationOwner."
      },
      "migrationOwner()": {
        "details": "Returns the address of the current migrationOwner."
      },
      "renounceFunctionalOwnership()": {
        "details": "Leaves the contract without functionalOwner. It will not be possible to call `onlyOwner` functions anymore. Can only be called by the current functionalOwner.     * NOTE: Renouncing functionalOwnership will leave the contract without an functionalOwner, thereby removing any functionality that is only available to the functionalOwner."
      },
      "renounceMigrationOwnership()": {
        "details": "Leaves the contract without migrationOwner. It will not be possible to call `onlyOwner` functions anymore. Can only be called by the current migrationOwner.     * NOTE: Renouncing migrationOwnership will leave the contract without an migrationOwner, thereby removing any functionality that is only available to the migrationOwner."
      },
      "transferFunctionalOwnership(address)": {
        "details": "Allows the current functionalOwner to set the pendingOwner address.",
        "params": {
          "newFunctionalOwner": "The address to transfer functionalOwnership to."
        }
      },
      "transferMigrationOwnership(address)": {
        "details": "Allows the current migrationOwner to set the pendingOwner address.",
        "params": {
          "newMigrationOwner": "The address to transfer migrationOwnership to."
        }
      }
    }
  },
  "userdoc": {
    "methods": {}
  }
}