{
  "contractName": "Protocol",
  "abi": [
    {
      "anonymous": false,
      "inputs": [
        {
          "indexed": false,
          "internalType": "address",
          "name": "addr",
          "type": "address"
        }
      ],
      "name": "ContractRegistryAddressUpdated",
      "type": "event"
    },
    {
      "anonymous": false,
      "inputs": [
        {
          "indexed": true,
          "internalType": "address",
          "name": "previousFunctionalOwner",
          "type": "address"
        },
        {
          "indexed": true,
          "internalType": "address",
          "name": "newFunctionalOwner",
          "type": "address"
        }
      ],
      "name": "FunctionalOwnershipTransferred",
      "type": "event"
    },
    {
      "anonymous": false,
      "inputs": [],
      "name": "Locked",
      "type": "event"
    },
    {
      "anonymous": false,
      "inputs": [
        {
          "indexed": true,
          "internalType": "address",
          "name": "previousMigrationOwner",
          "type": "address"
        },
        {
          "indexed": true,
          "internalType": "address",
          "name": "newMigrationOwner",
          "type": "address"
        }
      ],
      "name": "MigrationOwnershipTransferred",
      "type": "event"
    },
    {
      "anonymous": false,
      "inputs": [
        {
          "indexed": false,
          "internalType": "string",
          "name": "deploymentSubset",
          "type": "string"
        },
        {
          "indexed": false,
          "internalType": "uint256",
          "name": "currentVersion",
          "type": "uint256"
        },
        {
          "indexed": false,
          "internalType": "uint256",
          "name": "nextVersion",
          "type": "uint256"
        },
        {
          "indexed": false,
          "internalType": "uint256",
          "name": "fromTimestamp",
          "type": "uint256"
        }
      ],
      "name": "ProtocolVersionChanged",
      "type": "event"
    },
    {
      "anonymous": false,
      "inputs": [],
      "name": "Unlocked",
      "type": "event"
    },
    {
      "constant": false,
      "inputs": [],
      "name": "claimFunctionalOwnership",
      "outputs": [],
      "payable": false,
      "stateMutability": "nonpayable",
      "type": "function"
    },
    {
      "constant": false,
      "inputs": [],
      "name": "claimMigrationOwnership",
      "outputs": [],
      "payable": false,
      "stateMutability": "nonpayable",
      "type": "function"
    },
    {
      "constant": true,
      "inputs": [],
      "name": "functionalOwner",
      "outputs": [
        {
          "internalType": "address",
          "name": "",
          "type": "address"
        }
      ],
      "payable": false,
      "stateMutability": "view",
      "type": "function"
    },
    {
      "constant": true,
      "inputs": [],
      "name": "getBootstrapRewardsWallet",
      "outputs": [
        {
          "internalType": "contract IProtocolWallet",
          "name": "",
          "type": "address"
        }
      ],
      "payable": false,
      "stateMutability": "view",
      "type": "function"
    },
    {
      "constant": true,
      "inputs": [],
      "name": "getCertificationContract",
      "outputs": [
        {
          "internalType": "contract ICertification",
          "name": "",
          "type": "address"
        }
      ],
      "payable": false,
      "stateMutability": "view",
      "type": "function"
    },
    {
      "constant": true,
      "inputs": [],
      "name": "getCommitteeContract",
      "outputs": [
        {
          "internalType": "contract ICommittee",
          "name": "",
          "type": "address"
        }
      ],
      "payable": false,
      "stateMutability": "view",
      "type": "function"
    },
    {
      "constant": true,
      "inputs": [],
      "name": "getDelegationsContract",
      "outputs": [
        {
          "internalType": "contract IDelegations",
          "name": "",
          "type": "address"
        }
      ],
      "payable": false,
      "stateMutability": "view",
      "type": "function"
    },
    {
      "constant": true,
      "inputs": [],
      "name": "getElectionsContract",
      "outputs": [
        {
          "internalType": "contract IElections",
          "name": "",
          "type": "address"
        }
      ],
      "payable": false,
      "stateMutability": "view",
      "type": "function"
    },
    {
      "constant": true,
      "inputs": [],
      "name": "getGuardiansRegistrationContract",
      "outputs": [
        {
          "internalType": "contract IGuardiansRegistration",
          "name": "",
          "type": "address"
        }
      ],
      "payable": false,
      "stateMutability": "view",
      "type": "function"
    },
    {
      "constant": true,
      "inputs": [],
      "name": "getProtocolContract",
      "outputs": [
        {
          "internalType": "contract IProtocol",
          "name": "",
          "type": "address"
        }
      ],
      "payable": false,
      "stateMutability": "view",
      "type": "function"
    },
    {
      "constant": true,
      "inputs": [],
      "name": "getRewardsContract",
      "outputs": [
        {
          "internalType": "contract IRewards",
          "name": "",
          "type": "address"
        }
      ],
      "payable": false,
      "stateMutability": "view",
      "type": "function"
    },
    {
      "constant": true,
      "inputs": [],
      "name": "getStakingContract",
      "outputs": [
        {
          "internalType": "contract IStakingContract",
          "name": "",
          "type": "address"
        }
      ],
      "payable": false,
      "stateMutability": "view",
      "type": "function"
    },
    {
      "constant": true,
      "inputs": [],
      "name": "getStakingRewardsWallet",
      "outputs": [
        {
          "internalType": "contract IProtocolWallet",
          "name": "",
          "type": "address"
        }
      ],
      "payable": false,
      "stateMutability": "view",
      "type": "function"
    },
    {
      "constant": true,
      "inputs": [],
      "name": "getSubscriptionsContract",
      "outputs": [
        {
          "internalType": "contract ISubscriptions",
          "name": "",
          "type": "address"
        }
      ],
      "payable": false,
      "stateMutability": "view",
      "type": "function"
    },
    {
      "constant": true,
      "inputs": [],
      "name": "isFunctionalOwner",
      "outputs": [
        {
          "internalType": "bool",
          "name": "",
          "type": "bool"
        }
      ],
      "payable": false,
      "stateMutability": "view",
      "type": "function"
    },
    {
      "constant": true,
      "inputs": [],
      "name": "isMigrationOwner",
      "outputs": [
        {
          "internalType": "bool",
          "name": "",
          "type": "bool"
        }
      ],
      "payable": false,
      "stateMutability": "view",
      "type": "function"
    },
    {
      "constant": false,
      "inputs": [],
      "name": "lock",
      "outputs": [],
      "payable": false,
      "stateMutability": "nonpayable",
      "type": "function"
    },
    {
      "constant": true,
      "inputs": [],
      "name": "locked",
      "outputs": [
        {
          "internalType": "bool",
          "name": "",
          "type": "bool"
        }
      ],
      "payable": false,
      "stateMutability": "view",
      "type": "function"
    },
    {
      "constant": true,
      "inputs": [],
      "name": "migrationOwner",
      "outputs": [
        {
          "internalType": "address",
          "name": "",
          "type": "address"
        }
      ],
      "payable": false,
      "stateMutability": "view",
      "type": "function"
    },
    {
      "constant": false,
      "inputs": [],
      "name": "renounceFunctionalOwnership",
      "outputs": [],
      "payable": false,
      "stateMutability": "nonpayable",
      "type": "function"
    },
    {
      "constant": false,
      "inputs": [],
      "name": "renounceMigrationOwnership",
      "outputs": [],
      "payable": false,
      "stateMutability": "nonpayable",
      "type": "function"
    },
    {
      "constant": false,
      "inputs": [
        {
          "internalType": "contract IContractRegistry",
          "name": "_contractRegistry",
          "type": "address"
        }
      ],
      "name": "setContractRegistry",
      "outputs": [],
      "payable": false,
      "stateMutability": "nonpayable",
      "type": "function"
    },
    {
      "constant": false,
      "inputs": [
        {
          "internalType": "address",
          "name": "newFunctionalOwner",
          "type": "address"
        }
      ],
      "name": "transferFunctionalOwnership",
      "outputs": [],
      "payable": false,
      "stateMutability": "nonpayable",
      "type": "function"
    },
    {
      "constant": false,
      "inputs": [
        {
          "internalType": "address",
          "name": "newMigrationOwner",
          "type": "address"
        }
      ],
      "name": "transferMigrationOwnership",
      "outputs": [],
      "payable": false,
      "stateMutability": "nonpayable",
      "type": "function"
    },
    {
      "constant": false,
      "inputs": [],
      "name": "unlock",
      "outputs": [],
      "payable": false,
      "stateMutability": "nonpayable",
      "type": "function"
    },
    {
      "constant": true,
      "inputs": [
        {
          "internalType": "string",
          "name": "deploymentSubset",
          "type": "string"
        }
      ],
      "name": "deploymentSubsetExists",
      "outputs": [
        {
          "internalType": "bool",
          "name": "",
          "type": "bool"
        }
      ],
      "payable": false,
      "stateMutability": "view",
      "type": "function"
    },
    {
      "constant": true,
      "inputs": [
        {
          "internalType": "string",
          "name": "deploymentSubset",
          "type": "string"
        }
      ],
      "name": "getProtocolVersion",
      "outputs": [
        {
          "internalType": "uint256",
          "name": "currentVersion",
          "type": "uint256"
        }
      ],
      "payable": false,
      "stateMutability": "view",
      "type": "function"
    },
    {
      "constant": false,
      "inputs": [
        {
          "internalType": "string",
          "name": "deploymentSubset",
          "type": "string"
        },
        {
          "internalType": "uint256",
          "name": "initialProtocolVersion",
          "type": "uint256"
        }
      ],
      "name": "createDeploymentSubset",
      "outputs": [],
      "payable": false,
      "stateMutability": "nonpayable",
      "type": "function"
    },
    {
      "constant": false,
      "inputs": [
        {
          "internalType": "string",
          "name": "deploymentSubset",
          "type": "string"
        },
        {
          "internalType": "uint256",
          "name": "nextVersion",
          "type": "uint256"
        },
        {
          "internalType": "uint256",
          "name": "fromTimestamp",
          "type": "uint256"
        }
      ],
      "name": "setProtocolVersion",
      "outputs": [],
      "payable": false,
      "stateMutability": "nonpayable",
      "type": "function"
    }
  ],
  "bytecode": "0x608060405260006100176001600160e01b036100c716565b600080546001600160a01b0319166001600160a01b0383169081178255604051929350917f7e8c4fc74f50849b4ec635ed03f5d13f87cd46ae422e97479704c6fd1c164e20908290a35060006100746001600160e01b036100c716565b600380546001600160a01b0319166001600160a01b038316908117909155604051919250906000907f322ef0cb3bcc6b6f659770a0acaf7473e9bc6ebe63e04e4f28924c285c8cc5ea908290a3506100cb565b3390565b611899806100da6000396000f3fe608060405234801561001057600080fd5b50600436106101cf5760003560e01c80639b9a7e6811610104578063bed1807d116100a2578063ddc0d5d611610071578063ddc0d5d6146104ba578063ec5e178c146104c2578063f83d08ba146104ca578063fcd13d65146104d2576101cf565b8063bed1807d146103bc578063c0fc0a44146103c4578063cd49d82014610432578063cf309012146104b2576101cf565b8063a69df4b5116100de578063a69df4b51461039c578063ab6acfc4146103a4578063ad751ed3146103ac578063b5f1c29d146103b4576101cf565b80639b9a7e68146103485780639f587d1c1461036e578063a09e0d9014610394576101cf565b80635282346d1161017157806382adb1dd1161014b57806382adb1dd146102565780638b8c3105146102ca5780638e68dce414610338578063977d4e5a14610340576101cf565b80635282346d1461023e5780636cdb6746146102465780637b93af4c1461024e576101cf565b8063209df1e2116101ad578063209df1e21461021e5780632c43bdd5146102265780633a88ab8e1461022e5780633b78130914610236576101cf565b8063021abb93146101d457806311caadfb146101f05780631dc669f414610214575b600080fd5b6101dc6104f8565b604080519115158252519081900360200190f35b6101f861051c565b604080516001600160a01b039092168252519081900360200190f35b61021c6105b0565b005b61021c610620565b6101f86106ad565b6101dc6106bc565b61021c6106d3565b6101f8610760565b6101f86107c5565b61021c610833565b61021c6004803603606081101561026c57600080fd5b810190602081018135600160201b81111561028657600080fd5b82018360208201111561029857600080fd5b803590602001918460018302840111600160201b831117156102b957600080fd5b9193509150803590602001356108a3565b6101dc600480360360208110156102e057600080fd5b810190602081018135600160201b8111156102fa57600080fd5b82018360208201111561030c57600080fd5b803590602001918460018302840111600160201b8311171561032d57600080fd5b509092509050610b81565b6101f8610bb5565b6101f8610c16565b61021c6004803603602081101561035e57600080fd5b50356001600160a01b0316610c7d565b61021c6004803603602081101561038457600080fd5b50356001600160a01b0316610ce2565b6101f8610d47565b61021c610dae565b6101f8610e29565b6101f8610e8c565b6101f8610eed565b6101f8610f4f565b61021c600480360360408110156103da57600080fd5b810190602081018135600160201b8111156103f457600080fd5b82018360208201111561040657600080fd5b803590602001918460018302840111600160201b8311171561042757600080fd5b919350915035610f5e565b6104a06004803603602081101561044857600080fd5b810190602081018135600160201b81111561046257600080fd5b82018360208201111561047457600080fd5b803590602001918460018302840111600160201b8311171561049557600080fd5b5090925090506111a9565b60408051918252519081900360200190f35b6101dc6111f2565b6101f8611202565b6101f8611271565b61021c6112e1565b61021c600480360360208110156104e857600080fd5b50356001600160a01b0316611362565b600080546001600160a01b031661050d6113f9565b6001600160a01b031614905090565b6002546040805163349f642f60e11b81526020600482018190526009602483015268656c656374696f6e7360b81b604483015291516000936001600160a01b03169263693ec85e9260648082019391829003018186803b15801561057f57600080fd5b505afa158015610593573d6000803e3d6000fd5b505050506040513d60208110156105a957600080fd5b5051905090565b6004546001600160a01b031633146105f95760405162461bcd60e51b815260040180806020018281038252602981526020018061183c6029913960400191505060405180910390fd5b60045461060e906001600160a01b03166113fd565b600480546001600160a01b0319169055565b6106286104f8565b6106635760405162461bcd60e51b81526004018080602001828103825260418152602001806116b06041913960600191505060405180910390fd5b600080546040516001600160a01b03909116907f7e8c4fc74f50849b4ec635ed03f5d13f87cd46ae422e97479704c6fd1c164e20908390a3600080546001600160a01b0319169055565b6000546001600160a01b031690565b6003546000906001600160a01b031661050d6113f9565b6106db6106bc565b6107165760405162461bcd60e51b81526004018080602001828103825260438152602001806117876043913960600191505060405180910390fd5b6003546040516000916001600160a01b0316907f322ef0cb3bcc6b6f659770a0acaf7473e9bc6ebe63e04e4f28924c285c8cc5ea908390a3600380546001600160a01b0319169055565b6002546040805163349f642f60e11b8152602060048201819052600b60248301526a64656c65676174696f6e7360a81b604483015291516000936001600160a01b03169263693ec85e9260648082019391829003018186803b15801561057f57600080fd5b6002546040805163349f642f60e11b815260206004820181905260146024830152731cdd185ada5b99d4995dd85c991cd5d85b1b195d60621b604483015291516000936001600160a01b03169263693ec85e9260648082019391829003018186803b15801561057f57600080fd5b6001546001600160a01b0316331461087c5760405162461bcd60e51b815260040180806020018281038252602881526020018061175f6028913960400191505060405180910390fd5b600154610891906001600160a01b031661149e565b600180546001600160a01b0319169055565b6108ab6106bc565b6108e65760405162461bcd60e51b81526004018080602001828103825260438152602001806117876043913960600191505060405180910390fd5b600454600160a01b900460ff161561092f5760405162461bcd60e51b815260040180806020018281038252602581526020018061168b6025913960400191505060405180910390fd5b6005848460405180838380828437919091019485525050604051928390036020019092205460ff1691506109ac9050576040805162461bcd60e51b815260206004820181905260248201527f6465706c6f796d656e742073756273657420646f6573206e6f74206578697374604482015290519081900360640190fd5b4281116109ea5760405162461bcd60e51b81526004018080602001828103825260368152602001806117296036913960400191505060405180910390fd5b600080610a2c86868080601f01602080910402602001604051908101604052809392919081815260200183838082843760009201919091525061153e92505050565b9150915080841015610a6f5760405162461bcd60e51b815260040180806020018281038252603c8152602001806117ca603c913960400191505060405180910390fd5b8360058787604051808383808284378083019250505092505050908152602001604051809103902060010181905550826005878760405180838380828437919091019485525050604051928390036020019092206002019290925550508115610b0157806005878760405180838380828437919091019485525050604051928390036020019092206003019290925550505b7fd989ffe5815849fa84ed41919c9af79a11dae1c578497019ec2b7ba86857aad1868683878760405180806020018581526020018481526020018381526020018281038252878782818152602001925080828437600083820152604051601f909101601f19169092018290039850909650505050505050a1505050505050565b60006005838360405180838380828437919091019485525050604051928390036020019092205460ff169250505092915050565b6002546040805163349f642f60e11b815260206004820181905260076024830152667374616b696e6760c81b604483015291516000936001600160a01b03169263693ec85e9260648082019391829003018186803b15801561057f57600080fd5b6002546040805163349f642f60e11b8152602060048201819052600d60248301526c737562736372697074696f6e7360981b604483015291516000936001600160a01b03169263693ec85e9260648082019391829003018186803b15801561057f57600080fd5b610c856106bc565b610cc05760405162461bcd60e51b81526004018080602001828103825260438152602001806117876043913960600191505060405180910390fd5b600480546001600160a01b0319166001600160a01b0392909216919091179055565b610cea6104f8565b610d255760405162461bcd60e51b81526004018080602001828103825260418152602001806116b06041913960600191505060405180910390fd5b600180546001600160a01b0319166001600160a01b0392909216919091179055565b6002546040805163349f642f60e11b8152602060048201819052600d60248301526c31b2b93a34b334b1b0ba34b7b760991b604483015291516000936001600160a01b03169263693ec85e9260648082019391829003018186803b15801561057f57600080fd5b610db66104f8565b610df15760405162461bcd60e51b81526004018080602001828103825260418152602001806116b06041913960600191505060405180910390fd5b6004805460ff60a01b191690556040517f19aad37188a1d3921e29eb3c66acf43d81975e107cb650d58cca878627955fd690600090a1565b6002546040805163349f642f60e11b81526020600482018190526009602483015268636f6d6d697474656560b81b604483015291516000936001600160a01b03169263693ec85e9260648082019391829003018186803b15801561057f57600080fd5b6002546040805163349f642f60e11b815260206004820181905260076024830152667265776172647360c81b604483015291516000936001600160a01b03169263693ec85e9260648082019391829003018186803b15801561057f57600080fd5b6002546040805163349f642f60e11b815260206004820181905260086024830152671c1c9bdd1bd8dbdb60c21b604483015291516000936001600160a01b03169263693ec85e9260648082019391829003018186803b15801561057f57600080fd5b6003546001600160a01b031690565b610f666106bc565b610fa15760405162461bcd60e51b81526004018080602001828103825260438152602001806117876043913960600191505060405180910390fd5b600454600160a01b900460ff1615610fea5760405162461bcd60e51b815260040180806020018281038252602581526020018061168b6025913960400191505060405180910390fd5b6005838360405180838380828437919091019485525050604051928390036020019092205460ff161591506110689050576040805162461bcd60e51b815260206004820181905260248201527f6465706c6f796d656e742073756273657420616c726561647920657869737473604482015290519081900360640190fd5b806005848460405180838380828437808301925050509250505090815260200160405180910390206003018190555080600584846040518083838082843780830192505050925050509081526020016040518091039020600101819055504260058484604051808383808284378083019250505092505050908152602001604051809103902060020181905550600160058484604051808383808284379190910194855250506040805160209481900385018120805460ff191696151596909617909555928401859052505081018290524260608201819052608080835282018490527fd989ffe5815849fa84ed41919c9af79a11dae1c578497019ec2b7ba86857aad19185918591859182918060a08101878780828437600083820152604051601f909101601f19169092018290039850909650505050505050a1505050565b60006111ea83838080601f01602080910402602001604051908101604052809392919081815260200183838082843760009201919091525061153e92505050565b949350505050565b600454600160a01b900460ff1681565b6002546040805163349f642f60e11b8152602060048201819052601560248301527433bab0b93234b0b739a932b3b4b9ba3930ba34b7b760591b604483015291516000936001600160a01b03169263693ec85e9260648082019391829003018186803b15801561057f57600080fd5b6002546040805163349f642f60e11b81526020600482018190526016602483015275189bdbdd1cdd1c985c14995dd85c991cd5d85b1b195d60521b604483015291516000936001600160a01b03169263693ec85e9260648082019391829003018186803b15801561057f57600080fd5b6112e96104f8565b6113245760405162461bcd60e51b81526004018080602001828103825260418152602001806116b06041913960600191505060405180910390fd5b6004805460ff60a01b1916600160a01b1790556040517f0f2e5b6c72c6a4491efd919a9f9a409f324ef0708c11ee57d410c2cb06c0992b90600090a1565b61136a6104f8565b6113a55760405162461bcd60e51b81526004018080602001828103825260418152602001806116b06041913960600191505060405180910390fd5b600280546001600160a01b0383166001600160a01b0319909116811790915560408051918252517ffea2d033438b968078a6264409d0104b5f3d2ce7b795afc74918e70f3534f22b9181900360200190a150565b3390565b6001600160a01b0381166114425760405162461bcd60e51b81526004018080602001828103825260388152602001806116f16038913960400191505060405180910390fd5b6003546040516001600160a01b038084169216907f322ef0cb3bcc6b6f659770a0acaf7473e9bc6ebe63e04e4f28924c285c8cc5ea90600090a3600380546001600160a01b0319166001600160a01b0392909216919091179055565b6001600160a01b0381166114e35760405162461bcd60e51b81526004018080602001828103825260368152602001806118066036913960400191505060405180910390fd5b600080546040516001600160a01b03808516939216917f7e8c4fc74f50849b4ec635ed03f5d13f87cd46ae422e97479704c6fd1c164e2091a3600080546001600160a01b0319166001600160a01b0392909216919091179055565b600080426005846040518082805190602001908083835b602083106115745780518252601f199092019160209182019101611555565b6001836020036101000a038019825116818451168082178552505050505050905001915050908152602001604051809103902060020154111591508161161e576005836040518082805190602001908083835b602083106115e65780518252601f1990920191602091820191016115c7565b51815160209384036101000a600019018019909216911617905292019485525060405193849003019092206003015491506116839050565b6005836040518082805190602001908083835b602083106116505780518252601f199092019160209182019101611631565b51815160209384036101000a60001901801990921691161790529201948552506040519384900301909220600101549150505b905091509156fe636f6e7472616374206973206c6f636b656420666f722074686973206f7065726174696f6e57697468436c61696d61626c654d6967726174696f6e4f776e6572736869703a2063616c6c6572206973206e6f7420746865206d6967726174696f6e4f776e657246756e6374696f6e616c4f776e65723a206e65772066756e6374696f6e616c4f776e657220697320746865207a65726f2061646472657373612070726f746f636f6c207570646174652063616e206f6e6c79206265207363686564756c656420666f72207468652066757475726543616c6c6572206973206e6f74207468652070656e64696e67206d6967726174696f6e4f776e657257697468436c61696d61626c6546756e6374696f6e616c4f776e6572736869703a2063616c6c6572206973206e6f74207468652066756e6374696f6e616c4f776e657270726f746f636f6c2076657273696f6e206d7573742062652067726561746572206f7220657175616c20746f2063757272656e742076657273696f6e4d6967726174696f6e4f776e65723a206e6577206d6967726174696f6e4f776e657220697320746865207a65726f206164647265737343616c6c6572206973206e6f74207468652070656e64696e672066756e6374696f6e616c4f776e6572a265627a7a72315820b73090b4e0be07a517250142ee041ed94ced5a71d7f4105885e8687b4597147164736f6c63430005100032",
  "source": "pragma solidity 0.5.16;\n\nimport \"./spec_interfaces/IProtocol.sol\";\nimport \"./WithClaimableFunctionalOwnership.sol\";\nimport \"./WithClaimableMigrationOwnership.sol\";\nimport \"./ContractRegistryAccessor.sol\";\n\ncontract Protocol is IProtocol, ContractRegistryAccessor, WithClaimableFunctionalOwnership, Lockable {\n\n    struct DeploymentSubset {\n        bool exists;\n        uint256 nextVersion;\n        uint fromTimestamp;\n        uint256 currentVersion;\n    }\n\n    mapping (string => DeploymentSubset) deploymentSubsets;\n\n    function deploymentSubsetExists(string calldata deploymentSubset) external view returns (bool) {\n        return deploymentSubsets[deploymentSubset].exists;\n    }\n\n    function getProtocolVersion(string calldata deploymentSubset) external view returns (uint256 currentVersion) {\n        (, currentVersion) = checkPrevUpgrades(deploymentSubset);\n    }\n\n    function createDeploymentSubset(string calldata deploymentSubset, uint256 initialProtocolVersion) external onlyFunctionalOwner onlyWhenActive {\n        require(!deploymentSubsets[deploymentSubset].exists, \"deployment subset already exists\");\n\n        deploymentSubsets[deploymentSubset].currentVersion = initialProtocolVersion;\n        deploymentSubsets[deploymentSubset].nextVersion = initialProtocolVersion;\n        deploymentSubsets[deploymentSubset].fromTimestamp = now;\n        deploymentSubsets[deploymentSubset].exists = true;\n\n        emit ProtocolVersionChanged(deploymentSubset, initialProtocolVersion, initialProtocolVersion, now); // TODO different event?\n    }\n\n    function setProtocolVersion(string calldata deploymentSubset, uint256 nextVersion, uint256 fromTimestamp) external onlyFunctionalOwner onlyWhenActive {\n        require(deploymentSubsets[deploymentSubset].exists, \"deployment subset does not exist\");\n        require(fromTimestamp > now, \"a protocol update can only be scheduled for the future\");\n\n        (bool prevUpgradeExecuted, uint256 currentVersion) = checkPrevUpgrades(deploymentSubset);\n\n        require(nextVersion >= currentVersion, \"protocol version must be greater or equal to current version\");\n\n        deploymentSubsets[deploymentSubset].nextVersion = nextVersion;\n        deploymentSubsets[deploymentSubset].fromTimestamp = fromTimestamp;\n        if (prevUpgradeExecuted) {\n            deploymentSubsets[deploymentSubset].currentVersion = currentVersion;\n        }\n\n        emit ProtocolVersionChanged(deploymentSubset, currentVersion, nextVersion, fromTimestamp);\n    }\n\n    function checkPrevUpgrades(string memory deploymentSubset) private view returns (bool prevUpgradeExecuted, uint256 currentVersion) {\n        prevUpgradeExecuted = deploymentSubsets[deploymentSubset].fromTimestamp <= now;\n        currentVersion = prevUpgradeExecuted ? deploymentSubsets[deploymentSubset].nextVersion :\n                                               deploymentSubsets[deploymentSubset].currentVersion;\n    }\n}\n",
  "sourcePath": "/Users/aviramstern/GolandProjects/orbs-ethereum-contracts-v2/contracts/Protocol.sol",
  "compiler": {
    "name": "solc",
    "version": "0.5.16+commit.9c3226ce.Emscripten.clang"
  },
  "schemaVersion": "3.0.23",
  "updatedAt": "2020-08-06T21:58:43.775Z",
  "devdoc": {
    "methods": {
      "claimFunctionalOwnership()": {
        "details": "Allows the pendingFunctionalOwner address to finalize the transfer."
      },
      "claimMigrationOwnership()": {
        "details": "Allows the pendingMigrationOwner address to finalize the transfer."
      },
      "functionalOwner()": {
        "details": "Returns the address of the current functionalOwner."
      },
      "isFunctionalOwner()": {
        "details": "Returns true if the caller is the current functionalOwner."
      },
      "isMigrationOwner()": {
        "details": "Returns true if the caller is the current migrationOwner."
      },
      "migrationOwner()": {
        "details": "Returns the address of the current migrationOwner."
      },
      "renounceFunctionalOwnership()": {
        "details": "Leaves the contract without functionalOwner. It will not be possible to call `onlyOwner` functions anymore. Can only be called by the current functionalOwner.     * NOTE: Renouncing functionalOwnership will leave the contract without an functionalOwner, thereby removing any functionality that is only available to the functionalOwner."
      },
      "renounceMigrationOwnership()": {
        "details": "Leaves the contract without migrationOwner. It will not be possible to call `onlyOwner` functions anymore. Can only be called by the current migrationOwner.     * NOTE: Renouncing migrationOwnership will leave the contract without an migrationOwner, thereby removing any functionality that is only available to the migrationOwner."
      },
      "transferFunctionalOwnership(address)": {
        "details": "Allows the current functionalOwner to set the pendingOwner address.",
        "params": {
          "newFunctionalOwner": "The address to transfer functionalOwnership to."
        }
      },
      "transferMigrationOwnership(address)": {
        "details": "Allows the current migrationOwner to set the pendingOwner address.",
        "params": {
          "newMigrationOwner": "The address to transfer migrationOwnership to."
        }
      }
    }
  },
  "userdoc": {
    "methods": {}
  }
}