{
  "contractName": "ProtocolWallet",
  "abi": [
    {
      "inputs": [
        {
          "internalType": "contract IERC20",
          "name": "_token",
          "type": "address"
        },
        {
          "internalType": "address",
          "name": "_client",
          "type": "address"
        }
      ],
      "payable": false,
      "stateMutability": "nonpayable",
      "type": "constructor"
    },
    {
      "anonymous": false,
      "inputs": [
        {
          "indexed": false,
          "internalType": "address",
          "name": "client",
          "type": "address"
        }
      ],
      "name": "ClientSet",
      "type": "event"
    },
    {
      "anonymous": false,
      "inputs": [
        {
          "indexed": false,
          "internalType": "address",
          "name": "addr",
          "type": "address"
        }
      ],
      "name": "EmergencyWithdrawal",
      "type": "event"
    },
    {
      "anonymous": false,
      "inputs": [
        {
          "indexed": true,
          "internalType": "address",
          "name": "previousFunctionalOwner",
          "type": "address"
        },
        {
          "indexed": true,
          "internalType": "address",
          "name": "newFunctionalOwner",
          "type": "address"
        }
      ],
      "name": "FunctionalOwnershipTransferred",
      "type": "event"
    },
    {
      "anonymous": false,
      "inputs": [
        {
          "indexed": false,
          "internalType": "uint256",
          "name": "added",
          "type": "uint256"
        },
        {
          "indexed": false,
          "internalType": "uint256",
          "name": "total",
          "type": "uint256"
        }
      ],
      "name": "FundsAddedToPool",
      "type": "event"
    },
    {
      "anonymous": false,
      "inputs": [
        {
          "indexed": false,
          "internalType": "uint256",
          "name": "maxAnnualRate",
          "type": "uint256"
        }
      ],
      "name": "MaxAnnualRateSet",
      "type": "event"
    },
    {
      "anonymous": false,
      "inputs": [
        {
          "indexed": true,
          "internalType": "address",
          "name": "previousMigrationOwner",
          "type": "address"
        },
        {
          "indexed": true,
          "internalType": "address",
          "name": "newMigrationOwner",
          "type": "address"
        }
      ],
      "name": "MigrationOwnershipTransferred",
      "type": "event"
    },
    {
      "constant": false,
      "inputs": [],
      "name": "claimFunctionalOwnership",
      "outputs": [],
      "payable": false,
      "stateMutability": "nonpayable",
      "type": "function"
    },
    {
      "constant": false,
      "inputs": [],
      "name": "claimMigrationOwnership",
      "outputs": [],
      "payable": false,
      "stateMutability": "nonpayable",
      "type": "function"
    },
    {
      "constant": true,
      "inputs": [],
      "name": "client",
      "outputs": [
        {
          "internalType": "address",
          "name": "",
          "type": "address"
        }
      ],
      "payable": false,
      "stateMutability": "view",
      "type": "function"
    },
    {
      "constant": true,
      "inputs": [],
      "name": "functionalOwner",
      "outputs": [
        {
          "internalType": "address",
          "name": "",
          "type": "address"
        }
      ],
      "payable": false,
      "stateMutability": "view",
      "type": "function"
    },
    {
      "constant": true,
      "inputs": [],
      "name": "isFunctionalOwner",
      "outputs": [
        {
          "internalType": "bool",
          "name": "",
          "type": "bool"
        }
      ],
      "payable": false,
      "stateMutability": "view",
      "type": "function"
    },
    {
      "constant": true,
      "inputs": [],
      "name": "isMigrationOwner",
      "outputs": [
        {
          "internalType": "bool",
          "name": "",
          "type": "bool"
        }
      ],
      "payable": false,
      "stateMutability": "view",
      "type": "function"
    },
    {
      "constant": true,
      "inputs": [],
      "name": "migrationOwner",
      "outputs": [
        {
          "internalType": "address",
          "name": "",
          "type": "address"
        }
      ],
      "payable": false,
      "stateMutability": "view",
      "type": "function"
    },
    {
      "constant": false,
      "inputs": [],
      "name": "renounceFunctionalOwnership",
      "outputs": [],
      "payable": false,
      "stateMutability": "nonpayable",
      "type": "function"
    },
    {
      "constant": false,
      "inputs": [],
      "name": "renounceMigrationOwnership",
      "outputs": [],
      "payable": false,
      "stateMutability": "nonpayable",
      "type": "function"
    },
    {
      "constant": true,
      "inputs": [],
      "name": "token",
      "outputs": [
        {
          "internalType": "contract IERC20",
          "name": "",
          "type": "address"
        }
      ],
      "payable": false,
      "stateMutability": "view",
      "type": "function"
    },
    {
      "constant": false,
      "inputs": [
        {
          "internalType": "address",
          "name": "newFunctionalOwner",
          "type": "address"
        }
      ],
      "name": "transferFunctionalOwnership",
      "outputs": [],
      "payable": false,
      "stateMutability": "nonpayable",
      "type": "function"
    },
    {
      "constant": false,
      "inputs": [
        {
          "internalType": "address",
          "name": "newMigrationOwner",
          "type": "address"
        }
      ],
      "name": "transferMigrationOwnership",
      "outputs": [],
      "payable": false,
      "stateMutability": "nonpayable",
      "type": "function"
    },
    {
      "constant": true,
      "inputs": [],
      "name": "getToken",
      "outputs": [
        {
          "internalType": "contract IERC20",
          "name": "",
          "type": "address"
        }
      ],
      "payable": false,
      "stateMutability": "view",
      "type": "function"
    },
    {
      "constant": true,
      "inputs": [],
      "name": "getBalance",
      "outputs": [
        {
          "internalType": "uint256",
          "name": "balance",
          "type": "uint256"
        }
      ],
      "payable": false,
      "stateMutability": "view",
      "type": "function"
    },
    {
      "constant": false,
      "inputs": [
        {
          "internalType": "uint256",
          "name": "amount",
          "type": "uint256"
        }
      ],
      "name": "topUp",
      "outputs": [],
      "payable": false,
      "stateMutability": "nonpayable",
      "type": "function"
    },
    {
      "constant": false,
      "inputs": [
        {
          "internalType": "uint256",
          "name": "amount",
          "type": "uint256"
        }
      ],
      "name": "withdraw",
      "outputs": [],
      "payable": false,
      "stateMutability": "nonpayable",
      "type": "function"
    },
    {
      "constant": false,
      "inputs": [
        {
          "internalType": "uint256",
          "name": "_annualRate",
          "type": "uint256"
        }
      ],
      "name": "setMaxAnnualRate",
      "outputs": [],
      "payable": false,
      "stateMutability": "nonpayable",
      "type": "function"
    },
    {
      "constant": false,
      "inputs": [],
      "name": "emergencyWithdraw",
      "outputs": [],
      "payable": false,
      "stateMutability": "nonpayable",
      "type": "function"
    },
    {
      "constant": false,
      "inputs": [
        {
          "internalType": "address",
          "name": "_client",
          "type": "address"
        }
      ],
      "name": "setClient",
      "outputs": [],
      "payable": false,
      "stateMutability": "nonpayable",
      "type": "function"
    }
  ],
  "bytecode": "0x608060405234801561001057600080fd5b506040516111a13803806111a18339818101604052604081101561003357600080fd5b508051602090910151600061004f6001600160e01b0361012f16565b600080546001600160a01b0319166001600160a01b0383169081178255604051929350917f7e8c4fc74f50849b4ec635ed03f5d13f87cd46ae422e97479704c6fd1c164e20908290a35060006100ac6001600160e01b0361012f16565b600280546001600160a01b0319166001600160a01b038316908117909155604051919250906000907f322ef0cb3bcc6b6f659770a0acaf7473e9bc6ebe63e04e4f28924c285c8cc5ea908290a350600480546001600160a01b039384166001600160a01b0319918216179091556005805492909316911617905542600655610133565b3390565b61105f806101426000396000f3fe608060405234801561001057600080fd5b50600436106101215760003560e01c80633b781309116100ad5780639b9a7e68116100715780639b9a7e68146102375780639f587d1c1461025d578063bed1807d14610283578063db2e21bc1461028b578063fc0c546a1461029357610121565b80633b781309146101c7578063494b6490146101cf57806350017f3e146101ec5780637b93af4c146102095780638526690a1461021157610121565b8063209df1e2116100f4578063209df1e21461018a57806321df0da7146101925780632c43bdd51461019a5780632e1a7d4d146101a25780633a88ab8e146101bf57610121565b8063021abb9314610126578063109e94cf1461014257806312065fe0146101665780631dc669f414610180575b600080fd5b61012e61029b565b604080519115158252519081900360200190f35b61014a6102bf565b604080516001600160a01b039092168252519081900360200190f35b61016e6102ce565b60408051918252519081900360200190f35b61018861034e565b005b6101886103be565b61014a61044b565b61014a61045a565b610188600480360360208110156101b857600080fd5b5035610469565b61012e610608565b61018861061f565b610188600480360360208110156101e557600080fd5b50356106ac565b6101886004803603602081101561020257600080fd5b503561072a565b610188610831565b6101886004803603602081101561022757600080fd5b50356001600160a01b03166108a1565b6101886004803603602081101561024d57600080fd5b50356001600160a01b0316610938565b6101886004803603602081101561027357600080fd5b50356001600160a01b031661099d565b61014a610a02565b610188610a11565b61014a610b59565b600080546001600160a01b03166102b0610b68565b6001600160a01b031614905090565b6005546001600160a01b031681565b60048054604080516370a0823160e01b81523093810193909352516000926001600160a01b03909216916370a08231916024808301926020929190829003018186803b15801561031d57600080fd5b505afa158015610331573d6000803e3d6000fd5b505050506040513d602081101561034757600080fd5b5051905090565b6003546001600160a01b031633146103975760405162461bcd60e51b81526004018080602001828103825260298152602001806110026029913960400191505060405180910390fd5b6003546103ac906001600160a01b0316610b6c565b600380546001600160a01b0319169055565b6103c661029b565b6104015760405162461bcd60e51b8152600401808060200182810382526041815260200180610df46041913960600191505060405180910390fd5b600080546040516001600160a01b03909116907f7e8c4fc74f50849b4ec635ed03f5d13f87cd46ae422e97479704c6fd1c164e20908390a3600080546001600160a01b0319169055565b6004546001600160a01b031690565b6000546001600160a01b031690565b6005546001600160a01b031633146104c8576040805162461bcd60e51b815260206004820152601f60248201527f63616c6c6572206973206e6f74207468652077616c6c657420636c69656e7400604482015290519081900360640190fd5b60006006544203905060006104fc6301e133806104f060075485610c0d90919063ffffffff16565b9063ffffffff610c6f16565b90508083111561053d5760405162461bcd60e51b8152600401808060200182810382526048815260200180610e356048913960600191505060405180910390fd5b42600655821561060357600480546040805163a9059cbb60e01b8152339381019390935260248301869052516001600160a01b039091169163a9059cbb9160448083019260209291908290030181600087803b15801561059c57600080fd5b505af11580156105b0573d6000803e3d6000fd5b505050506040513d60208110156105c657600080fd5b50516106035760405162461bcd60e51b815260040180806020018281038252602a815260200180610eb5602a913960400191505060405180910390fd5b505050565b6002546000906001600160a01b03166102b0610b68565b610627610608565b6106625760405162461bcd60e51b8152600401808060200182810382526043815260200180610f5b6043913960600191505060405180910390fd5b6002546040516000916001600160a01b0316907f322ef0cb3bcc6b6f659770a0acaf7473e9bc6ebe63e04e4f28924c285c8cc5ea908390a3600280546001600160a01b0319169055565b6106b461029b565b6106ef5760405162461bcd60e51b8152600401808060200182810382526041815260200180610df46041913960600191505060405180910390fd5b60078190556040805182815290517fb71cb584498594b80065c5bfa449cc49e192ced206088012ef4ee2d1b0999b699181900360200190a150565b7fe2b757cdd8b279ca2f3316f88e8e3b959d9bad09f9369132a3475d3ef8a4f36681826107556102ce565b60408051938452910160208301528051918290030190a160048054604080516323b872dd60e01b8152339381019390935230602484015260448301849052516001600160a01b03909116916323b872dd9160648083019260209291908290030181600087803b1580156107c757600080fd5b505af11580156107db573d6000803e3d6000fd5b505050506040513d60208110156107f157600080fd5b505161082e5760405162461bcd60e51b815260040180806020018281038252602e815260200180610f9e602e913960400191505060405180910390fd5b50565b6001546001600160a01b0316331461087a5760405162461bcd60e51b8152600401808060200182810382526028815260200180610edf6028913960400191505060405180910390fd5b60015461088f906001600160a01b0316610cb1565b600180546001600160a01b0319169055565b6108a9610608565b6108e45760405162461bcd60e51b8152600401808060200182810382526043815260200180610f5b6043913960600191505060405180910390fd5b600580546001600160a01b0383166001600160a01b0319909116811790915560408051918252517f158949e2a79eed948071b9906d1db481e77943ce412b72be36e543c6a3307e9f9181900360200190a150565b610940610608565b61097b5760405162461bcd60e51b8152600401808060200182810382526043815260200180610f5b6043913960600191505060405180910390fd5b600380546001600160a01b0319166001600160a01b0392909216919091179055565b6109a561029b565b6109e05760405162461bcd60e51b8152600401808060200182810382526041815260200180610df46041913960600191505060405180910390fd5b600180546001600160a01b0319166001600160a01b0392909216919091179055565b6002546001600160a01b031690565b610a1961029b565b610a545760405162461bcd60e51b8152600401808060200182810382526041815260200180610df46041913960600191505060405180910390fd5b6040805133815290517fa70f26764574533b4d511b70b39191ceaaa63e9eb8f2b43e4646488a014be3499181900360200190a16004546001600160a01b031663a9059cbb33610aa16102ce565b6040518363ffffffff1660e01b815260040180836001600160a01b03166001600160a01b0316815260200182815260200192505050602060405180830381600087803b158015610af057600080fd5b505af1158015610b04573d6000803e3d6000fd5b505050506040513d6020811015610b1a57600080fd5b5051610b575760405162461bcd60e51b8152600401808060200182810382526033815260200180610f076033913960400191505060405180910390fd5b565b6004546001600160a01b031681565b3390565b6001600160a01b038116610bb15760405162461bcd60e51b8152600401808060200182810382526038815260200180610e7d6038913960400191505060405180910390fd5b6002546040516001600160a01b038084169216907f322ef0cb3bcc6b6f659770a0acaf7473e9bc6ebe63e04e4f28924c285c8cc5ea90600090a3600280546001600160a01b0319166001600160a01b0392909216919091179055565b600082610c1c57506000610c69565b82820282848281610c2957fe5b0414610c665760405162461bcd60e51b8152600401808060200182810382526021815260200180610f3a6021913960400191505060405180910390fd5b90505b92915050565b6000610c6683836040518060400160405280601a81526020017f536166654d6174683a206469766973696f6e206279207a65726f000000000000815250610d51565b6001600160a01b038116610cf65760405162461bcd60e51b8152600401808060200182810382526036815260200180610fcc6036913960400191505060405180910390fd5b600080546040516001600160a01b03808516939216917f7e8c4fc74f50849b4ec635ed03f5d13f87cd46ae422e97479704c6fd1c164e2091a3600080546001600160a01b0319166001600160a01b0392909216919091179055565b60008183610ddd5760405162461bcd60e51b81526004018080602001828103825283818151815260200191508051906020019080838360005b83811015610da2578181015183820152602001610d8a565b50505050905090810190601f168015610dcf5780820380516001836020036101000a031916815260200191505b509250505060405180910390fd5b506000838581610de957fe5b049594505050505056fe57697468436c61696d61626c654d6967726174696f6e4f776e6572736869703a2063616c6c6572206973206e6f7420746865206d6967726174696f6e4f776e657250726f746f636f6c57616c6c65743a617070726f7665202d2072657175657374656420616d6f756e74206973206c6172676572207468616e20616c6c6f776564206279207261746546756e6374696f6e616c4f776e65723a206e65772066756e6374696f6e616c4f776e657220697320746865207a65726f206164647265737350726f746f636f6c57616c6c65743a3a7769746864726177202d207472616e73666572206661696c656443616c6c6572206973206e6f74207468652070656e64696e67206d6967726174696f6e4f776e657250726f746f636f6c57616c6c65743a3a656d657267656e63795769746864726177202d207472616e73666572206661696c6564536166654d6174683a206d756c7469706c69636174696f6e206f766572666c6f7757697468436c61696d61626c6546756e6374696f6e616c4f776e6572736869703a2063616c6c6572206973206e6f74207468652066756e6374696f6e616c4f776e657250726f746f636f6c57616c6c65743a3a746f705570202d20696e73756666696369656e7420616c6c6f77616e63654d6967726174696f6e4f776e65723a206e6577206d6967726174696f6e4f776e657220697320746865207a65726f206164647265737343616c6c6572206973206e6f74207468652070656e64696e672066756e6374696f6e616c4f776e6572a265627a7a72315820d00f9e1cf46cdcc6591f86810cd402570d8fa03368aff37db82cad9a5818860f64736f6c63430005100032",
  "source": "pragma solidity 0.5.16;\nimport \"@openzeppelin/contracts/token/ERC20/IERC20.sol\";\nimport \"./spec_interfaces/IProtocolWallet.sol\";\nimport \"./WithClaimableMigrationOwnership.sol\";\nimport \"./WithClaimableFunctionalOwnership.sol\";\nimport \"@openzeppelin/contracts/math/SafeMath.sol\";\n\ncontract ProtocolWallet is IProtocolWallet, WithClaimableMigrationOwnership, WithClaimableFunctionalOwnership{\n    using SafeMath for uint256;\n\n    IERC20 public token;\n    address public client;\n\n    uint lastApprovedAt;\n    uint annualRate;\n\n    modifier onlyClient() {\n        require(msg.sender == client, \"caller is not the wallet client\");\n\n        _;\n    }\n\n    constructor(IERC20 _token, address _client) public {\n        token = _token;\n        client = _client;\n        lastApprovedAt = now; // TODO init here, or in first call to setMaxAnnualRate?\n    }\n\n    /// @dev Returns the address of the underlying staked token.\n    /// @return IERC20 The address of the token.\n    function getToken() external view returns (IERC20) {\n        return token;\n    }\n\n    /// @dev Returns the address of the underlying staked token.\n    /// @return IERC20 The address of the token.\n    function getBalance() public view returns (uint256 balance) {\n        return token.balanceOf(address(this));\n    }\n\n    /// @dev Transfers the given amount of orbs tokens form the sender to this contract an update the pool.\n    function topUp(uint256 amount) external {\n        emit FundsAddedToPool(amount, getBalance() + amount);\n        require(token.transferFrom(msg.sender, address(this), amount), \"ProtocolWallet::topUp - insufficient allowance\");\n    }\n\n    /// @dev Approves withdraw from pool to a spender, limited by the pool's MaxRate.\n    /// A maximum of MaxRate x time period since the last Orbs transfer may be transferred out.\n    /// Flow:\n    /// PoolWallet.approveTransfer(amount);\n    /// ERC20.transferFrom(PoolWallet, client, amount)\n    function withdraw(uint256 amount) external onlyClient {\n        uint duration = now - lastApprovedAt;\n        uint maxAmount = duration.mul(annualRate).div(365 * 24 * 60 * 60);\n        require(amount <= maxAmount, \"ProtocolWallet:approve - requested amount is larger than allowed by rate\");\n\n        lastApprovedAt = now;\n        if (amount > 0) {\n            require(token.transfer(msg.sender, amount), \"ProtocolWallet::withdraw - transfer failed\");\n        }\n    }\n\n    /* Governance */\n    /// @dev Sets a new transfer rate for the Orbs pool.\n    function setMaxAnnualRate(uint256 _annualRate) external onlyMigrationOwner {\n        annualRate = _annualRate;\n        emit MaxAnnualRateSet(_annualRate);\n    }\n\n    /// @dev transfer the entire pool's balance to a new wallet.\n    function emergencyWithdraw() external onlyMigrationOwner {\n        emit EmergencyWithdrawal(msg.sender);\n        require(token.transfer(msg.sender, getBalance()), \"ProtocolWallet::emergencyWithdraw - transfer failed\");\n    }\n\n    /// @dev sets the address of the new contract\n    function setClient(address _client) external onlyFunctionalOwner {\n        client = _client;\n        emit ClientSet(_client);\n    }\n}\n",
  "sourcePath": "/Users/aviramstern/GolandProjects/orbs-ethereum-contracts-v2/contracts/ProtocolWallet.sol",
  "compiler": {
    "name": "solc",
    "version": "0.5.16+commit.9c3226ce.Emscripten.clang"
  },
  "schemaVersion": "3.0.23",
  "updatedAt": "2020-08-06T21:58:43.779Z",
  "devdoc": {
    "methods": {
      "claimFunctionalOwnership()": {
        "details": "Allows the pendingFunctionalOwner address to finalize the transfer."
      },
      "claimMigrationOwnership()": {
        "details": "Allows the pendingMigrationOwner address to finalize the transfer."
      },
      "emergencyWithdraw()": {
        "details": "transfer the entire pool's balance to a new wallet."
      },
      "functionalOwner()": {
        "details": "Returns the address of the current functionalOwner."
      },
      "getBalance()": {
        "details": "Returns the address of the underlying staked token.",
        "return": "IERC20 The address of the token."
      },
      "getToken()": {
        "details": "Returns the address of the underlying staked token.",
        "return": "IERC20 The address of the token."
      },
      "isFunctionalOwner()": {
        "details": "Returns true if the caller is the current functionalOwner."
      },
      "isMigrationOwner()": {
        "details": "Returns true if the caller is the current migrationOwner."
      },
      "migrationOwner()": {
        "details": "Returns the address of the current migrationOwner."
      },
      "renounceFunctionalOwnership()": {
        "details": "Leaves the contract without functionalOwner. It will not be possible to call `onlyOwner` functions anymore. Can only be called by the current functionalOwner.     * NOTE: Renouncing functionalOwnership will leave the contract without an functionalOwner, thereby removing any functionality that is only available to the functionalOwner."
      },
      "renounceMigrationOwnership()": {
        "details": "Leaves the contract without migrationOwner. It will not be possible to call `onlyOwner` functions anymore. Can only be called by the current migrationOwner.     * NOTE: Renouncing migrationOwnership will leave the contract without an migrationOwner, thereby removing any functionality that is only available to the migrationOwner."
      },
      "setClient(address)": {
        "details": "sets the address of the new contract"
      },
      "setMaxAnnualRate(uint256)": {
        "details": "Sets a new transfer rate for the Orbs pool."
      },
      "topUp(uint256)": {
        "details": "Transfers the given amount of orbs tokens form the sender to this contract an update the pool."
      },
      "transferFunctionalOwnership(address)": {
        "details": "Allows the current functionalOwner to set the pendingOwner address.",
        "params": {
          "newFunctionalOwner": "The address to transfer functionalOwnership to."
        }
      },
      "transferMigrationOwnership(address)": {
        "details": "Allows the current migrationOwner to set the pendingOwner address.",
        "params": {
          "newMigrationOwner": "The address to transfer migrationOwnership to."
        }
      },
      "withdraw(uint256)": {
        "details": "Approves withdraw from pool to a spender, limited by the pool's MaxRate. A maximum of MaxRate x time period since the last Orbs transfer may be transferred out. Flow: PoolWallet.approveTransfer(amount); ERC20.transferFrom(PoolWallet, client, amount)"
      }
    }
  },
  "userdoc": {
    "methods": {}
  }
}