{
  "contractName": "Rewards",
  "abi": [
    {
      "inputs": [
        {
          "internalType": "contract IERC20",
          "name": "_erc20",
          "type": "address"
        },
        {
          "internalType": "contract IERC20",
          "name": "_bootstrapToken",
          "type": "address"
        }
      ],
      "payable": false,
      "stateMutability": "nonpayable",
      "type": "constructor"
    },
    {
      "anonymous": false,
      "inputs": [
        {
          "indexed": false,
          "internalType": "uint256",
          "name": "added",
          "type": "uint256"
        },
        {
          "indexed": false,
          "internalType": "uint256",
          "name": "total",
          "type": "uint256"
        }
      ],
      "name": "BootstrapAddedToPool",
      "type": "event"
    },
    {
      "anonymous": false,
      "inputs": [
        {
          "indexed": false,
          "internalType": "uint256",
          "name": "generalGuardianAmount",
          "type": "uint256"
        },
        {
          "indexed": false,
          "internalType": "uint256",
          "name": "certifiedGuardianAmount",
          "type": "uint256"
        }
      ],
      "name": "BootstrapRewardsAssigned",
      "type": "event"
    },
    {
      "anonymous": false,
      "inputs": [
        {
          "indexed": false,
          "internalType": "address",
          "name": "guardian",
          "type": "address"
        },
        {
          "indexed": false,
          "internalType": "uint256",
          "name": "amount",
          "type": "uint256"
        }
      ],
      "name": "BootstrapRewardsWithdrawn",
      "type": "event"
    },
    {
      "anonymous": false,
      "inputs": [
        {
          "indexed": false,
          "internalType": "address",
          "name": "addr",
          "type": "address"
        }
      ],
      "name": "ContractRegistryAddressUpdated",
      "type": "event"
    },
    {
      "anonymous": false,
      "inputs": [
        {
          "indexed": false,
          "internalType": "address",
          "name": "addr",
          "type": "address"
        }
      ],
      "name": "EmergencyWithdrawal",
      "type": "event"
    },
    {
      "anonymous": false,
      "inputs": [
        {
          "indexed": false,
          "internalType": "uint256",
          "name": "bucketId",
          "type": "uint256"
        },
        {
          "indexed": false,
          "internalType": "uint256",
          "name": "added",
          "type": "uint256"
        },
        {
          "indexed": false,
          "internalType": "uint256",
          "name": "total",
          "type": "uint256"
        },
        {
          "indexed": false,
          "internalType": "bool",
          "name": "isCertified",
          "type": "bool"
        }
      ],
      "name": "FeesAddedToBucket",
      "type": "event"
    },
    {
      "anonymous": false,
      "inputs": [
        {
          "indexed": false,
          "internalType": "uint256",
          "name": "generalGuardianAmount",
          "type": "uint256"
        },
        {
          "indexed": false,
          "internalType": "uint256",
          "name": "certifiedGuardianAmount",
          "type": "uint256"
        }
      ],
      "name": "FeesAssigned",
      "type": "event"
    },
    {
      "anonymous": false,
      "inputs": [
        {
          "indexed": false,
          "internalType": "address",
          "name": "guardian",
          "type": "address"
        },
        {
          "indexed": false,
          "internalType": "uint256",
          "name": "amount",
          "type": "uint256"
        }
      ],
      "name": "FeesWithdrawn",
      "type": "event"
    },
    {
      "anonymous": false,
      "inputs": [
        {
          "indexed": false,
          "internalType": "uint256",
          "name": "bucketId",
          "type": "uint256"
        },
        {
          "indexed": false,
          "internalType": "uint256",
          "name": "withdrawn",
          "type": "uint256"
        },
        {
          "indexed": false,
          "internalType": "uint256",
          "name": "total",
          "type": "uint256"
        },
        {
          "indexed": false,
          "internalType": "bool",
          "name": "isCertified",
          "type": "bool"
        }
      ],
      "name": "FeesWithdrawnFromBucket",
      "type": "event"
    },
    {
      "anonymous": false,
      "inputs": [
        {
          "indexed": true,
          "internalType": "address",
          "name": "previousFunctionalOwner",
          "type": "address"
        },
        {
          "indexed": true,
          "internalType": "address",
          "name": "newFunctionalOwner",
          "type": "address"
        }
      ],
      "name": "FunctionalOwnershipTransferred",
      "type": "event"
    },
    {
      "anonymous": false,
      "inputs": [],
      "name": "Locked",
      "type": "event"
    },
    {
      "anonymous": false,
      "inputs": [
        {
          "indexed": false,
          "internalType": "uint32",
          "name": "maxDelegatorsStakingRewardsPercentMille",
          "type": "uint32"
        }
      ],
      "name": "MaxDelegatorsStakingRewardsChanged",
      "type": "event"
    },
    {
      "anonymous": false,
      "inputs": [
        {
          "indexed": true,
          "internalType": "address",
          "name": "previousMigrationOwner",
          "type": "address"
        },
        {
          "indexed": true,
          "internalType": "address",
          "name": "newMigrationOwner",
          "type": "address"
        }
      ],
      "name": "MigrationOwnershipTransferred",
      "type": "event"
    },
    {
      "anonymous": false,
      "inputs": [
        {
          "indexed": false,
          "internalType": "uint256",
          "name": "added",
          "type": "uint256"
        },
        {
          "indexed": false,
          "internalType": "uint256",
          "name": "total",
          "type": "uint256"
        }
      ],
      "name": "StakingRewardsAddedToPool",
      "type": "event"
    },
    {
      "anonymous": false,
      "inputs": [
        {
          "indexed": false,
          "internalType": "address[]",
          "name": "assignees",
          "type": "address[]"
        },
        {
          "indexed": false,
          "internalType": "uint256[]",
          "name": "amounts",
          "type": "uint256[]"
        }
      ],
      "name": "StakingRewardsAssigned",
      "type": "event"
    },
    {
      "anonymous": false,
      "inputs": [
        {
          "indexed": true,
          "internalType": "address",
          "name": "distributer",
          "type": "address"
        },
        {
          "indexed": false,
          "internalType": "uint256",
          "name": "fromBlock",
          "type": "uint256"
        },
        {
          "indexed": false,
          "internalType": "uint256",
          "name": "toBlock",
          "type": "uint256"
        },
        {
          "indexed": false,
          "internalType": "uint256",
          "name": "split",
          "type": "uint256"
        },
        {
          "indexed": false,
          "internalType": "uint256",
          "name": "txIndex",
          "type": "uint256"
        },
        {
          "indexed": false,
          "internalType": "address[]",
          "name": "to",
          "type": "address[]"
        },
        {
          "indexed": false,
          "internalType": "uint256[]",
          "name": "amounts",
          "type": "uint256[]"
        }
      ],
      "name": "StakingRewardsDistributed",
      "type": "event"
    },
    {
      "anonymous": false,
      "inputs": [],
      "name": "Unlocked",
      "type": "event"
    },
    {
      "constant": false,
      "inputs": [],
      "name": "claimFunctionalOwnership",
      "outputs": [],
      "payable": false,
      "stateMutability": "nonpayable",
      "type": "function"
    },
    {
      "constant": false,
      "inputs": [],
      "name": "claimMigrationOwnership",
      "outputs": [],
      "payable": false,
      "stateMutability": "nonpayable",
      "type": "function"
    },
    {
      "constant": true,
      "inputs": [],
      "name": "functionalOwner",
      "outputs": [
        {
          "internalType": "address",
          "name": "",
          "type": "address"
        }
      ],
      "payable": false,
      "stateMutability": "view",
      "type": "function"
    },
    {
      "constant": true,
      "inputs": [],
      "name": "getBootstrapRewardsWallet",
      "outputs": [
        {
          "internalType": "contract IProtocolWallet",
          "name": "",
          "type": "address"
        }
      ],
      "payable": false,
      "stateMutability": "view",
      "type": "function"
    },
    {
      "constant": true,
      "inputs": [],
      "name": "getCertificationContract",
      "outputs": [
        {
          "internalType": "contract ICertification",
          "name": "",
          "type": "address"
        }
      ],
      "payable": false,
      "stateMutability": "view",
      "type": "function"
    },
    {
      "constant": true,
      "inputs": [],
      "name": "getCommitteeContract",
      "outputs": [
        {
          "internalType": "contract ICommittee",
          "name": "",
          "type": "address"
        }
      ],
      "payable": false,
      "stateMutability": "view",
      "type": "function"
    },
    {
      "constant": true,
      "inputs": [],
      "name": "getDelegationsContract",
      "outputs": [
        {
          "internalType": "contract IDelegations",
          "name": "",
          "type": "address"
        }
      ],
      "payable": false,
      "stateMutability": "view",
      "type": "function"
    },
    {
      "constant": true,
      "inputs": [],
      "name": "getElectionsContract",
      "outputs": [
        {
          "internalType": "contract IElections",
          "name": "",
          "type": "address"
        }
      ],
      "payable": false,
      "stateMutability": "view",
      "type": "function"
    },
    {
      "constant": true,
      "inputs": [],
      "name": "getGuardiansRegistrationContract",
      "outputs": [
        {
          "internalType": "contract IGuardiansRegistration",
          "name": "",
          "type": "address"
        }
      ],
      "payable": false,
      "stateMutability": "view",
      "type": "function"
    },
    {
      "constant": true,
      "inputs": [],
      "name": "getProtocolContract",
      "outputs": [
        {
          "internalType": "contract IProtocol",
          "name": "",
          "type": "address"
        }
      ],
      "payable": false,
      "stateMutability": "view",
      "type": "function"
    },
    {
      "constant": true,
      "inputs": [],
      "name": "getRewardsContract",
      "outputs": [
        {
          "internalType": "contract IRewards",
          "name": "",
          "type": "address"
        }
      ],
      "payable": false,
      "stateMutability": "view",
      "type": "function"
    },
    {
      "constant": true,
      "inputs": [],
      "name": "getStakingContract",
      "outputs": [
        {
          "internalType": "contract IStakingContract",
          "name": "",
          "type": "address"
        }
      ],
      "payable": false,
      "stateMutability": "view",
      "type": "function"
    },
    {
      "constant": true,
      "inputs": [],
      "name": "getStakingRewardsWallet",
      "outputs": [
        {
          "internalType": "contract IProtocolWallet",
          "name": "",
          "type": "address"
        }
      ],
      "payable": false,
      "stateMutability": "view",
      "type": "function"
    },
    {
      "constant": true,
      "inputs": [],
      "name": "getSubscriptionsContract",
      "outputs": [
        {
          "internalType": "contract ISubscriptions",
          "name": "",
          "type": "address"
        }
      ],
      "payable": false,
      "stateMutability": "view",
      "type": "function"
    },
    {
      "constant": true,
      "inputs": [],
      "name": "isFunctionalOwner",
      "outputs": [
        {
          "internalType": "bool",
          "name": "",
          "type": "bool"
        }
      ],
      "payable": false,
      "stateMutability": "view",
      "type": "function"
    },
    {
      "constant": true,
      "inputs": [],
      "name": "isMigrationOwner",
      "outputs": [
        {
          "internalType": "bool",
          "name": "",
          "type": "bool"
        }
      ],
      "payable": false,
      "stateMutability": "view",
      "type": "function"
    },
    {
      "constant": false,
      "inputs": [],
      "name": "lock",
      "outputs": [],
      "payable": false,
      "stateMutability": "nonpayable",
      "type": "function"
    },
    {
      "constant": true,
      "inputs": [],
      "name": "locked",
      "outputs": [
        {
          "internalType": "bool",
          "name": "",
          "type": "bool"
        }
      ],
      "payable": false,
      "stateMutability": "view",
      "type": "function"
    },
    {
      "constant": true,
      "inputs": [],
      "name": "migrationOwner",
      "outputs": [
        {
          "internalType": "address",
          "name": "",
          "type": "address"
        }
      ],
      "payable": false,
      "stateMutability": "view",
      "type": "function"
    },
    {
      "constant": false,
      "inputs": [],
      "name": "renounceFunctionalOwnership",
      "outputs": [],
      "payable": false,
      "stateMutability": "nonpayable",
      "type": "function"
    },
    {
      "constant": false,
      "inputs": [],
      "name": "renounceMigrationOwnership",
      "outputs": [],
      "payable": false,
      "stateMutability": "nonpayable",
      "type": "function"
    },
    {
      "constant": false,
      "inputs": [
        {
          "internalType": "contract IContractRegistry",
          "name": "_contractRegistry",
          "type": "address"
        }
      ],
      "name": "setContractRegistry",
      "outputs": [],
      "payable": false,
      "stateMutability": "nonpayable",
      "type": "function"
    },
    {
      "constant": false,
      "inputs": [
        {
          "internalType": "address",
          "name": "newFunctionalOwner",
          "type": "address"
        }
      ],
      "name": "transferFunctionalOwnership",
      "outputs": [],
      "payable": false,
      "stateMutability": "nonpayable",
      "type": "function"
    },
    {
      "constant": false,
      "inputs": [
        {
          "internalType": "address",
          "name": "newMigrationOwner",
          "type": "address"
        }
      ],
      "name": "transferMigrationOwnership",
      "outputs": [],
      "payable": false,
      "stateMutability": "nonpayable",
      "type": "function"
    },
    {
      "constant": false,
      "inputs": [],
      "name": "unlock",
      "outputs": [],
      "payable": false,
      "stateMutability": "nonpayable",
      "type": "function"
    },
    {
      "constant": false,
      "inputs": [
        {
          "internalType": "uint256",
          "name": "annual_amount",
          "type": "uint256"
        }
      ],
      "name": "setGeneralCommitteeAnnualBootstrap",
      "outputs": [],
      "payable": false,
      "stateMutability": "nonpayable",
      "type": "function"
    },
    {
      "constant": false,
      "inputs": [
        {
          "internalType": "uint256",
          "name": "annual_amount",
          "type": "uint256"
        }
      ],
      "name": "setCertificationCommitteeAnnualBootstrap",
      "outputs": [],
      "payable": false,
      "stateMutability": "nonpayable",
      "type": "function"
    },
    {
      "constant": false,
      "inputs": [
        {
          "internalType": "uint32",
          "name": "maxDelegatorsStakingRewardsPercentMille",
          "type": "uint32"
        }
      ],
      "name": "setMaxDelegatorsStakingRewardsPercentMille",
      "outputs": [],
      "payable": false,
      "stateMutability": "nonpayable",
      "type": "function"
    },
    {
      "constant": false,
      "inputs": [
        {
          "internalType": "uint256",
          "name": "amount",
          "type": "uint256"
        }
      ],
      "name": "topUpBootstrapPool",
      "outputs": [],
      "payable": false,
      "stateMutability": "nonpayable",
      "type": "function"
    },
    {
      "constant": true,
      "inputs": [
        {
          "internalType": "address",
          "name": "addr",
          "type": "address"
        }
      ],
      "name": "getBootstrapBalance",
      "outputs": [
        {
          "internalType": "uint256",
          "name": "",
          "type": "uint256"
        }
      ],
      "payable": false,
      "stateMutability": "view",
      "type": "function"
    },
    {
      "constant": false,
      "inputs": [],
      "name": "assignRewards",
      "outputs": [],
      "payable": false,
      "stateMutability": "nonpayable",
      "type": "function"
    },
    {
      "constant": false,
      "inputs": [
        {
          "internalType": "address[]",
          "name": "committee",
          "type": "address[]"
        },
        {
          "internalType": "uint256[]",
          "name": "committeeWeights",
          "type": "uint256[]"
        },
        {
          "internalType": "bool[]",
          "name": "certification",
          "type": "bool[]"
        }
      ],
      "name": "assignRewardsToCommittee",
      "outputs": [],
      "payable": false,
      "stateMutability": "nonpayable",
      "type": "function"
    },
    {
      "constant": false,
      "inputs": [],
      "name": "withdrawBootstrapFunds",
      "outputs": [],
      "payable": false,
      "stateMutability": "nonpayable",
      "type": "function"
    },
    {
      "constant": false,
      "inputs": [
        {
          "internalType": "uint256",
          "name": "annual_rate_in_percent_mille",
          "type": "uint256"
        },
        {
          "internalType": "uint256",
          "name": "annual_cap",
          "type": "uint256"
        }
      ],
      "name": "setAnnualStakingRewardsRate",
      "outputs": [],
      "payable": false,
      "stateMutability": "nonpayable",
      "type": "function"
    },
    {
      "constant": false,
      "inputs": [
        {
          "internalType": "uint256",
          "name": "amount",
          "type": "uint256"
        }
      ],
      "name": "topUpStakingRewardsPool",
      "outputs": [],
      "payable": false,
      "stateMutability": "nonpayable",
      "type": "function"
    },
    {
      "constant": true,
      "inputs": [
        {
          "internalType": "address",
          "name": "addr",
          "type": "address"
        }
      ],
      "name": "getStakingRewardBalance",
      "outputs": [
        {
          "internalType": "uint256",
          "name": "",
          "type": "uint256"
        }
      ],
      "payable": false,
      "stateMutability": "view",
      "type": "function"
    },
    {
      "constant": true,
      "inputs": [],
      "name": "getLastRewardAssignmentTime",
      "outputs": [
        {
          "internalType": "uint256",
          "name": "",
          "type": "uint256"
        }
      ],
      "payable": false,
      "stateMutability": "view",
      "type": "function"
    },
    {
      "constant": false,
      "inputs": [
        {
          "internalType": "uint256",
          "name": "totalAmount",
          "type": "uint256"
        },
        {
          "internalType": "uint256",
          "name": "fromBlock",
          "type": "uint256"
        },
        {
          "internalType": "uint256",
          "name": "toBlock",
          "type": "uint256"
        },
        {
          "internalType": "uint256",
          "name": "split",
          "type": "uint256"
        },
        {
          "internalType": "uint256",
          "name": "txIndex",
          "type": "uint256"
        },
        {
          "internalType": "address[]",
          "name": "to",
          "type": "address[]"
        },
        {
          "internalType": "uint256[]",
          "name": "amounts",
          "type": "uint256[]"
        }
      ],
      "name": "distributeOrbsTokenStakingRewards",
      "outputs": [],
      "payable": false,
      "stateMutability": "nonpayable",
      "type": "function"
    },
    {
      "constant": true,
      "inputs": [
        {
          "internalType": "address",
          "name": "addr",
          "type": "address"
        }
      ],
      "name": "getFeeBalance",
      "outputs": [
        {
          "internalType": "uint256",
          "name": "",
          "type": "uint256"
        }
      ],
      "payable": false,
      "stateMutability": "view",
      "type": "function"
    },
    {
      "constant": false,
      "inputs": [
        {
          "internalType": "uint256",
          "name": "amount",
          "type": "uint256"
        },
        {
          "internalType": "uint256",
          "name": "monthlyRate",
          "type": "uint256"
        },
        {
          "internalType": "uint256",
          "name": "fromTimestamp",
          "type": "uint256"
        }
      ],
      "name": "fillGeneralFeeBuckets",
      "outputs": [],
      "payable": false,
      "stateMutability": "nonpayable",
      "type": "function"
    },
    {
      "constant": false,
      "inputs": [
        {
          "internalType": "uint256",
          "name": "amount",
          "type": "uint256"
        },
        {
          "internalType": "uint256",
          "name": "monthlyRate",
          "type": "uint256"
        },
        {
          "internalType": "uint256",
          "name": "fromTimestamp",
          "type": "uint256"
        }
      ],
      "name": "fillCertificationFeeBuckets",
      "outputs": [],
      "payable": false,
      "stateMutability": "nonpayable",
      "type": "function"
    },
    {
      "constant": false,
      "inputs": [],
      "name": "withdrawFeeFunds",
      "outputs": [],
      "payable": false,
      "stateMutability": "nonpayable",
      "type": "function"
    },
    {
      "constant": true,
      "inputs": [],
      "name": "getTotalBalances",
      "outputs": [
        {
          "internalType": "uint256",
          "name": "feesTotalBalance",
          "type": "uint256"
        },
        {
          "internalType": "uint256",
          "name": "stakingRewardsTotalBalance",
          "type": "uint256"
        },
        {
          "internalType": "uint256",
          "name": "bootstrapRewardsTotalBalance",
          "type": "uint256"
        }
      ],
      "payable": false,
      "stateMutability": "view",
      "type": "function"
    },
    {
      "constant": false,
      "inputs": [],
      "name": "emergencyWithdraw",
      "outputs": [],
      "payable": false,
      "stateMutability": "nonpayable",
      "type": "function"
    }
  ],
  "bytecode": "0x60806040523480156200001157600080fd5b5060405162004c6638038062004c66833981810160405260408110156200003757600080fd5b5080516020909101516000620000556001600160e01b03620001f016565b600080546001600160a01b0319166001600160a01b0383169081178255604051929350917f7e8c4fc74f50849b4ec635ed03f5d13f87cd46ae422e97479704c6fd1c164e20908290a3506000620000b46001600160e01b03620001f016565b600380546001600160a01b0319166001600160a01b038316908117909155604051919250906000907f322ef0cb3bcc6b6f659770a0acaf7473e9bc6ebe63e04e4f28924c285c8cc5ea908290a3506001600160a01b0381166200015e576040805162461bcd60e51b815260206004820152601c60248201527f626f6f747374726170546f6b656e206d757374206e6f74206265203000000000604482015290519081900360640190fd5b6001600160a01b038216620001ba576040805162461bcd60e51b815260206004820152601360248201527f6572633230206d757374206e6f74206265203000000000000000000000000000604482015290519081900360640190fd5b600b80546001600160a01b039384166001600160a01b031991821617909155600a805492909316911617905542600c55620001f4565b3390565b614a6280620002046000396000f3fe608060405234801561001057600080fd5b50600436106102735760003560e01c80639b9a7e6811610151578063b67f363a116100c3578063db2e21bc11610087578063db2e21bc14610732578063ddc0d5d61461073a578063ec5e178c14610742578063f1be53861461074a578063f83d08ba14610767578063fcd13d651461076f57610273565b8063b67f363a146106b6578063bed1807d146106d3578063c78f6803146106db578063cf30901214610701578063d44afc431461070957610273565b8063a75c3ad911610115578063a75c3ad914610580578063a945ae5a14610588578063ab6acfc414610590578063ad751ed314610598578063b3ed869a146105a0578063b5f1c29d146106ae57610273565b80639b9a7e68146104fb5780639f587d1c14610521578063a09e0d9014610547578063a69df4b51461054f578063a72cadf41461055757610273565b80633b781309116101ea5780636a87553c116101ae5780636a87553c146103d85780636cdb6746146104b55780637b93af4c146104bd5780637d22c291146104c55780638e68dce4146104eb578063977d4e5a146104f357610273565b80633b781309146103805780634d993f82146103885780635282346d146103a55780635797f7c1146103ad57806365f1f481146103d057610273565b806323524ea71161023c57806323524ea7146102d25780632baf57d31461030a5780632c43bdd51461033057806332dc31d11461033857806336139b9d146103555780633a88ab8e1461037857610273565b806264010d14610278578063021abb931461028257806311caadfb1461029e5780631dc669f4146102c2578063209df1e2146102ca575b600080fd5b610280610795565b005b61028a610a0c565b604080519115158252519081900360200190f35b6102a6610a30565b604080516001600160a01b039092168252519081900360200190f35b610280610ac4565b610280610b34565b6102f8600480360360208110156102e857600080fd5b50356001600160a01b0316610bc1565b60408051918252519081900360200190f35b610312610bf1565b60408051938452602084019290925282820152519081900360600190f35b6102a6610c86565b6102806004803603602081101561034e57600080fd5b5035610c95565b6102806004803603604081101561036b57600080fd5b5080359060200135610d56565b61028a610ee6565b610280610efd565b6102806004803603602081101561039e57600080fd5b5035610f8a565b6102a6611251565b610280600480360360208110156103c357600080fd5b503563ffffffff166112b6565b6102806113e4565b610280600480360360e08110156103ee57600080fd5b8135916020810135916040820135916060810135916080820135919081019060c0810160a0820135600160201b81111561042757600080fd5b82018360208201111561043957600080fd5b803590602001918460208302840111600160201b8311171561045a57600080fd5b919390929091602081019035600160201b81111561047757600080fd5b82018360208201111561048957600080fd5b803590602001918460208302840111600160201b831117156104aa57600080fd5b50909250905061168a565b6102a66120ec565b61028061215a565b6102f8600480360360208110156104db57600080fd5b50356001600160a01b03166121ca565b6102a66121fb565b6102a661225c565b6102806004803603602081101561051157600080fd5b50356001600160a01b03166122c3565b6102806004803603602081101561053757600080fd5b50356001600160a01b0316612328565b6102a661238d565b6102806123f4565b6102806004803603606081101561056d57600080fd5b508035906020810135906040013561246f565b6102806124c5565b6102f8612627565b6102a661262d565b6102a6612690565b610280600480360360608110156105b657600080fd5b810190602081018135600160201b8111156105d057600080fd5b8201836020820111156105e257600080fd5b803590602001918460208302840111600160201b8311171561060357600080fd5b919390929091602081019035600160201b81111561062057600080fd5b82018360208201111561063257600080fd5b803590602001918460208302840111600160201b8311171561065357600080fd5b919390929091602081019035600160201b81111561067057600080fd5b82018360208201111561068257600080fd5b803590602001918460208302840111600160201b831117156106a357600080fd5b5090925090506126f1565b6102a6612837565b610280600480360360208110156106cc57600080fd5b5035612899565b6102a6612ac1565b6102f8600480360360208110156106f157600080fd5b50356001600160a01b0316612ad0565b61028a612b01565b6102806004803603606081101561071f57600080fd5b5080359060208101359060400135612b11565b610280612b67565b6102a6612e4b565b6102a6612eba565b6102806004803603602081101561076057600080fd5b5035612f2a565b610280612fe0565b6102806004803603602081101561078557600080fd5b50356001600160a01b0316613061565b600454600160a01b900460ff16156107de5760405162461bcd60e51b81526004018080602001828103825260258152602001806145046025913960400191505060405180910390fd5b60608060606107eb61262d565b6001600160a01b031663ab8f6ffe6040518163ffffffff1660e01b815260040160006040518083038186803b15801561082357600080fd5b505afa158015610837573d6000803e3d6000fd5b505050506040513d6000823e601f3d908101601f19168201604052606081101561086057600080fd5b8101908080516040519392919084600160201b82111561087f57600080fd5b90830190602082018581111561089457600080fd5b82518660208202830111600160201b821117156108b057600080fd5b82525081516020918201928201910280838360005b838110156108dd5781810151838201526020016108c5565b5050505090500160405260200180516040519392919084600160201b82111561090557600080fd5b90830190602082018581111561091a57600080fd5b82518660208202830111600160201b8211171561093657600080fd5b82525081516020918201928201910280838360005b8381101561096357818101518382015260200161094b565b5050505090500160405260200180516040519392919084600160201b82111561098b57600080fd5b9083019060208201858111156109a057600080fd5b82518660208202830111600160201b821117156109bc57600080fd5b82525081516020918201928201910280838360005b838110156109e95781810151838201526020016109d1565b50505050905001604052505050925092509250610a078383836130f8565b505050565b600080546001600160a01b0316610a216137bd565b6001600160a01b031614905090565b6002546040805163349f642f60e11b81526020600482018190526009602483015268656c656374696f6e7360b81b604483015291516000936001600160a01b03169263693ec85e9260648082019391829003018186803b158015610a9357600080fd5b505afa158015610aa7573d6000803e3d6000fd5b505050506040513d6020811015610abd57600080fd5b5051905090565b6004546001600160a01b03163314610b0d5760405162461bcd60e51b81526004018080602001828103825260298152602001806149c96029913960400191505060405180910390fd5b600454610b22906001600160a01b03166137c1565b600480546001600160a01b0319169055565b610b3c610a0c565b610b775760405162461bcd60e51b81526004018080602001828103825260418152602001806145526041913960600191505060405180910390fd5b600080546040516001600160a01b03909116907f7e8c4fc74f50849b4ec635ed03f5d13f87cd46ae422e97479704c6fd1c164e20908390a3600080546001600160a01b0319169055565b6001600160a01b038116600090815260076020526040812054610beb9065ffffffffffff16613862565b92915050565b6000806000610bfe6143f3565b506040805160a08101825260065465ffffffffffff8082168352600160301b820481166020840152600160601b8204811693830193909352600160901b8104831660608301819052600160c01b909104909216608082015290610c6090613862565b610c6d8260800151613862565b610c7a8360400151613862565b93509350935050909192565b6000546001600160a01b031690565b610c9d610ee6565b610cd85760405162461bcd60e51b81526004018080602001828103825260438152602001806147776043913960600191505060405180910390fd5b600454600160a01b900460ff1615610d215760405162461bcd60e51b81526004018080602001828103825260258152602001806145046025913960400191505060405180910390fd5b610d2a81613879565b6005805465ffffffffffff92909216600160301b0265ffffffffffff60301b1990921691909117905550565b610d5e610ee6565b610d995760405162461bcd60e51b81526004018080602001828103825260438152602001806147776043913960600191505060405180910390fd5b600454600160a01b900460ff1615610de25760405162461bcd60e51b81526004018080602001828103825260258152602001806145046025913960400191505060405180910390fd5b610dea6143f3565b506040805160a08101825260055465ffffffffffff8082168352600160301b820481166020840152600160901b820481166060840152600160c01b90910463ffffffff166080830152841691810191909152610e4582613879565b65ffffffffffff908116606083018190528251600580546020860151604087015160809097015163ffffffff16600160c01b0263ffffffff60c01b19600160901b90960265ffffffffffff60901b19988816600160601b0265ffffffffffff60601b19938916600160301b0265ffffffffffff60301b199790991665ffffffffffff1990951694909417959095169690961716179490941617161790555050565b6003546000906001600160a01b0316610a216137bd565b610f05610ee6565b610f405760405162461bcd60e51b81526004018080602001828103825260438152602001806147776043913960600191505060405180910390fd5b6003546040516000916001600160a01b0316907f322ef0cb3bcc6b6f659770a0acaf7473e9bc6ebe63e04e4f28924c285c8cc5ea908390a3600380546001600160a01b0319169055565b600454600160a01b900460ff1615610fd35760405162461bcd60e51b81526004018080602001828103825260258152602001806145046025913960400191505060405180910390fd5b6000610fde82613879565b6006805465ffffffffffff600160301b808304821685019182160265ffffffffffff60301b1990921691909117909155600b54604080516323b872dd60e01b815233600482015230602482015260448101879052905193945091926001600160a01b039091169182916323b872dd916064808201926020929091908290030181600087803b15801561106f57600080fd5b505af1158015611083573d6000803e3d6000fd5b505050506040513d602081101561109957600080fd5b50516110d65760405162461bcd60e51b815260040180806020018281038252603281526020018061485e6032913960400191505060405180910390fd5b60006110e06120ec565b9050816001600160a01b031663095ea7b382876040518363ffffffff1660e01b815260040180836001600160a01b03166001600160a01b0316815260200182815260200192505050602060405180830381600087803b15801561114257600080fd5b505af1158015611156573d6000803e3d6000fd5b505050506040513d602081101561116c57600080fd5b50516111a95760405162461bcd60e51b815260040180806020018281038252602a815260200180614834602a913960400191505060405180910390fd5b806001600160a01b03166350017f3e866040518263ffffffff1660e01b815260040180828152602001915050600060405180830381600087803b1580156111ef57600080fd5b505af1158015611203573d6000803e3d6000fd5b505050507f56e4a8de5ac81c84d4effff07adb04fb669675ecbb742ead1003221bb8599b4e8561123285613862565b6040805192835260208301919091528051918290030190a15050505050565b6002546040805163349f642f60e11b8152602060048201819052600b60248301526a64656c65676174696f6e7360a81b604483015291516000936001600160a01b03169263693ec85e9260648082019391829003018186803b158015610a9357600080fd5b6112be610ee6565b6112f95760405162461bcd60e51b81526004018080602001828103825260438152602001806147776043913960600191505060405180910390fd5b600454600160a01b900460ff16156113425760405162461bcd60e51b81526004018080602001828103825260258152602001806145046025913960400191505060405180910390fd5b620186a08163ffffffff16111561138a5760405162461bcd60e51b815260040180806020018281038252604681526020018061448e6046913960600191505060405180910390fd5b6005805463ffffffff8316600160c01b810263ffffffff60c01b199092169190911790915560408051918252517f41b601885e44600c749e03dfecdd2ff57bd9468338f4248162dcaf7172bad67b9181900360200190a150565b600454600160a01b900460ff161561142d5760405162461bcd60e51b81526004018080602001828103825260258152602001806145046025913960400191505060405180910390fd5b3360009081526007602052604090205465ffffffffffff1661144d6143f3565b506040805160a08101825260065465ffffffffffff808216808452600160301b830482166020850152600160601b8304821694840194909452600160901b820481166060840152600160c01b90910481166080830152909190831611156114e55760405162461bcd60e51b815260040180806020018281038252603c8152602001806147ba603c913960400191505060405180910390fd5b3360009081526007602052604090819020805465ffffffffffff191690558101516115229065ffffffffffff90811690841663ffffffff61388616565b65ffffffffffff908116604083015281516115489190811690841663ffffffff61388616565b65ffffffffffff9081168083526006805460208501516040860151606087015160808801518716600160c01b0265ffffffffffff60c01b19918816600160901b0265ffffffffffff60901b19938916600160601b0265ffffffffffff60601b1995909916600160301b0265ffffffffffff60301b1965ffffffffffff19909716909817959095169690961792909216959095179490941617929092161790557ff016dfd39ab60cf02047a75146cefa5843da08291fdb6bafd742b4dd7ee839863361161284613862565b604080516001600160a01b03909316835260208301919091528051918290030190a1600a5461164b906001600160a01b031633846138cf565b6116865760405162461bcd60e51b81526004018080602001828103825260348152602001806149956034913960400191505060405180910390fd5b5050565b600454600160a01b900460ff16156116d35760405162461bcd60e51b81526004018080602001828103825260258152602001806145046025913960400191505060405180910390fd5b8261170f5760405162461bcd60e51b81526004018080602001828103825260298152602001806145296029913960400191505060405180910390fd5b82811461174d5760405162461bcd60e51b815260040180806020018281038252602c81526020018061468c602c913960400191505060405180910390fd5b60006117588a613879565b905061176381613862565b8a146117b6576040805162461bcd60e51b815260206004820152601f60248201527f746f74616c416d6f756e74206d75737420646976696465206279203165313500604482015290519081900360640190fd5b6117be614421565b6117c6612e4b565b6001600160a01b03166310b3b293336040518263ffffffff1660e01b815260040180826001600160a01b03166001600160a01b0316815260200191505060206040518083038186803b15801561181b57600080fd5b505afa15801561182f573d6000803e3d6000fd5b505050506040513d602081101561184557600080fd5b50516001600160a01b0316602082015260005b858110156118cf5781602001516001600160a01b031687878381811061187a57fe5b905060200201356001600160a01b03166001600160a01b0316146118c7576118c18585838181106118a757fe5b90506020020135836040015161396d90919063ffffffff16565b60408301525b600101611858565b506118de81604001518c6139c7565b6119195760405162461bcd60e51b815260040180806020018281038252606b81526020018061492a606b913960800191505060405180910390fd5b611921614441565b506020808201516001600160a01b03166000908152600d8252604090819020815160808101835281548152600182015493810193909352600281015491830182905260030154606083015215808352158061197a57508a155b6119b55760405162461bcd60e51b81526004018080602001828103825260268152602001806145f66026913960400191505060405180910390fd5b8151806119c8575080602001516001018b145b15611af0578715611a0a5760405162461bcd60e51b815260040180806020018281038252604781526020018061470f6047913960600191505060405180910390fd5b438a10611a5e576040805162461bcd60e51b815260206004820152601b60248201527f746f426c6f636b206d75737420626520696e2074686520706173740000000000604482015290519081900360640190fd5b8a8a1015611a9d5760405162461bcd60e51b81526004018080602001828103825260228152602001806148906022913960400191505060405180910390fd5b8a815260208082018b8152606083018b815260016040808601828152878601516001600160a01b03166000908152600d909652942085518155925190830155915160028201559051600390910155611c41565b80604001518814611b3b576040805162461bcd60e51b815260206004820152601060248201526f0e8f092dcc8caf040dad2e6dac2e8c6d60831b604482015290519081900360640190fd5b80602001518a14611b86576040805162461bcd60e51b815260206004820152601060248201526f0e8de84d8dec6d640dad2e6dac2e8c6d60831b604482015290519081900360640190fd5b80518b14611bd0576040805162461bcd60e51b81526020600482015260126024820152710cce4deda84d8dec6d640dad2e6dac2e8c6d60731b604482015290519081900360640190fd5b80606001518914611c19576040805162461bcd60e51b815260206004820152600e60248201526d0e6e0d8d2e840dad2e6dac2e8c6d60931b604482015290519081900360640190fd5b6020808301516001600160a01b03166000908152600d90915260409020600189016002909101555b6020808301516001600160a01b031660009081526007909152604090205465ffffffffffff600160601b90910481169084161115611cb05760405162461bcd60e51b815260040180806020018281038252602f8152602001806146e0602f913960400191505060405180910390fd5b611cb86143f3565b506040805160a08101825260065465ffffffffffff8082168352600160301b8204811660208401819052600160601b8304821694840194909452600160901b820481166060840152600160c01b9091048116608083015290919085161115611d515760405162461bcd60e51b815260040180806020018281038252603c8152602001806149f2603c913960400191505060405180910390fd5b611d788465ffffffffffff16826020015165ffffffffffff1661388690919063ffffffff16565b65ffffffffffff908116602080840191909152848101516001600160a01b0316600090815260079091526040902054611dc391600160601b909104811690861663ffffffff61388616565b6020848101516001600160a01b03166000908152600790915260409020805465ffffffffffff60601b1916600160601b65ffffffffffff938416021790556080820151611e1591908116908616613886565b65ffffffffffff9081166080830181905282516006805460208601516040870151606088015165ffffffffffff199093169487169490941765ffffffffffff60301b1916600160301b918716919091021765ffffffffffff60601b1916600160601b938616939093029290921765ffffffffffff60901b1916600160901b92909416919091029290921765ffffffffffff60c01b1916600160c01b9091021790556000611ec06121fb565b600b54909150611eda906001600160a01b03168287613a1c565b50806001600160a01b03166319d6a88d8f8b8b8b8b6040518663ffffffff1660e01b81526004018086815260200180602001806020018381038352878782818152602001925060200280828437600083820152601f01601f19169091018481038352858152602090810191508690860280828437600081840152601f19601f820116905080830192505050975050505050505050600060405180830381600087803b158015611f8857600080fd5b505af1158015611f9c573d6000803e3d6000fd5b50505050611fa8611251565b6001600160a01b0316630dbf445885602001516040518263ffffffff1660e01b815260040180826001600160a01b03166001600160a01b03168152602001915050600060405180830381600087803b15801561200357600080fd5b505af1158015612017573d6000803e3d6000fd5b5050505083602001516001600160a01b03167fe677d53fefda61f5b7cae19aefb90e192831b8cc8def10c72882e9e50ff294238e8e8e8e8e8e8e8e6040518089815260200188815260200187815260200186815260200180602001806020018381038352878782818152602001925060200280828437600083820152601f01601f19169091018481038352858152602090810191508690860280828437600083820152604051601f909101601f19169092018290039c50909a5050505050505050505050a25050505050505050505050505050565b6002546040805163349f642f60e11b815260206004820181905260146024830152731cdd185ada5b99d4995dd85c991cd5d85b1b195d60621b604483015291516000936001600160a01b03169263693ec85e9260648082019391829003018186803b158015610a9357600080fd5b6001546001600160a01b031633146121a35760405162461bcd60e51b81526004018080602001828103825260288152602001806146b86028913960400191505060405180910390fd5b6001546121b8906001600160a01b0316613a37565b600180546001600160a01b0319169055565b6001600160a01b038116600090815260076020526040812054610beb90600160601b900465ffffffffffff16613862565b6002546040805163349f642f60e11b815260206004820181905260076024830152667374616b696e6760c81b604483015291516000936001600160a01b03169263693ec85e9260648082019391829003018186803b158015610a9357600080fd5b6002546040805163349f642f60e11b8152602060048201819052600d60248301526c737562736372697074696f6e7360981b604483015291516000936001600160a01b03169263693ec85e9260648082019391829003018186803b158015610a9357600080fd5b6122cb610ee6565b6123065760405162461bcd60e51b81526004018080602001828103825260438152602001806147776043913960600191505060405180910390fd5b600480546001600160a01b0319166001600160a01b0392909216919091179055565b612330610a0c565b61236b5760405162461bcd60e51b81526004018080602001828103825260418152602001806145526041913960600191505060405180910390fd5b600180546001600160a01b0319166001600160a01b0392909216919091179055565b6002546040805163349f642f60e11b8152602060048201819052600d60248301526c31b2b93a34b334b1b0ba34b7b760991b604483015291516000936001600160a01b03169263693ec85e9260648082019391829003018186803b158015610a9357600080fd5b6123fc610a0c565b6124375760405162461bcd60e51b81526004018080602001828103825260418152602001806145526041913960600191505060405180910390fd5b6004805460ff60a01b191690556040517f19aad37188a1d3921e29eb3c66acf43d81975e107cb650d58cca878627955fd690600090a1565b600454600160a01b900460ff16156124b85760405162461bcd60e51b81526004018080602001828103825260258152602001806145046025913960400191505060405180910390fd5b610a078383836001613ad7565b600454600160a01b900460ff161561250e5760405162461bcd60e51b81526004018080602001828103825260258152602001806145046025913960400191505060405180910390fd5b336000908152600760205260409020805465ffffffffffff60301b19811690915560065465ffffffffffff600160301b90920482169161255c91600160901b9004168263ffffffff61388616565b6006805465ffffffffffff92909216600160901b0265ffffffffffff60901b199092169190911790557fc0819c13be868895eb93e40eaceb96de976442fa1d404e5c55f14bb65a8c489a336125b083613862565b604080516001600160a01b03909316835260208301919091528051918290030190a1600b546125e9906001600160a01b031633836138cf565b6126245760405162461bcd60e51b81526004018080602001828103825260378152602001806145bf6037913960400191505060405180910390fd5b50565b600c5490565b6002546040805163349f642f60e11b81526020600482018190526009602483015268636f6d6d697474656560b81b604483015291516000936001600160a01b03169263693ec85e9260648082019391829003018186803b158015610a9357600080fd5b6002546040805163349f642f60e11b815260206004820181905260076024830152667265776172647360c81b604483015291516000936001600160a01b03169263693ec85e9260648082019391829003018186803b158015610a9357600080fd5b6126f961262d565b6001600160a01b0316336001600160a01b0316146127485760405162461bcd60e51b815260040180806020018281038252602481526020018061446a6024913960400191505060405180910390fd5b600454600160a01b900460ff16156127915760405162461bcd60e51b81526004018080602001828103825260258152602001806145046025913960400191505060405180910390fd5b61282f86868080602002602001604051908101604052809392919081815260200183836020028082843760009201919091525050604080516020808a02828101820190935289825290935089925088918291850190849080828437600092019190915250506040805160208089028281018201909352888252909350889250879182918501908490808284376000920191909152506130f892505050565b505050505050565b6002546040805163349f642f60e11b815260206004820181905260086024830152671c1c9bdd1bd8dbdb60c21b604483015291516000936001600160a01b03169263693ec85e9260648082019391829003018186803b158015610a9357600080fd5b600454600160a01b900460ff16156128e25760405162461bcd60e51b81526004018080602001828103825260258152602001806145046025913960400191505060405180910390fd5b60006128ed82613879565b6006805465ffffffffffff19811665ffffffffffff918216840191821617909155600a54919250906001600160a01b031661292a81333086613c54565b6129655760405162461bcd60e51b81526004018080602001828103825260308152602001806144d46030913960400191505060405180910390fd5b600061296f612eba565b9050816001600160a01b031663095ea7b382876040518363ffffffff1660e01b815260040180836001600160a01b03166001600160a01b0316815260200182815260200192505050602060405180830381600087803b1580156129d157600080fd5b505af11580156129e5573d6000803e3d6000fd5b505050506040513d60208110156129fb57600080fd5b5051612a385760405162461bcd60e51b815260040180806020018281038252602c815260200180614593602c913960400191505060405180910390fd5b806001600160a01b03166350017f3e866040518263ffffffff1660e01b815260040180828152602001915050600060405180830381600087803b158015612a7e57600080fd5b505af1158015612a92573d6000803e3d6000fd5b505050507fef4d88d3c509cb8efdd3deee6b834e0adedb009535ee927f06849d7e47db39978561123285613862565b6003546001600160a01b031690565b6001600160a01b038116600090815260076020526040812054610beb90600160301b900465ffffffffffff16613862565b600454600160a01b900460ff1681565b600454600160a01b900460ff1615612b5a5760405162461bcd60e51b81526004018080602001828103825260258152602001806145046025913960400191505060405180910390fd5b610a078383836000613ad7565b612b6f610a0c565b612baa5760405162461bcd60e51b81526004018080602001828103825260418152602001806145526041913960600191505060405180910390fd5b6040805133815290517fa70f26764574533b4d511b70b39191ceaaa63e9eb8f2b43e4646488a014be3499181900360200190a1600b54604080516370a0823160e01b815230600482015290516001600160a01b039092169163a9059cbb91339184916370a08231916024808301926020929190829003018186803b158015612c3157600080fd5b505afa158015612c45573d6000803e3d6000fd5b505050506040513d6020811015612c5b57600080fd5b5051604080516001600160e01b031960e086901b1681526001600160a01b03909316600484015260248301919091525160448083019260209291908290030181600087803b158015612cac57600080fd5b505af1158015612cc0573d6000803e3d6000fd5b505050506040513d6020811015612cd657600080fd5b5051612d135760405162461bcd60e51b81526004018080602001828103825260388152602001806146546038913960400191505060405180910390fd5b600a54604080516370a0823160e01b815230600482015290516001600160a01b039092169163a9059cbb91339184916370a08231916024808301926020929190829003018186803b158015612d6757600080fd5b505afa158015612d7b573d6000803e3d6000fd5b505050506040513d6020811015612d9157600080fd5b5051604080516001600160e01b031960e086901b1681526001600160a01b03909316600484015260248301919091525160448083019260209291908290030181600087803b158015612de257600080fd5b505af1158015612df6573d6000803e3d6000fd5b505050506040513d6020811015612e0c57600080fd5b5051612e495760405162461bcd60e51b815260040180806020018281038252603e8152602001806147f6603e913960400191505060405180910390fd5b565b6002546040805163349f642f60e11b8152602060048201819052601560248301527433bab0b93234b0b739a932b3b4b9ba3930ba34b7b760591b604483015291516000936001600160a01b03169263693ec85e9260648082019391829003018186803b158015610a9357600080fd5b6002546040805163349f642f60e11b81526020600482018190526016602483015275189bdbdd1cdd1c985c14995dd85c991cd5d85b1b195d60521b604483015291516000936001600160a01b03169263693ec85e9260648082019391829003018186803b158015610a9357600080fd5b612f32610ee6565b612f6d5760405162461bcd60e51b81526004018080602001828103825260438152602001806147776043913960600191505060405180910390fd5b600454600160a01b900460ff1615612fb65760405162461bcd60e51b81526004018080602001828103825260258152602001806145046025913960400191505060405180910390fd5b612fbf81613879565b6005805465ffffffffffff191665ffffffffffff9290921691909117905550565b612fe8610a0c565b6130235760405162461bcd60e51b81526004018080602001828103825260418152602001806145526041913960600191505060405180910390fd5b6004805460ff60a01b1916600160a01b1790556040517f0f2e5b6c72c6a4491efd919a9f9a409f324ef0708c11ee57d410c2cb06c0992b90600090a1565b613069610a0c565b6130a45760405162461bcd60e51b81526004018080602001828103825260418152602001806145526041913960600191505060405180910390fd5b600280546001600160a01b0383166001600160a01b0319909116811790915560408051918252517ffea2d033438b968078a6264409d0104b5f3d2ce7b795afc74918e70f3534f22b9181900360200190a150565b6131006143f3565b506040805160a08101825260055465ffffffffffff8082168352600160301b820481166020840152600160601b8204811693830193909352600160901b81049092166060820152600160c01b90910463ffffffff16608082015260008061316683613d0d565b915091506000806131778887613d89565b915091506060613188898988613f92565b90506131926143f3565b506040805160a08101825260065465ffffffffffff8082168352600160301b820481166020840152600160601b8204811693830193909352600160901b810483166060830152600160c01b900490911660808201526131ef614421565b6040518060600160405280836040015165ffffffffffff168152602001836060015165ffffffffffff168152602001836080015165ffffffffffff168152509050613238614421565b60005b8c5181101561347057600760008e838151811061325457fe5b6020908102919091018101516001600160a01b031682528181019290925260409081016000208151606081018352905465ffffffffffff8082168352600160301b8204811694830194909452600160601b9004909216908201528b519092506132dc908c90839081106132c357fe5b60200260200101516132d557896132d7565b885b613879565b82510165ffffffffffff1682528a51613313908c90839081106132fb57fe5b602002602001015161330d57876132d7565b86613879565b6020830180519190910165ffffffffffff16905284516133469086908390811061333957fe5b6020026020010151613879565b6040830180519190910165ffffffffffff1690528a5161336c908c90839081106132c357fe5b6040850180519190910165ffffffffffff1690528a51613392908c90839081106132fb57fe5b6060850180519190910165ffffffffffff16905284516133b89086908390811061333957fe5b846080018181510191509065ffffffffffff16908165ffffffffffff168152505081600760008f84815181106133ea57fe5b6020908102919091018101516001600160a01b031682528181019290925260409081016000208351815493850151949092015165ffffffffffff1990931665ffffffffffff9283161765ffffffffffff60301b1916600160301b948316949094029390931765ffffffffffff60601b1916600160601b919092160217905560010161323b565b506134796120ec565b6001600160a01b0316632e1a7d4d6134ba6134b5856040015165ffffffffffff16876080015165ffffffffffff1661388690919063ffffffff16565b613862565b6040518263ffffffff1660e01b815260040180828152602001915050600060405180830381600087803b1580156134f057600080fd5b505af1158015613504573d6000803e3d6000fd5b50505050613510612eba565b6001600160a01b0316632e1a7d4d61354c6134b5856000015165ffffffffffff16876040015165ffffffffffff1661388690919063ffffffff16565b6040518263ffffffff1660e01b815260040180828152602001915050600060405180830381600087803b15801561358257600080fd5b505af1158015613596573d6000803e3d6000fd5b5050505082600660008201518160000160006101000a81548165ffffffffffff021916908365ffffffffffff16021790555060208201518160000160066101000a81548165ffffffffffff021916908365ffffffffffff160217905550604082015181600001600c6101000a81548165ffffffffffff021916908365ffffffffffff16021790555060608201518160000160126101000a81548165ffffffffffff021916908365ffffffffffff16021790555060808201518160000160186101000a81548165ffffffffffff021916908365ffffffffffff16021790555090505042600c819055507f56c3a64f712d4fee1972a2c6932634dbd33a268f6dba68f9f2a85c3e9cfc84c98c85604051808060200180602001838103835285818151815260200191508051906020019060200280838360005b838110156136e55781810151838201526020016136cd565b50505050905001838103825284818151815260200191508051906020019060200280838360005b8381101561372457818101518382015260200161370c565b5050505090500194505050505060405180910390a1604080518981526020810189905281517f8d1562d8e84ae653eed9a27825e4d1c4f9e006b57e57c51d9c3e54107c9ef6ce929181900390910190a1604080518781526020810187905281517f055a3860959ffdb7b98ce3ca8b9cef54409cc16bf9d259e8b789952a92a98470929181900390910190a1505050505050505050505050565b3390565b6001600160a01b0381166138065760405162461bcd60e51b815260040180806020018281038252603881526020018061461c6038913960400191505060405180910390fd5b6003546040516001600160a01b038084169216907f322ef0cb3bcc6b6f659770a0acaf7473e9bc6ebe63e04e4f28924c285c8cc5ea90600090a3600380546001600160a01b0319166001600160a01b0392909216919091179055565b65ffffffffffff811666038d7ea4c6800002919050565b66038d7ea4c68000900490565b60006138c883836040518060400160405280601e81526020017f536166654d6174683a207375627472616374696f6e206f766572666c6f7700008152506140d2565b9392505050565b6000836001600160a01b031663a9059cbb846138ea85613862565b6040518363ffffffff1660e01b815260040180836001600160a01b03166001600160a01b0316815260200182815260200192505050602060405180830381600087803b15801561393957600080fd5b505af115801561394d573d6000803e3d6000fd5b505050506040513d602081101561396357600080fd5b5051949350505050565b6000828201838110156138c8576040805162461bcd60e51b815260206004820152601b60248201527f536166654d6174683a206164646974696f6e206f766572666c6f770000000000604482015290519081900360640190fd5b6000613a006139e66139d96001613862565b849063ffffffff61396d16565b60055463ffffffff600160c01b9091048116919061416916565b613a1384620186a063ffffffff61416916565b11159392505050565b6000836001600160a01b031663095ea7b3846138ea85613862565b6001600160a01b038116613a7c5760405162461bcd60e51b81526004018080602001828103825260368152602001806148b26036913960400191505060405180910390fd5b600080546040516001600160a01b03808516939216917f7e8c4fc74f50849b4ec635ed03f5d13f87cd46ae422e97479704c6fd1c164e2091a3600080546001600160a01b0319166001600160a01b0392909216919091179055565b613adf610795565b6000613aea836141c2565b9050846000613b1982613b1462278d00613b088a828b068303614169565b9063ffffffff6141cd16565b61420f565b9050613b26838286614225565b613b36828263ffffffff61388616565b91505b8115613b8257613b528362278d0063ffffffff61396d16565b9250613b5e868361420f565b9050613b6b838286614225565b613b7b828263ffffffff61388616565b9150613b39565b8115613b8a57fe5b600b54604080516323b872dd60e01b8152336004820152306024820152604481018a905290516001600160a01b03909216916323b872dd916064808201926020929091908290030181600087803b158015613be457600080fd5b505af1158015613bf8573d6000803e3d6000fd5b505050506040513d6020811015613c0e57600080fd5b5051613c4b5760405162461bcd60e51b81526004018080602001828103825260428152602001806148e86042913960600191505060405180910390fd5b50505050505050565b6000846001600160a01b03166323b872dd8585613c7086613862565b6040518463ffffffff1660e01b815260040180846001600160a01b03166001600160a01b03168152602001836001600160a01b03166001600160a01b031681526020018281526020019350505050602060405180830381600087803b158015613cd857600080fd5b505af1158015613cec573d6000803e3d6000fd5b505050506040513d6020811015613d0257600080fd5b505195945050505050565b6000806000613d27600c544261388690919063ffffffff16565b9050613d536134b56301e13380613b0884886000015165ffffffffffff1661416990919063ffffffff16565b9250613d7f6134b56301e13380613b0884886020015165ffffffffffff1661416990919063ffffffff16565b8301915050915091565b600c5460009081908180805b601883108015613da457504284105b15613f67576000613db4856141c2565b90506000613dcb8262278d0063ffffffff61396d16565b90506000613dd9824261420f565b90506000613ded828963ffffffff61388616565b90506000613e01848a63ffffffff61388616565b6000868152600860205260408120549192508284830281613e1e57fe5b04988901989050613e35828263ffffffff61388616565b600088815260086020908152604080832084905580518b8152918201859052818101849052606082019290925290519193507f4232d5938052a979d46e66a834b9f96fbc31ffaeaec93c181b93e7d2502b10ca919081900360800190a160008781526009602052604090205491508284830281613eae57fe5b04978801979050613ec5828263ffffffff61388616565b60008881526009602090815260409182902083905581518a81529081018490528082018390526001606082015290519193507f4232d5938052a979d46e66a834b9f96fbc31ffaeaec93c181b93e7d2502b10ca919081900360800190a1849a50858b1115613f2f57fe5b858b1415613f5457600087815260086020908152604080832083905560099091528120555b505060019097019650613d959350505050565b613f7488888460006142e5565b9550613f8388888360016142e5565b86019450505050509250929050565b60608351604051908082528060200260200182016040528015613fbf578160200160208202803883390190505b5090506000805b8551811015613fff57613ff5858281518110613fde57fe5b60200260200101518361396d90919063ffffffff16565b9150600101613fc6565b5080156140ca57600061401d600c544261388690919063ffffffff16565b90506000614055856040015165ffffffffffff16613b1485613b08620186a06140498b60600151613862565b9063ffffffff61416916565b90506000805b88518110156140c55761409b6132d76502de41353000613b0887614049888e888151811061408557fe5b602002602001015161416990919063ffffffff16565b91506140a682613862565b8682815181106140b257fe5b602090810291909101015260010161405b565b505050505b509392505050565b600081848411156141615760405162461bcd60e51b81526004018080602001828103825283818151815260200191508051906020019080838360005b8381101561412657818101518382015260200161410e565b50505050905090810190601f1680156141535780820380516001836020036101000a031916815260200191505b509250505060405180910390fd5b505050900390565b60008261417857506000610beb565b8282028284828161418557fe5b04146138c85760405162461bcd60e51b81526004018080602001828103825260218152602001806147566021913960400191505060405180910390fd5b62278d008106900390565b60006138c883836040518060400160405280601a81526020017f536166654d6174683a206469766973696f6e206279207a65726f00000000000081525061438e565b600081831061421e57816138c8565b5090919050565b600081156142645760008481526009602052604090205461424c908463ffffffff61396d16565b60008581526009602052604090208190559050614297565b600084815260086020526040902054614283908463ffffffff61396d16565b600085815260086020526040902081905590505b6040805185815260208101859052808201839052831515606082015290517f40fc7d05dd8ce98e264f9f642ebc9df60bf4bcd8e7026863819d19bc30cc7b309181900360800190a150505050565b8351600090821561432857506000805b86518110156143265785818151811061430a57fe5b60200260200101511561431e576001909101905b6001016142f5565b505b8015614347576143446134b56132d7868463ffffffff6141cd16565b91505b600061436961435c848463ffffffff61416916565b869063ffffffff61388616565b905080156143845761438461437d426141c2565b8286614225565b5050949350505050565b600081836143dd5760405162461bcd60e51b815260206004820181815283516024840152835190928392604490910191908501908083836000831561412657818101518382015260200161410e565b5060008385816143e957fe5b0495945050505050565b6040805160a08101825260008082526020820181905291810182905260608101829052608081019190915290565b604080516060810182526000808252602082018190529181019190915290565b604051806080016040528060008152602001600081526020016000815260200160008152509056fe63616c6c6572206973206e6f742074686520636f6d6d697474656520636f6e74726163746d617844656c656761746f72735374616b696e675265776172647350657263656e744d696c6c65206d757374206e6f74206265206c6172676572207468616e20313030303030526577617264733a3a746f7055704669786564506f6f6c202d20696e73756666696369656e7420616c6c6f77616e6365636f6e7472616374206973206c6f636b656420666f722074686973206f7065726174696f6e6c697374206d75737420636f6e7461696e74206174206c65617374206f6e6520726563697069656e7457697468436c61696d61626c654d6967726174696f6e4f776e6572736869703a2063616c6c6572206973206e6f7420746865206d6967726174696f6e4f776e6572526577617264733a3a746f705570426f6f747374726170506f6f6c202d20617070726f7665206661696c6564526577617264733a3a636c61696d45787465726e616c546f6b656e52657761726473202d20696e73756666696369656e742066756e64736f6e207468652066697273742062617463682066726f6d426c6f636b206d757374206265203046756e6374696f6e616c4f776e65723a206e65772066756e6374696f6e616c4f776e657220697320746865207a65726f2061646472657373526577617264733a3a656d657267656e63795769746864726177202d207472616e73666572206661696c6564202866656520746f6b656e29657870656374656420746f20616e6420616d6f756e747320746f206265206f662073616d65206c656e67746843616c6c6572206973206e6f74207468652070656e64696e67206d6967726174696f6e4f776e65726e6f7420656e6f756768206d656d6265722062616c616e636520666f72207468697320646973747269627574696f6e7478496e646578206d757374206265203020666f7220746865206669727374207472616e73616374696f6e206f662061206e657720646973747269627574696f6e206261746368536166654d6174683a206d756c7469706c69636174696f6e206f766572666c6f7757697468436c61696d61626c6546756e6374696f6e616c4f776e6572736869703a2063616c6c6572206973206e6f74207468652066756e6374696f6e616c4f776e65726e6f7420656e6f7567682062616c616e636520696e2074686520626f6f74737472617020706f6f6c20666f722074686973207769746864726177616c526577617264733a3a656d657267656e63795769746864726177202d207472616e73666572206661696c65642028626f6f74737472617020746f6b656e29526577617264733a3a746f70557050726f52617461506f6f6c202d20617070726f7665206661696c6564526577617264733a3a746f70557050726f52617461506f6f6c202d20696e73756666696369656e7420616c6c6f77616e6365746f426c6f636b206d757374206265206174206c656173742066726f6d426c6f636b4d6967726174696f6e4f776e65723a206e6577206d6967726174696f6e4f776e657220697320746865207a65726f20616464726573736661696c656420746f207472616e7366657220737562736372697074696f6e20666565732066726f6d20737562736372697074696f6e7320746f2072657761726473546f74616c2064656c656761746f7273207265776172642028746f5b313a6e5d29206d757374206265206c657373207468656e206d617844656c656761746f72735374616b696e675265776172647350657263656e744d696c6c65206f6620746f74616c20616d6f756e74526577617264733a3a7769746864726177426f6f74737472617046756e6473202d20696e73756666696369656e742066756e647343616c6c6572206973206e6f74207468652070656e64696e672066756e6374696f6e616c4f776e65726e6f7420656e6f7567682062616c616e636520696e20746865207374616b696e6720706f6f6c20666f72207468697320646973747269627574696f6ea265627a7a72315820f630197b5f675706db2d8bf2a3cd14dca5523bebec09e353b65222a7d7f8ff1464736f6c63430005100032",
  "source": "pragma solidity 0.5.16;\n\nimport \"@openzeppelin/contracts/math/SafeMath.sol\";\nimport \"@openzeppelin/contracts/math/Math.sol\";\nimport \"@openzeppelin/contracts/token/ERC20/IERC20.sol\";\n\nimport \"./spec_interfaces/IContractRegistry.sol\";\nimport \"./spec_interfaces/ICommittee.sol\";\nimport \"./spec_interfaces/IProtocolWallet.sol\";\nimport \"./ContractRegistryAccessor.sol\";\nimport \"./Erc20AccessorWithTokenGranularity.sol\";\nimport \"./WithClaimableFunctionalOwnership.sol\";\n\ncontract Rewards is IRewards, ContractRegistryAccessor, ERC20AccessorWithTokenGranularity, WithClaimableFunctionalOwnership, Lockable {\n    using SafeMath for uint256;\n    using SafeMath for uint48;\n\n    struct Settings {\n        uint48 generalCommitteeAnnualBootstrap;\n        uint48 certificationCommitteeAnnualBootstrap;\n        uint48 annualRateInPercentMille;\n        uint48 annualCap;\n        uint32 maxDelegatorsStakingRewardsPercentMille;\n    }\n    Settings settings;\n\n    struct PoolsAndTotalBalances {\n        uint48 bootstrapPool;\n        uint48 stakingPool;\n        uint48 bootstrapRewardsTotalBalance;\n        uint48 feesTotalBalance;\n        uint48 stakingRewardsTotalBalance;\n    }\n    PoolsAndTotalBalances poolsAndTotalBalances;\n\n    struct Balance {\n        uint48 bootstrapRewards;\n        uint48 fees;\n        uint48 stakingRewards;\n    }\n    mapping(address => Balance) balances;\n\n    uint256 constant feeBucketTimePeriod = 30 days;\n    mapping(uint256 => uint256) generalFeePoolBuckets;\n    mapping(uint256 => uint256) certifiedFeePoolBuckets;\n\n    IERC20 bootstrapToken;\n    IERC20 erc20;\n    uint256 lastAssignedAt;\n\n    modifier onlyCommitteeContract() {\n        require(msg.sender == address(getCommitteeContract()), \"caller is not the committee contract\");\n\n        _;\n    }\n\n    constructor(IERC20 _erc20, IERC20 _bootstrapToken) public {\n        require(address(_bootstrapToken) != address(0), \"bootstrapToken must not be 0\");\n        require(address(_erc20) != address(0), \"erc20 must not be 0\");\n\n        erc20 = _erc20;\n        bootstrapToken = _bootstrapToken;\n\n        // TODO - The initial lastPayedAt should be set in the first assignRewards.\n        lastAssignedAt = now;\n    }\n\n    // bootstrap rewards\n\n    function setGeneralCommitteeAnnualBootstrap(uint256 annual_amount) external onlyFunctionalOwner onlyWhenActive {\n        settings.generalCommitteeAnnualBootstrap = toUint48Granularity(annual_amount);\n    }\n\n    function setCertificationCommitteeAnnualBootstrap(uint256 annual_amount) external onlyFunctionalOwner onlyWhenActive {\n        settings.certificationCommitteeAnnualBootstrap = toUint48Granularity(annual_amount);\n    }\n\n    function setMaxDelegatorsStakingRewardsPercentMille(uint32 maxDelegatorsStakingRewardsPercentMille) external onlyFunctionalOwner onlyWhenActive {\n        require(maxDelegatorsStakingRewardsPercentMille <= 100000, \"maxDelegatorsStakingRewardsPercentMille must not be larger than 100000\");\n        settings.maxDelegatorsStakingRewardsPercentMille = maxDelegatorsStakingRewardsPercentMille;\n        emit MaxDelegatorsStakingRewardsChanged(maxDelegatorsStakingRewardsPercentMille);\n    }\n\n    function topUpBootstrapPool(uint256 amount) external onlyWhenActive {\n        uint48 _amount48 = toUint48Granularity(amount);\n        uint48 bootstrapPool = poolsAndTotalBalances.bootstrapPool + _amount48;\n        poolsAndTotalBalances.bootstrapPool = bootstrapPool;\n\n        IERC20 _bootstrapToken = bootstrapToken;\n        require(transferFrom(_bootstrapToken, msg.sender, address(this), _amount48), \"Rewards::topUpFixedPool - insufficient allowance\");\n\n        IProtocolWallet wallet = getBootstrapRewardsWallet();\n        require(_bootstrapToken.approve(address(wallet), amount), \"Rewards::topUpBootstrapPool - approve failed\");\n        wallet.topUp(amount);\n\n        emit BootstrapAddedToPool(amount, toUint256Granularity(bootstrapPool));\n    }\n\n    function getBootstrapBalance(address addr) external view returns (uint256) {\n        return toUint256Granularity(balances[addr].bootstrapRewards);\n    }\n\n    function assignRewards() public onlyWhenActive {\n        (address[] memory committee, uint256[] memory weights, bool[] memory certification) = getCommitteeContract().getCommittee();\n        _assignRewardsToCommittee(committee, weights, certification);\n    }\n\n    function assignRewardsToCommittee(address[] calldata committee, uint256[] calldata committeeWeights, bool[] calldata certification) external onlyCommitteeContract onlyWhenActive {\n        _assignRewardsToCommittee(committee, committeeWeights, certification);\n    }\n\n    struct Totals {\n        uint48 bootstrapRewardsTotalBalance;\n        uint48 feesTotalBalance;\n        uint48 stakingRewardsTotalBalance;\n    }\n\n    function _assignRewardsToCommittee(address[] memory committee, uint256[] memory committeeWeights, bool[] memory certification) private {\n        Settings memory _settings = settings;\n\n        (uint256 generalGuardianBootstrap, uint256 certifiedGuardianBootstrap) = collectBootstrapRewards(_settings);\n        (uint256 generalGuardianFee, uint256 certifiedGuardianFee) = collectFees(committee, certification);\n        (uint256[] memory stakingRewards) = collectStakingRewards(committee, committeeWeights, _settings);\n\n        PoolsAndTotalBalances memory totals = poolsAndTotalBalances;\n\n        Totals memory origTotals = Totals({\n            bootstrapRewardsTotalBalance: totals.bootstrapRewardsTotalBalance,\n            feesTotalBalance: totals.feesTotalBalance,\n            stakingRewardsTotalBalance: totals.stakingRewardsTotalBalance\n        });\n\n        Balance memory balance;\n        for (uint i = 0; i < committee.length; i++) {\n            balance = balances[committee[i]];\n\n            balance.bootstrapRewards += toUint48Granularity(certification[i] ? certifiedGuardianBootstrap : generalGuardianBootstrap);\n            balance.fees += toUint48Granularity(certification[i] ? certifiedGuardianFee : generalGuardianFee);\n            balance.stakingRewards += toUint48Granularity(stakingRewards[i]);\n\n            totals.bootstrapRewardsTotalBalance += toUint48Granularity(certification[i] ? certifiedGuardianBootstrap : generalGuardianBootstrap);\n            totals.feesTotalBalance += toUint48Granularity(certification[i] ? certifiedGuardianFee : generalGuardianFee);\n            totals.stakingRewardsTotalBalance += toUint48Granularity(stakingRewards[i]);\n\n            balances[committee[i]] = balance;\n        }\n\n        getStakingRewardsWallet().withdraw(toUint256Granularity(uint48(totals.stakingRewardsTotalBalance.sub(origTotals.stakingRewardsTotalBalance))));\n        getBootstrapRewardsWallet().withdraw(toUint256Granularity(uint48(totals.bootstrapRewardsTotalBalance.sub(origTotals.bootstrapRewardsTotalBalance))));\n\n        poolsAndTotalBalances = totals;\n        lastAssignedAt = now;\n\n        emit StakingRewardsAssigned(committee, stakingRewards);\n        emit BootstrapRewardsAssigned(generalGuardianBootstrap, certifiedGuardianBootstrap);\n        emit FeesAssigned(generalGuardianFee, certifiedGuardianFee);\n    }\n\n    function collectBootstrapRewards(Settings memory _settings) private view returns (uint256 generalGuardianBootstrap, uint256 certifiedGuardianBootstrap){\n        uint256 duration = now.sub(lastAssignedAt);\n        generalGuardianBootstrap = toUint256Granularity(uint48(_settings.generalCommitteeAnnualBootstrap.mul(duration).div(365 days)));\n        certifiedGuardianBootstrap = generalGuardianBootstrap + toUint256Granularity(uint48(_settings.certificationCommitteeAnnualBootstrap.mul(duration).div(365 days)));\n    }\n\n    function withdrawBootstrapFunds() external onlyWhenActive {\n        uint48 amount = balances[msg.sender].bootstrapRewards;\n\n        PoolsAndTotalBalances memory _poolsAndTotalBalances = poolsAndTotalBalances;\n\n        require(amount <= _poolsAndTotalBalances.bootstrapPool, \"not enough balance in the bootstrap pool for this withdrawal\");\n        balances[msg.sender].bootstrapRewards = 0;\n        _poolsAndTotalBalances.bootstrapRewardsTotalBalance = uint48(_poolsAndTotalBalances.bootstrapRewardsTotalBalance.sub(amount));\n        _poolsAndTotalBalances.bootstrapPool = uint48(_poolsAndTotalBalances.bootstrapPool.sub(amount));\n        poolsAndTotalBalances = _poolsAndTotalBalances;\n\n        emit BootstrapRewardsWithdrawn(msg.sender, toUint256Granularity(amount));\n        require(transfer(bootstrapToken, msg.sender, amount), \"Rewards::withdrawBootstrapFunds - insufficient funds\");\n    }\n\n    // staking rewards\n\n    function setAnnualStakingRewardsRate(uint256 annual_rate_in_percent_mille, uint256 annual_cap) external onlyFunctionalOwner onlyWhenActive {\n        Settings memory _settings = settings;\n        _settings.annualRateInPercentMille = uint48(annual_rate_in_percent_mille);\n        _settings.annualCap = toUint48Granularity(annual_cap);\n        settings = _settings;\n    }\n\n    function topUpStakingRewardsPool(uint256 amount) external onlyWhenActive {\n        uint48 amount48 = toUint48Granularity(amount);\n        uint48 total48 = poolsAndTotalBalances.stakingPool + amount48;\n        poolsAndTotalBalances.stakingPool = total48;\n\n        IERC20 _erc20 = erc20;\n        require(_erc20.transferFrom(msg.sender, address(this), amount), \"Rewards::topUpProRataPool - insufficient allowance\");\n\n        IProtocolWallet wallet = getStakingRewardsWallet();\n        require(_erc20.approve(address(wallet), amount), \"Rewards::topUpProRataPool - approve failed\");\n        wallet.topUp(amount);\n\n        emit StakingRewardsAddedToPool(amount, toUint256Granularity(total48));\n    }\n\n    function getStakingRewardBalance(address addr) external view returns (uint256) {\n        return toUint256Granularity(balances[addr].stakingRewards);\n    }\n\n    function getLastRewardAssignmentTime() external view returns (uint256) {\n        return lastAssignedAt;\n    }\n\n    function collectStakingRewards(address[] memory committee, uint256[] memory weights, Settings memory _settings) private view returns (uint256[] memory assignedRewards) {\n        // TODO we often do integer division for rate related calculation, which floors the result. Do we need to address this?\n        // TODO for an empty committee or a committee with 0 total stake the divided amounts will be locked in the contract FOREVER\n        assignedRewards = new uint256[](committee.length);\n\n        uint256 totalWeight = 0;\n        for (uint i = 0; i < committee.length; i++) {\n            totalWeight = totalWeight.add(weights[i]);\n        }\n\n        if (totalWeight > 0) { // TODO - handle the case of totalStake == 0. consider also an empty committee. consider returning a boolean saying if the amount was successfully distributed or not and handle on caller side.\n            uint256 duration = now.sub(lastAssignedAt);\n\n            uint annualRateInPercentMille = Math.min(uint(_settings.annualRateInPercentMille), toUint256Granularity(_settings.annualCap).mul(100000).div(totalWeight));\n            uint48 curAmount;\n            for (uint i = 0; i < committee.length; i++) {\n                curAmount = toUint48Granularity(weights[i].mul(annualRateInPercentMille).mul(duration).div(36500000 days));\n                assignedRewards[i] = toUint256Granularity(curAmount);\n            }\n        }\n    }\n\n    struct DistributorBatchState {\n        uint256 fromBlock;\n        uint256 toBlock;\n        uint256 nextTxIndex;\n        uint split;\n    }\n    mapping (address => DistributorBatchState) distributorBatchState;\n\n    function isDelegatorRewardsBelowThreshold(uint256 delegatorRewards, uint256 totalRewards) private view returns (bool) {\n        return delegatorRewards.mul(100000) <= uint(settings.maxDelegatorsStakingRewardsPercentMille).mul(totalRewards.add(toUint256Granularity(1))); // +1 is added to account for rounding errors\n    }\n\n    struct VistributeOrbsTokenStakingRewardsVars {\n        bool firstTxBySender;\n        address guardianAddr;\n        uint256 delegatorsAmount;\n    }\n    function distributeOrbsTokenStakingRewards(uint256 totalAmount, uint256 fromBlock, uint256 toBlock, uint split, uint txIndex, address[] calldata to, uint256[] calldata amounts) external onlyWhenActive {\n        require(to.length > 0, \"list must containt at least one recipient\");\n        require(to.length == amounts.length, \"expected to and amounts to be of same length\");\n        uint48 totalAmount_uint48 = toUint48Granularity(totalAmount);\n        require(totalAmount == toUint256Granularity(totalAmount_uint48), \"totalAmount must divide by 1e15\");\n\n        VistributeOrbsTokenStakingRewardsVars memory vars;\n\n        vars.guardianAddr = getGuardiansRegistrationContract().resolveGuardianAddress(msg.sender);\n\n        for (uint i = 0; i < to.length; i++) {\n            if (to[i] != vars.guardianAddr) {\n                vars.delegatorsAmount = vars.delegatorsAmount.add(amounts[i]);\n            }\n        }\n        require(isDelegatorRewardsBelowThreshold(vars.delegatorsAmount, totalAmount), \"Total delegators reward (to[1:n]) must be less then maxDelegatorsStakingRewardsPercentMille of total amount\");\n\n        DistributorBatchState memory ds = distributorBatchState[vars.guardianAddr];\n        vars.firstTxBySender = ds.nextTxIndex == 0;\n\n        require(!vars.firstTxBySender || fromBlock == 0, \"on the first batch fromBlock must be 0\");\n\n        if (vars.firstTxBySender || fromBlock == ds.toBlock + 1) { // New distribution batch\n            require(txIndex == 0, \"txIndex must be 0 for the first transaction of a new distribution batch\");\n            require(toBlock < block.number, \"toBlock must be in the past\");\n            require(toBlock >= fromBlock, \"toBlock must be at least fromBlock\");\n            ds.fromBlock = fromBlock;\n            ds.toBlock = toBlock;\n            ds.split = split;\n            ds.nextTxIndex = 1;\n            distributorBatchState[vars.guardianAddr] = ds;\n        } else {\n            require(txIndex == ds.nextTxIndex, \"txIndex mismatch\");\n            require(toBlock == ds.toBlock, \"toBlock mismatch\");\n            require(fromBlock == ds.fromBlock, \"fromBlock mismatch\");\n            require(split == ds.split, \"split mismatch\");\n            distributorBatchState[vars.guardianAddr].nextTxIndex = txIndex + 1;\n        }\n\n        require(totalAmount_uint48 <= balances[vars.guardianAddr].stakingRewards, \"not enough member balance for this distribution\");\n\n        PoolsAndTotalBalances memory _poolsAndTotalBalances = poolsAndTotalBalances;\n\n        require(totalAmount_uint48 <= _poolsAndTotalBalances.stakingPool, \"not enough balance in the staking pool for this distribution\");\n\n        _poolsAndTotalBalances.stakingPool = uint48(_poolsAndTotalBalances.stakingPool.sub(totalAmount_uint48));\n        balances[vars.guardianAddr].stakingRewards = uint48(balances[vars.guardianAddr].stakingRewards.sub(totalAmount_uint48));\n        _poolsAndTotalBalances.stakingRewardsTotalBalance = uint48(_poolsAndTotalBalances.stakingRewardsTotalBalance.sub(totalAmount_uint48));\n\n        poolsAndTotalBalances = _poolsAndTotalBalances;\n\n        IStakingContract stakingContract = getStakingContract();\n\n        approve(erc20, address(stakingContract), totalAmount_uint48);\n        stakingContract.distributeRewards(totalAmount, to, amounts); // TODO should we rely on staking contract to verify total amount?\n\n        getDelegationsContract().refreshStakeNotification(vars.guardianAddr);\n\n        emit StakingRewardsDistributed(vars.guardianAddr, fromBlock, toBlock, split, txIndex, to, amounts);\n    }\n\n    // fees\n\n    function getFeeBalance(address addr) external view returns (uint256) {\n        return toUint256Granularity(balances[addr].fees);\n    }\n\n    uint constant MAX_FEE_BUCKET_ITERATIONS = 24;\n\n    function collectFees(address[] memory committee, bool[] memory certification) private returns (uint256 generalGuardianFee, uint256 certifiedGuardianFee) {\n        // TODO we often do integer division for rate related calculation, which floors the result. Do we need to address this?\n        // TODO for an empty committee or a committee with 0 total stake the divided amounts will be locked in the contract FOREVER\n\n        // Fee pool\n        uint _lastAssignedAt = lastAssignedAt;\n        uint bucketsPayed = 0;\n        uint generalFeePoolAmount = 0;\n        uint certificationFeePoolAmount = 0;\n        while (bucketsPayed < MAX_FEE_BUCKET_ITERATIONS && _lastAssignedAt < now) {\n            uint256 bucketStart = _bucketTime(_lastAssignedAt);\n            uint256 bucketEnd = bucketStart.add(feeBucketTimePeriod);\n            uint256 payUntil = Math.min(bucketEnd, now);\n            uint256 bucketDuration = payUntil.sub(_lastAssignedAt);\n            uint256 remainingBucketTime = bucketEnd.sub(_lastAssignedAt);\n\n            uint256 bucketTotal = generalFeePoolBuckets[bucketStart];\n            uint256 amount = bucketTotal * bucketDuration / remainingBucketTime;\n            generalFeePoolAmount += amount;\n            bucketTotal = bucketTotal.sub(amount);\n            generalFeePoolBuckets[bucketStart] = bucketTotal;\n            emit FeesWithdrawnFromBucket(bucketStart, amount, bucketTotal, false);\n\n            bucketTotal = certifiedFeePoolBuckets[bucketStart];\n            amount = bucketTotal * bucketDuration / remainingBucketTime;\n            certificationFeePoolAmount += amount;\n            bucketTotal = bucketTotal.sub(amount);\n            certifiedFeePoolBuckets[bucketStart] = bucketTotal;\n            emit FeesWithdrawnFromBucket(bucketStart, amount, bucketTotal, true);\n\n            _lastAssignedAt = payUntil;\n\n            assert(_lastAssignedAt <= bucketEnd);\n            if (_lastAssignedAt == bucketEnd) {\n                delete generalFeePoolBuckets[bucketStart];\n                delete certifiedFeePoolBuckets[bucketStart];\n            }\n\n            bucketsPayed++;\n        }\n\n        generalGuardianFee = divideFees(committee, certification, generalFeePoolAmount, false);\n        certifiedGuardianFee = generalGuardianFee + divideFees(committee, certification, certificationFeePoolAmount, true);\n    }\n\n    function divideFees(address[] memory committee, bool[] memory certification, uint256 amount, bool isCertified) private returns (uint256 guardianFee) {\n        uint n = committee.length;\n        if (isCertified)  {\n            n = 0;\n            for (uint i = 0; i < committee.length; i++) {\n                if (certification[i]) n++;\n            }\n        }\n        if (n > 0) {\n            guardianFee = toUint256Granularity(toUint48Granularity(amount.div(n)));\n        }\n\n        uint256 remainder = amount.sub(guardianFee.mul(n));\n        if (remainder > 0) {\n            fillFeeBucket(_bucketTime(now), remainder, isCertified);\n        }\n    }\n\n    function fillGeneralFeeBuckets(uint256 amount, uint256 monthlyRate, uint256 fromTimestamp) external onlyWhenActive {\n        fillFeeBuckets(amount, monthlyRate, fromTimestamp, false);\n    }\n\n    function fillCertificationFeeBuckets(uint256 amount, uint256 monthlyRate, uint256 fromTimestamp) external onlyWhenActive {\n        fillFeeBuckets(amount, monthlyRate, fromTimestamp, true);\n    }\n\n    function fillFeeBucket(uint256 bucketId, uint256 amount, bool isCertified) private {\n        uint256 total;\n        if (isCertified) {\n            total = certifiedFeePoolBuckets[bucketId].add(amount);\n            certifiedFeePoolBuckets[bucketId] = total;\n        } else {\n            total = generalFeePoolBuckets[bucketId].add(amount);\n            generalFeePoolBuckets[bucketId] = total;\n        }\n\n        emit FeesAddedToBucket(bucketId, amount, total, isCertified);\n    }\n\n    function fillFeeBuckets(uint256 amount, uint256 monthlyRate, uint256 fromTimestamp, bool isCertified) private {\n        assignRewards(); // to handle rate change in the middle of a bucket time period (TBD - this is nice to have, consider removing)\n\n        uint256 bucket = _bucketTime(fromTimestamp);\n        uint256 _amount = amount;\n\n        // add the partial amount to the first bucket\n        uint256 bucketAmount = Math.min(amount, monthlyRate.mul(feeBucketTimePeriod - fromTimestamp % feeBucketTimePeriod).div(feeBucketTimePeriod));\n        fillFeeBucket(bucket, bucketAmount, isCertified);\n        _amount = _amount.sub(bucketAmount);\n\n        // following buckets are added with the monthly rate\n        while (_amount > 0) {\n            bucket = bucket.add(feeBucketTimePeriod);\n            bucketAmount = Math.min(monthlyRate, _amount);\n            fillFeeBucket(bucket, bucketAmount, isCertified);\n            _amount = _amount.sub(bucketAmount);\n        }\n\n        assert(_amount == 0);\n\n        require(erc20.transferFrom(msg.sender, address(this), amount), \"failed to transfer subscription fees from subscriptions to rewards\");\n    }\n\n    function withdrawFeeFunds() external onlyWhenActive {\n        uint48 amount = balances[msg.sender].fees;\n        balances[msg.sender].fees = 0;\n        poolsAndTotalBalances.feesTotalBalance = uint48(poolsAndTotalBalances.feesTotalBalance.sub(amount));\n        emit FeesWithdrawn(msg.sender, toUint256Granularity(amount));\n        require(transfer(erc20, msg.sender, amount), \"Rewards::claimExternalTokenRewards - insufficient funds\");\n    }\n\n    function getTotalBalances() external view returns (uint256 feesTotalBalance, uint256 stakingRewardsTotalBalance, uint256 bootstrapRewardsTotalBalance) {\n        PoolsAndTotalBalances memory totals = poolsAndTotalBalances;\n        return (toUint256Granularity(totals.feesTotalBalance), toUint256Granularity(totals.stakingRewardsTotalBalance), toUint256Granularity(totals.bootstrapRewardsTotalBalance));\n    }\n\n    function _bucketTime(uint256 time) private pure returns (uint256) {\n        return time - time % feeBucketTimePeriod;\n    }\n\n    function emergencyWithdraw() external onlyMigrationOwner {\n        emit EmergencyWithdrawal(msg.sender);\n        require(erc20.transfer(msg.sender, erc20.balanceOf(address(this))), \"Rewards::emergencyWithdraw - transfer failed (fee token)\");\n        require(bootstrapToken.transfer(msg.sender, bootstrapToken.balanceOf(address(this))), \"Rewards::emergencyWithdraw - transfer failed (bootstrap token)\");\n    }\n\n}\n",
  "sourcePath": "/Users/aviramstern/GolandProjects/orbs-ethereum-contracts-v2/contracts/Rewards.sol",
  "compiler": {
    "name": "solc",
    "version": "0.5.16+commit.9c3226ce.Emscripten.clang"
  },
  "schemaVersion": "3.0.23",
  "updatedAt": "2020-08-06T21:58:43.791Z",
  "devdoc": {
    "methods": {
      "claimFunctionalOwnership()": {
        "details": "Allows the pendingFunctionalOwner address to finalize the transfer."
      },
      "claimMigrationOwnership()": {
        "details": "Allows the pendingMigrationOwner address to finalize the transfer."
      },
      "functionalOwner()": {
        "details": "Returns the address of the current functionalOwner."
      },
      "isFunctionalOwner()": {
        "details": "Returns true if the caller is the current functionalOwner."
      },
      "isMigrationOwner()": {
        "details": "Returns true if the caller is the current migrationOwner."
      },
      "migrationOwner()": {
        "details": "Returns the address of the current migrationOwner."
      },
      "renounceFunctionalOwnership()": {
        "details": "Leaves the contract without functionalOwner. It will not be possible to call `onlyOwner` functions anymore. Can only be called by the current functionalOwner.     * NOTE: Renouncing functionalOwnership will leave the contract without an functionalOwner, thereby removing any functionality that is only available to the functionalOwner."
      },
      "renounceMigrationOwnership()": {
        "details": "Leaves the contract without migrationOwner. It will not be possible to call `onlyOwner` functions anymore. Can only be called by the current migrationOwner.     * NOTE: Renouncing migrationOwnership will leave the contract without an migrationOwner, thereby removing any functionality that is only available to the migrationOwner."
      },
      "transferFunctionalOwnership(address)": {
        "details": "Allows the current functionalOwner to set the pendingOwner address.",
        "params": {
          "newFunctionalOwner": "The address to transfer functionalOwnership to."
        }
      },
      "transferMigrationOwnership(address)": {
        "details": "Allows the current migrationOwner to set the pendingOwner address.",
        "params": {
          "newMigrationOwner": "The address to transfer migrationOwnership to."
        }
      }
    }
  },
  "userdoc": {
    "methods": {}
  }
}