{
  "contractName": "Subscriptions",
  "abi": [
    {
      "inputs": [
        {
          "internalType": "contract IERC20",
          "name": "_erc20",
          "type": "address"
        }
      ],
      "payable": false,
      "stateMutability": "nonpayable",
      "type": "constructor"
    },
    {
      "anonymous": false,
      "inputs": [
        {
          "indexed": false,
          "internalType": "address",
          "name": "addr",
          "type": "address"
        }
      ],
      "name": "ContractRegistryAddressUpdated",
      "type": "event"
    },
    {
      "anonymous": false,
      "inputs": [
        {
          "indexed": true,
          "internalType": "address",
          "name": "previousFunctionalOwner",
          "type": "address"
        },
        {
          "indexed": true,
          "internalType": "address",
          "name": "newFunctionalOwner",
          "type": "address"
        }
      ],
      "name": "FunctionalOwnershipTransferred",
      "type": "event"
    },
    {
      "anonymous": false,
      "inputs": [],
      "name": "Locked",
      "type": "event"
    },
    {
      "anonymous": false,
      "inputs": [
        {
          "indexed": true,
          "internalType": "address",
          "name": "previousMigrationOwner",
          "type": "address"
        },
        {
          "indexed": true,
          "internalType": "address",
          "name": "newMigrationOwner",
          "type": "address"
        }
      ],
      "name": "MigrationOwnershipTransferred",
      "type": "event"
    },
    {
      "anonymous": false,
      "inputs": [
        {
          "indexed": false,
          "internalType": "uint256",
          "name": "vcid",
          "type": "uint256"
        },
        {
          "indexed": false,
          "internalType": "address",
          "name": "by",
          "type": "address"
        },
        {
          "indexed": false,
          "internalType": "uint256",
          "name": "amount",
          "type": "uint256"
        },
        {
          "indexed": false,
          "internalType": "string",
          "name": "tier",
          "type": "string"
        },
        {
          "indexed": false,
          "internalType": "uint256",
          "name": "rate",
          "type": "uint256"
        }
      ],
      "name": "Payment",
      "type": "event"
    },
    {
      "anonymous": false,
      "inputs": [
        {
          "indexed": false,
          "internalType": "address",
          "name": "subscriber",
          "type": "address"
        }
      ],
      "name": "SubscriberAdded",
      "type": "event"
    },
    {
      "anonymous": false,
      "inputs": [
        {
          "indexed": false,
          "internalType": "uint256",
          "name": "vcid",
          "type": "uint256"
        },
        {
          "indexed": false,
          "internalType": "uint256",
          "name": "genRefTime",
          "type": "uint256"
        },
        {
          "indexed": false,
          "internalType": "uint256",
          "name": "expiresAt",
          "type": "uint256"
        },
        {
          "indexed": false,
          "internalType": "string",
          "name": "tier",
          "type": "string"
        },
        {
          "indexed": false,
          "internalType": "string",
          "name": "deploymentSubset",
          "type": "string"
        }
      ],
      "name": "SubscriptionChanged",
      "type": "event"
    },
    {
      "anonymous": false,
      "inputs": [],
      "name": "Unlocked",
      "type": "event"
    },
    {
      "anonymous": false,
      "inputs": [
        {
          "indexed": false,
          "internalType": "uint256",
          "name": "vcid",
          "type": "uint256"
        },
        {
          "indexed": false,
          "internalType": "string",
          "name": "key",
          "type": "string"
        },
        {
          "indexed": false,
          "internalType": "string",
          "name": "value",
          "type": "string"
        }
      ],
      "name": "VcConfigRecordChanged",
      "type": "event"
    },
    {
      "anonymous": false,
      "inputs": [
        {
          "indexed": false,
          "internalType": "uint256",
          "name": "vcid",
          "type": "uint256"
        },
        {
          "indexed": false,
          "internalType": "address",
          "name": "owner",
          "type": "address"
        }
      ],
      "name": "VcCreated",
      "type": "event"
    },
    {
      "anonymous": false,
      "inputs": [
        {
          "indexed": false,
          "internalType": "uint256",
          "name": "vcid",
          "type": "uint256"
        },
        {
          "indexed": false,
          "internalType": "address",
          "name": "previousOwner",
          "type": "address"
        },
        {
          "indexed": false,
          "internalType": "address",
          "name": "newOwner",
          "type": "address"
        }
      ],
      "name": "VcOwnerChanged",
      "type": "event"
    },
    {
      "constant": false,
      "inputs": [],
      "name": "claimFunctionalOwnership",
      "outputs": [],
      "payable": false,
      "stateMutability": "nonpayable",
      "type": "function"
    },
    {
      "constant": false,
      "inputs": [],
      "name": "claimMigrationOwnership",
      "outputs": [],
      "payable": false,
      "stateMutability": "nonpayable",
      "type": "function"
    },
    {
      "constant": true,
      "inputs": [],
      "name": "functionalOwner",
      "outputs": [
        {
          "internalType": "address",
          "name": "",
          "type": "address"
        }
      ],
      "payable": false,
      "stateMutability": "view",
      "type": "function"
    },
    {
      "constant": true,
      "inputs": [],
      "name": "getBootstrapRewardsWallet",
      "outputs": [
        {
          "internalType": "contract IProtocolWallet",
          "name": "",
          "type": "address"
        }
      ],
      "payable": false,
      "stateMutability": "view",
      "type": "function"
    },
    {
      "constant": true,
      "inputs": [],
      "name": "getCertificationContract",
      "outputs": [
        {
          "internalType": "contract ICertification",
          "name": "",
          "type": "address"
        }
      ],
      "payable": false,
      "stateMutability": "view",
      "type": "function"
    },
    {
      "constant": true,
      "inputs": [],
      "name": "getCommitteeContract",
      "outputs": [
        {
          "internalType": "contract ICommittee",
          "name": "",
          "type": "address"
        }
      ],
      "payable": false,
      "stateMutability": "view",
      "type": "function"
    },
    {
      "constant": true,
      "inputs": [],
      "name": "getDelegationsContract",
      "outputs": [
        {
          "internalType": "contract IDelegations",
          "name": "",
          "type": "address"
        }
      ],
      "payable": false,
      "stateMutability": "view",
      "type": "function"
    },
    {
      "constant": true,
      "inputs": [],
      "name": "getElectionsContract",
      "outputs": [
        {
          "internalType": "contract IElections",
          "name": "",
          "type": "address"
        }
      ],
      "payable": false,
      "stateMutability": "view",
      "type": "function"
    },
    {
      "constant": true,
      "inputs": [],
      "name": "getGuardiansRegistrationContract",
      "outputs": [
        {
          "internalType": "contract IGuardiansRegistration",
          "name": "",
          "type": "address"
        }
      ],
      "payable": false,
      "stateMutability": "view",
      "type": "function"
    },
    {
      "constant": true,
      "inputs": [],
      "name": "getProtocolContract",
      "outputs": [
        {
          "internalType": "contract IProtocol",
          "name": "",
          "type": "address"
        }
      ],
      "payable": false,
      "stateMutability": "view",
      "type": "function"
    },
    {
      "constant": true,
      "inputs": [],
      "name": "getRewardsContract",
      "outputs": [
        {
          "internalType": "contract IRewards",
          "name": "",
          "type": "address"
        }
      ],
      "payable": false,
      "stateMutability": "view",
      "type": "function"
    },
    {
      "constant": true,
      "inputs": [],
      "name": "getStakingContract",
      "outputs": [
        {
          "internalType": "contract IStakingContract",
          "name": "",
          "type": "address"
        }
      ],
      "payable": false,
      "stateMutability": "view",
      "type": "function"
    },
    {
      "constant": true,
      "inputs": [],
      "name": "getStakingRewardsWallet",
      "outputs": [
        {
          "internalType": "contract IProtocolWallet",
          "name": "",
          "type": "address"
        }
      ],
      "payable": false,
      "stateMutability": "view",
      "type": "function"
    },
    {
      "constant": true,
      "inputs": [],
      "name": "getSubscriptionsContract",
      "outputs": [
        {
          "internalType": "contract ISubscriptions",
          "name": "",
          "type": "address"
        }
      ],
      "payable": false,
      "stateMutability": "view",
      "type": "function"
    },
    {
      "constant": true,
      "inputs": [],
      "name": "isFunctionalOwner",
      "outputs": [
        {
          "internalType": "bool",
          "name": "",
          "type": "bool"
        }
      ],
      "payable": false,
      "stateMutability": "view",
      "type": "function"
    },
    {
      "constant": true,
      "inputs": [],
      "name": "isMigrationOwner",
      "outputs": [
        {
          "internalType": "bool",
          "name": "",
          "type": "bool"
        }
      ],
      "payable": false,
      "stateMutability": "view",
      "type": "function"
    },
    {
      "constant": false,
      "inputs": [],
      "name": "lock",
      "outputs": [],
      "payable": false,
      "stateMutability": "nonpayable",
      "type": "function"
    },
    {
      "constant": true,
      "inputs": [],
      "name": "locked",
      "outputs": [
        {
          "internalType": "bool",
          "name": "",
          "type": "bool"
        }
      ],
      "payable": false,
      "stateMutability": "view",
      "type": "function"
    },
    {
      "constant": true,
      "inputs": [],
      "name": "migrationOwner",
      "outputs": [
        {
          "internalType": "address",
          "name": "",
          "type": "address"
        }
      ],
      "payable": false,
      "stateMutability": "view",
      "type": "function"
    },
    {
      "constant": false,
      "inputs": [],
      "name": "renounceFunctionalOwnership",
      "outputs": [],
      "payable": false,
      "stateMutability": "nonpayable",
      "type": "function"
    },
    {
      "constant": false,
      "inputs": [],
      "name": "renounceMigrationOwnership",
      "outputs": [],
      "payable": false,
      "stateMutability": "nonpayable",
      "type": "function"
    },
    {
      "constant": false,
      "inputs": [
        {
          "internalType": "contract IContractRegistry",
          "name": "_contractRegistry",
          "type": "address"
        }
      ],
      "name": "setContractRegistry",
      "outputs": [],
      "payable": false,
      "stateMutability": "nonpayable",
      "type": "function"
    },
    {
      "constant": false,
      "inputs": [
        {
          "internalType": "address",
          "name": "newFunctionalOwner",
          "type": "address"
        }
      ],
      "name": "transferFunctionalOwnership",
      "outputs": [],
      "payable": false,
      "stateMutability": "nonpayable",
      "type": "function"
    },
    {
      "constant": false,
      "inputs": [
        {
          "internalType": "address",
          "name": "newMigrationOwner",
          "type": "address"
        }
      ],
      "name": "transferMigrationOwnership",
      "outputs": [],
      "payable": false,
      "stateMutability": "nonpayable",
      "type": "function"
    },
    {
      "constant": false,
      "inputs": [],
      "name": "unlock",
      "outputs": [],
      "payable": false,
      "stateMutability": "nonpayable",
      "type": "function"
    },
    {
      "constant": false,
      "inputs": [
        {
          "internalType": "uint256",
          "name": "vcid",
          "type": "uint256"
        },
        {
          "internalType": "string",
          "name": "key",
          "type": "string"
        },
        {
          "internalType": "string",
          "name": "value",
          "type": "string"
        }
      ],
      "name": "setVcConfigRecord",
      "outputs": [],
      "payable": false,
      "stateMutability": "nonpayable",
      "type": "function"
    },
    {
      "constant": true,
      "inputs": [
        {
          "internalType": "uint256",
          "name": "vcid",
          "type": "uint256"
        },
        {
          "internalType": "string",
          "name": "key",
          "type": "string"
        }
      ],
      "name": "getVcConfigRecord",
      "outputs": [
        {
          "internalType": "string",
          "name": "",
          "type": "string"
        }
      ],
      "payable": false,
      "stateMutability": "view",
      "type": "function"
    },
    {
      "constant": false,
      "inputs": [
        {
          "internalType": "address",
          "name": "addr",
          "type": "address"
        }
      ],
      "name": "addSubscriber",
      "outputs": [],
      "payable": false,
      "stateMutability": "nonpayable",
      "type": "function"
    },
    {
      "constant": false,
      "inputs": [
        {
          "internalType": "string",
          "name": "tier",
          "type": "string"
        },
        {
          "internalType": "uint256",
          "name": "rate",
          "type": "uint256"
        },
        {
          "internalType": "uint256",
          "name": "amount",
          "type": "uint256"
        },
        {
          "internalType": "address",
          "name": "owner",
          "type": "address"
        },
        {
          "internalType": "bool",
          "name": "isCertified",
          "type": "bool"
        },
        {
          "internalType": "string",
          "name": "deploymentSubset",
          "type": "string"
        }
      ],
      "name": "createVC",
      "outputs": [
        {
          "internalType": "uint256",
          "name": "",
          "type": "uint256"
        },
        {
          "internalType": "uint256",
          "name": "",
          "type": "uint256"
        }
      ],
      "payable": false,
      "stateMutability": "nonpayable",
      "type": "function"
    },
    {
      "constant": false,
      "inputs": [
        {
          "internalType": "uint256",
          "name": "vcid",
          "type": "uint256"
        },
        {
          "internalType": "uint256",
          "name": "amount",
          "type": "uint256"
        },
        {
          "internalType": "address",
          "name": "payer",
          "type": "address"
        }
      ],
      "name": "extendSubscription",
      "outputs": [],
      "payable": false,
      "stateMutability": "nonpayable",
      "type": "function"
    },
    {
      "constant": false,
      "inputs": [
        {
          "internalType": "uint256",
          "name": "vcid",
          "type": "uint256"
        },
        {
          "internalType": "address",
          "name": "owner",
          "type": "address"
        }
      ],
      "name": "setVcOwner",
      "outputs": [],
      "payable": false,
      "stateMutability": "nonpayable",
      "type": "function"
    },
    {
      "constant": false,
      "inputs": [
        {
          "internalType": "uint256",
          "name": "newGenesisRefTimeDelay",
          "type": "uint256"
        }
      ],
      "name": "setGenesisRefTimeDelay",
      "outputs": [],
      "payable": false,
      "stateMutability": "nonpayable",
      "type": "function"
    },
    {
      "constant": true,
      "inputs": [],
      "name": "getGenesisRefTimeDelay",
      "outputs": [
        {
          "internalType": "uint256",
          "name": "",
          "type": "uint256"
        }
      ],
      "payable": false,
      "stateMutability": "view",
      "type": "function"
    }
  ],
  "bytecode": "0x60806040523480156200001157600080fd5b506040516200265938038062002659833981810160405260208110156200003757600080fd5b505160006200004e6001600160e01b036200018a16565b600080546001600160a01b0319166001600160a01b0383169081178255604051929350917f7e8c4fc74f50849b4ec635ed03f5d13f87cd46ae422e97479704c6fd1c164e20908290a3506000620000ad6001600160e01b036200018a16565b600380546001600160a01b0319166001600160a01b038316908117909155604051919250906000907f322ef0cb3bcc6b6f659770a0acaf7473e9bc6ebe63e04e4f28924c285c8cc5ea908290a3506001600160a01b03811662000157576040805162461bcd60e51b815260206004820152601360248201527f6572633230206d757374206e6f74206265203000000000000000000000000000604482015290519081900360640190fd5b620f4240600755612a30600855600980546001600160a01b0319166001600160a01b03929092169190911790556200018e565b3390565b6124bb806200019e6000396000f3fe608060405234801561001057600080fd5b50600436106101fb5760003560e01c806394555d1a1161011a578063ad751ed3116100ad578063dd6d4ab71161007c578063dd6d4ab71461065e578063ddc0d5d614610678578063ec5e178c14610680578063f83d08ba14610688578063fcd13d6514610690576101fb565b8063ad751ed31461063e578063b5f1c29d14610646578063bed1807d1461064e578063cf30901214610656576101fb565b80639f587d1c116100e95780639f587d1c14610600578063a09e0d9014610626578063a69df4b51461062e578063ab6acfc414610636576101fb565b806394555d1a146104e7578063977d4e5a1461050d5780639b9a7e68146105155780639e1f68621461053b576101fb565b80633a88ab8e1161019257806359e998d61161016157806359e998d6146103d75780636cdb6746146104cf5780637b93af4c146104d75780638e68dce4146104df576101fb565b80633a88ab8e146102d55780633b781309146102dd5780633c28c218146102e55780635282346d146103cf576101fb565b80631dc669f4116101ce5780631dc669f41461028b578063209df1e2146102935780632c43bdd51461029b57806339435b59146102a3576101fb565b8063021abb931461020057806304846a491461021c5780630558b61a1461024a57806311caadfb14610267575b600080fd5b6102086106b6565b604080519115158252519081900360200190f35b6102486004803603604081101561023257600080fd5b50803590602001356001600160a01b03166106db565b005b6102486004803603602081101561026057600080fd5b50356107ef565b61026f610880565b604080516001600160a01b039092168252519081900360200190f35b610248610914565b610248610984565b61026f610a11565b610248600480360360608110156102b957600080fd5b50803590602081013590604001356001600160a01b0316610a20565b610208610a79565b610248610a90565b61035a600480360360408110156102fb57600080fd5b81359190810190604081016020820135600160201b81111561031c57600080fd5b82018360208201111561032e57600080fd5b803590602001918460018302840111600160201b8311171561034f57600080fd5b509092509050610b1d565b6040805160208082528351818301528351919283929083019185019080838360005b8381101561039457818101518382015260200161037c565b50505050905090810190601f1680156103c15780820380516001836020036101000a031916815260200191505b509250505060405180910390f35b61026f610be7565b6104b6600480360360c08110156103ed57600080fd5b810190602081018135600160201b81111561040757600080fd5b82018360208201111561041957600080fd5b803590602001918460018302840111600160201b8311171561043a57600080fd5b919390928235926020810135926001600160a01b0360408301351692606083013515159260a081019060800135600160201b81111561047857600080fd5b82018360208201111561048a57600080fd5b803590602001918460018302840111600160201b831117156104ab57600080fd5b509092509050610c4c565b6040805192835260208301919091528051918290030190f35b61026f610fba565b610248611028565b61026f611098565b610248600480360360208110156104fd57600080fd5b50356001600160a01b03166110f9565b61026f611204565b6102486004803603602081101561052b57600080fd5b50356001600160a01b031661126b565b6102486004803603606081101561055157600080fd5b81359190810190604081016020820135600160201b81111561057257600080fd5b82018360208201111561058457600080fd5b803590602001918460018302840111600160201b831117156105a557600080fd5b919390929091602081019035600160201b8111156105c257600080fd5b8201836020820111156105d457600080fd5b803590602001918460018302840111600160201b831117156105f557600080fd5b5090925090506112d0565b6102486004803603602081101561061657600080fd5b50356001600160a01b0316611457565b61026f6114bc565b610248611523565b61026f61159e565b61026f611601565b61026f611662565b61026f6116c4565b6102086116d3565b6106666116e3565b60408051918252519081900360200190f35b61026f6116e9565b61026f611758565b6102486117c8565b610248600480360360208110156106a657600080fd5b50356001600160a01b0316611849565b600080546001600160a01b03166106cb6118e0565b6001600160a01b03161490505b90565b600454600160a01b900460ff16156107245760405162461bcd60e51b815260040180806020018281038252602581526020018061225b6025913960400191505060405180910390fd5b6000828152600660205260409020600401546001600160a01b0316331461077c5760405162461bcd60e51b81526004018080602001828103825260288152602001806122336028913960400191505060405180910390fd5b60008281526006602090815260409182902060040180546001600160a01b0385166001600160a01b03199091168117909155825185815233928101929092528183015290517f26e141bfb3d0c4d6d4b0d62ac2aadc79b7253baac458825b1b27ff31e133023b9181900360600190a15050565b6107f7610a79565b6108325760405162461bcd60e51b81526004018080602001828103825260438152602001806123786043913960600191505060405180910390fd5b600454600160a01b900460ff161561087b5760405162461bcd60e51b815260040180806020018281038252602581526020018061225b6025913960400191505060405180910390fd5b600855565b6002546040805163349f642f60e11b81526020600482018190526009602483015268656c656374696f6e7360b81b604483015291516000936001600160a01b03169263693ec85e9260648082019391829003018186803b1580156108e357600080fd5b505afa1580156108f7573d6000803e3d6000fd5b505050506040513d602081101561090d57600080fd5b5051905090565b6004546001600160a01b0316331461095d5760405162461bcd60e51b815260040180806020018281038252602981526020018061245e6029913960400191505060405180910390fd5b600454610972906001600160a01b03166118e4565b600480546001600160a01b0319169055565b61098c6106b6565b6109c75760405162461bcd60e51b81526004018080602001828103825260418152602001806122806041913960600191505060405180910390fd5b600080546040516001600160a01b03909116907f7e8c4fc74f50849b4ec635ed03f5d13f87cd46ae422e97479704c6fd1c164e20908390a3600080546001600160a01b0319169055565b6000546001600160a01b031690565b600454600160a01b900460ff1615610a695760405162461bcd60e51b815260040180806020018281038252602581526020018061225b6025913960400191505060405180910390fd5b610a74838383611985565b505050565b6003546000906001600160a01b03166106cb6118e0565b610a98610a79565b610ad35760405162461bcd60e51b81526004018080602001828103825260438152602001806123786043913960600191505060405180910390fd5b6003546040516000916001600160a01b0316907f322ef0cb3bcc6b6f659770a0acaf7473e9bc6ebe63e04e4f28924c285c8cc5ea908390a3600380546001600160a01b0319169055565b6060600660008581526020019081526020016000206007018383604051808383808284379190910194855250506040805160209481900385018120805460026001821615610100026000190190911604601f81018790048702830187019093528282529094909350909150830182828015610bd95780601f10610bae57610100808354040283529160200191610bd9565b820191906000526020600020905b815481529060010190602001808311610bbc57829003601f168201915b505050505090509392505050565b6002546040805163349f642f60e11b8152602060048201819052600b60248301526a64656c65676174696f6e7360a81b604483015291516000936001600160a01b03169263693ec85e9260648082019391829003018186803b1580156108e357600080fd5b6004546000908190600160a01b900460ff1615610c9a5760405162461bcd60e51b815260040180806020018281038252602581526020018061225b6025913960400191505060405180910390fd5b3360009081526005602052604090205460ff16610cfe576040805162461bcd60e51b815260206004820181905260248201527f6d75737420626520616e20617574686f72697a65642073756273637269626572604482015290519081900360640190fd5b610d06611662565b6001600160a01b0316638b8c310585856040518363ffffffff1660e01b815260040180806020018281038252848482818152602001925080828437600083820152604051601f909101601f191690920195506020945090925050508083038186803b158015610d7457600080fd5b505afa158015610d88573d6000803e3d6000fd5b505050506040513d6020811015610d9e57600080fd5b50511515600114610df6576040805162461bcd60e51b815260206004820152601960248201527f4e6f2073756368206465706c6f796d656e742073756273657400000000000000604482015290519081900360640190fd5b6007805460018101909155610e096120e4565b6040518060e001604052808d8d8080601f01602080910402602001604051908101604052809392919081815260200183838082843760009201919091525050509082525060208082018d905242604080840182905260085490910160608401526001600160a01b038c1660808401528051601f8a0183900483028101830190915288815260a090920191908990899081908401838280828437600092018290525093855250505089151560209283015284815260068252604090208251805193945084939192610ede9284929091019061212c565b506020828101516001830155604083015160028301556060830151600383015560808301516004830180546001600160a01b0319166001600160a01b0390921691909117905560a08301518051610f3b926005850192019061212c565b5060c091909101516006909101805460ff1916911515919091179055604080518381526001600160a01b038a16602082015281517ffd2d9b129327e604cf49ebc3c8dbb4f0d6842573fae4a9bdf567b69abc4f7e09929181900390910190a1610fa5828a8a611985565b60600151909b909a5098505050505050505050565b6002546040805163349f642f60e11b815260206004820181905260146024830152731cdd185ada5b99d4995dd85c991cd5d85b1b195d60621b604483015291516000936001600160a01b03169263693ec85e9260648082019391829003018186803b1580156108e357600080fd5b6001546001600160a01b031633146110715760405162461bcd60e51b815260040180806020018281038252602881526020018061232f6028913960400191505060405180910390fd5b600154611086906001600160a01b0316611ea4565b600180546001600160a01b0319169055565b6002546040805163349f642f60e11b815260206004820181905260076024830152667374616b696e6760c81b604483015291516000936001600160a01b03169263693ec85e9260648082019391829003018186803b1580156108e357600080fd5b611101610a79565b61113c5760405162461bcd60e51b81526004018080602001828103825260438152602001806123786043913960600191505060405180910390fd5b600454600160a01b900460ff16156111855760405162461bcd60e51b815260040180806020018281038252602581526020018061225b6025913960400191505060405180910390fd5b6001600160a01b0381166111e0576040805162461bcd60e51b815260206004820152601c60248201527f6d7573742070726f7669646520612076616c6964206164647265737300000000604482015290519081900360640190fd5b6001600160a01b03166000908152600560205260409020805460ff19166001179055565b6002546040805163349f642f60e11b8152602060048201819052600d60248301526c737562736372697074696f6e7360981b604483015291516000936001600160a01b03169263693ec85e9260648082019391829003018186803b1580156108e357600080fd5b611273610a79565b6112ae5760405162461bcd60e51b81526004018080602001828103825260438152602001806123786043913960600191505060405180910390fd5b600480546001600160a01b0319166001600160a01b0392909216919091179055565b600454600160a01b900460ff16156113195760405162461bcd60e51b815260040180806020018281038252602581526020018061225b6025913960400191505060405180910390fd5b6000858152600660205260409020600401546001600160a01b031633146113715760405162461bcd60e51b81526004018080602001828103825260288152602001806123bb6028913960400191505060405180910390fd5b8181600660008881526020019081526020016000206007018686604051808383808284378083019250505092505050908152602001604051809103902091906113bb9291906121aa565b507f3cfcbd4f573824bce797779e16c5edde336e18ef52a7442f914bdfbf5e3800cb85858585856040518086815260200180602001806020018381038352878782818152602001925080828437600083820152601f01601f191690910184810383528581526020019050858580828437600083820152604051601f909101601f1916909201829003995090975050505050505050a15050505050565b61145f6106b6565b61149a5760405162461bcd60e51b81526004018080602001828103825260418152602001806122806041913960600191505060405180910390fd5b600180546001600160a01b0319166001600160a01b0392909216919091179055565b6002546040805163349f642f60e11b8152602060048201819052600d60248301526c31b2b93a34b334b1b0ba34b7b760991b604483015291516000936001600160a01b03169263693ec85e9260648082019391829003018186803b1580156108e357600080fd5b61152b6106b6565b6115665760405162461bcd60e51b81526004018080602001828103825260418152602001806122806041913960600191505060405180910390fd5b6004805460ff60a01b191690556040517f19aad37188a1d3921e29eb3c66acf43d81975e107cb650d58cca878627955fd690600090a1565b6002546040805163349f642f60e11b81526020600482018190526009602483015268636f6d6d697474656560b81b604483015291516000936001600160a01b03169263693ec85e9260648082019391829003018186803b1580156108e357600080fd5b6002546040805163349f642f60e11b815260206004820181905260076024830152667265776172647360c81b604483015291516000936001600160a01b03169263693ec85e9260648082019391829003018186803b1580156108e357600080fd5b6002546040805163349f642f60e11b815260206004820181905260086024830152671c1c9bdd1bd8dbdb60c21b604483015291516000936001600160a01b03169263693ec85e9260648082019391829003018186803b1580156108e357600080fd5b6003546001600160a01b031690565b600454600160a01b900460ff1681565b60085490565b6002546040805163349f642f60e11b8152602060048201819052601560248301527433bab0b93234b0b739a932b3b4b9ba3930ba34b7b760591b604483015291516000936001600160a01b03169263693ec85e9260648082019391829003018186803b1580156108e357600080fd5b6002546040805163349f642f60e11b81526020600482018190526016602483015275189bdbdd1cdd1c985c14995dd85c991cd5d85b1b195d60521b604483015291516000936001600160a01b03169263693ec85e9260648082019391829003018186803b1580156108e357600080fd5b6117d06106b6565b61180b5760405162461bcd60e51b81526004018080602001828103825260418152602001806122806041913960600191505060405180910390fd5b6004805460ff60a01b1916600160a01b1790556040517f0f2e5b6c72c6a4491efd919a9f9a409f324ef0708c11ee57d410c2cb06c0992b90600090a1565b6118516106b6565b61188c5760405162461bcd60e51b81526004018080602001828103825260418152602001806122806041913960600191505060405180910390fd5b600280546001600160a01b0383166001600160a01b0319909116811790915560408051918252517ffea2d033438b968078a6264409d0104b5f3d2ce7b795afc74918e70f3534f22b9181900360200190a150565b3390565b6001600160a01b0381166119295760405162461bcd60e51b81526004018080602001828103825260388152602001806122c16038913960400191505060405180910390fd5b6003546040516001600160a01b038084169216907f322ef0cb3bcc6b6f659770a0acaf7473e9bc6ebe63e04e4f28924c285c8cc5ea90600090a3600380546001600160a01b0319166001600160a01b0392909216919091179055565b60008381526006602052604081209061199c611601565b600954604080516323b872dd60e01b81523360048201523060248201526044810188905290519293506001600160a01b03909116916323b872dd916064808201926020929091908290030181600087803b1580156119f957600080fd5b505af1158015611a0d573d6000803e3d6000fd5b505050506040513d6020811015611a2357600080fd5b5051611a605760405162461bcd60e51b81526004018080602001828103825260458152602001806123e36045913960600191505060405180910390fd5b6009546040805163095ea7b360e01b81526001600160a01b038481166004830152602482018890529151919092169163095ea7b39160448083019260209291908290030181600087803b158015611ab657600080fd5b505af1158015611aca573d6000803e3d6000fd5b505050506040513d6020811015611ae057600080fd5b5051611b1d5760405162461bcd60e51b81526004018080602001828103825260368152602001806122f96036913960400191505060405180910390fd5b600682015460ff1615611ba557806001600160a01b031663a72cadf485846001015485600201546040518463ffffffff1660e01b8152600401808481526020018381526020018281526020019350505050600060405180830381600087803b158015611b8857600080fd5b505af1158015611b9c573d6000803e3d6000fd5b50505050611c1c565b806001600160a01b031663d44afc4385846001015485600201546040518463ffffffff1660e01b8152600401808481526020018381526020018281526020019350505050600060405180830381600087803b158015611c0357600080fd5b505af1158015611c17573d6000803e3d6000fd5b505050505b6001820154611c5990611c4890611c3c8762278d0063ffffffff611f4416565b9063ffffffff611fa616565b60028401549063ffffffff611fe816565b60028084018290556003840154604080518981526020810183905290810184905260a06060820181815287546000196101006001831615020116949094049082018190527f420aa81e9e69b55990d84a450cbff50b94e2a9795e952eec25f1a353a0864de2948a9490928892600584019290608083019060c084019086908015611d245780601f10611cf957610100808354040283529160200191611d24565b820191906000526020600020905b815481529060010190602001808311611d0757829003601f168201915b5050838103825284546002600019610100600184161502019091160480825260209091019085908015611d985780601f10611d6d57610100808354040283529160200191611d98565b820191906000526020600020905b815481529060010190602001808311611d7b57829003601f168201915b505097505050505050505060405180910390a17f75a4140b6ae1ef6418386e45d31580c6494e47cb013ade99d9f794c757f3550485848685600001866001015460405180868152602001856001600160a01b03166001600160a01b0316815260200184815260200180602001838152602001828103825284818154600181600116156101000203166002900481526020019150805460018160011615610100020316600290048015611e8b5780601f10611e6057610100808354040283529160200191611e8b565b820191906000526020600020905b815481529060010190602001808311611e6e57829003601f168201915b5050965050505050505060405180910390a15050505050565b6001600160a01b038116611ee95760405162461bcd60e51b81526004018080602001828103825260368152602001806124286036913960400191505060405180910390fd5b600080546040516001600160a01b03808516939216917f7e8c4fc74f50849b4ec635ed03f5d13f87cd46ae422e97479704c6fd1c164e2091a3600080546001600160a01b0319166001600160a01b0392909216919091179055565b600082611f5357506000611fa0565b82820282848281611f6057fe5b0414611f9d5760405162461bcd60e51b81526004018080602001828103825260218152602001806123576021913960400191505060405180910390fd5b90505b92915050565b6000611f9d83836040518060400160405280601a81526020017f536166654d6174683a206469766973696f6e206279207a65726f000000000000815250612042565b600082820183811015611f9d576040805162461bcd60e51b815260206004820152601b60248201527f536166654d6174683a206164646974696f6e206f766572666c6f770000000000604482015290519081900360640190fd5b600081836120ce5760405162461bcd60e51b81526004018080602001828103825283818151815260200191508051906020019080838360005b8381101561209357818101518382015260200161207b565b50505050905090810190601f1680156120c05780820380516001836020036101000a031916815260200191505b509250505060405180910390fd5b5060008385816120da57fe5b0495945050505050565b6040518060e001604052806060815260200160008152602001600081526020016000815260200160006001600160a01b03168152602001606081526020016000151581525090565b828054600181600116156101000203166002900490600052602060002090601f016020900481019282601f1061216d57805160ff191683800117855561219a565b8280016001018555821561219a579182015b8281111561219a57825182559160200191906001019061217f565b506121a6929150612218565b5090565b828054600181600116156101000203166002900490600052602060002090601f016020900481019282601f106121eb5782800160ff1982351617855561219a565b8280016001018555821561219a579182015b8281111561219a5782358255916020019190600101906121fd565b6106d891905b808211156121a6576000815560010161221e56fe6f6e6c7920746865207663206f776e65722063616e207472616e73666572206f776e657273686970636f6e7472616374206973206c6f636b656420666f722074686973206f7065726174696f6e57697468436c61696d61626c654d6967726174696f6e4f776e6572736869703a2063616c6c6572206973206e6f7420746865206d6967726174696f6e4f776e657246756e6374696f6e616c4f776e65723a206e65772066756e6374696f6e616c4f776e657220697320746865207a65726f20616464726573736661696c656420746f20617070726f7665207265776172647320746f206163717569726520737562736372697074696f6e206665657343616c6c6572206973206e6f74207468652070656e64696e67206d6967726174696f6e4f776e6572536166654d6174683a206d756c7469706c69636174696f6e206f766572666c6f7757697468436c61696d61626c6546756e6374696f6e616c4f776e6572736869703a2063616c6c6572206973206e6f74207468652066756e6374696f6e616c4f776e65726f6e6c79207663206f776e65722063616e20736574206120766320636f6e666967207265636f72646661696c656420746f207472616e7366657220737562736372697074696f6e20666565732066726f6d207375627363726962657220746f20737562736372697074696f6e734d6967726174696f6e4f776e65723a206e6577206d6967726174696f6e4f776e657220697320746865207a65726f206164647265737343616c6c6572206973206e6f74207468652070656e64696e672066756e6374696f6e616c4f776e6572a265627a7a723158207258fbe1f1329cda9e59b95fa36e47d6ea7c72d3c019740b85f556c17a1e4e4c64736f6c63430005100032",
  "source": "pragma solidity 0.5.16;\n\nimport \"@openzeppelin/contracts/math/SafeMath.sol\";\nimport \"./spec_interfaces/ISubscriptions.sol\";\nimport \"./spec_interfaces/IProtocol.sol\";\nimport \"./ContractRegistryAccessor.sol\";\nimport \"./WithClaimableFunctionalOwnership.sol\";\n\ncontract Subscriptions is ISubscriptions, ContractRegistryAccessor, WithClaimableFunctionalOwnership, Lockable {\n    using SafeMath for uint256;\n\n    enum CommitteeType {\n        General,\n        Certification\n    }\n\n    struct VirtualChain {\n        string tier;\n        uint256 rate;\n        uint expiresAt;\n        uint256 genRefTime;\n        address owner;\n        string deploymentSubset;\n        bool isCertified;\n\n        mapping (string => string) configRecords;\n    }\n\n    mapping (address => bool) authorizedSubscribers;\n    mapping (uint => VirtualChain) virtualChains;\n\n    uint nextVcid;\n    uint genesisRefTimeDelay;\n\n    IERC20 erc20;\n\n    constructor (IERC20 _erc20) public {\n        require(address(_erc20) != address(0), \"erc20 must not be 0\");\n\n        nextVcid = 1000000;\n        genesisRefTimeDelay = 3 hours;\n        erc20 = _erc20;\n    }\n\n    function setVcConfigRecord(uint256 vcid, string calldata key, string calldata value) external onlyWhenActive {\n        require(msg.sender == virtualChains[vcid].owner, \"only vc owner can set a vc config record\");\n        virtualChains[vcid].configRecords[key] = value;\n        emit VcConfigRecordChanged(vcid, key, value);\n    }\n\n    function getVcConfigRecord(uint256 vcid, string calldata key) external view returns (string memory) {\n        return virtualChains[vcid].configRecords[key];\n    }\n\n    function addSubscriber(address addr) external onlyFunctionalOwner onlyWhenActive {\n        require(addr != address(0), \"must provide a valid address\");\n        // todo: emit event\n        authorizedSubscribers[addr] = true;\n    }\n\n    function createVC(string calldata tier, uint256 rate, uint256 amount, address owner, bool isCertified, string calldata deploymentSubset) external onlyWhenActive returns (uint, uint) {\n        require(authorizedSubscribers[msg.sender], \"must be an authorized subscriber\");\n        require(getProtocolContract().deploymentSubsetExists(deploymentSubset) == true, \"No such deployment subset\");\n\n        uint vcid = nextVcid++;\n        VirtualChain memory vc = VirtualChain({\n            expiresAt: block.timestamp,\n            genRefTime: now + genesisRefTimeDelay,\n            owner: owner,\n            tier: tier,\n            rate: rate,\n            deploymentSubset: deploymentSubset,\n            isCertified: isCertified\n        });\n        virtualChains[vcid] = vc;\n\n        emit VcCreated(vcid, owner);\n\n        _extendSubscription(vcid, amount, owner);\n        return (vcid, vc.genRefTime);\n    }\n\n    function extendSubscription(uint256 vcid, uint256 amount, address payer) external onlyWhenActive {\n        _extendSubscription(vcid, amount, payer);\n    }\n\n    function setVcOwner(uint256 vcid, address owner) external onlyWhenActive {\n        require(msg.sender == virtualChains[vcid].owner, \"only the vc owner can transfer ownership\");\n\n        virtualChains[vcid].owner = owner;\n        emit VcOwnerChanged(vcid, msg.sender, owner);\n    }\n\n    function _extendSubscription(uint256 vcid, uint256 amount, address payer) private {\n        VirtualChain storage vc = virtualChains[vcid];\n\n        IRewards rewardsContract = getRewardsContract();\n        require(erc20.transferFrom(msg.sender, address(this), amount), \"failed to transfer subscription fees from subscriber to subscriptions\");\n        require(erc20.approve(address(rewardsContract), amount), \"failed to approve rewards to acquire subscription fees\");\n        if (vc.isCertified) {\n            rewardsContract.fillCertificationFeeBuckets(amount, vc.rate, vc.expiresAt);\n        } else {\n            rewardsContract.fillGeneralFeeBuckets(amount, vc.rate, vc.expiresAt);\n        }\n        vc.expiresAt = vc.expiresAt.add(amount.mul(30 days).div(vc.rate));\n\n        emit SubscriptionChanged(vcid, vc.genRefTime, vc.expiresAt, vc.tier, vc.deploymentSubset);\n        emit Payment(vcid, payer, amount, vc.tier, vc.rate);\n    }\n\n    function setGenesisRefTimeDelay(uint256 newGenesisRefTimeDelay) external onlyFunctionalOwner onlyWhenActive {\n        genesisRefTimeDelay = newGenesisRefTimeDelay;\n    }\n\n    function getGenesisRefTimeDelay() external view returns (uint) {\n        return genesisRefTimeDelay;\n    }\n}\n",
  "sourcePath": "/Users/aviramstern/GolandProjects/orbs-ethereum-contracts-v2/contracts/Subscriptions.sol",
  "compiler": {
    "name": "solc",
    "version": "0.5.16+commit.9c3226ce.Emscripten.clang"
  },
  "schemaVersion": "3.0.23",
  "updatedAt": "2020-08-06T21:58:43.813Z",
  "devdoc": {
    "methods": {
      "claimFunctionalOwnership()": {
        "details": "Allows the pendingFunctionalOwner address to finalize the transfer."
      },
      "claimMigrationOwnership()": {
        "details": "Allows the pendingMigrationOwner address to finalize the transfer."
      },
      "functionalOwner()": {
        "details": "Returns the address of the current functionalOwner."
      },
      "isFunctionalOwner()": {
        "details": "Returns true if the caller is the current functionalOwner."
      },
      "isMigrationOwner()": {
        "details": "Returns true if the caller is the current migrationOwner."
      },
      "migrationOwner()": {
        "details": "Returns the address of the current migrationOwner."
      },
      "renounceFunctionalOwnership()": {
        "details": "Leaves the contract without functionalOwner. It will not be possible to call `onlyOwner` functions anymore. Can only be called by the current functionalOwner.     * NOTE: Renouncing functionalOwnership will leave the contract without an functionalOwner, thereby removing any functionality that is only available to the functionalOwner."
      },
      "renounceMigrationOwnership()": {
        "details": "Leaves the contract without migrationOwner. It will not be possible to call `onlyOwner` functions anymore. Can only be called by the current migrationOwner.     * NOTE: Renouncing migrationOwnership will leave the contract without an migrationOwner, thereby removing any functionality that is only available to the migrationOwner."
      },
      "transferFunctionalOwnership(address)": {
        "details": "Allows the current functionalOwner to set the pendingOwner address.",
        "params": {
          "newFunctionalOwner": "The address to transfer functionalOwnership to."
        }
      },
      "transferMigrationOwnership(address)": {
        "details": "Allows the current migrationOwner to set the pendingOwner address.",
        "params": {
          "newMigrationOwner": "The address to transfer migrationOwnership to."
        }
      }
    }
  },
  "userdoc": {
    "methods": {}
  }
}